:020000040800F2
:10000000380600209D010008F72100080F20000895
:10001000F521000865040008C92800080000000058
:100020000000000000000000000000001322000893
:10003000D304000800000000112200081522000867
:10004000B7010008B7010008B7010008B7010008B0
:10005000B7010008B7010008B7010008B7010008A0
:10006000B7010008B7010008B7010008B701000890
:10007000B7010008B7010008B7010008B701000880
:10008000B7010008B701000811030008B701000814
:10009000B7010008B7010008B7010008B701000860
:1000A000B7010008B7010008B7010008B701000850
:1000B000B7010008B7010008B7010008B701000840
:1000C000B7010008B7010008B7010008B701000830
:1000D000B7010008B7010008B7010008B701000820
:1000E000B7010008B7010008B7010008B701000810
:1000F000B7010008B7010008B7010008B701000800
:10010000B7010008B7010008B7010008B7010008EF
:10011000B7010008B7010008B7010008B7010008DF
:10012000B7010008B7010008B7010008B7010008CF
:10013000B7010008B7010008B7010008B7010008BF
:10014000B7010008B7010008B7010008B7010008AF
:10015000B7010008B7010008B701000869280008C6
:10016000B7010008B7010008B7010008B70100088F
:10017000B7010008B7010008B7010008000000003F
:10018000B7010008B7010008DFF80CD000F07AF8DA
:1001900000480047C9290008380600200648804763
:1001A00006480047FEE7FEE7FEE7FEE7FEE7FEE75C
:1001B000FEE7FEE7FEE7FEE7AD2200088901000842
:1001C0002DE9F05F0546002092469B46884606468C
:1001D000814640241BE0284641464746224600F01F
:1001E00041F853465A46C01A914110D31146184659
:1001F000224600F028F82D1A67EB01084F462246E8
:100200000120002100F01FF817EB00094E41201ECD
:10021000A4F10104DFDC484631462A464346BDE8E6
:10022000F09FD2B201E000F8012B491EFBD27047CB
:100230000022F6E710B513460A4604461946FFF7B2
:10024000F0FF204610BD202A04DB203A00FA02F11C
:10025000002070479140C2F1200320FA03F31943B4
:1002600090407047202A04DB203A21FA02F0002156
:10027000704721FA02F3D040C2F1200291400843B6
:1002800019467047064C074D06E0E06840F0010350
:1002900094E8070098471034AC42F6D3FFF778FF94
:1002A000C82A0008E82A00081FB516480024C470B0
:1002B000154800F005FD144800940194029403943D
:1002C000047680F820404FF08051C162012449102B
:1002D000C461816200F037FB08B100F0FBF8062032
:1002E000CDE9000402906946074800F0C3F908B15F
:1002F00000F0F0F8054801F045FA034800F05AFC18
:100300001FBD00001800002044000020D400002081
:10031000014800F081BA000044000020464910B5B1
:100320004A6822F440324A604A6843681A434A6085
:1003300001684A6822F480724A6001684A68036969
:1003400042EA03224A6001684A6822F040724A6029
:1003500001684A6883681A434A6001688A6822F41F
:1003600000628A6001688A68C3681A438A60816A89
:100370006FF07062D14201688A6822F070628A6010
:1003800001688A680CD0836A1A438A6001688A68A7
:1003900022F040528A6001688A68C36A1A4301E009
:1003A00022F040528A6001688A6822F002028A6064
:1003B00001688A68037E42EA43028A6090F820104E
:1003C000002901684A680FD042F400624A6001685F
:1003D0004A6822F460424A6001684A68174C436ADE
:1003E00004EB43331A4301E022F400624A600168DF
:1003F000CA6A22F47002CA620168CA6A838B104C0E
:1004000004EB03531A43CA6201688A6822F400723B
:100410008A6001688A6890F8303042EA43228A6034
:1004200001688A6822F480628A6001688A6840698B
:1004300042EA8020886010BD0023014000E0FFFFF9
:100440000000F0FF10B5064800F036FB0521044817
:1004500000F0DCFA024800F0DCF980B210BD0000C8
:1004600044000020FEE7000030B50022C1B2114C6C
:10047000C0F1630305E000BF34F81150491C2A4461
:10048000C9B28B42F8DA4042642101EB4000B2FB72
:10049000F0F0094900EE100A0881B8EE400AD1EDEB
:1004A000030A20EE200ADFED050A20EE200A81ED86
:1004B000040A30BD6E0100201800002000008039C1
:1004C000012803D0002803D101F09CBE01F094BEA6
:1004D0007047704772B6FEE711B581B002208DF803
:1004E00000004FF6FF74234604220849084801F033
:1004F0003DFD234601226946054801F037FD2346AC
:10050000012201A9024801F031FD1CBD14000020A8
:100510001C0100201FB5002106228DF800108DF867
:1005200004208DF808108DF80C004FF6FF74234658
:1005300004220E490E4801F019FD234601226946A6
:100540000B4801F013FD2346012201A9084801F0E0
:100550000DFD2346012202A9054801F007FD2346AF
:10056000012203A9024801F001FD1FBD1000002077
:100570001C0100201FB500218DF800108DF804101B
:100580008DF808108DF80C004FF6FF7423460422F6
:100590000E490F4801F0EAFC2346012269460C4847
:1005A00001F0E4FC2346012201A9094801F0DEFC28
:1005B0002346012202A9064801F0D8FC2346012265
:1005C00003A9034801F0D2FC1FBD00001000002069
:1005D0001C0100201FB500218DF8001004228DF8A9
:1005E00008108DF80C004FF6FF748DF80420234698
:1005F0000E490F4801F0BAFC2346012269460C4817
:1006000001F0B4FC2346012201A9094801F0AEFC27
:100610002346012202A9064801F0A8FC2346012234
:1006200003A9034801F0A2FC1FBD00001000002038
:100630001C01002010B502F067F90A490988DFEDB6
:100640000A0A00EE101AB8EE400A60EE200A00EE28
:10065000100A0648B8EE400A80EE801A80ED031AB0
:1006600010BD00002A7AFF1F3333534018000020CA
:100670007047000078B50024009490F83C20012ACF
:1006800019D0012280F83C200A6807230568092A4E
:1006900013D9EE680A3A02EB420293409E43EE60A1
:1006A0000B788A680A3B03EB43039A400368DD68D2
:1006B0002A43DA6010E0022078BD2E6902EB420284
:1006C00093409E432E610B788A6803EB43039A4064
:1006D00003681D692A431A614A681F23072A13D237
:1006E00005686E6B521E02EB820293409E436E635E
:1006F0000B790A885B1E92B203EB83039A4003686E
:100700005D6B2A435A6327E005680D2A12D22E6BCF
:10071000D21F02EB820293409E432E630B790A881C
:10072000DB1F92B203EB83039A4003681D6B2A43DD
:100730001A6311E0EE6A0D3A02EB820293409E4387
:10074000EE620B790A880D3B92B203EB83039A4069
:100750000368DD6A2A43DA62164B0568144A9D4233
:1007600006D10D68122D03D1556845F480055560FA
:1007700005689D4218D10B68102B01D0112B13D1A5
:10078000536843F400035360096810290CD10A49E7
:100790000A4A0968B1FBF2F101EB8101490000E06E
:1007A000491E00910029FBD180F83C40002078BD13
:1007B00000230140002001400C00002040420F00B7
:1007C00010B500680E49884216D10E4800F021F895
:1007D0000E4C0D4AE178632922F811000DD3002058
:1007E000E0706421104602F0B1F80520FFF73CFEEE
:1007F00002F040F80120A07010BD491CE17010BD4E
:1008000000200140440000206E010020180000205C
:1008100070470068C06C704770B504460068066891
:10082000456816F0020F05F020012AD049B3216C6B
:10083000C90603D4216C41F400712164816811F070
:10084000405F17D1217EA9B9C16A11F4700F02D09F
:10085000816849050ED4416821F020014160206C77
:1008600020F480702064206CC00403D4206C40F01D
:10087000010020642046FFF7A3FF21686FF01200FB
:10088000086016F0040F05F0800132D089B3206CA7
:10089000C00603D4206C40F40050206420688168B6
:1008A00011F4401F1ED1816B11F4401F02D08168EA
:1008B000490517D44168490514D4816811F0405F97
:1008C00010D1217E71B9416821F080014160206C16
:1008D00020F480502064206CC00503D4206C40F0CC
:1008E000010020642046FFF7C3FE21686FF00C0072
:1008F000086016F0010F05F040010FD071B12068BB
:100900000068C0070AD0206C40F480302064204684
:1009100000F043F821686FF00100086016F0200F26
:1009200005F080610ED000290CD0606C40F0020010
:10093000606420686FF0200505602046FFF768FFBF
:100940002068056070BD70B504004FF0000503D04D
:10095000206C002610B107E0012070BD204600F099
:100960001DF8666484F83C60206CC00610D4206CCE
:1009700020F4885040F0020020642046FFF7CEFCAF
:100980006664206C20F0020040F00100206400E06A
:10099000012584F83C60284670BD704710B586B0CC
:1009A000044614216846FFF743FC15492068884235
:1009B00024D114480021026842F480720260006869
:1009C00000F4807005900F481438026842F001026C
:1009D0000260006800F001000590402000900320B4
:1009E000CDE901016946084800F0EAF90022022138
:1009F000122000F04DFB122000F03CFB06B010BDB1
:100A00000020014044380240000002402DE9F0413E
:100A1000044600680D4681684FF0000749050BD574
:100A20008068C00508D5206C40F02000206484F860
:100A30003C700120BDE8F08100F0BAFA064613E0F0
:100A4000681C11D025B100F0B3FA801BA8420BD965
:100A500020680068800707D4206C40F00400206400
:100A600084F83C700320E5E7206800688007E7D53C
:100A700021686FF012000860206C40F40070206460
:100A80002068816811F0405F13D1217E89B9C16A65
:100A900011F4700F02D0806840050AD4206C20F455
:100AA00080702064206CC00403D4206C40F00100EE
:100AB00020640020BEE7000018B50021009190F8E6
:100AC0003C20012A07D0012280F83C20026893686C
:100AD000DB0702D011E0022018BD936843F0010348
:100AE00093602E4A2E4B1268B2FBF3F202EB4202E5
:100AF00000E0521E0092002AFBD102689368DB07D7
:100B000042D0036C40F20164A34343F48073036456
:100B100053685B0505D5036C23F4005343F48053FD
:100B20000364036CDB0404D5436C23F006034364C5
:100B300000E0416480F83C101A496FF02203136012
:100B400049680068CA06184906D0884224D18168DD
:100B500011F0405F13D01FE08842F8D0134A904252
:100B600003D1D1F80423D206F1D0114A904213D117
:100B7000D1F8041301F01F011029E8D30CE08168BB
:100B800041F08041816007E0016C41F01001016497
:100B9000416C41F001014164002018BD0C000020AF
:100BA00040420F000023014000200140002101408D
:100BB0000022014018B50021009190F83C20012A44
:100BC00007D0012280F83C2002689368DB0702D03E
:100BD00011E0022018BD936843F001039360314A8D
:100BE000314B1268B2FBF3F202EB420200E0521EFC
:100BF0000092002AFBD102689368DB0747D0036CA0
:100C000040F20164A34343F48073036453685B05BB
:100C100005D5036C23F4005343F480530364036C41
:100C2000DB0404D5436C23F00603436400E0416415
:100C300080F83C101D4B6FF02201116001684A687A
:100C40001B4C22434A6059680068CA06194906D0FD
:100C5000884224D1816811F0405F13D01FE08842A0
:100C6000F8D0154A904203D1D1F80423D206F1D02E
:100C7000124A904213D1D1F8041301F01F01102938
:100C8000E8D30CE0816841F08041816007E0016CAD
:100C900041F010010164416C41F001014164002008
:100CA00018BD00000C00002040420F00002301404E
:100CB00020000004002001400021014000220140EA
:100CC00090F83C1001290CD0012180F83C100168FB
:100CD0008A6822F001028A6001688A68D20702D01D
:100CE0000BE0022070474A68064B1A404A60016CCC
:100CF00021F4885141F001010164002180F83C1089
:100D000008467047DFFFFFFB2DE9F0410446876D81
:100D100000F04EF9064694F835000025022806D06A
:100D20008020606584F834500120BDE8F08120689F
:100D3000016821F0160101602068416921F08001FD
:100D40004161206C08B9A06C20B12068016821F0D5
:100D5000080101602068016821F0010101600CE0D8
:100D600000F026F9801B052807D9202060650320A4
:100D700084F8350084F83450D7E720680068C0074D
:100D8000EED194F85C103F208840B860012084F8D0
:100D9000350084F834500020C7E790F83510022958
:100DA00003D08021416501207047052180F835106E
:100DB0000068016821F00101016000207047000017
:100DC0002DE9F84FDFF8BCA10022012503264FF0E2
:100DD0000F090AF1040BAAF1040E00BF0B6805FA13
:100DE00002F42340A34270D10F7907F00307012FCB
:100DF00001D0022F16D187684FEA420806FA08FC94
:100E000027EA0C07D1F80CC00CFA08FC4CEA070CD6
:100E1000C0F808C04768A7430C79C4F30014944095
:100E20003C4344600C79E443A4070AD0C4684FEA09
:100E3000420C06FA0CF7BC438F6807FA0CF72743FD
:100E4000C7600C7904F00304022C12D1D40800EB23
:100E5000840CDCF820405707FF0E09FA07F824EA53
:100E60000804D1F8108008FA07F848EA0408CCF81A
:100E7000208004684FEA420C06FA0CF7BC430F7955
:100E800007F0030707FA0CF7274307604C6814F4D0
:100E9000403F70D03C4C276847F480472760246867
:100EA00022F0030704F480440094384C07EB040C50
:100EB000DCF8084897074FEA177809FA08F7BC43A7
:100EC000334FB84202D1002724E054E0314FB842FA
:100ED00001D101271EE0304FB84201D1022719E0AD
:100EE0002E4FB84201D1032714E02D4FB84201D153
:100EF00004270FE02B4FB84201D105270AE02A4F03
:100F0000B84201D1062705E0284FB84201D1072792
:100F100000E0082707FA08F72743CCF80878DAF842
:100F200000405746D1F804C09C435FEACC2C00D562
:100F30001C433C60DBF800405F46D1F804C09C4392
:100F40005FEA8C2C00D51C433C60DEF800407746FD
:100F5000D1F804C09C435FEA8C3C00D51C433C6044
:100F6000084F083F3C68D1F804C09C435FEACC3C82
:100F700000D51C433C60521C102AFFF42FAFBDE883
:100F8000F88F0000083C0140443802400030014026
:100F9000000002400004024000080240000C024031
:100FA000001002400014024000180240001C0240E1
:100FB00001488068704700000000002002488168F6
:100FC0000278114481607047000000200B4810B582
:100FD000016841F400710160016841F480610160C1
:100FE000016841F480710160032000F071F8032072
:100FF00000F006F800F024F8002010BD003C02408C
:1010000070B50D4D04464FF47A712878B1FBF0F0BD
:101010000A490968B1FBF0F000F00CFB48B9102C4C
:1010200007D200222146501E00F032F800206C60EA
:1010300070BD012070BD0000000000200C000020E9
:101040000B4882B0016841F480410160006800F4FF
:10105000804000900648001F016841F08051016007
:10106000006800F080500090052002B000F030B819
:1010700044380240002809DB00F01F0201219140A2
:101080004009800000F1E020C0F800117047000026
:10109000F0B40E4B1B680C46C3F30223C3F10705E3
:1010A000042D00D90425191D072901D2002300E0D1
:1010B000DB1E012606FA05F1491E214099409E409B
:1010C000761E16403143F0BC01F0FFBB0CED00E092
:1010D000064900F0070208684FF6FF03184040EA8F
:1010E0000220034A10430860704700000CED00E046
:1010F0000000FA052DE9F0470E46050065D0DFF83F
:101100001481D8F80000F7B200F00700B04207D20F
:1011100088F80070D8F8000000F00700B04254D101
:1011200028683D4C810712D5400703D5206840F45C
:10113000E05020602878000703D5206840F4604024
:1011400020602068A96820F0F0000843206028781B
:10115000C0072DD0304968680839012812D002280C
:1011600013D0032811D00968890700292DDA2168D6
:1011700021F0030101432160FFF71AFF814641F28C
:10118000883A0EE009688903EFE709688901ECE70E
:10119000FFF70EFFA0EB0901514502D90320BDE87E
:1011A000F0872068696800F00C00B0EB810FEFD188
:1011B000D8F80010404601F00701B14207D9077086
:1011C000006800F00700B04201D00120E7E728786E
:1011D000400705D52068E96820F4E0500843206006
:1011E0002878000706D52068296920F4604040EA85
:1011F000C100206000F038F82168084AC1F30311EB
:10120000515CC8400649086006480068FFF7F8FED0
:101210000020C4E7003C024008380240B02A000821
:101220000C000020040000200448054900680968FB
:10123000044AC1F38221515CC84070470C00002071
:1012400008380240C02A00080448054900680968B7
:10125000044AC1F34231515CC84070470C00002081
:1012600008380240C02A0008154810B5006810F080
:101270000C02144813D04110042A0FD0082A0ED1B2
:101280000F4C241F2268236802F03F025B0207D53F
:101290002068C0F38810A0FB010106E0084610BDDD
:1012A0002168C1F38811A1FB00010023FEF788FF2C
:1012B0002168C1F30141491C4900B0FBF1F010BDA8
:1012C000083802400024F4002DE9F84F04006ED0E5
:1012D0002078DFF84C93C007A9F104054AD009F142
:1012E00004000168C1F38101012908D00068C0F33E
:1012F000810002280AD1D9F80000400206D52868EA
:10130000800337D560680028E1D033E06068B0F52D
:10131000803F10D0B0F5A02F286810D020F4803086
:101320002860286820F4802028606068A8B1FFF752
:101330003FFE06460DE0286840F48030F4E740F4B4
:1013400080202860F7E700BFFFF732FE801B64288B
:1013500073D828688003F7D50CE0FFF729FE06460E
:1013600005E000BFFFF724FE801B6428F0D8286842
:101370008003F7D42078DFF8AC8280074FF0000AB2
:101380003ED5A748001D016811F00C0F08D0006879
:10139000C0F3810002280BD1D9F80000400207D425
:1013A0002868800716D5E068012800D112E033E1F3
:1013B000E068B8B10120C8F80000FFF7F9FD064663
:1013C00005E000BFFFF7F4FD801B0228C0D82868A5
:1013D0008007F7D52868216920F0F80040EAC100AD
:1013E00028600DE0C8F800A0FFF7E2FD064604E023
:1013F000FFF7DEFD801B02281FD828688007F7D47E
:101400002078000722D5864F87486169703771B10F
:1014100001210160FFF7CCFD064604E0FFF7C8FD9F
:10142000801B022809D838688007F7D50EE0C0F87D
:1014300000A0FFF7BDFD064605E082E0FFF7B8FD1E
:10144000801B02287DD838688007F7D420784007B1
:1014500068D5DFF8CCB100270BF13C0BDBF80000BE
:10146000C0000BD4DBF8001041F08051CBF8001025
:10147000DBF80000012700F0805000906B4E3068D0
:10148000C00510D4306840F480703060FFF790FDE4
:10149000009005E0FFF78CFD0099401A022850D813
:1014A0003068C005F6D55E4EA0686C3601280FD0B6
:1014B0000528306810D020F001003060306820F03E
:1014C00004003060A068B8B1FFF772FD00900FE033
:1014D000306840F00100F4E740F004003060F7E7C6
:1014E000FFF766FD0099411A41F28830814266D8C3
:1014F00030688007F4D50EE0FFF75AFD009007E052
:10150000FFF756FD0099411A41F28830814256D8C2
:1015100030688007F4D42FB1DBF8001021F080513F
:10152000CBF80010A069C8B33D49091D0968C1F393
:10153000810102294AD00228504607D0C8F860002D
:1015400000E03CE0FFF734FD04463BE04746C8F8C6
:101550006000FFF72DFD064605E000BFFFF728FD00
:10156000801B02282BD828688001F7D4D4E9070112
:101570000843A16A2E4A490802EB0141626A41EA26
:101580008211084394F82C1040EA0161C9F8001058
:1015900001203866FFF70CFD044606E03EE000BF80
:1015A000FFF706FD001B022809D828688001F7D53F
:1015B00034E000BFFFF7FCFC001B022802D9032027
:1015C000BDE8F88F28688001F4D427E00128F7D01F
:1015D000D9F80000E26900F4800191421CD1226A2E
:1015E00000F03F01914217D147F6C071626A014095
:1015F000B1EB821F10D1A26A4FF0FF3300F44031EB
:1016000003EB5202B1EB024F06D194F82C1000F01C
:101610007060B0EB016F01D00120D1E70020CFE76F
:101620000438024000004742800E474200700040EC
:101630000000FFFF10B5401EB0F1807F01D30120F4
:1016400010BD4FF0E02460610F21601701F03DF9FB
:101650000020A06107202061002010BD70B590F827
:101660003C20012A32D0012480F83C40022280F83C
:101670003D2003685A689D6822F070060A6832436C
:101680005A60134B02689A4214D0B2F1804F11D0C5
:10169000104B9A420ED0104B9A420BD00F4B9A42ED
:1016A00008D00F4B9A4205D00E4B9A4202D00E4BF7
:1016B0009A4204D1496825F080031943916080F86B
:1016C0003D40002180F83C10084670BD022070BDEE
:1016D000000001400004004000080040000C0040F1
:1016E00000040140004001400018004010B5040013
:1016F00003D094F83D0010B107E0012010BD002098
:1017000084F83C00204600F01FF8022084F83D00D9
:10171000211D206800F0D2FD012084F8460084F8E5
:101720003E0084F83F0084F8400084F8410084F8CB
:10173000420084F8430084F8440084F8450084F8AB
:101740003D00002010BD000008B501680B48B1F154
:10175000804F0BD00A4A914207D1016841F0020143
:101760000160006800F00200009008BD016841F0CF
:1017700001010160006800F00100F5E74038024017
:101780000004004090F83D10012901D0012070476D
:10179000022180F83D1000681149884214D0B0F150
:1017A000804F11D00F4988420ED00F4988420BD08C
:1017B0000E49884208D00E49884205D00D4988421A
:1017C00002D00D49884204D1816801F00701062941
:1017D00003D0016841F00101016000207047000062
:1017E000000001400004004000080040000C0040E0
:1017F00000040140004001400018004070B504465C
:1018000090F83C000025012817D0012684F83C60A0
:10181000022084F83D002068826822F0770222F4DA
:101820007F4282600868502838D00DDC20284FD0D5
:1018300005DC90B3102811D14AE0022070BD302899
:1018400046D040280AD13BE060282FD070280DD028
:10185000B0F5805F03D0B0F5005F12D0012584F8A9
:101860003D60002084F83C00284670BDCB68D1E97B
:101870000121206800F097FD2068816841F0770120
:1018800009E0CB68D1E90121206800F08CFD2068D7
:10189000816841F480418160E1E719E0CA684968E4
:1018A000206800F055FE5021206806E0CA684968AB
:1018B000206800F05EFE6021206800F07EFDCEE72B
:1018C000CA684968206800F043FE40212068F4E7B8
:1018D000226801461046F0E710B586B00446142190
:1018E0006846FEF7A5FC2068B0F1804F13D10B4885
:1018F000016841F0010101600068012100F0010070
:1019000005900220CDE900100290CDE9030169465F
:101910000348FFF755FA06B010BD0000303802400A
:101920000000024070B5044690F83C0000260D46C9
:1019300001280FD0012084F83C006AB1042A1DD090
:10194000082A2FD00C2A3FD00126002084F83C0022
:10195000304670BD022070BD206800F037FD206861
:10196000816941F0080181612068816921F00401E9
:101970008161206881692A69114311E0206800F0C3
:1019800055FD2068816941F40061816120688169A9
:1019900021F480618161206881692A6941EA02211C
:1019A0008161D2E7206800F077FD2068C16941F0CD
:1019B0000801C1612068C16921F00401C16120688A
:1019C000C1692A69114311E0206800F099FD20687F
:1019D000C16941F40061C1612068C16921F480617D
:1019E000C1612068C1692A6941EA0221C161ACE78D
:1019F00010B5040003D094F83D0010B107E00120B9
:101A000010BD002084F83C00204600F01EF80220A3
:101A100084F83D00211D206800F050FC012084F86E
:101A2000460084F83E0084F83F0084F8400084F8C3
:101A3000410084F8420084F8430084F8440084F8AC
:101A4000450084F83D00002010BD704710B50446E5
:101A5000022249B104290ED0082913D094F841007C
:101A6000012816D0012010BD94F83E000128F9D1BC
:101A700084F83E200FE094F83F000128F2D184F86A
:101A80003F2008E094F840000128EBD184F8402082
:101A900001E084F841200122206800F077FC16491B
:101AA0002068164A884201D0904203D1436C43F427
:101AB000004343642068884213D0B0F1804F10D0B7
:101AC0000F4988420DD00F4988420AD00E498842FA
:101AD00007D0904205D00D49884202D00C49884277
:101AE00004D1816801F00701062903D0016841F0A3
:101AF00001010160002010BD000001400004014010
:101B00000004004000080040000C0040004001407C
:101B10000018004030B504460D460068002200F071
:101B200035FC194B41F2111120688A10984202D0FD
:101B3000164B984209D1036A0B4206D1036A13423D
:101B400003D1436C23F4004343642068036A0B42CF
:101B500006D1016A114203D1016821F0010101603F
:101B600001203DB1042D08D0082D09D084F8410092
:101B7000002030BD84F83E00FAE784F83F00F7E724
:101B800084F84000F4E70000000001400004014038
:101B900070477047F8B5016804460868CA684B6921
:101BA00010F00F0F4FF0000559D003F0010602F4BA
:101BB0009077374365D0C10705D0D10503D5616C57
:101BC00041F001016164410705D5D90703D0616C7B
:101BD00041F002016164810705D5D90703D0616C2A
:101BE00041F004016164010707D502F0200131438F
:101BF00003D0616C41F008016164616C00293AD046
:101C0000800604D5900602D5204600F0F2FC20683C
:101C10004069616CC0F38010090700D460B32046AE
:101C200000F0C0FC20684069400621D520681430CF
:101C300050E8001F21F0400140E80012002AF5D1D1
:101C4000E06BA8B172490165E06BFFF7A6F80028C8
:101C500011D0E06B016D01B0BDE8F040084783068C
:101C60000FD593060DD52046BDE8F84000F0C1BC65
:101C70002046FFF78EFFF8BD2046FFF78AFF656418
:101C8000F8BD266B2023012E7ED1C6067CD5D60654
:101C90007AD508684868009048694FF00206400607
:101CA0004DD5E26B106840684FF480770004000C5B
:101CB0003AD0A18D814237D9E085D069B8422DD084
:101CC00020680C3050E8001F21F4807140E80012B9
:101CD000002AF5D12068143050E8001F21F00101DE
:101CE00040E80012002AF5D12068143050E8001FA7
:101CF00021F0400140E80012002AF5D184F842307A
:101D0000256320680C3050E8001F21F0100140E8E6
:101D10000012002AF5D1E06BFEF7F6FF6663A08D96
:101D2000E18D401A81B206E0A18D8142A8D1D0692F
:101D3000B842A5D166632046FFF72AFFF8BDA08D03
:101D4000E18D401A81B2E08D0028F7D00029F5D04E
:101D500020680C3050E8002F22F4907240E80027F1
:101D6000002FF5D12068143050E8002F22F0010236
:101D700040E80027002FF5D184F842302563206821
:101D80000C3050E8002F00E006E022F0100240E89E
:101D90000023002BF3D1CDE705062BD5150629D559
:101DA00094F841002128C9D1A068B0F5805F01D125
:101DB0002069B0B1206A411C216221680078486026
:101DC000E08C401E0004000CE084B7D12068C1689C
:101DD00021F08001C1602068C16841F04001C1600C
:101DE000F8BD206A0088C0F308004860206A801CA3
:101DF0002062E5E74006F3D55006F1D5CA682046D3
:101E000022F04002CA6084F8413000F0FFF8F8BDCB
:101E10009725000870B5040004D094F8410000250F
:101E200010B106E0012070BD84F84050204600F05B
:101E300023F8242084F841002068C16821F400516F
:101E4000C160204600F036FC2068016921F4904111
:101E500001612068416921F02A0141612068C1685F
:101E600041F40051C1606564202084F8410084F889
:101E700042006563002070BD10B586B00446142191
:101E80006846FEF7D5F917492068884228D11648D8
:101E9000016841F020010160006800F02000059019
:101EA00011481438016841F0040101600068694676
:101EB00000F004000590C020009002200190012055
:101EC000029003200390082004900848FEF778FF52
:101ED000012211464720FFF7DBF84720FFF7CAF839
:101EE00006B010BD00140140443802400008024012
:101EF00090F84230202B01D00220704721B11AB156
:101F00000023036300F05CBC0120704700681349A4
:101F1000884221D112490878A52805D148785A2845
:101F200002D1C87883280BD0002002460A54401CF6
:101F3000C0B20828FAD9092209490A48FFF7D8BFD0
:101F400048791A28F7D1087A0749012802D00028D1
:101F5000F1D102200870EEE7704700000014014044
:101F6000640100201C010020400000202DE9F843FE
:101F7000044690F84100984616460D46202802D0A7
:101F80000220BDE8F88385B17EB100206064212085
:101F900084F84100FFF70CF8A6848146E684A06827
:101FA0002027B0F5805F02D003E00120E9E7206937
:101FB00010B12E4600250EE000260CE080212046C0
:101FC00000F019FCA8B9C6B116F8010B21684860E9
:101FD000E08C401EE084E08C4B464FF00002CDF8D0
:101FE00000800028EAD14FF04001204600F003FCB9
:101FF00040B184F841700320C3E735F8020BC0F309
:102000000800E3E784F841700020BAE77047FEE774
:102010007FB500241548009401940294124903945A
:1020200001604FF48031C0E901140461047680F846
:1020300020400F49C0E90A140125C561C46080F839
:1020400030404561FEF77FFC08B1FEF743FA1120EE
:10205000CDE90005694602940448FEF70BFB002811
:1020600001D0FEF737FA7FBD002001404400002078
:102070000100000F0D4808B5016841F0040101603E
:10208000016801F004010091016841F080010160E4
:10209000016801F080010091016841F001010160D7
:1020A000006800F00100009008BD000030380240D8
:1020B00010B58EB000240794089409940A940B94E8
:1020C0001C2168460C94FEF7B3F820484FF080417D
:1020D000016040F2CD21C0E9011440F2E731C0E9CE
:1020E000031480218161FFF701FB08B1FEF7F2F9CB
:1020F0004FF48050079007A91448FFF77FFB08B101
:10210000FEF7E8F91148FFF773FC08B1FEF7E2F9B2
:102110000B940BA90D480C94FFF7A0FA08B1FEF739
:10212000D9F9602000904FF4FA70CDE90104002243
:10213000694606480494FFF7F5FB08B1FEF7CAF9B3
:102140000248FFF7C9FB0EB010BD00008C00002054
:1021500010B586B0002118480091019102910391B9
:102160000491144A0591026040F24732C0E901210E
:102170008024C7228461C0E90321FFF7B7FA08B1C0
:10218000FEF7A8F94FF48050009069460A48FFF71F
:1021900035FB08B1FEF79EF92020CDE9040404A91F
:1021A0000548FFF75BFA002801D0FEF793F906B067
:1021B00010BD000000040040D40000200C4810B501
:1021C0000A4901604FF4E1314160002181600C2235
:1021D000C160C0E904128161C161FFF71BFE0028E4
:1021E00003D0BDE81040FEF775B910BD00140140E2
:1021F0001C010020FEE7FEE700210148FFF726BC96
:102200008C00002000210148FFF784BC8C000020D6
:1022100070477047FEF7D2BE30B593B030216846A4
:10222000FEF706F814210CA8FEF702F81D48002559
:10223000016841F080510160006800F08050119009
:102240001948016841F4804101600068022400F4EB
:102250008040119001200090000401908001CDE9A0
:10226000064008AA0420A82182E813000B906846C3
:10227000FFF72AF808B172B6FEE70CA90F2081E833
:1022800031004FF4A0500F904FF480501090052172
:102290000CA8FEF72FFF002801D072B6FEE713B09E
:1022A00030BD000040380240007000400248016824
:1022B00041F470010160704788ED00E0F0B50268FC
:1022C000274B284D284E294F294C4FF0804C9842DF
:1022D00009D0604507D0A84205D0B04203D0B8422B
:1022E00001D0A04204D122F0700E4A6842EA0E02E8
:1022F00098421BD0604519D0A84217D0B04215D0E3
:10230000B84213D0A04211D01A4DA8420ED01A4D97
:10231000A8420BD0194DA84208D0194DA84205D0AB
:10232000184DA84202D0184DA84203D122F440759E
:10233000CA682A434D6922F080022A438D68C5622B
:102340000D688562984201D0A04201D109690163FC
:10235000016841F004010160012141610260F0BDAA
:10236000000001400004004000080040000C004054
:102370000004014000400140004401400048014089
:1023800000180040001C00400020004010B501F083
:102390001F030121046A99408C430462016A9A4038
:1023A0001143016210BD10B5846842EA032224F48F
:1023B0007F440A432243826010BD826822F070028B
:1023C0000A4342F00701816070470000F0B5036ADC
:1023D000026A22F00102026242688469124E24F00D
:1023E00073050C682C4323F002058B682B430D4DBD
:1023F000A84201D0B04205D123F00807CB683B4387
:1024000023F00403A84201D0B04205D14D6922F463
:10241000407215438A692A43426084614968416376
:102420000362F0BD0000014000040140F0B5026A03
:10243000036A23F010030362436884690D6824F47F
:10244000E64444EA05248D6822F0200242EA05129F
:102450000F4D104EA84201D0B04206D1CF6822F0F5
:10246000800242EA071222F04002A84201D0B042A4
:1024700007D14D6923F4406343EA85038D6943EA3C
:10248000850343608461496881630262F0BD000096
:102490000000014000040140F0B5026A036A23F421
:1024A000807303624368C46922F4007224F07305E8
:1024B0000C68124E2C438D6842EA05220E4DA8424C
:1024C00001D0B04206D1CF6822F4006242EA07226E
:1024D00022F48062A84201D0B04207D14D6923F4B2
:1024E000405343EA05138D6943EA05134360C46111
:1024F0004968C1630262F0BD000001400004014070
:1025000030B5046A026A22F4805202624268C369EA
:102510000D6823F4E64343EA05238D6824F4005450
:1025200044EA0534084DA84202D0084DA84204D11F
:102530004D6922F4804242EA85124260C3614968D3
:102540000164046230BD000000000140000401404D
:1025500010B5036A046A24F001040462846924F05B
:10256000F00444EA021423F00A020A43846102627E
:1025700010BD10B5036A046A24F010040462846973
:1025800023F0A00324F4704444EA023243EA011128
:102590008261016210BD10B5806B0021C185FFF71B
:1025A000F8FA10BD01680C3151E8002F22F4907246
:1025B00041E80023002BF5D10168143151E8002FC8
:1025C00022F0010241E80023002BF5D1016B012923
:1025D00009D101680C3151E8002F22F0100241E8C6
:1025E0000023002BF5D1202180F842100021016347
:1025F000704708B590F84210222901D0022008BD8A
:1026000082684FF480539A4201D1016921B1816AF5
:102610009A421BD04AB10AE00268816A5268C2F34A
:1026200008020A80816A891C08E0026972B10268A6
:10263000526802F07F020A70816A491C8162C18D72
:10264000491E0904090CC18503D01BE002685268C9
:10265000F1E70168CA6822F02002CA600168CA680E
:1026600022F48072CA6001684A6922F001024A615C
:10267000202180F8421000214163026B012A03D01F
:10268000FFF744FC002008BD016301680C3151E8EC
:10269000002F22F0100241E80023002BF5D1016841
:1026A0000A68D20602D50A6849680091818DFFF751
:1026B0006FFAE7E770B5044600680169E26821F443
:1026C0004051114301612169A068E26908436169D1
:1026D000114308432168CA6849F20C639A430243D4
:1026E000CA6020684169A26921F4407111434161C7
:1026F00031492068884202D03049884202D1FEF731
:10270000A3FD01E0FEF790FDE26900231921642595
:102710003226B2F5004F626828D0A0FB0101930F6A
:102720009200FDF74DFD0146B0FBF5F06FF0180289
:10273000504301EB800006EB0010B0FBF5F000F019
:10274000F002B1FBF5F002EB0012B1FBF5F06FF017
:102750001803584301EB800006EB0010B0FBF5F0C6
:1027600000F00F0021681044886070BDA0FB0101DB
:1027700092185B41FDF724FD0146B0FBF5F0020124
:10278000B1FBF5F06FF01803584301EB800006EB46
:10279000C000B0FBF5F000F0F80002EB4002B1FB26
:1027A000F5F0584301EB800006EBC000B0FBF5F0FC
:1027B00000F00700D6E700000010014000140140BF
:1027C00081628285C28500214164222180F8421005
:1027D000016921B10168CA6842F48072CA60016867
:1027E0004A6942F001024A610068C16841F0200173
:1027F000C160002070472DE9F843984617460D4602
:102800000446089E24E0701C22D0FEF7D1FBA0EB0A
:102810000800B0421AD8CEB12068C168490717D560
:10282000802D15D0402D13D00168C94309070FD45E
:1028300001680025406800902046FFF7B3FE08209D
:10284000606484F840500120BDE8F8830320FBE772
:102850002068006835EA000004D00020B842D2D0D9
:102860000020F1E70120F9E70148FFF793B90000E4
:102870001C01002030B5134C0020A4F1140101F11B
:102880000A020B8934F810509D4208D88B79401CFD
:10289000D05413B10020887105E00120FBE7401CF3
:1028A000C0B20928EED9137852780120934201D1A1
:1028B0004B7148704A790B789A4200D90020087110
:1028C00030BD00002C000020FEE70907090E00289B
:1028D00004DB00F1E02080F80014704700F00F00E6
:1028E00000F1E02080F8141D704702E008C8121FB4
:1028F00008C1002AFAD170477047002001E001C1E9
:10290000121F002AFBD1704770B586B000252C46F7
:102910004FEA0D06FDF796FD26F81400052000F09D
:1029200037F8641CE4B20A2CF4D30A21684600F09C
:102930000DF8012036F81010401CC0B20D440828D4
:10294000F8D906B0C5F3CF0070BD0000F0B5002384
:102950004C1E1AE00027CD1A3A466D1E0FE000BF4C
:1029600000EB420E30F81260BEF802C0664504D992
:1029700020F812C0AEF802600127521CD2B2954274
:10298000EEDC002F03D05B1CDBB2A342E2DBF0BD28
:102990004FF47A714843AFF3008070B54FF0E024F4
:1029A00000226569A8214843A169A3698B42FCD034
:1029B00002D2A1EB030102E0A5EB030631440A4475
:1029C00019468242F1D370BDFEF700FBFFF724FCED
:1029D000FFF750FBFFF71CFBFFF76AFBFFF7B8FBA5
:1029E000FFF7ECFBFDF726FE0120FDF769FD09224C
:1029F00027492848FFF77CFADFF89CA09AF80000E6
:102A0000FDF7B8FD0020FDF785FDDFF8908098F810
:102A10000000FDF7DFFDFDF747FC214C214E224F62
:102A2000DFF8889000252078A8B1012802D002287C
:102A300006D00FE09AF800000A280BD2401C04E0F0
:102A40009AF80000012805D9401EC0B28AF800009B
:102A5000FDF790FD25703078012804D1357098F885
:102A60000000FDF7B7FD38780128DCD13D7099F8FA
:102A70000000012804D00028D5D1FDF74BFDD2E796
:102A80000120FDF747FD0F20FDF726FDCBE70000F5
:102A9000640100201C010020180000201D000020FF
:102AA00040000020190000201A0000201C00002017
:102AB00000000000000000000102030406070809EE
:102AC0000000000001020304E82A000800000020C2
:102AD00044000000EA2800082C2B000844000020D5
:102AE000F4050000FA2800080100000010000000B2
:102AF000000000000024F400A55A0582A55A0380B6
:102B000004000000000A000000000A0A33335340AA
:102B10000000000023051C035502E901A60176010F
:0C2B20005301380125018E000000000068
:040000050800018965
:00000001FF
