:020000040800F2
:100000009008002029020008AB2200089D2000086B
:10001000A9220008B105000811280008000000000E
:100020000000000000000000000000005B2300084A
:100030004906000800000000AD220008BD230008AA
:10004000430200084302000843020008430200087C
:100050004302000859230008430200084302000835
:10006000430200084302000843020008430200085C
:10007000430200084302000843020008430200084C
:10008000B5050008430200082104000843020008E7
:10009000430200084302000843020008430200082C
:1000A000430200084302000843020008430200081C
:1000B000430200084302000843020008430200080C
:1000C00043020008430200084302000843020008FC
:1000D00043020008F9270008430200084302000811
:1000E00043020008430200084302000843020008DC
:1000F00043020008430200084302000843020008CC
:1001000043020008430200084302000843020008BB
:100110004302000843020008652400084302000867
:10012000C10500084302000843020008430200081A
:10013000430200084302000843020008430200088B
:10014000430200084302000843020008430200087B
:100150004302000843020008430200080528000883
:10016000430200084302000843020008430200085B
:100170004302000843020008430200080000000098
:10018000430200084302000800F002F800F03CF8C7
:100190000AA090E8000C82448344AAF10107DA45E2
:1001A00001D100F031F8AFF2090EBAE80F0013F0F8
:1001B000010F18BFFB1A43F001031847E02C0000A1
:1001C000002D0000103A24BF78C878C1FAD8520731
:1001D00024BF30C830C144BF04680C6070470000C1
:1001E0000023002400250026103A28BF78C1FBD840
:1001F000520728BF30C148BF0B6070471FB502F0DF
:1002000033FE1FBD10B510BD00F0CFF81146FFF74B
:10021000F5FF02F00FFB00F0EDF803B4FFF7F2FF7B
:1002200003BC00F0F5F80000094880470948004782
:10023000FEE7FEE7FEE7FEE7FEE7FEE7FEE7FEE796
:10024000FEE7FEE704480549054A064B70470000F3
:100250005524000889010008900200209008002021
:10026000900400209004002053EA020C00F0698002
:100270002DE9F04B4FF00006002B1FBFB3FA83F5BA
:1002800003FA05F424FA05F65E4012BF1643B2FAEB
:1002900082F502FA05F4C5F120051EBF22FA05FC1D
:1002A00044EA0C04203556EA044C4FEA144418BFC3
:1002B000641C4FF000084FF00009904271EB030CF2
:1002C00039D3002919BFB1FA81F701FA07F6B0FA5C
:1002D00080F700FA07F6C7F120071EBF20FA07FCD7
:1002E00046EA0C062037B6FBF4FCA7EB0507103FE7
:1002F00007F01F0BCBF120060CFA0BFB2CFA06F6CD
:1003000044BFB3460026202FA4BF5E464FF0000B2B
:100310005BEA060C08BF4FF0010B19EB0B09ABFBB6
:10032000027C48EB0608C01B06FB02CC0BFB03CC8F
:1003300071EB0C01C1E70B46024641464846BDE859
:10034000F08B13B54FF000004FF00001AFF30080C9
:10035000BDE81C4070474FF0000200B513469446BC
:100360009646203922BFA0E80C50A0E80C50B1F10D
:100370002001BFF4F7AF090728BFA0E80C5048BF21
:100380000CC05DF804EB890028BF40F8042B08BFBF
:10039000704748BF20F8022B11F0804F18BF00F8BB
:1003A000012B7047704770477047754600F02CF876
:1003B000AE4605006946534620F00700854618B052
:1003C00020B5FFF73FFFBDE820404FF000064FF09B
:1003D00000074FF000084FF0000B21F00701AC467A
:1003E000ACE8C009ACE8C009ACE8C009ACE8C00999
:1003F0008D46704710B50446AFF300802046BDE837
:100400001040FFF70ABF0000004870472C02002090
:1004100001491820ABBEFEE726000200704700002D
:10042000014800F0C0B9000038000020464910B56E
:100430004A6822F440324A604A6843681A434A6074
:1004400001684A6822F480724A6001684A68036958
:1004500042EA03224A6001684A6822F040724A6018
:1004600001684A6883681A434A6001688A6822F40E
:1004700000628A6001688A68C3681A438A60816A78
:100480006FF07062D14201688A6822F070628A60FF
:1004900001688A680CD0836A1A438A6001688A6896
:1004A00022F040528A6001688A68C36A1A4301E0F8
:1004B00022F040528A6001688A6822F002028A6053
:1004C00001688A68037E42EA43028A6090F820103D
:1004D000002901684A680FD042F400624A6001684E
:1004E0004A6822F460424A6001684A68174C436ACD
:1004F00004EB43331A4301E022F400624A600168CE
:10050000CA6A22F47002CA620168CA6A838B104CFC
:1005100004EB03531A43CA6201688A6822F400722A
:100520008A6001688A6890F8303042EA43228A6023
:1005300001688A6822F480628A6001688A6840697A
:1005400042EA8020886010BD0023014000E0FFFFE8
:100550000000F0FF10B50F4800F03CFA0D4800F025
:100560001FF902F06BFB9FED0C1B53EC112B02F0FB
:100570000DFA9FED0B1B53EC112B02F077FB9FED57
:100580000A1B53EC112B02F071FB02F0CDF900EEC7
:10059000100A10BD380000200000000000FEAF402F
:1005A0006666666666660A40545227A089B0F93FBF
:1005B000FEE70000014800F0F3BB0000F40000205B
:1005C000014800F0EDBB0000800000200168182306
:1005D000CAB2103AB2FBF3F2054B6FF30901032ADA
:1005E0009B5CC36500D9091D816508467047000002
:1005F0007C2E000810B5014600208B698A6A4FF0F6
:10060000C07453B1B3F5005F15D072B1012A0CD09C
:10061000022A0AD0032A09D104E01AB1012A06D01D
:10062000022A03D1C96AC90100D5012010BDC96AD7
:10063000A142FAD010BD002AF7D0012AF2D0022A36
:10064000F3D0032AF3D010BD704772B6FEE77047AF
:1006500078B50024009490F83C20012A19D001229A
:1006600080F83C200A6807230568092A13D9EE6838
:100670000A3A02EB420293409E43EE600B788A688E
:100680000A3B03EB43039A400368DD682A43DA60C0
:1006900010E0022078BD2E6902EB420293409E4397
:1006A0002E610B788A6803EB43039A4003681D6947
:1006B0002A431A614A681F23072A13D205686E6B02
:1006C000521E02EB820293409E436E630B790A88AE
:1006D0005B1E92B203EB83039A4003685D6B2A436F
:1006E0005A6327E005680D2A12D22E6BD21F02EB47
:1006F000820293409E432E630B790A88DB1F92B2DD
:1007000003EB83039A4003681D6B2A431A6311E0CD
:10071000EE6A0D3A02EB820293409E43EE620B7941
:100720000A880D3B92B203EB83039A400368DD6AAB
:100730002A43DA62164B0568144A9D4206D10D68B9
:10074000122D03D1556845F48005556005689D421A
:1007500018D10B68102B01D0112B13D1536843F41F
:1007600000035360096810290CD10A490A4A096834
:10077000B1FBF2F101EB8101490000E0491E00915B
:100780000029FBD180F83C40002078BD00230140C7
:10079000002001402000002040420F0070477047B9
:1007A0000068C06C704770B504460068066845680C
:1007B00016F0020F05F020012AD049B3216CC906BA
:1007C00003D4216C41F400712164816811F0405F11
:1007D00017D1217EA9B9C16A11F4700F02D08168C6
:1007E00049050ED4416821F020014160206C20F4BD
:1007F00080702064206CC00403D4206C40F00100A1
:1008000020642046FFF7CAFF21686FF012000860DD
:1008100016F0040F05F0800132D089B3206CC006B9
:1008200003D4206C40F4005020642068816811F4E7
:10083000401F1ED1816B11F4401F02D08168490511
:1008400017D44168490514D4816811F0405F10D174
:10085000217E71B9416821F080014160206C20F453
:1008600080502064206CC00503D4206C40F001004F
:1008700020642046FFF7EBFE21686FF00C00086053
:1008800016F0010F05F040010FD071B1206800682B
:10089000C0070AD0206C40F480302064204600F06D
:1008A00043F821686FF00100086016F0200F05F092
:1008B00080610ED000290CD0606C40F002006064B2
:1008C00020686FF0200505602046FFF768FF20686C
:1008D000056070BD70B504004FF0000503D0206CBA
:1008E000002610B107E0012070BD204600F01EF880
:1008F000666484F83C60206CC00610D4206C20F440
:10090000885040F0020020642046FFF78FFD6664A7
:10091000206C20F0020040F00100206400E001257E
:1009200084F83C60284670BD7047000070B586B002
:10093000064614216846FFF70EFD214930688842BB
:100940003CD120480025016841F4807101600068B5
:1009500000F4807005901B481438016841F00101D3
:1009600001600068694600F0010005904020009099
:100970000320CDE90105144800F04CFB144C13484A
:10098000C4E900050015A560C4E90350800060615A
:100990008000A0618011C4E907052046656200F06F
:1009A000CFFA08B1FFF751FEB463002211461220BE
:1009B000A66300F0A3FC122000F092FC06B070BD0C
:1009C0000020014044380240000002401064024010
:1009D0008000002018B50021009190F83C20012AE9
:1009E00007D0012280F83C2002689368DB0702D020
:1009F00011E0022018BD936843F0010393602E4A72
:100A00002E4B1268B2FBF3F202EB420200E0521EE0
:100A10000092002AFBD102689368DB0742D0036C86
:100A200040F20164A34343F48073036453685B059D
:100A300005D5036C23F4005343F480530364036C23
:100A4000DB0404D5436C23F00603436400E04164F7
:100A500080F83C101A496FF022031360496800685F
:100A6000CA06184906D0884224D1816811F0405F37
:100A700013D01FE08842F8D0134A904203D1D1F836
:100A80000423D206F1D0114A904213D1D1F80413B5
:100A900001F01F011029E8D30CE0816841F080418A
:100AA000816007E0016C41F010010164416C41F08C
:100AB00001014164002018BD2000002040420F00C9
:100AC000002301400020014000210140002201409C
:100AD000704770B500B3F9B14379012B1ED00126E0
:100AE00046710223037105682C6802F0100340F67A
:100AF000FE729A409443D1E900210A439A4022436E
:100B00002A6001680A68C0249C40A2430A600671FA
:100B100000214171084670BD012070BD022070BDEA
:100B200070472DE9F041044600680668456BB10442
:100B30004FF0040710D5A9040ED52771216941F0A3
:100B400001012161F90241632068016821F48051AB
:100B500001602046FFF7E4FFB00014D5A80012D5CD
:100B60002771206940F00200206121684FF0005099
:100B700048632068016821F0805101602046BDE88B
:100B8000F041FFF7A5BFBDE8F08170B5040003D0C8
:100B90002079002510B105E0012070BD6571204667
:100BA00000F008F80220207125610120207100204A
:100BB00070BD000070B586B0064614216846FFF788
:100BC000CAFB2349306888423FD12248002501688A
:100BD00041F000510160006800F0005005901D4890
:100BE0001038016841F0010101600068694600F0B9
:100BF00001000590102000900320CDE90105164862
:100C000000F008FA164C154820604FF060606060F4
:100C10004020C4E902050001C4E904058010C4E9CC
:100C200006504FF44030C4E90805204600F088F92A
:100C300008B1FFF70AFDB460002211463620A66312
:100C400000F05CFB362000F04BFB06B070BD0000EE
:100C500000740040403802400000024088600240BA
:100C6000F400002018B50024009440B10068009002
:100C7000104431B1143000900360002018BD0120F1
:100C800018BD0830F7E770B508B34279012A20D0C3
:100C900001224271022303710468266801F01003E7
:100CA00002FA03F52E4326600029016813D00C6870
:100CB00004F470153C249C40A54203D14B6843F0DA
:100CC00002034B60027100214171084670BD012092
:100CD00070BD022070BD0B68C3F383030F2BF1D1ED
:100CE0004B6843F00103ECE72DE9F0410446876DC2
:100CF00000F08EFA064694F835000025022806D04A
:100D00008020606584F834500120BDE8F0812068BF
:100D1000016821F0160101602068416921F080011D
:100D20004161206C08B9A06C20B12068016821F0F5
:100D3000080101602068016821F0010101600CE0F8
:100D400000F066FA801B052807D920206065032083
:100D500084F8350084F83450D7E720680068C0076D
:100D6000EED194F85C103F208840B860012084F8F0
:100D7000350084F834500020C7E790F83510022978
:100D800003D08021416501207047052180F835108E
:100D90000068016821F00101016000207047000037
:100DA0002DE9F84304464FF00009CDF80090634860
:100DB0004FF41651A56D0068B0FBF1F72E6894F85A
:100DC0005C10082000FA01F131420FD021680A6856
:100DD00052070BD50A6822F004020A6094F85C10EE
:100DE0008840A860606D40F00100606594F85C1078
:100DF0004FF0010808FA01F0304208D02168496933
:100E0000090604D5A860606D40F00200606594F8A2
:100E10005C1004208840304208D0216809688907A6
:100E200004D5A860606D40F00400606594F85C1023
:100E300010208840304218D021680968090714D56D
:100E4000A86020680168490304D50068000308D53C
:100E5000A16C07E00168C90503D4016821F008010D
:100E60000160216C09B12046884794F85C1020206D
:100E70008840304231D021680968C9062DD5A86064
:100E800094F8350005282068016806D0490347D545
:100E9000006800031DD4616C1CE021F016010160A4
:100EA0002068416921F080014161206C08B9A06C83
:100EB00020B12068016821F00801016094F85C10FD
:100EC0003F208840A86084F8358084F83490216DF4
:100ED0001FE0E16B09B120468847606D00282BD0E8
:100EE000606DC00714D0052084F8350020680168C3
:100EF00021F0010101600098401C0090B84203D825
:100F000020680068C007F6D184F8358084F83490F2
:100F1000E16C002910D001B02046BDE8F04308473D
:100F20000168C905D5D4016821F01001016084F879
:100F3000358084F83490CCE7BDE8F88320000020A9
:100F40002DE9F041044600F063F906465CB1022049
:100F500084F83500002584F834502068016821F0B9
:100F6000010101600DE00120BDE8F08100F050F9C1
:100F7000801B052805D920206065032084F83500F2
:100F8000F2E720680068C007F0D1226811682048A5
:100F90000140D4E901031843D4E90336334318432D
:100FA00063691843A3691843E3691843236A184324
:100FB0000843616A042903D1D4E90B131943084398
:100FC000106020684069666A20F0070130460E43D1
:100FD000012704280CD1A06A0643E06A40B12046EC
:100FE000FFF708FB20B14020606584F83570BAE750
:100FF000206846612046FFF7E9FA94F85C203F211B
:1010000091408160656584F835700020ACE7000090
:101010003F8010F02DE9F84FDFF8BCA10022012538
:1010200003264FF00F090AF1040BAAF1040E00BFCA
:101030000B6805FA02F42340A34270D10F7907F040
:101040000307012F01D0022F16D187684FEA42080B
:1010500006FA08FC27EA0C07D1F80CC00CFA08FCC9
:101060004CEA070CC0F808C04768A7430C79C4F3E2
:10107000001494403C4344600C79E443A4070AD034
:10108000C4684FEA420C06FA0CF7BC438F6807FAB3
:101090000CF72743C7600C7904F00304022C12D12B
:1010A000D40800EB840CDCF820405707FF0E09FA47
:1010B00007F824EA0804D1F8108008FA07F848EA8B
:1010C0000408CCF8208004684FEA420C06FA0CF7BA
:1010D000BC430F7907F0030707FA0CF727430760B3
:1010E0004C6814F4403F70D03C4C276847F480476C
:1010F0002760246822F0030704F480440094384CED
:1011000007EB040CDCF8084897074FEA177809FA50
:1011100008F7BC43334FB84202D1002724E054E023
:10112000314FB84201D101271EE0304FB84201D102
:10113000022719E02E4FB84201D1032714E02D4FAA
:10114000B84201D104270FE02B4FB84201D1052747
:101150000AE02A4FB84201D1062705E0284FB842DD
:1011600001D1072700E0082707FA08F72743CCF842
:101170000878DAF800405746D1F804C09C435FEA8B
:10118000CC2C00D51C433C60DBF800405F46D1F816
:1011900004C09C435FEA8C2C00D51C433C60DEF805
:1011A00000407746D1F804C09C435FEA8C3C00D5F0
:1011B0001C433C60084F083F3C68D1F804C09C4386
:1011C0005FEACC3C00D51C433C60521C102AFFF463
:1011D0002FAFBDE8F88F0000083C014044380240C2
:1011E00000300140000002400004024000080240BC
:1011F000000C02400010024000140240001802409F
:10120000001C02400AB1816170470904FBE700003D
:10121000014880687047000014000020024881687F
:101220000278114481607047140000200B4810B50B
:10123000016841F400710160016841F4806101605E
:10124000016841F480710160032000F077F80F20FD
:1012500000F006F800F024F8002010BD003C024029
:1012600070B50D4D04464FF47A712878B1FBF0F05B
:101270000A490968B1FBF0F000F012FB48B9102CE4
:1012800007D200222146501E00F038F800206C6082
:1012900070BD012070BD000014000020200000205F
:1012A0000E4808B5016841F480410160006800F40F
:1012B000804000900948001F016841F080510160A2
:1012C0000068002200F0805000901146052000F0D8
:1012D00015F8BDE80840052000F002B84438024087
:1012E000002809DB00F01F02012191404009800025
:1012F00000F1E020C0F8001170470000F0B40E4B80
:101300001B680C46C3F30223C3F10705042D00D963
:101310000425191D072901D2002300E0DB1E012648
:1013200006FA05F1491E214099409E40761E16405E
:101330003143F0BC01F06DBA0CED00E0064900F05D
:10134000070208684FF6FF03184040EA0220034AEC
:1013500010430860704700000CED00E00000FA0543
:101360002DE9F0470E46050065D0DFF81481D8F866
:101370000000F7B200F00700B04207D288F8007012
:10138000D8F8000000F00700B04254D128683D4C66
:10139000810712D5400703D5206840F4E050206053
:1013A0002878000703D5206840F46040206020685A
:1013B000A96820F0F000084320602878C0072DD0ED
:1013C000304968680839012812D0022813D0032850
:1013D00011D00968890700292DDA216821F003015D
:1013E00001432160FFF714FF814641F2883A0EE085
:1013F00009688903EFE709688901ECE7FFF708FF4F
:10140000A0EB0901514502D90320BDE8F08720680F
:10141000696800F00C00B0EB810FEFD1D8F8001034
:10142000404601F00701B14207D90770006800F09B
:101430000700B04201D00120E7E72878400705D532
:101440002068E96820F4E05008432060287800070D
:1014500006D52068296920F4604040EAC100206078
:1014600000F038F82168084AC1F30311515CC84004
:101470000649086006480068FFF7F2FE0020C4E74E
:10148000003C024008380240842E00082000002062
:10149000180000200448054900680968044AC1F39F
:1014A0008221515CC840704720000020083802406B
:1014B000942E00080448054900680968044AC1F3ED
:1014C0004231515CC840704720000020083802407B
:1014D000942E0008154810B5006810F00C0214484E
:1014E00013D04110042A0FD0082A0ED10F4C241F0C
:1014F0002268236802F03F025B0207D52068C0F330
:101500008810A0FB010106E0084610BD2168C1F368
:101510008811A1FB00010023FEF7A6FE2168C1F39C
:101520000141491C4900B0FBF1F010BD08380240F0
:101530000024F4002DE9F84F04006ED02078DFF885
:101540004C93C007A9F104054AD009F104000168D1
:10155000C1F38101012908D00068C0F3810002288D
:101560000AD1D9F80000400206D52868800337D593
:1015700060680028E1D033E06068B0F5803F10D0AB
:10158000B0F5A02F286810D020F48030286028689B
:1015900020F4802028606068A8B1FFF739FE064675
:1015A0000DE0286840F48030F4E740F480202860A3
:1015B000F7E700BFFFF72CFE801B642873D828686C
:1015C0008003F7D50CE0FFF723FE064605E000BFD9
:1015D000FFF71EFE801B6428F0D828688003F7D42C
:1015E0002078DFF8AC8280074FF0000A3ED5A7488C
:1015F000001D016811F00C0F08D00068C0F38100D5
:1016000002280BD1D9F80000400207D428688007CF
:1016100016D5E068012800D112E033E1E068B8B1E6
:101620000120C8F80000FFF7F3FD064605E000BF03
:10163000FFF7EEFD801B0228C0D828688007F7D589
:101640002868216920F0F80040EAC10028600DE018
:10165000C8F800A0FFF7DCFD064604E0FFF7D8FD60
:10166000801B02281FD828688007F7D4207800073D
:1016700022D5864F87486169703771B101210160B9
:10168000FFF7C6FD064604E0FFF7C2FD801B0228F7
:1016900009D838688007F7D50EE0C0F800A0FFF73A
:1016A000B7FD064605E082E0FFF7B2FD801B022889
:1016B0007DD838688007F7D42078400768D5DFF8F0
:1016C000CCB100270BF13C0BDBF80000C0000BD4C1
:1016D000DBF8001041F08051CBF80010DBF800007F
:1016E000012700F0805000906B4E3068C00510D488
:1016F000306840F480703060FFF78AFD009005E0AC
:10170000FFF786FD0099401A022850D83068C005BE
:10171000F6D55E4EA0686C3601280FD005283068DB
:1017200010D020F001003060306820F004003060FC
:10173000A068B8B1FFF76CFD00900FE0306840F092
:101740000100F4E740F004003060F7E7FFF760FDC8
:101750000099411A41F28830814266D8306880078A
:10176000F4D50EE0FFF754FD009007E0FFF750FDC1
:101770000099411A41F28830814256D8306880077A
:10178000F4D42FB1DBF8001021F08051CBF8001019
:10179000A069C8B33D49091D0968C1F38101022947
:1017A0004AD00228504607D0C8F8600000E03CE06C
:1017B000FFF72EFD04463BE04746C8F86000FFF700
:1017C00027FD064605E000BFFFF722FD801B02282B
:1017D0002BD828688001F7D4D4E907010843A16A0F
:1017E0002E4A490802EB0141626A41EA821108432C
:1017F00094F82C1040EA0161C9F800100120386605
:10180000FFF706FD044606E03EE000BFFFF700FDDF
:10181000001B022809D828688001F7D534E000BFF2
:10182000FFF7F6FC001B022802D90320BDE8F88F61
:1018300028688001F4D427E00128F7D0D9F8000007
:10184000E26900F4800191421CD1226A00F03F015C
:10185000914217D147F6C071626A0140B1EB821F15
:1018600010D1A26A4FF0FF3300F4403103EB520273
:10187000B1EB024F06D194F82C1000F07060B0EB81
:10188000016F01D00120D1E70020CFE704380240EA
:1018900000004742800E4742007000400000FFFFFA
:1018A00010B5401EB0F1807F01D3012010BD4FF074
:1018B000E02460610F21601700F0ABFF0020A06101
:1018C00007202061002010BD7047704770B590F868
:1018D0003C20012A32D0012480F83C40022280F8CA
:1018E0003D2003685A689D6822F070060A683243FA
:1018F0005A60134B02689A4214D0B2F1804F11D053
:10190000104B9A420ED0104B9A420BD00F4B9A427A
:1019100008D00F4B9A4205D00E4B9A4202D00E4B84
:101920009A4204D1496825F080031943916080F8F8
:101930003D40002180F83C10084670BD022070BD7B
:10194000000001400004004000080040000C00407E
:1019500000040140004001400018004010B50400A0
:1019600003D094F83D0010B107E0012010BD002025
:1019700084F83C00204600F01FF8022084F83D0067
:10198000211D206800F07CFD012084F8460084F8C9
:101990003E0084F83F0084F8400084F8410084F859
:1019A000420084F8430084F8440084F8450084F839
:1019B0003D00002010BD000008B500680B498842BA
:1019C00012D10B48016841F010010160006800224B
:1019D00000F01000009011463620FFF78FFCBDE8A4
:1019E00008403620FFF77CBC08BD00000010004016
:1019F0004038024090F83D10012901D00120704785
:101A0000022180F83D1000681149884214D0B0F1DD
:101A1000804F11D00F4988420ED00F4988420BD019
:101A20000E49884208D00E49884205D00D498842A7
:101A300002D00D49884204D1816801F007010629CE
:101A400003D0016841F001010160002070470000EF
:101A5000000001400004004000080040000C00406D
:101A600000040140004001400018004070472DE98B
:101A7000F04104460068C66805694FF00007A907F1
:101A800013D5B10711D5F91E016101202077206817
:101A900080698007204602D0FFF7E8FF04E000F0ED
:101AA0007EF8204600F07CF82777680716D5700787
:101AB00014D521686FF004000861022020772068A7
:101AC000806910F4407F204602D0FFF7CFFF04E08A
:101AD00000F065F8204600F063F82777280715D551
:101AE000300713D521686FF00800086104202077C3
:101AF0002068C0698007204602D0FFF7B7FF04E0E6
:101B000000F04DF8204600F04BF82777E80616D590
:101B1000F00614D521686FF01000086108202077C6
:101B20002068C06910F4407F204602D0FFF79EFF76
:101B300004E000F034F8204600F032F82777E80798
:101B400008D0F00706D021686FF001000861204638
:101B500000F027F8280608D5300606D521686FF072
:101B6000800008612046FFF7AFFE680608D57006C2
:101B700006D521686FF040000861204600F012F899
:101B8000A8060AD5B00608D521686FF020000861C4
:101B90002046BDE8F041FFF798BEBDE8F0817047F0
:101BA000704770477047704770470000F8B501688C
:101BB00004460868CA684B6910F00F0F4FF0000523
:101BC0005AD003F0010602F49077374365D0C1077D
:101BD00005D0D10503D5616C41F001016164410775
:101BE00005D5D90703D0616C41F00201616481071A
:101BF00005D5D90703D0616C41F004016164010788
:101C000007D502F02001314303D0616C41F0080197
:101C10006164616C00293BD0800604D5900602D532
:101C2000204600F0C8FC20684069616CC0F3801059
:101C300001F00801014320462BD000F095FC2068FC
:101C40004069400621D52068143050E8001F21F07B
:101C5000400140E80012002AF5D1E06BA8B16E49BE
:101C60000165E06BFFF789F8002811D0E06B016D8A
:101C700001B0BDE8F040084783060ED593060CD5A9
:101C80002046BDE8F84000F096BC2046FFF78CFFE8
:101C9000F8BDFFF789FF6564F8BD266B2023012E90
:101CA0007DD1C6067BD5D60679D5086848680090F0
:101CB00048694FF00206400641D5E16B086840686C
:101CC0000004000CE8D0A28D8242E5D9E085C86905
:101CD000B0F5807F2DD020680C3050E8001F21F433
:101CE000807140E80012002AF5D12168143151E8D2
:101CF000000F20F0010041E80002002AF5D1206821
:101D0000143050E8001F21F0400140E80012002A82
:101D1000F5D184F84230256320680C3050E8001F6C
:101D200021F0100140E80012002AF5D1E06BFEF727
:101D3000DBFF6663A08DE18D401A81B22AE0A08DA1
:101D4000E18D401A81B2E08D0028A5D00029A3D0F2
:101D500022680C3252E8000F20F4907042E800072D
:101D6000002FF5D12068143050E8002F22F0010236
:101D700040E80027002FF5D184F842302563206821
:101D80000C3050E8002F22F0100240E80023002B16
:101D9000F5D166632046FFF706FFF8BDFFE70506AD
:101DA0002BD5150629D594F841002128F5D1A06836
:101DB000B0F5805F01D12069B0B1206A411C216279
:101DC000216800784860E08C401E0004000CE0842C
:101DD000E3D12068C16821F08001C1602068C1683A
:101DE00041F04001C160D8E7206A0088C0F30800D4
:101DF0004860206A801C2062E5E74006CDD5500689
:101E0000CBD5CA68204622F04002CA6084F841302F
:101E100000F043F9C1E700005925000870B504003F
:101E200004D094F84100002510B106E0012070BDF7
:101E300084F84050204600F023F8242084F8410024
:101E40002068C16821F40051C160204600F014FCF4
:101E50002068016921F4904101612068416921F005
:101E60002A0141612068C16841F40051C160656484
:101E7000202084F8410084F842006563002070BD92
:101E800070B586B0044614216846FEF764FA2A4805
:101E9000284E256800242849143802220323B5421D
:101EA00020D10D6845F010050D60096801F01001A2
:101EB0000591016841F0010101600068694600F088
:101EC0000100059058028DE815000720CDE9033088
:101ED0001A48FFF79FF8002211462520FFF70EFA57
:101EE000252022E0164EB54221D10D6845F020058F
:101EF0000D60096801F020010591016841F00401BD
:101F000001600068694600F004000590C0208DE87B
:101F100015000820CDE903300A48FFF77BF80022BE
:101F200011464720FFF7EAF94720FFF7D9F906B035
:101F300070BD000000100140443802400000024023
:101F400000140140000802402DE9F84F044690F8C3
:101F500042009A4616460D46202802D00220BDE8CF
:101F6000F88FB5B1AEB100206064222184F8421030
:101F70002063FFF74DF9A6858146E685A0684FF4FA
:101F800080582027404501D1206920B12E460025E8
:101F900029E00120E3E7002625E04B46002220212E
:101FA0002046CDF800A000F0EDFB18B184F8427097
:101FB0000320D4E726B1A06840451AD038B108E024
:101FC00020684068C0F3080025F8020B08E020698B
:101FD00078B12068406800F07F0000BF06F8010B70
:101FE000E08D401EE085E08D0028D6D184F8427057
:101FF000B5E720684068F1E770472DE9F8430446EB
:1020000090F84100984616460D46202802D002203E
:10201000BDE8F88385B17EB100206064212084F89A
:102020004100FFF7F5F8A6848146E684A0682027E2
:10203000B0F5805F02D003E00120E9E7206910B12C
:102040002E4600250EE000260CE08021204600F000
:1020500099FBA8B9C6B116F8010B21684860E08C5D
:10206000401EE084E08C4B464FF00002CDF800802B
:102070000028EAD14FF04001204600F083FB40B138
:1020800084F841700320C3E735F8020BC0F3080061
:10209000E3E784F841700020BAE77047FEE70000EC
:1020A0007FB50024144800940194029411490394CC
:1020B000C0E90014846001250461057680F82040A1
:1020C0000E49C0E90A14C561C46080F8304045611A
:1020D000FEF700FC08B1FEF7B8FA0620CDE90005CE
:1020E000694602940448FEF7B3FA002801D0FEF7CF
:1020F000ACFA7FBD00200140380000200100000F35
:102100001CB500240C4900940A4801940860084654
:10211000FEF73BFD08B1FEF798FA0420CDE9000474
:10212000002269460448FEF7D4FC002801D0FEF7DF
:102130008CFA1CBD00740040E0000020114808B576
:10214000016841F400110160016801F4001100917F
:10215000016841F4800101600068002200F4800001
:10216000009011461020FFF7C9F81020FFF7B8F8CB
:10217000002211463820FFF7C1F8BDE8084038209A
:10218000FFF7AEB83038024030B587B0142168464A
:10219000FEF7E1F815480024016841F004010160F0
:1021A000016801F004010591016841F080010160BE
:1021B000016801F080010591016841F001010160B1
:1021C00000680B4D00F00100059000220221284616
:1021D000FFF718F8022000900120CDE901046946BC
:1021E00028460394FEF716FF07B030BD3038024092
:1021F000000802401CB500240E4800940C490194CC
:10220000C0E900146321C0E902418461FFF7A6FB25
:1022100008B1FEF71AFA2020CDE900046946054806
:10222000FFF754FB002801D0FEF70FFA1CBD000099
:1022300000100040540100200C4810B50A4901600C
:102240004FF4E1314160002181600C22C160C0E99E
:1022500004128161C161FFF7E1FD002803D0BDE8F0
:102260001040FEF7F2B910BD001001409C010020A3
:102270000C4810B50A4901604FF4E131416000217A
:1022800081600C22C160C0E904128161C161FFF765
:10229000C5FD002803D0BDE81040FEF7D6B910BD3B
:1022A00000140140E4010020FEE7FEE77047000053
:1022B00070B5264B012816D0022816D0244C4FF4B6
:1022C0007A65032818D004281ED05026052825D06A
:1022D000214606280A69A2F13C0127D0072812D11D
:1022E000AA4229D826E0002200E00122BDE8704081
:1022F00002211846FEF786BF002211461548636882
:10230000FEF7B0FC256170BD002211461148A3689C
:10231000FEF7A8FC40F67500206170BD0022114652
:102320000C48E368FEF79EFC266170BD502A01D27E
:10233000266102E0216100E025612369BDE870406B
:10234000002211460348FEF78DBC00000008024041
:1023500000000020E0000020704770471CB5FEF729
:10236000F9F8DFED140AA5218DF8001020EE200AFF
:102370005A218DF801100521BCEEC00A8DF802101B
:1023800082218DF8031010EE100A00218DF8041040
:102390000A2100EB80008DF80510010A8DF8061067
:1023A0008DF807004FF0FF33082269460248FFF717
:1023B00024FE1CBD00007A44E4010020FEF72EBF7D
:1023C00030B593B030216846FDF7C5FF14210CA845
:1023D000FDF7C1FF1D480025016841F080510160F3
:1023E000006800F0805011901948016841F4804164
:1023F00001600068022400F48040119001200090E8
:10240000000401908001CDE9064008200890CD200D
:10241000099004200A900B906846FFF78BF808B1EA
:1024200072B6FEE70CA90F2081E831004FF4A050EE
:102430000F904FF48050109001210CA8FEF790FFF0
:10244000002801D072B6FEE713B030BD403802401C
:10245000007000400248016841F47001016070475B
:1024600088ED00E010B50448FEF75BFBBDE81040C6
:102470000248FFF7FCBA0000E000002054010020F1
:10248000F0B50268294C2A4D2A4E2B4F2B4B4FF0AA
:10249000804CA04209D0604507D0A84205D0B04288
:1024A00003D0B84201D0984204D122F0700E4A689D
:1024B00042EA0E02A0421BD0604519D0A84217D0B4
:1024C000B04215D0B84213D0984211D01C4DA8424A
:1024D0000ED01C4DA8420BD01B4DA84208D01B4D5E
:1024E000A84205D01A4DA84202D01A4DA84203D1E5
:1024F00022F44075CA682A434D6922F080022A43BB
:1025000002608A68C2620A688262A04201D0984270
:1025100001D109690163012141610169C90703D042
:10252000016921F001010161F0BD000000000140DE
:102530000004004000080040000C0040000401407E
:1025400000400140004401400048014000180040A4
:10255000001C00400020004010B5806B0021C185A8
:10256000C184FFF721FB10BD01680C3151E8002F39
:1025700022F4907241E80023002BF5D10168143158
:1025800051E8002F22F0010241E80023002BF5D191
:10259000016B012909D101680C3151E8002F22F0AB
:1025A000100241E80023002BF5D1202180F84210D1
:1025B00000210163704708B590F84210222901D02C
:1025C000022008BD82684FF480539A4201D101690C
:1025D00021B1816A9A421BD04AB10AE00268816A3D
:1025E0005268C2F308020A80816A891C08E0026905
:1025F00072B10268526802F07F020A70816A491C57
:102600008162C18D491E0904090CC18503D01BE0FC
:1026100002685268F1E70168CA6822F02002CA60C5
:102620000168CA6822F48072CA6001684A6922F0AF
:1026300001024A61202180F8421000214163026BAF
:10264000012A03D0FFF7D8FC002008BD0163016810
:102650000C3151E8002F22F0100241E80023002B3A
:10266000F5D101680A68D20602D50A684968009166
:10267000818DFFF798FAE7E770B5044600680169B5
:10268000E26821F44051114301612169A068E269C7
:1026900008436169114308432168CA6849F20C6321
:1026A0009A430243CA6020684169A26921F44071DB
:1026B0001143416131492068884202D03049884243
:1026C00002D1FEF7F7FE01E0FEF7E4FEE269002327
:1026D000192164253226B2F5004F626828D0A0FB8C
:1026E0000101930F9200FDF7BFFD0146B0FBF5F02D
:1026F0006FF01802504301EB800006EB0010B0FBB6
:10270000F5F000F0F002B1FBF5F002EB0012B1FBC6
:10271000F5F06FF01803584301EB800006EB001052
:10272000B0FBF5F000F00F0021681044886070BD28
:10273000A0FB010192185B41FDF796FD0146B0FB3D
:10274000F5F00201B1FBF5F06FF01803584301EB0F
:10275000800006EBC000B0FBF5F000F0F80002EBE3
:102760004002B1FBF5F0584301EB800006EBC000DE
:10277000B0FBF5F000F00700D6E7000000100140C4
:10278000001401402DE9F843984617460D460446CB
:10279000089E24E0701C22D0FEF73AFDA0EB080052
:1027A000B0421AD8CEB12068C168490717D5802D2C
:1027B00015D0402D13D00168C94309070FD4016813
:1027C0000025406800902046FFF7CEFE0820606498
:1027D00084F840500120BDE8F8830320FBE720681F
:1027E000006835EA000004D00020B842D2D00020B2
:1027F000F1E70120F9E700000148FFF7D7B9000031
:102800009C0100200148FFF7D1B90000E40100203D
:10281000FEE70907090E002804DB00F1E02080F83C
:102820000014704700F00F0000F1E02080F8141D44
:10283000704700000026FEF7F9FCFFF7C1FDFFF727
:10284000A3FCFFF77BFCFFF75BFCFFF711FDFFF735
:10285000D1FCFFF725FCFFF7EFFC00212C48FEF729
:1028600012FA2C48FEF7B6F82B48FFF7C3F82B4DA9
:102870002B4C002700232078012229182948FFF734
:1028800063FB30BB607830B101280CD0022810D037
:1028900003281BD129E02078285CA52801D02770C7
:1028A00014E0012011E02078285C5A2809D1022088
:1028B0000BE02078295CA170062902D1801D142824
:1028C00002D32770677001E0032060702078401CFD
:1028D0002070FEF79DFC801BB0F5FA7FCAD3FFF78E
:1028E0003DFDFEF795FC0646C4E72078401CC0B2CB
:1028F0002070A178C91C8842BCD3E878832804D111
:10290000B5F8070040BAFFF7D3FC27706770B1E74E
:10291000E0000020380000205401002024000020A6
:1029200000000020E401002021F00042A2F16052EA
:10293000B2F5801F01F0004328BFD2F17F6C0BD9A4
:102940005FEA001C43EAC20242EB507018BF7047B6
:1029500028BF20F001007047B2F5801FBCBF1846A9
:1029600070474FEA410C1CF5001F02D2084600F0E8
:1029700080BA70B500F024FA00000089FFF7F6BFB6
:102980004FF00040A0F58000704700002DE9C041E5
:1029900030B4DFF8A0C23CEA111418BF3CEA1314AB
:1029A00000F0EC8081EA03051CEA111444EAD574B6
:1029B00018BF1CEA131500F0C780A4EB05044FF004
:1029C000004545EAC12145EAC32341EA505143EAA3
:1029D000525304F17F74994204F500344FEAC02049
:1029E0004FEAC22208BF904200F09C804FEA136574
:1029F0000FF24016765D4FEA134506FB05F7C7F167
:102A0000807706FB07F74FEAD737A7FB03687642C4
:102A1000C8F58038A7FB06CE38BFA8F1010807FB30
:102A200008E64FF0000EA6FB028CE6FB03CEDCF1BD
:102A3000000CCEF1004E38BFAEF1010EA6FB0C58D3
:102A40004FF000074FF00005E6FB0E87A1FB08C61C
:102A5000A0FB07CE16EB0E0645F10005E1FB07656E
:102A600015F1E04E7EBFA4F580345FEA46066D4165
:102A700016F1800745F100054FEA17274FEA066671
:102A800047EA0567A6F1DE46B6F1805F4FEA1525F5
:102A90001FD9384624F0010C05EBC471BCF1FE6F60
:102AA00001EB0C1102D8F0BCBDE8008124425CBFF0
:102AB00001F5801E9EEAC47F02D4F0BCBDE800810F
:102AC000244238D4F0BCA1F1C041BDE8004100F07F
:102AD000C5B94FEAD22242EA43524FEAD323A7FBB9
:102AE00002864FEAD02040EA415007FB03661EEA07
:102AF0000E0F4FEAD12105FB026658BFA6EB005628
:102B0000B6EB00564FEA520E4EEAC37E18EB0E0E9D
:102B100056EB530EBDD518EB02085E417F1C55F1F4
:102B20000005B6E74FF480154FF000074FF00006A0
:102B30004FF00008ADE7F0BC4FF0000001F1C041DC
:102B400001F00041BDE8008111EA0C1F0CEA1315E9
:102B500000D00CE013EA0C1F00F025804FF00000BD
:102B6000F0BC81EA030101F00041BDE80081F0BC46
:102B7000BDE8004181EA030100F070B9F0BCBDE896
:102B8000004170B500F01CF9097EFC3E00F007B86A
:102B900081EA03014FF0000001F00041704781EA33
:102BA000030100F05BB9F0BCBDE800414FF000004C
:102BB00021497047FFFDFBF9F7F5F4F2F0EEEDEB7C
:102BC000E9E8E6E4E3E1E0DEDDDBDAD8D7D5D4D32B
:102BD000D1D0CFCDCCCBCAC8C7C6C5C4C2C1C0BF77
:102BE000BEBDBCBBBAB9B8B7B6B5B4B3B2B1B0AF7D
:102BF000AEADACABAAA9A8A8A7A6A5A4A3A3A2A161
:102C0000A09F9F9E9D9C9C9B9A999998979796951B
:102C100095949393929191908F8F8E8E8D8C8C8BB7
:102C20008B8A89898888878786858584848383823F
:102C3000828181800000FF070000F87F10F00042D1
:102C400048BF4042B0FA80F310FA03F10AD0C3F152
:102C50001D0303F580634FEA415002EB035202EB80
:102C6000D12170474FF0000070470000DFF848C1E5
:102C700070B51CEA111E1EBF1CEA13159EEA0C0F4C
:102C800095EA0C0F00F06F8081EA030423EA4C13ED
:102C90004EEAD47E21EA4C1141F4801143F48013B2
:102CA000AE44A1FB024CA0FB0365AEF17F7E36195A
:102CB00055EB0C05A1FB034C4CF10003A0FB021CDF
:102CC00016EB0C06654153F10003094218BF46F0AC
:102CD000010613F4007F0BD14FEA03314FEA0530B0
:102CE000340341EA155140EA16506FF003020AE03E
:102CF0004FEAC3214FEAC520F40241EA555140EAA8
:102D000056506FF0020202EB2E4201EB025585EAAB
:102D1000CE710AD05FEA440C18BF24F0004450F191
:102D2000000041F1000120EAD47040F2FE7C6245CF
:102D300000D270BDA84214BF4FF080444FF0404411
:102D4000002E08BF0024BEF1806FA8BFA1F1C041D2
:102D5000BDE8704080F282804FF0000001F1C04178
:102D600001F0004170479EEA0C0F0CEA131518BFE2
:102D700095EA0C0F06D04FF0000081EA030E0EF02A
:102D8000004170BD00F01CF88900013E00F007B85A
:102D900000F009B84FEA430C5FEA5C5C08D081EAB6
:102DA000030100F05BB84FEA410C5FEA5C5CF6D1CE
:102DB0004FF00000014970470000FF070000F87F56
:102DC0000EF1020E2EF0030E5EF8046B364205D4AF
:102DD000012A43EB030515F5001F12D8012841EB2A
:102DE000010C1CF5001F0CD80ED14FEAD17C15F553
:102DF000001F0CEB4C0C0CF1020C08BF4CEBD37C0D
:102E000004E04FF0080C01E04FEAD37C0CEB4C05DA
:102E100026FA05F606F00706B6F1040C06D20EEB0C
:102E2000860CBDE870404CF0010C6047DFE80CF008
:102E3000090B02024FF000414FF00000A1F5002104
:102E400070BD19461046012851EB010418BFD4F596
:102E5000001484BF002001F0004170BD0808A0F5F7
:102E600000114FEA310170474FF04070E1EE100A57
:102E70007047FF2141EAD050C00570470006101688
:102E8000000610160000000000000000010203040C
:102E9000060708090000000001020304BC2E000818
:102EA0000000002024000000C4010008E02E0008FB
:102EB000240000206C080000E00100080000000071
:102EC0003C0F00003408000050000000000000002B
:102ED0000100000010000000000000000024F400C9
:040000050800018965
:00000001FF
