:020000040800F2
:10000000380900209D010008271C00086D1A00080F
:10001000251C0008A9020008952000080000000027
:100020000000000000000000000000002B1C000881
:100030002D04000800000000291C00082D1C0008E9
:10004000B7010008B7010008B7010008B7010008B0
:10005000B7010008B7010008B7010008B7010008A0
:10006000B7010008B7010008B7010008B701000890
:10007000B7010008B7010008B7010008B701000880
:100080007D030008B7010008B7010008B7010008A8
:10009000B7010008B7010008B7010008B701000860
:1000A000B7010008B7010008B7010008B701000850
:1000B000B7010008B7010008B7010008B701000840
:1000C000B7010008B7010008B7010008B701000830
:1000D000B70100087D200008B7010008B70100083B
:1000E000B7010008B7010008B7010008B701000810
:1000F000B7010008B7010008B7010008B701000800
:10010000B7010008B7010008B7010008B7010008EF
:10011000B7010008B7010008B7010008B7010008DF
:10012000B7010008B7010008B7010008B7010008CF
:10013000B7010008B7010008B7010008B7010008BF
:10014000B7010008B7010008B7010008B7010008AF
:10015000B7010008B7010008B701000889200008AE
:10016000B7010008B7010008B7010008B70100088F
:10017000B7010008B7010008B7010008000000003F
:10018000B7010008B7010008DFF80CD000F07AF8DA
:1001900000480047F12A0008380900200648804737
:1001A00006480047FEE7FEE7FEE7FEE7FEE7FEE75C
:1001B000FEE7FEE7FEE7FEE7C11C00088901000834
:1001C0002DE9F05F0546002092469B46884606468C
:1001D000814640241BE0284641464746224600F01F
:1001E00041F853465A46C01A914110D31146184659
:1001F000224600F028F82D1A67EB01084F462246E8
:100200000120002100F01FF817EB00094E41201ECD
:10021000A4F10104DFDC484631462A464346BDE8E6
:10022000F09FD2B201E000F8012B491EFBD27047CB
:100230000022F6E710B513460A4604461946FFF7B2
:10024000F0FF204610BD202A04DB203A00FA02F11C
:10025000002070479140C2F1200320FA03F31943B4
:1002600090407047202A04DB203A21FA02F0002156
:10027000704721FA02F3D040C2F1200291400843B6
:1002800019467047064C074D06E0E06840F0010350
:1002900094E8070098471034AC42F6D3FFF778FF94
:1002A000802B0008A02B0008FEE710B5846B2046C9
:1002B00000F072F90120207110BD10B5846B20464A
:1002C00000F040F90120207110BD10B5846B206949
:1002D00040F004002061204600F060F90120207108
:1002E00010BD10B5846B206940F0040020612046E9
:1002F00000F02AF90120207110BD10B5806B00F0CC
:100300004CF910BD10B5806B00F01DF910BD000058
:1003100008B50020009004486423002102680348C7
:1003200000F0A2F908BD00000000002044030020F6
:100330000021014800F008BA4403002010B504462B
:10034000FFF7F6FF0A480B492CB1012C08D0022C0C
:1003500009D0032C09D00860BDE81040FFF7D8BFD2
:100360000348C830F7E70448F5E70348C830F2E728
:100370002400002000000020B4010020014800F00B
:1003800067BA00005803002001681823CAB2103A67
:10039000B2FBF3F2054B6FF30901032A9B5CC365C3
:1003A00000D9091D8165084670470000402B0008F0
:1003B00010B5014600208B698A6A4FF0C07453B1B2
:1003C000B3F5005F15D072B1012A0CD0022A0AD011
:1003D000032A09D104E01AB1012A06D0022A03D166
:1003E000C96AC90100D5012010BDC96AA142FAD06D
:1003F00010BD002AF7D0012AF2D0022AF3D0032A36
:10040000F3D010BD30B50468256825F4802525603B
:10041000046863608368402B036803D099600068B8
:10042000C26030BD9A600068C16030BD704772B66E
:10043000FEE700002DE9F0479FED3E0A404D002405
:100440002DED068B4FF4805905F1C80605F5C877E8
:100450009FED369ADFED369A9FED37AA39EE008A86
:1004600079EE408ADFED35AA05F5167800EE104AE0
:10047000B8EEC00A60EE0A0A80EEAA0A01F05EFF3A
:10048000F0EE490A40EE290ABCEEE00A10EE100A2E
:1004900080B2484501D340F6FF7000EE100A25F8FF
:1004A0001400B8EE400AB4EEC08AF1EE10FA05D29C
:1004B000BCEEC80A10EE101A89B200E0014600EE48
:1004C000100A26F81410B8EE400AF4EEC08AF1EED5
:1004D00010FA05DDBCEEE80A10EE101A89B200E051
:1004E000014600EE100A27F81410B8EE400AB4EEE8
:1004F000C08AF1EE10FA02D2BCEEC80A0AE000EEA1
:10050000100AB8EE400AF4EEC08AF1EE10FA03DDEC
:10051000BCEEE80A10EE100A28F81400641C642CE3
:10052000A4DBBDEC068BBDE8F087000000F0FF44C3
:1005300000C0CC446646B844DA0FC9400000C84247
:100540002400002070477047704770B500B3F9B1C0
:100550004379012B1ED001264671022303710568E1
:100560002C6802F0100340F6FE729A409443D1E9E1
:1005700000210A439A4022432A6001680A68C02485
:100580009C40A2430A60067100214171084670BD7B
:10059000012070BD022070BD70477047704770B574
:1005A000040003D02079002510B105E0012070BDC2
:1005B0006571204600F008F80220207125610120B5
:1005C0002071002070BD000070B586B00546142172
:1005D0006846FFF72DFE1F492868884238D11E481B
:1005E0000026016841F000510160006800F00050F1
:1005F000059019481038016841F001010160006858
:10060000694600F001000590102000900320CDE91C
:100610000106124800F08EFA124C114820604FF08B
:10062000606060604020C4E9020600012061400073
:1006300060618000A0614011E0614002C4E90806E9
:10064000204600F0D5F908B1FFF7F1FEAC60A563D4
:1006500006B070BD00740040403802400000024007
:1006600088600240580300202DE9F04104000698FC
:1006700017460D461BD0617901291BD001266671F2
:1006800002212171C5B1E2682949D163E268294993
:100690001164E2682849D16421680A6842F08052F6
:1006A0000A6040B32268042828D01C3227E00120C9
:1006B000BDE8F0810220FBE7A2682049D163A2686F
:1006C0001F491164A2681F49D16421680A6842F475
:1006D00080520A6020B12268042804D0103203E05E
:1006E0002268083200E00C322068016841F40051B1
:1006F0000160A06809E02268143200E01832206826
:10070000016841F000510160E068394600F0DAF913
:100710000021617120B1216941F004012161C7E725
:1007200021680A6805F010039E4032430A60BFE763
:10073000BB02000805030008E3020008AB02000842
:10074000FB020008CB02000870B504001BD0206833
:10075000036801F010024FF480559540AB430360ED
:1007600020680368012505FA02F29343036061B132
:10077000E06800F012F82068016821F00051016083
:100780002571002070BD012070BDA06800F005F843
:100790002068016821F40051F1E72DE9F041044699
:1007A000876D00F0C5FA064694F83500002502284A
:1007B00006D08020606584F834500120BDE8F081C7
:1007C0002068016821F0160101602068416921F06C
:1007D00080014161206C08B9A06C20B120680168DB
:1007E00021F0080101602068016821F00101016029
:1007F0000CE000F09DFA801B052807D920206065D9
:10080000032084F8350084F83450D7E72068006866
:10081000C007EED194F85C103F208840B8600120FA
:1008200084F8350084F834500020C7E790F835107C
:10083000022903D08021416501207047052180F8FD
:1008400035100068016821F0010101600020704747
:100850002DE9F84304464FF00009CDF800906348B5
:100860004FF41651A56D0068B0FBF1F72E6894F8AF
:100870005C10082000FA01F131420FD021680A68AB
:1008800052070BD50A6822F004020A6094F85C1043
:100890008840A860606D40F00100606594F85C10CD
:1008A0004FF0010808FA01F0304208D02168496988
:1008B000090604D5A860606D40F00200606594F8F8
:1008C0005C1004208840304208D0216809688907FC
:1008D00004D5A860606D40F00400606594F85C1079
:1008E00010208840304218D021680968090714D5C3
:1008F000A86020680168490304D50068000308D592
:10090000A16C07E00168C90503D4016821F0080162
:100910000160216C09B12046884794F85C102020C2
:100920008840304231D021680968C9062DD5A860B9
:1009300094F8350005282068016806D0490347D59A
:10094000006800031DD4616C1CE021F016010160F9
:100950002068416921F080014161206C08B9A06CD8
:1009600020B12068016821F00801016094F85C1052
:100970003F208840A86084F8358084F83490216D49
:100980001FE0E16B09B120468847606D00282BD03D
:10099000606DC00714D0052084F835002068016818
:1009A00021F0010101600098401C0090B84203D87A
:1009B00020680068C007F6D184F8358084F8349048
:1009C000E16C002910D001B02046BDE8F043084793
:1009D0000168C905D5D4016821F01001016084F8CF
:1009E000358084F83490CCE7BDE8F883140000200B
:1009F0002DE9F041044600F09BF906465CB1022067
:100A000084F83500002584F834502068016821F00E
:100A1000010101600DE00120BDE8F08100F088F9DE
:100A2000801B052805D920206065032084F8350047
:100A3000F2E720680068C007F0D1226811682048FA
:100A40000140D4E901031843D4E903363343184382
:100A500063691843A3691843E3691843236A184379
:100A60000843616A042903D1D4E90B1319430843ED
:100A7000106020684069666A20F0070130460E4326
:100A8000012704280CD1A06A0643E06A40B1204641
:100A9000FFF78EFC20B14020606584F83570BAE71E
:100AA000206846612046FFF76FFC94F85C203F21E8
:100AB00091408160656584F835700020ACE70000E6
:100AC0003F8010F02DE9F0410446866D90F8340027
:100AD000002501280DD0012084F8340094F83570E9
:100AE0000020012F07D084F8340002252846BDE8F5
:100AF000F0810220FBE7022784F83570606520460C
:100B0000FFF780FC94F85C103F208840B0602068BC
:100B1000016841F016010160206C20B12068016875
:100B200041F0080101602068016841F001010160A5
:100B3000DCE700002DE9F84FDFF8BCA10022012519
:100B400003264FF00F090AF1040BAAF1040E00BFAF
:100B50000B6805FA02F42340A34270D10F7907F025
:100B60000307012F01D0022F16D187684FEA4208F0
:100B700006FA08FC27EA0C07D1F80CC00CFA08FCAE
:100B80004CEA070CC0F808C04768A7430C79C4F3C7
:100B9000001494403C4344600C79E443A4070AD019
:100BA000C4684FEA420C06FA0CF7BC438F6807FA98
:100BB0000CF72743C7600C7904F00304022C12D110
:100BC000D40800EB840CDCF820405707FF0E09FA2C
:100BD00007F824EA0804D1F8108008FA07F848EA70
:100BE0000408CCF8208004684FEA420C06FA0CF79F
:100BF000BC430F7907F0030707FA0CF72743076098
:100C00004C6814F4403F70D03C4C276847F4804750
:100C10002760246822F0030704F480440094384CD1
:100C200007EB040CDCF8084897074FEA177809FA35
:100C300008F7BC43334FB84202D1002724E054E008
:100C4000314FB84201D101271EE0304FB84201D1E7
:100C5000022719E02E4FB84201D1032714E02D4F8F
:100C6000B84201D104270FE02B4FB84201D105272C
:100C70000AE02A4FB84201D1062705E0284FB842C2
:100C800001D1072700E0082707FA08F72743CCF827
:100C90000878DAF800405746D1F804C09C435FEA70
:100CA000CC2C00D51C433C60DBF800405F46D1F8FB
:100CB00004C09C435FEA8C2C00D51C433C60DEF8EA
:100CC00000407746D1F804C09C435FEA8C3C00D5D5
:100CD0001C433C60084F083F3C68D1F804C09C436B
:100CE0005FEACC3C00D51C433C60521C102AFFF448
:100CF0002FAFBDE8F88F0000083C014044380240A7
:100D000000300140000002400004024000080240A0
:100D1000000C024000100240001402400018024083
:100D2000001C02400AB1816170470904FBE7000022
:100D30000148806870470000080000200248816870
:100D40000278114481607047080000200B4810B5FC
:100D5000016841F400710160016841F48061016043
:100D6000016841F480710160032000F06FF80F20EA
:100D700000F006F800F024F8002010BD003C02400E
:100D800070B50D4D04464FF47A712878B1FBF0F040
:100D90000A490968B1FBF0F000F00CFB48B9102CCF
:100DA00007D200222146501E00F030F800206C606F
:100DB00070BD012070BD000008000020140000205C
:100DC0000A4808B5016841F480410160006800F4F8
:100DD000804000900548001F016841F0805101608B
:100DE000006800F08050009008BD000044380240C8
:100DF000002809DB00F01F0201219140400980001A
:100E000000F1E020C0F8001170470000F0B40E4B74
:100E10001B680C46C3F30223C3F10705042D00D958
:100E20000425191D072901D2002300E0DB1E01263D
:100E300006FA05F1491E214099409E40761E164053
:100E40003143F0BC01F069BA0CED00E0064900F056
:100E5000070208684FF6FF03184040EA0220034AE1
:100E600010430860704700000CED00E00000FA0538
:100E70002DE9F0470E46050065D0DFF81481D8F85B
:100E80000000F7B200F00700B04207D288F8007007
:100E9000D8F8000000F00700B04254D128683D4C5B
:100EA000810712D5400703D5206840F4E050206048
:100EB0002878000703D5206840F46040206020684F
:100EC000A96820F0F000084320602878C0072DD0E2
:100ED000304968680839012812D0022813D0032845
:100EE00011D00968890700292DDA216821F0030152
:100EF00001432160FFF71CFF814641F2883A0EE072
:100F000009688903EFE709688901ECE7FFF710FF3B
:100F1000A0EB0901514502D90320BDE8F087206804
:100F2000696800F00C00B0EB810FEFD1D8F8001029
:100F3000404601F00701B14207D90770006800F090
:100F40000700B04201D00120E7E72878400705D527
:100F50002068E96820F4E050084320602878000702
:100F600006D52068296920F4604040EAC10020606D
:100F700000F038F82168084AC1F30311515CC840F9
:100F80000649086006480068FFF7FAFE0020C4E73B
:100F9000003C024008380240482B000814000020A2
:100FA0000C0000200448054900680968044AC1F3A0
:100FB0008221515CC840704714000020083802406C
:100FC000582B00080448054900680968044AC1F321
:100FD0004231515CC840704714000020083802407C
:100FE000582B0008154810B5006810F00C02144882
:100FF00013D01449042A0FD0082A0ED10F4C241FF5
:101000002268236802F03F025B0207D52068C0F324
:101010008810A0FB010106E0084610BD2168C1F35D
:101020008811A1FB00010023FFF7CAF82168C1F372
:101030000141491C4900B0FBF1F010BD08380240E5
:101040000024F40040787D012DE9F84F04006ED0B3
:101050002078DFF84C93C007A9F104054AD009F1C4
:1010600004000168C1F38101012908D00068C0F3C0
:10107000810002280AD1D9F80000400206D528686C
:10108000800337D560680028E1D033E06068B0F5B0
:10109000803F10D0B0F5A02F286810D020F4803009
:1010A0002860286820F4802028606068A8B1FFF7D5
:1010B0003FFE06460DE0286840F48030F4E740F437
:1010C00080202860F7E700BFFFF732FE801B64280E
:1010D00073D828688003F7D50CE0FFF729FE064691
:1010E00005E000BFFFF724FE801B6428F0D82868C5
:1010F0008003F7D42078DFF8AC8280074FF0000A35
:101100003ED5A748001D016811F00C0F08D00068FB
:10111000C0F3810002280BD1D9F80000400207D4A7
:101120002868800716D5E068012800D112E033E175
:10113000E068B8B10120C8F80000FFF7F9FD0646E5
:1011400005E000BFFFF7F4FD801B0228C0D8286827
:101150008007F7D52868216920F0F80040EAC1002F
:1011600028600DE0C8F800A0FFF7E2FD064604E0A5
:10117000FFF7DEFD801B02281FD828688007F7D400
:101180002078000722D5864F87486169703771B192
:1011900001210160FFF7CCFD064604E0FFF7C8FD22
:1011A000801B022809D838688007F7D50EE0C0F800
:1011B00000A0FFF7BDFD064605E082E0FFF7B8FDA1
:1011C000801B02287DD838688007F7D42078400734
:1011D00068D5DFF8CCB100270BF13C0BDBF8000041
:1011E000C0000BD4DBF8001041F08051CBF80010A8
:1011F000DBF80000012700F0805000906B4E306853
:10120000C00510D4306840F480703060FFF790FD66
:10121000009005E0FFF78CFD0099401A022850D895
:101220003068C005F6D55E4EA0686C3601280FD038
:101230000528306810D020F001003060306820F0C0
:1012400004003060A068B8B1FFF772FD00900FE0B5
:10125000306840F00100F4E740F004003060F7E748
:10126000FFF766FD0099411A41F28830814266D845
:1012700030688007F4D50EE0FFF75AFD009007E0D4
:10128000FFF756FD0099411A41F28830814256D845
:1012900030688007F4D42FB1DBF8001021F08051C2
:1012A000CBF80010A069C8B33D49091D0968C1F316
:1012B000810102294AD00228504607D0C8F86000B0
:1012C00000E03CE0FFF734FD04463BE04746C8F849
:1012D0006000FFF72DFD064605E000BFFFF728FD83
:1012E000801B02282BD828688001F7D4D4E9070195
:1012F0000843A16A2E4A490802EB0141626A41EAA9
:101300008211084394F82C1040EA0161C9F80010DA
:1013100001203866FFF70CFD044606E03EE000BF02
:10132000FFF706FD001B022809D828688001F7D5C1
:1013300034E000BFFFF7FCFC001B022802D90320A9
:10134000BDE8F88F28688001F4D427E00128F7D0A1
:10135000D9F80000E26900F4800191421CD1226AB0
:1013600000F03F01914217D147F6C071626A014017
:10137000B1EB821F10D1A26A4FF0FF3300F440316D
:1013800003EB5202B1EB024F06D194F82C1000F09F
:101390007060B0EB016F01D00120D1E70020CFE7F2
:1013A0000438024000004742800E4742007000406F
:1013B0000000FFFF10B5401EB0F1807F01D3012077
:1013C00010BD4FF0E02460610F21601700F0A5FF11
:1013D0000020A06107202061002010BD70B590F8AA
:1013E0003C20012A32D0012480F83C40022280F8BF
:1013F0003D2003685A689D6822F070060A683243EF
:101400005A60134B02689A4214D0B2F1804F11D047
:10141000104B9A420ED0104B9A420BD00F4B9A426F
:1014200008D00F4B9A4205D00E4B9A4202D00E4B79
:101430009A4204D1496825F080031943916080F8ED
:101440003D40002180F83C10084670BD022070BD70
:10145000000001400004004000080040000C004073
:1014600000040140004001400018004010B5040095
:1014700003D094F83D0010B107E0012010BD00201A
:1014800084F83C00204600F01FF8022084F83D005C
:10149000211D206800F01CFC012084F8460084F81F
:1014A0003E0084F83F0084F8400084F8410084F84E
:1014B000420084F8430084F8440084F8450084F82E
:1014C0003D00002010BD000008B5006806498842B4
:1014D00008D10648016841F010010160006800F081
:1014E0001000009008BD000000100040403802408D
:1014F00090F83D10012901D001207047022180F8A9
:101500003D1000681149884214D0B0F1804F11D0CD
:101510000F4988420ED00F4988420BD00E498842AD
:1015200008D00E49884205D00D49884202D00D49A5
:10153000884204D1816801F00701062903D00168BF
:1015400041F00101016000207047000000000140EF
:101550000004004000080040000C0040000401406E
:10156000004001400018004070477047F8B501681E
:1015700004460868CA684B6910F00F0F4FF0000569
:101580005AD003F0010602F49077374365D0C107C3
:1015900005D0D10503D5616C41F0010161644107BB
:1015A00005D5D90703D0616C41F002016164810760
:1015B00005D5D90703D0616C41F0040161640107CE
:1015C00007D502F02001314303D0616C41F00801DE
:1015D0006164616C00293BD0800604D5900602D579
:1015E000204600F010FC20684069616CC0F3801058
:1015F00001F00801014320462BD000F0DDFB2068FC
:101600004069400621D52068143050E8001F21F0C1
:10161000400140E80012002AF5D1E06BA8B16E4904
:101620000165E06BFFF702F9002811D0E06B016D56
:1016300001B0BDE8F040084783060ED593060CD5EF
:101640002046BDE8F84000F0DEBB2046FFF78DFFE6
:10165000F8BDFFF78AFF6564F8BD266B2023012ED5
:101660007DD1C6067BD5D60679D508684868009036
:1016700048694FF00206400641D5E16B08684068B2
:101680000004000CE8D0A28D8242E5D9E085C8694B
:10169000B0F5807F2DD020680C3050E8001F21F479
:1016A000807140E80012002AF5D12168143151E818
:1016B000000F20F0010041E80002002AF5D1206867
:1016C000143050E8001F21F0400140E80012002AC9
:1016D000F5D184F84230256320680C3050E8001FB3
:1016E00021F0100140E80012002AF5D1E06BFFF76D
:1016F00054F86663A08DE18D401A81B22AE0A08D76
:10170000E18D401A81B2E08D0028A5D00029A3D038
:1017100022680C3252E8000F20F4907042E8000773
:10172000002FF5D12068143050E8002F22F001027C
:1017300040E80027002FF5D184F842302563206867
:101740000C3050E8002F22F0100240E80023002B5C
:10175000F5D166632046FFF707FFF8BDFFE70506F2
:101760002BD5150629D594F841002128F5D1A0687C
:10177000B0F5805F01D12069B0B1206A411C2162BF
:10178000216800784860E08C401E0004000CE08472
:10179000E3D12068C16821F08001C1602068C16880
:1017A00041F04001C160D8E7206A0088C0F308001A
:1017B0004860206A801C2062E5E74006CDD55006CF
:1017C000CBD5CA68204622F04002CA6084F8413076
:1017D00000F04BF9C1E70000A91D000870B5040036
:1017E00004D094F84100002510B106E0012070BD3E
:1017F00084F84050204600F023F8242084F841006B
:101800002068C16821F40051C160204600F05CFBF3
:101810002068016921F4904101612068416921F04B
:101820002A0141612068C16841F40051C1606564CA
:10183000202084F8410084F842006563002070BDD8
:1018400070B586B0044614216846FEF7F1FC2A48BC
:10185000284E256800242849143802220323B54263
:1018600020D10D6845F010050D60096801F01001E8
:101870000591016841F0010101600068694600F0CE
:101880000100059058028DE815000720CDE90330CE
:101890001A48FFF74FF9002201212520FFF7B6FA79
:1018A000252022E0164EB54221D10D6845F02005D5
:1018B0000D60096801F020010591016841F0040103
:1018C00001600068694600F004000590C0208DE8C2
:1018D00015000820CDE903300A48FFF72BF9002254
:1018E00011464720FFF792FA4720FFF781FA06B02A
:1018F00070BD00000010014044380240000002406A
:10190000001401400008024090F84230202B01D022
:101910000220704721B11AB10023036300F05ABBC3
:101920000120704710B50068164988421BD116483F
:10193000002102460378154C50880A2B11D02354FD
:10194000401C80B25080642800D351800F4801228F
:101950000D49643000F070F80C4801220A496430E7
:101960000AE02154F1E70A49884209D100F050FC0D
:10197000064801220749AC30BDE81040FFF7C4BF5C
:1019800010BD0000001001400400002000040020F1
:10199000001401401B0000202DE9F843044690F894
:1019A0004100984616460D46202802D00220BDE888
:1019B000F88385B17EB100206064212084F8410065
:1019C000FFF7B6F9A6848146E684A0682027B0F523
:1019D000805F02D003E00120E9E7206910B12E46C4
:1019E00000250EE000260CE08021204600F00DFBD3
:1019F000A8B9C6B116F8010B21684860E08C401EFA
:101A0000E084E08C4B464FF00002CDF800800028C7
:101A1000EAD14FF04001204600F0F7FA40B184F8D7
:101A200041700320C3E735F8020BC0F30800E3E779
:101A300084F841700020BAE790F84130202B01D0A3
:101A40000220704779B172B101628284C2840021A0
:101A50004164212180F841100068C16841F0800193
:101A6000C16000207047012070477047FEE700000A
:101A70001CB500240C4900940A48019408600846EB
:101A8000FEF78DFD08B1FEF7D2FC0420CDE900047D
:101A9000002269460448FEF758FD002801D0FEF7F1
:101AA000C6FC1CBD0074004044030020094808B572
:101AB000016841F4001101600068002200F4001088
:101AC000009011461020FFF7A1F9BDE80840102052
:101AD000FFF78EB93038024070B586B014216846E1
:101AE000FEF7A6FB1A480025016841F001010160DC
:101AF000016801F001010591016841F010010160E8
:101B0000016801F010010591016841F004010160D4
:101B1000016801F004010591016841F002010160D2
:101B200000680C4E00F002004FF42864059000227B
:101B300021463046FFF7F6F80120CDE900400220AB
:101B4000CDE9025069463046FEF7F4FF06B070BD9D
:101B500030380240001002401CB500240E480094AA
:101B60000C49019401605321C0E9011409218461E9
:101B7000C160FFF77BFC08B1FEF759FC2020CDE9DE
:101B8000000469460448FFF729FC002801D0FEF74D
:101B90004EFC1CBD00100040B80300200E4810B5DC
:101BA0000C4901604FF4E1314160002181600C2259
:101BB000C160C0E904128161C161FFF70FFE08B185
:101BC000FEF735FCBDE81040012204490248FFF74A
:101BD0009BBE0000001001406404002004000020AF
:101BE0000E4810B50C4901604FF4E131416000210D
:101BF00081600C22C160C0E904128161C161FFF7FC
:101C0000EDFD08B1FEF713FCBDE8104001220449C8
:101C10000248FFF779BE000000140140AC04002028
:101C20001B000020FEE7FEE770477047FFF786B80D
:101C300030B593B030216846FEF7FAFA14210CA8AB
:101C4000FEF7F6FA1C480024016841F0805101605B
:101C5000006800F0805011901848016841F48041FC
:101C600001600068022500F480401190012003907B
:101C70001020009506950490CDE90740A820CDE9F5
:101C8000090504200B906846FFF7DEF908B172B62B
:101C9000FEE70F20CDE90C054FF48050CDE90E4052
:101CA00002210CA81094FFF7E3F8002801D072B6C7
:101CB000FEE713B030BD0000403802400070004025
:101CC0000248016841F470010160704788ED00E04E
:101CD000F0B50268294C2A4D2A4E2B4F2B4B4FF062
:101CE000804CA04209D0604507D0A84205D0B04240
:101CF00003D0B84201D0984204D122F0700E4A6855
:101D000042EA0E02A0421BD0604519D0A84217D06B
:101D1000B04215D0B84213D0984211D01C4DA84201
:101D20000ED01C4DA8420BD01B4DA84208D01B4D15
:101D3000A84205D01A4DA84202D01A4DA84203D19C
:101D400022F44075CA682A434D6922F080022A4372
:101D500002608A68C2620A688262A04201D0984228
:101D600001D109690163012141610169C90703D0FA
:101D7000016921F001010161F0BD00000000014096
:101D80000004004000080040000C00400004014036
:101D9000004001400044014000480140001800405C
:101DA000001C00400020004010B5806B0021C18560
:101DB000C184FFF7DAFB10BD01680C3151E8002F38
:101DC00022F4907241E80023002BF5D10168143110
:101DD00051E8002F22F0010241E80023002BF5D149
:101DE000016B012909D101680C3151E8002F22F063
:101DF000100241E80023002BF5D1202180F8421089
:101E000000210163704708B590F84210222901D0E3
:101E1000022008BD82684FF480539A4201D10169C3
:101E200021B1816A9A421BD04AB10AE00268816AF4
:101E30005268C2F308020A80816A891C08E00269BC
:101E400072B10268526802F07F020A70816A491C0E
:101E50008162C18D491E0904090CC18503D01BE0B4
:101E600002685268F1E70168CA6822F02002CA607D
:101E70000168CA6822F48072CA6001684A6922F067
:101E800001024A61202180F8421000214163026B67
:101E9000012A03D0FFF746FD002008BD0163016859
:101EA0000C3151E8002F22F0100241E80023002BF2
:101EB000F5D101680A68D20602D50A68496800911E
:101EC000818DFFF751FBE7E770B5044600680169B3
:101ED000E26821F44051114301612169A068E2697F
:101EE00008436169114308432168CA6849F20C63D9
:101EF0009A430243CA6020684169A26921F4407193
:101F00001143416131492068884202D030498842FA
:101F100002D1FFF757F801E0FFF744F8E269002328
:101F2000192164253226B2F5004F626828D0A0FB43
:101F30000101930F9200FEF743F90146B0FBF5F063
:101F40006FF01802504301EB800006EB0010B0FB6D
:101F5000F5F000F0F002B1FBF5F002EB0012B1FB7E
:101F6000F5F06FF01803584301EB800006EB00100A
:101F7000B0FBF5F000F00F0021681044886070BDE0
:101F8000A0FB010192185B41FEF71AF90146B0FB74
:101F9000F5F00201B1FBF5F06FF01803584301EBC7
:101FA000800006EBC000B0FBF5F000F0F80002EB9B
:101FB0004002B1FBF5F0584301EB800006EBC00096
:101FC000B0FBF5F000F00700D6E70000001001407C
:101FD0000014014081628285C28500214164222172
:101FE00080F84210016921B10168CA6842F4807228
:101FF000CA6001684A6942F001024A610068C1682A
:1020000041F02001C160002070472DE9F843984657
:1020100017460D460446089E24E0701C22D0FEF7A9
:1020200087FEA0EB0800B0421AD8CEB12068C16884
:10203000490717D5802D15D0402D13D00168C9430D
:1020400009070FD401680025406800902046FFF77B
:10205000B3FE0820606484F840500120BDE8F88396
:102060000320FBE72068006835EA000004D0002068
:10207000B842D2D00020F1E70120F9E70148FFF78C
:1020800075BA0000640400200148FFF76FBA000031
:10209000AC040020FEE7000070B503296ED3017880
:1020A00083296BD1B0F80110354C49BAC078651559
:1020B000E614A1F58061DA391ED0012932D0022957
:1020C00046D003295AD1012858D12EA000F002F998
:1020D000012280212046FEF725FE012229462046C6
:1020E000FEF720FE002231462046FEF71BFE0320AD
:1020F000BDE87040FEF722B901283FD12CA000F0C6
:10210000E9F8002280212046FEF70CFE0122294634
:102110002046FEF707FE002231462046FEF702FE6B
:102120000020E5E7012829D128A000F0D3F80022FB
:1021300080212046FEF7F6FD002229462046FEF7C4
:10214000F1FD012231462046FEF7ECFD0120CFE7EC
:10215000012813D125A000F0BDF8002280212046DF
:10216000FEF7E0FD002229462046FEF7DBFD0022B7
:1021700031462046FEF7D6FD0220B9E770BD0000CB
:10218000001002404F757470757420626964697242
:10219000656374696F6E616C20646973746F7274C7
:1021A000696F6E2073696E65207761766500000047
:1021B0004F75747075742061206E6F726D616C2044
:1021C00073696E6520776176650000004F757470E5
:1021D000757420746F7020646973746F7274696FA2
:1021E0006E2073696E652077617665004F75747037
:1021F000757420626F74746F6D20646973746F728C
:1022000074696F6E2073696E652077617665000072
:102210002DE9F041264C274DE01CA3780078ABB1A6
:102220002146002609784A1CD2B2012B16D0022B77
:102230001CD0032B10D1685422706078C01C8242DD
:102240000AD31DA000F046F800271AE0A52803D104
:10225000287001202070A070BDE8F0815A2801D0BC
:10226000267023E0685422700220F4E7685422703C
:1022700060700320EFE7E95D12A000F02BF87F1CEF
:10228000BFB26078C01C8742F5D310A000F022F8DE
:1022900062784FF0FF3307490D48D21CFFF77CFBF3
:1022A0006178E81CFFF7F8FE26706670A670D3E729
:1022B00018000020140500205B5553415254365D30
:1022C0003A20000025303258200000000A000000AB
:1022D000AC0400200FB4054B10B503A9044A0298C2
:1022E00000F0C8F910BC5DF814FB0000D92A000802
:1022F0001C0000204100080218BF04200A0E18BF6D
:1023000040F001004FF07F4232EA010108BF40F087
:102310000200012808BF052070470907090E0028A0
:1023200004DB00F1E02080F80014704700F00F009B
:1023300000F1E02080F8141D7047000000B510EE99
:10234000101A2DED028B81B0524A6846B2EB410F54
:102350002ED94FF0E640B0EB410F94BF00204FF074
:10236000FF3000900098B0EE408A00286ADB10F041
:10237000010F4BD068EE080A9FED471A9FED470A00
:1023800000EE810A9FED461A10F0020F00EE801A4F
:10239000B7EE000A00EE810A02BF01B0BDEC028B6D
:1023A00000BD00BF01B0B1EE400ABDEC028B00BD24
:1023B0003C4B21F00042934241D911F0004FDFED38
:1023C0003A0A20EE201ADFED390A19BF31EE601A01
:1023D00071EE200A31EE201A71EE600ABDEEE01AAD
:1023E00011EE100A9FED321A00F0030000EEC10A50
:1023F0009FED301A009000EEC10A9FED2F1A00EEFB
:10240000C10A9FED2E1A00EEC10AABE728EE080ABA
:102410009FED2B1ADFED2B0A10F0020F40EE410A60
:102420009FED291A00EE201A61EE000AB0EE480A6C
:1024300008EE200AB6D101B0BDEC028B00BD00F061
:1024400059F88FE718EE100A4000B0F17F4F0DD217
:1024500018EE100AFFF74EFF042808BF00F042F8FC
:10246000B0EE480A01B0BDEC028B00BD09D10120DD
:1024700000F0FAF801B0BDEC028B5DF804EB00F05F
:1024800029B801B0B0EE480ABDEC028B5DF804EB50
:1024900000F01CB8B61F927EB93AB2BACA9F2A3D64
:1024A000DDFFFFBE490E494683F9223F0000004B85
:1024B0000000C93F00A0FD390020A2331A61342C6E
:1024C000336D4C39DA82083CA0AA2ABE30EE000AED
:1024D00070470000DFED020A80EEA00A704700009E
:1024E000000000009FED020A20EE000A7047000085
:1024F000000000102DE9F0014FF07F42B2EB410FD8
:102500009FBF4FF0FF310160BDE8F00170474FF011
:10251000004242EA0123C1F3C752783A551112F042
:102520001F0C434CCCF120067C44C1F3C752A2F1EE
:1025300078024FEA621204EB820254F8254008BF89
:10254000D2E9015612D0556804FA0CF425FA06F7C0
:102550003C43976805FA0CF527FA06F8D26807FAA3
:102560000CFCF24045EA08054CEA0206A4FB034CC9
:10257000A5FB0352A6FB03631D449D4234BF012605
:1025800000261319334416B1934202D903E0934253
:1025900001D2012200E00022624402F1200C9206E6
:1025A000DC0C42EA443200EE102A5B03DFED210A24
:1025B000F8EEC01A00EE103A4FEA9C1C11F0004FE2
:1025C000B8EE400AC0F800C020EE201A00EE105A03
:1025D000DFED190AB8EE400A20EE200A71EE810AFA
:1025E00070EE800A10EE902A02F500626FF30B0283
:1025F00000EE902A70EEE11A31EEC11ADFED101AEA
:1026000030EE411A9FED0D0A20EE800A01EE210AFC
:102610009FED0C1A00EE810A04BFBDE8F00170477F
:10262000CCF180510160BDE8F001B1EE400A704785
:1026300034060000000000360000802C22AAFD298C
:10264000DB0FC92F0000C92F02E008C8121F08C104
:10265000002AFAD170477047002001E001C1121F23
:10266000002AFBD170470000014908607047000054
:10267000200000202DE9FF4F8DB00F4605460026B3
:1026800006E025280BD0DDE90F1290476D1C761C63
:1026900028780028F5D111B03046BDE8F08F00242D
:1026A000A246A1460122EC4900E0044315F8013F8F
:1026B000203B02FA03F00842F7D128782A2810D0EC
:1026C0006FF02F022878A0F13001092914D80AEB05
:1026D0008A0102EB410144F0020400EB010A6D1C87
:1026E000F0E701CF5FEA000A03D544F40054CAF1D1
:1026F000000A44F002046D1C28782E2817D115F822
:10270000010F44F004042A280ED06FF02F0228781D
:10271000A0F1300109290AD809EB890102EB410136
:1027200000EB01096D1CF2E757F8049B6D1C28783B
:102730006C280FD006DC4C2817D068280DD06A28EA
:1027400014D104E0742810D07A280FD10DE044F49D
:1027500000140AE044F4801401E044F44014697861
:10276000814202D104F580146D1C6D1C2A786E2AFA
:102770001FD00CDC632A31D004DC002A8BD0582A0D
:1027800011D1A3E0642A68D0692A0CD165E0732ACC
:102790002ED004DC6F2A73D0702A04D19BE0752AF6
:1027A0006FD0782A6ED01046DDE90F129047761C64
:1027B00050E1C4F30250022806D0032809D00428AF
:1027C00001CF09D0066045E101CFF117C0E90061F2
:1027D00040E101CF06803DE106703BE117F8040BB4
:1027E0008DF8000000208DF80100EB46012003E089
:1027F00057F804BB4FF0FF3061074FF0000102D4DF
:102800000DE008F10101884649450FDA8045F8DB03
:102810001BF808100029F4D108E008F101018846EE
:102820008142FADB1BF808100029F6D1DDE90F23FD
:10283000AAEB08008146214600F036F9304400EB4F
:10284000080604E0DDE90F121BF8010B9047B8F110
:102850000108F7D221464846F7E00A21C4F30253A3
:102860004FF0000B0891022B04D001CFC117032BAE
:1028700009D00AE0FF1D27F00707F7E8020108E08A
:1028800032E01FE020E000B2C117042B01D140B2BA
:10289000C117031E71F1000307DA4FF0000CD0EBF3
:1028A0000C006CEB01012D2302E0230504D52B2342
:1028B0008DF82430012303E0E30701D02023F7E75C
:1028C000984658E00A2110E010210EE010204FF049
:1028D000000B08900CE010214FF0000B44F00404B2
:1028E0004FF00809089103E008214FF0000B089110
:1028F000C4F30253022B04D001CF0021032B06D0D6
:1029000006E0FF1D27F00707F7E8020103E080B2A9
:10291000042B00D1C0B24FF0000823072BD5702A3A
:1029200007D0DDF820C08CF0100C5CEA0B0C05D051
:102930000EE040238DF82430012308E050EA010323
:1029400006D030238DF824308DF8252002239846B8
:10295000DDF820C08CF0080C5CEA0B0C0BD150EABF
:10296000010301D1630706D530238DF824304FF0E1
:102970000108A9F10109582A04D038A20B9208AA2B
:102980000A920BE03AA2F9E75B46089AFDF718FCB9
:102990000B9B9B5C0A9A521E0A92137050EA01022A
:1029A000F2D10A98ADEB000000F1200B600702D5D0
:1029B00024F4803401E04FF00109D94502DDA9EB90
:1029C0000B0000E0002000EB0B0141440890AAEB53
:1029D000010AE00306D4DDE90F232146504600F04A
:1029E00063F806444FF0000908E009A911F809004E
:1029F000DDE90F12904709F10109761CC145F4DBAE
:102A0000E0030CD5DDE90F232146504600F04CF8D9
:102A1000064404E0DDE90F1230209047761C089947
:102A2000481E08900029F5DC08E00A980A99007809
:102A3000491C0A91DDE90F129047761CBBF1000199
:102A4000ABF1010BF1DC21465046DDE90F2300F02C
:102A500019F806446D1C1BE6092801003031323399
:102A600034353637383961626364656600000000CA
:102A700030313233343536373839414243444546B4
:102A8000000000002DE9F041044600251E461746CF
:102A9000880404D405E039462020B0476D1C641E2C
:102AA000F9D52846BDE8F0812DE9F041044600251E
:102AB0001E469046C80301D5302700E02027880431
:102AC00004D505E041463846B0476D1C641EF9D573
:102AD0002846BDE8F081000013B54FF0FF33012216
:102AE00069460248FEF758FF00981CBD64040020A8
:102AF000FEF72CF9FFF79CF8FEF7EEFFFEF7D6FF86
:102B0000FFF74CF8FFF76CF8FEF7B2FFFFF724F879
:102B1000FDF790FC0848FEF7EBFCFDF7F9FB074CCE
:102B2000012251022046FEF7FDF800224FF4086111
:102B30002046FEF7F7F8FEE7B80300200010024039
:102B4000000610160006101600000000000000002D
:102B50000102030406070809000000000102030443
:102B6000000000006E83F9A22915444ED15727FCBE
:102B7000C0DD34F5999562DB4190433CAB6351FE77
:102B8000A02B0008000000202400000048260008B8
:102B9000C42B000824000020140900005826000857
:102BA00024000020000000000100000010000000D0
:102BB000000000000024F4000000000000000000FD
:042BC0000000000011
:040000050800018965
:00000001FF
