:020000040800F2
:10000000E80600209D010008DF2600084B240008B8
:10001000DD2600084D090008ED2B00080000000057
:100020000000000000000000000000006B27000836
:100030004F09000800000000E12600086D270008B5
:10004000B7010008B7010008B7010008B7010008B0
:10005000B7010008B7010008B7010008B7010008A0
:10006000B7010008B7010008B7010008B701000890
:10007000B7010008B7010008B7010008B701000880
:10008000B7010008B701000819080008B701000807
:10009000B7010008B7010008B7010008B701000860
:1000A000B7010008B7010008B7010008B701000850
:1000B000B7010008B7010008B7010008B701000840
:1000C000B7010008B7010008B7010008B701000830
:1000D000B7010008D52B0008B7010008B7010008D8
:1000E000B7010008B7010008B7010008B701000810
:1000F0002528000819280008B7010008B7010008E2
:10010000B7010008B7010008B7010008B7010008EF
:10011000B7010008B7010008B7010008B7010008DF
:10012000B7010008B7010008B7010008B7010008CF
:10013000B7010008B7010008B7010008B7010008BF
:10014000B7010008B7010008B7010008B7010008AF
:10015000B7010008B7010008B7010008E12B00084B
:10016000B7010008B7010008B7010008B70100088F
:10017000B7010008B7010008B7010008000000003F
:10018000B7010008B7010008DFF80CD000F032FB1F
:1001900000480047BD300008E806002006488047B8
:1001A00006480047FEE7FEE7FEE7FEE7FEE7FEE75C
:1001B000FEE7FEE7FEE7FEE70928000889010008E0
:1001C0002DE9F05F0546002092469B46884606468C
:1001D000814640241BE0284641464746224600F01F
:1001E00052FA53465A46C01A914110D31146184646
:1001F000224600F039FA2D1A67EB01084F462246D5
:100200000120002100F030FA17EB00094E41201EBA
:10021000A4F10104DFDC484631462A464346BDE8E6
:10022000F09FD2B201E000F8012B491EFBD27047CB
:100230000022F6E710B513460A4604461946FFF7B2
:10024000F0FF204610BD2DE9FE4F804681EA0300F5
:10025000C00F0C46009021F0004123F00045B8EBA0
:100260000200A94105D24046214690461C460B4655
:10027000024623F00040104347D0270DC7F30A0081
:10028000C3F30A510290401A019040286BDAC3F37D
:10029000130040F4801B0098924620B10023D2EB5B
:1002A000030A63EB0B0B01985946C0F1400250461C
:1002B00000F0DAF906460D4650465946019A00F01C
:1002C000F2F910EB08006141002487EA115284EA38
:1002D000E7731A4340D0009A62B3019A012A4FEAA9
:1002E000075215DC001B61EB02014FF0004202EAED
:1002F0000752CDE90042001C41F5801132462B46E1
:1003000000F029FA03B0BDE8F08F40462146F9E736
:10031000001B61EB0201001C41F5801300185B41DA
:100320002018A2F5001747EB030140EAD570B61973
:100330006D4111E06D084FEA360645EAC0754FEA97
:100340000752001B61EB0201001C41F580114908B6
:100350004FEA30000019514132462B4603B0BDE848
:10036000F04F00F0E9B90098012240000023D0EBE3
:10037000020263EBE073009821464FEAE074B8EBA9
:10038000000061EB0401E9E783F000435BE781F0E3
:10039000004158E72DE9FE4F81EA030404F00044D0
:1003A00021F0004100944FF0000B23F0004350EA8D
:1003B00001045ED052EA03045BD0C3F30A54C1F3D4
:1003C0000A552C44A4F2F3340194A0FB0254C1F367
:1003D000130141F48011C3F3130343F4801301FBB1
:1003E000024400FB034E840A970A44EA815447EA18
:1003F0008357A4FB076802958D0A05FB07854FEA22
:10040000932C04FB0C542705029D4FEA065847EA3B
:100410001637B5EB08056EEB070C870E920E47EA10
:10042000811742EA8312A7FB0201B6EB0B0164EBD2
:1004300000042B0D43EA0C335E1844EB1C50DA46E3
:100440005146E7FB0201C5F313044FEA0B3343EABD
:1004500014534FEA0432019C43EA0603A4F10C044E
:100460000294009CCDE900B400F075F903B0BDE83A
:10047000F08F00200146F9E72DE9F04D81EA0304F1
:1004800004F0004B21F0004514464FF0000A23F021
:10049000004150EA050220D054EA01021DD0C5F304
:1004A0000A570246C5F31303C1F31300C1F30A56FA
:1004B00040F4801543F48013A7EB0608101BD646C2
:1004C00008F2FD3873EB050002D308F1010801E0E2
:1004D00092185B41B8F1000F03DA00200146BDE835
:1004E000F08D00204FF48011064684460EE0171B65
:1004F00073EB050705D3121B63EB050306434CEAB8
:10050000010C49084FEA300092185B4150EA01079C
:10051000EDD152EA030012D082EA040083EA050119
:10052000084305D0101BAB4106D20122002306E090
:1005300000224FF0004302E06FF0010253101AEB6B
:1005400006004CEB085110EB0A0041EB0B01BDE833
:10055000F04D00F0F1B80EB540F2334102910021A8
:10056000CDE900110A460B4600F0F5F803B000BDD6
:1005700070B5C1F30A5201F000450024C1F3130124
:1005800040F2FF3341F480119A4201DA002070BD3D
:1005900040F233439A42A2F2334203DC524200F06B
:1005A00072F800E090402C43F1D0404270BD00F062
:1005B000004230F000400AD0C10D01F56071C0F377
:1005C000160042EA0151C20840071143704700205B
:1005D0000146704730B5041E71F1000404DB4FF092
:1005E0000044404264EB0101141E73F1000405DB7A
:1005F0001C464FF00043524263EB04038B4208BF9A
:10060000824230BD01F0004330B421F0004150EA95
:10061000010206D00A0DA2F56072C1F31301002A8F
:1006200002DC30BC00207047440F44EAC104C10022
:10063000E01830BC00EBC25000F047B830B50B46B4
:10064000014600202022012409E021FA02F59D4202
:1006500005D303FA02F5491B04FA02F52844151ED6
:10066000A2F10102F1DC30BD202A04DB203A00FABD
:1006700002F1002070479140C2F1200320FA03F3F9
:10068000194390407047202A04DB203A21FA02F0F7
:100690000021704721FA02F3D040C2F120029140BC
:1006A000084319467047202A06DBCB17203A41FA47
:1006B00002F043EAE07306E041FA02F3D040C2F1EF
:1006C000200291400843194670470029A8BF70478F
:1006D000401C490008BF20F00100704710B4B0FA78
:1006E00080FC00FA0CF050EA010404BF10BC704713
:1006F00049B1CCF1200421FA04F411FA0CF118BF2D
:10070000012121430843A3EB0C01CB1D4FEA0061FB
:100710004FEA102042BF002010BC704700EBC350CE
:1007200010440029A4BF10BC7047401C490008BFFA
:1007300020F0010010BC704710B5141E73F10004C6
:1007400008DA401C41F1000192185B411A4301D1C3
:1007500020F0010010BD2DE9F04D92469B4611B1ED
:10076000B1FA81F202E0B0FA80F220329046FFF74F
:100770007BFF04460F4640EA0A0041EA0B0153465C
:100780005A46084313D0114653EA010019D0C8F164
:1007900040025046FFF777FF05460E465046594641
:1007A0004246FFF761FF084305D0012004E02046E0
:1007B0003946BDE8F08D0020054346EAE0762C433B
:1007C00037430A986305E40AA0EB08000022FD0AFB
:1007D00044EA47540A3002D500200146E9E7010502
:1007E00010196941DDE9084500196941BDE8F04D7E
:1007F000A2E70000064C074D06E0E06840F0010368
:1008000094E8070098471034AC42F6D3FFF7C0FCD9
:100810003837000858370008014800F048B9000090
:1008200038000020464910B54A6822F440324A6038
:100830004A6843681A434A6001684A6822F4807231
:100840004A6001684A68036942EA03224A60016813
:100850004A6822F040724A6001684A6883681A4315
:100860004A6001688A6822F400628A6001688A68C6
:10087000C3681A438A60816A6FF07062D14201686E
:100880008A6822F070628A6001688A680CD0836A84
:100890001A438A6001688A6822F040528A600168BF
:1008A0008A68C36A1A4301E022F040528A600168F4
:1008B0008A6822F002028A6001688A68037E42EA3E
:1008C00043028A6090F82010002901684A680FD01E
:1008D00042F400624A6001684A6822F460424A6059
:1008E00001684A68174C436A04EB43331A4301E03A
:1008F00022F400624A600168CA6A22F47002CA6285
:100900000168CA6A838B104C04EB03531A43CA6212
:1009100001688A6822F400728A6001688A6890F827
:10092000303042EA43228A6001688A6822F4806299
:100930008A6001688A68406942EA8020886010BD48
:100940000023014000E0FFFF0000F0FFFEE77047DA
:1009500072B6FEE77047000078B50024009490F866
:100960003C20012A19D0012280F83C200A68072582
:100970000368092A13D9DE680A3A02EB420295405D
:10098000AE43DE600A788B680A3A02EB420293407B
:100990000268D5682B43D36010E0022078BD1E6941
:1009A00002EB42029540AE431E610A788B6802EB6F
:1009B00042029340026815692B4313614A681F2560
:1009C000072A13D203685E6B521E02EB8202954027
:1009D000AE435E630A8893B20A79521E02EB82022A
:1009E00093400268556B2B43536327E003680D2A3D
:1009F00012D21E6BD21F02EB82029540AE431E63E1
:100A00000A8893B20A79D21F02EB820293400268ED
:100A1000156B2B43136311E0DE6A0D3A02EB820281
:100A20009540AE43DE620A8893B20A790D3A02EB32
:100A3000820293400268D56A2B43D362164B056845
:100A4000144A9D4206D10D68122D03D1556845F414
:100A50008005556005689D4218D10B68102B01D0A8
:100A6000112B13D1536843F4000353600968102914
:100A70000CD10A490A4A0968B1FBF2F101EB810184
:100A8000490000E0491E00910029FBD180F83C405C
:100A9000002078BD00230140002001401400002008
:100AA00040420F00704770470068C06C704770B5D7
:100AB000044600680668456816F0020F05F020023B
:100AC0002AD04AB3216CC90603D4216C41F40071C9
:100AD0002164816811F0405F17D1217EA9B9C16AF4
:100AE00011F4700F02D0816849050ED4416821F0DD
:100AF00020014160206C20F480702064206CC004D0
:100B000003D4206C40F0010020642046FFF7CAFFA8
:100B100021686FF01200086016F0040F05F08001E4
:100B200032D089B3206CC00603D4206C40F400504E
:100B300020642068816811F4401F1ED1816B11F47C
:100B4000401F02D08168490517D44168490514D473
:100B5000816811F0405F10D1217E71B9416821F0A8
:100B600080014160206C20F480502064206CC0051E
:100B700003D4206C40F0010020642046FFF7EAFE19
:100B800021686FF00C00086016F0010F05F04001BD
:100B90000FD071B120680068C0070AD0206C40F403
:100BA00080302064204600F043F821686FF0010097
:100BB000086016F0200F05F080610ED000290CD0DF
:100BC000606C40F00200606420686FF020050560F2
:100BD0002046FFF768FF2068056070BD70B504000F
:100BE0004FF0000603D0206C002510B107E0012073
:100BF00070BD204600F01EF8656484F83C50206CFF
:100C0000C00610D4206C20F4885040F0020020640C
:100C10002046FFF707FE6564206C20F0020040F0DC
:100C20000100206400E0012684F83C50304670BD8D
:100C30007047000010B586B0044614216846FFF7DF
:100C4000F7FA15492068884224D114480021026827
:100C500042F480720260006800F4807005900F48D2
:100C60001438026842F001020260006800F00100DE
:100C70000590012000900320CDE901016946084854
:100C800000F008FA00221146122000F063FB122047
:100C900000F052FB06B010BD002001404438024075
:100CA000000002402DE9F041044600680D468168CD
:100CB0004FF0000749050BD58068C00508D5206CAA
:100CC00040F02000206484F83C700120BDE8F081F1
:100CD00000F0D2FA064613E0681C11D025B100F0EE
:100CE000CBFA801BA8420BD920680068800707D484
:100CF000206C40F00400206484F83C700320E5E799
:100D0000206800688007E7D521686FF0120008604E
:100D1000206C40F4007020642068816811F0405F0E
:100D200013D1217E89B9C16A11F4700F02D0806895
:100D300040050AD4206C20F480702064206CC0042C
:100D400003D4206C40F0010020640020BEE70000C6
:100D500018B50022009290F83C10012907D001211B
:100D600080F83C1001688B68DB0702D011E002209C
:100D700018BD8B6843F001038B602E492E4B096828
:100D8000B1FBF3F101EB410100E0491E00910029A4
:100D9000FBD101688B68DB0742D0036C40F2016431
:100DA000A34343F4807303644B685B0505D5036C70
:100DB00023F4005343F480530364036CDB0404D531
:100DC000436C23F00603436400E0426480F83C2057
:100DD0001A4A6FF022030B6051680068CA0618496E
:100DE00006D0884224D1816811F0405F13D01FE003
:100DF0008842F8D0134A904203D1D1F80423D20696
:100E0000F1D0114A904213D1D1F8041301F01F011F
:100E10001029E8D30CE0816841F08041816007E04F
:100E2000016C41F010010164416C41F00101416429
:100E3000002018BD1400002040420F000023014094
:100E400000200140002101400022014070B543799B
:100E5000012B1CD0012545710223037103681E6814
:100E600002F0100240F6FE749440A643D1E900411E
:100E70000C43944034431C6001680B68C0249440C8
:100E8000A3430B60057100214171084670BD02202B
:100E900070BD70B5040003D02079002510B105E0C5
:100EA000012070BD6571204600F008F80220207115
:100EB000256101202071002070BD000010B586B0B2
:100EC000044614216846FFF7B3F9114920688842A7
:100ED0001CD110480021026842F0005202600068F4
:100EE00000F0005005900B481038026842F00102F3
:100EF0000260006800F001000590102000900320BF
:100F0000CDE901016946044800F0C4F806B010BDFF
:100F100000740040403802400000024018B50468E8
:100F200000940068104421B1143000900360002048
:100F300018BD0830F9E770B54279012A1ED00124A6
:100F400044710222027103681D6801F0100204FA64
:100F500002F635431D600029016811D00B6803F4C7
:100F600070153C2393409D4203D14A6842F002022F
:100F70004A60047100214171084670BD022070BDB5
:100F80000A68C2F383020F2AF3D14A6842F00102D1
:100F9000EEE72DE9F0410446876D00F06DF9054656
:100FA00094F835000026022806D08020606584F879
:100FB00034600120BDE8F0812068016821F016014D
:100FC00001602068416921F080014161206C08B90D
:100FD000A06C20B12068016821F008010160206840
:100FE000016821F0010101600CE000F045F9401BAF
:100FF000052807D920206065032084F8350084F88F
:101000003460D7E720680068C007EED194F85C1020
:101010003F208840B860012084F8350084F83460AF
:101020000020C7E790F83510022903D080214165E0
:1010300001207047052180F835100068016821F013
:1010400001010160002070474FF47A71484300F0BD
:1010500001B8000070B54FF0E02500216C69094A25
:10106000AB6912685043AA699A42FCD002D2A3EB42
:10107000020302E0A4EB0206334419441346814202
:10108000F1D370BD180000200149086070470000CE
:10109000180000202DE9F84FDFF89C910022A9F1FB
:1010A000040B03274FF00F0C09F1040AABF1040EF7
:1010B00001250B6895402B40AB426ED10C7904F0B2
:1010C0000304012C01D0022C15D18668540007FAC4
:1010D00004F826EA0806D1F80C8008FA04F848EA71
:1010E0000608C0F808804468AC430D79C5F30015C4
:1010F0009540254345600C79E443A40708D0C568B2
:10110000540007FA04F6B5438E68A6402E43C66025
:101110000C7904F00304022C11D1D40800EB8406EE
:10112000356A5407E40E0CFA04F825EA0805D1F8EC
:10113000108008FA04F848EA0508C6F82080056817
:10114000540007FA04F6B5430E7906F00306A640EC
:101150002E4306604C6814F4403F66D0374C256837
:1011600045F480452560246822F0030504F480449A
:101170000094334C05EB0408D8F808589407260F60
:101180000CFA06F4A5432F4CA04201D1002424E020
:101190002D4CA04202D101241FE046E02B4CA0427E
:1011A00001D1022419E02A4CA04201D1032414E009
:1011B000284CA04201D104240FE0274CA04201D1C9
:1011C00005240AE0254CA04201D1062405E0244C68
:1011D000A04201D1072400E00824B4402C43C8F801
:1011E0000848D9F800404D464E689C43F60200D5A9
:1011F0001C432C60DAF8004055464E689C43B6020A
:1012000000D51C432C60DBF800405D464E689C43D3
:10121000B60300D51C432C60DEF8004075464E68CE
:101220009C43F60300D51C432C60521C102AFFF48B
:101230003FAFBDE8F88F0000083C01404438024051
:10124000003001400000024000040240000802405B
:10125000000C02400010024000140240001802403E
:10126000001C02400069084000D0012070470AB10C
:10127000816170470904FBE70148806870470000FE
:10128000080000200248816802781144816070479C
:10129000080000200B4810B5016841F4007101609E
:1012A000016841F480610160016841F4807101606E
:1012B000032000F06FF80F2000F006F800F024F88B
:1012C000002010BD003C024070B50D4D04464FF4A7
:1012D0007A712878B1FBF0F00A490968B1FBF0F0A7
:1012E00000F0C6FC48B9102C07D200222146501E3F
:1012F00000F030F800206C6070BD012070BD00006F
:1013000008000020140000200A4808B5016841F4D4
:1013100080410160006800F4804000900548001F93
:10132000016841F080510160006800F08050009039
:1013300008BD000044380240002809DB00F01F020D
:10134000012191404009800000F1E020C0F8001127
:1013500070470000F0B40E4B1B68C3F30223C3F1C7
:101360000704042C00D904241D1D072D01D20023DD
:1013700000E0DB1E012606FA04F56D1E0D409D40BF
:101380009E40761E164045EA0601F0BC01F07CBC8A
:101390000CED00E0064A00F0070110684FF6FF036D
:1013A000184040EA012003490843106070470000DC
:1013B0000CED00E00000FA052DE9F8430446006852
:1013C0004FF00109C1074FF0000501D1400726D5B4
:1013D000DFF80C81C8F86850FFF74EFF0646414F12
:1013E00004E0FFF749FF801B022857D83868000146
:1013F000F7D46068217A800140EA0170394984316C
:101400000860C8F86890FFF737FF064604E0FFF76A
:1014100033FF801B022841D838680001F7D52078B7
:10142000800752D52F484030016841F0805101605B
:1014300000682D4F00F080500090386840F48070B4
:101440003860FFF719FF064604E0FFF715FF801B21
:10145000022823D83868C005F7D5224E7036306888
:1014600010F4407020D0A18901F4407181421BD05A
:1014700030681E4920F44070C1F800900D60306063
:101480003068C00710D0FFF7F7FE054641F28837F5
:1014900007E0FFF7F1FE401BB84202D90320BDE888
:1014A000F88330688007F4D5E0680E49C0F3012264
:1014B0000831032A0BD0086820F4F810086030685F
:1014C000A189C1F30B01084330600020E7E70A68F7
:1014D000074B22F4F812184002430A60EFE70000BD
:1014E000000047420038024000700040400E474272
:1014F000FFFCFF0F2DE9F0470D46040065D0DFF833
:101500001491D9F80000EFB200F00700A84207D20A
:1015100089F80070D9F8000000F00700A84254D103
:1015200020683D4E810712D5400703D5306840F44E
:10153000E05030602078000703D5306840F4604008
:1015400030603068A16820F0F000084330602078F7
:10155000C0072DD0304960680839012812D0022810
:1015600013D0032811D00968890700292DDA3168C2
:1015700021F0030101433160FFF77EFE804641F216
:10158000883A0EE009688903EFE709688901ECE70A
:10159000FFF772FEA0EB0801514502D90320BDE818
:1015A000F0873068616800F00C00B0EB810FEFD17C
:1015B000D9F80010484601F00701A94207D9077081
:1015C000006800F00700A84201D00120E7E720787A
:1015D000400705D53068E16820F4E05008433060EA
:1015E0002078000706D53068216920F4604040EA81
:1015F000C100306000F038F83168084AC1F30311C7
:10160000515CC8400649086006480068FFF75CFE68
:101610000020C4E7003C02400838024020370008A0
:10162000140000200C0000200448054900680968E7
:10163000044AC1F38221515CC84070471400002065
:101640000838024030370008044805490068096836
:10165000044AC1F34231515CC84070471400002075
:101660000838024030370008154810B5006810F0FF
:101670000C01144813D0431004290FD008290ED1AF
:101680000F4C241F216801F03F022168490207D551
:101690002068C0F38810A0FB030106E0184610BDC7
:1016A0002168C1F38811A1FB00010023FEF788FD2A
:1016B0002168C1F30141491C4900B0FBF1F010BDA4
:1016C000083802400024F4002DE9F84F040075D0DA
:1016D0002078DFF838A3C007AAF1040548D00AF142
:1016E00004000168C1F38101012908D00068C0F33A
:1016F000810002280AD1DAF80000400206D52868E5
:10170000800335D560680028E1D031E06068B0F52D
:10171000803F10D0B0F5A02F286810D020F4803082
:101720002860286820F4802028606068A0B1FFF756
:10173000A3FD06460CE0286840F48030F4E740F44E
:1017400080202860F7E7FFF797FD801B642871D899
:1017500028688003F7D50BE0FFF78EFD064604E00E
:10176000FFF78AFD801B6428F1D828688003F7D42E
:101770002078DFF89C9280074FF0000B3DD5A348FE
:10178000001D016811F00C0F08D00068C0F3810043
:1017900002280AD1DAF80000400206D4286880073F
:1017A00015D5E068012809D111E0E068B8B1012041
:1017B000C9F80000FFF760FD064605E022E1FFF7EB
:1017C0005BFD801B0228C2D828688007F7D52868EF
:1017D000216920F0F80040EAC10028600DE0C9F856
:1017E00000B0FFF749FD064604E0FFF745FD801B0A
:1017F00002281FD828688007F7D42078000722D550
:10180000824F84486169703771B101210160FFF72F
:1018100033FD064604E0FFF72FFD801B022809D8A0
:1018200038688007F7D50EE0C0F800B0FFF724FD58
:10183000064605E082E0FFF71FFD801B02287DD8E9
:1018400038688007F7D42078400765D56F484FF097
:1018500000083C300068C0000BD46C483C30016884
:1018600041F08051016000684FF0010800F08050A5
:101870000090694F3868C0050FD4386840F4807014
:101880003860FFF7F9FC064604E0FFF7F5FC801B23
:10189000022853D83868C005F7D55C4FA0686C376C
:1018A00001280FD00528386810D020F001003860DA
:1018B000386820F004003860A068B0B1FFF7DCFCA5
:1018C00006460EE0386840F00100F4E740F00400FE
:1018D0003860F7E7FFF7D0FC811B41F28830814286
:1018E00063D838688007F5D50DE0FFF7C5FC0646DC
:1018F00006E0FFF7C1FC811B41F28830814254D8D9
:1019000038688007F5D4B8F1000F05D03F483C3067
:10191000016821F080510160A069B8B33B49091DFD
:101920000968C1F38101022946D00228584606D031
:10193000C9F86000FFF7A0FC044639E035E04F46E7
:10194000C9F86000FFF798FC064604E0FFF794FC36
:10195000801B022829D828688001F7D4D4E9070120
:101960000843A16A2D4A490802EB0141626A41EA33
:101970008211084394F82C1040EA0161CAF8001063
:1019800001203866FFF778FC044605E03CE0FFF7ED
:1019900073FC001B022808D828688001F7D533E0C3
:1019A000FFF76AFC001B022802D90320BDE8F88F6C
:1019B00028688001F4D427E00128F7D0DAF8000085
:1019C000E26900F4800191421CD1226A00F03F01DB
:1019D000914217D147F6C071626A0140B1EB821F94
:1019E00010D1A26A4FF0FF3300F4403103EB5202F2
:1019F000B1EB024F06D194F82C1000F07060B0EB00
:101A0000016F01D00120D1E70020CFE70438024068
:101A100000004742800E4742007000400000FFFF78
:101A200010B5040002D0607F10B106E0012010BDA7
:101A300000202077204600F039F8022060772168E6
:101A4000CA204862216853204862204600F055FEB3
:101A500030BB20688168144A114081602068816829
:101A600062681143D4E904231A4311438160216859
:101A7000E068086120680169228941EA0241016148
:101A8000204600F05DFE58B921680A6C22F48022DD
:101A90000A6421680A6CA3691A430A640121617708
:101AA0002268FF21516210BDBFFF8FFF1FB50021CB
:101AB00000910191029103910068084988420CD17C
:101AC00002200090000203906846FFF775FC08B101
:101AD000FEF73EFF0249012008601FBD00280040BC
:101AE0003C0E474270B50446007F0B46012819D0D2
:101AF0000126267702206077B2B19878D97840EA3B
:101B0000014558781978000240EA413005432168C0
:101B1000CA204862216853204862204600F0EDFD4B
:101B2000D0B122E0022070BD5878C10603D500F084
:101B3000EF000A305870D87800F0D3FD02045878CE
:101B400000F0CFFD42EA0022987800F0CAFD02437F
:101B5000187842EA4035DAE70748054020684560D2
:101B6000204600F0EDFD00B966772268FF21516242
:101B70000021217770BD00003FFFFF002DE9F041FB
:101B80000446007F0D46012823D04FF0010884F859
:101B90001C80022060772068002780684FEA406040
:101BA000D2B1002800DBEF70A878297840EA01461E
:101BB0006878E978000240EA815006432168CA202B
:101BC0004862216853204862204600F096FDB8B173
:101BD0002CE00220BDE8F081002800DBEF702878BF
:101BE00000F07FFD0204687800F07BFD42EA0022ED
:101BF000A87800F076FD0243E87842EA8056DDE7F7
:101C00000D480640206806602068816821F4802124
:101C10008160D5E903100143206882681143816027
:101C2000204600F08DFD08B984F81D802268FF2150
:101C300051622777CEE700007F7F7F0070B50546B1
:101C40000068C16821F0A001C160FFF715FB0446E0
:101C50004FF47A7606E0FFF70FFB001BB04201D984
:101C6000032070BD2868C0688006F4D5002070BDD0
:101C700010B5401EB0F1807F01D3012010BD4FF0A0
:101C8000E02460610F21601700F0FEFF0020A061DA
:101C900007202061002010BD7047704710B5040078
:101CA00003D094F83D0010B107E0012010BD0020E2
:101CB00084F83C00204600F01FF8022084F83D0024
:101CC000211D206800F0B4FD012084F8460084F84E
:101CD0003E0084F83F0084F8400084F8410084F816
:101CE000420084F8430084F8440084F8450084F8F6
:101CF0003D00002010BD000008B50068144A1549D9
:101D000090420ED1086840F0800008600868002208
:101D100000F08000009001212C20FFF71BFB2C20FD
:101D200010E00D4A904211D1086840F480700860BC
:101D30000868002200F48070009011462D20FFF703
:101D400009FB2D20BDE80840FFF7F6BA08BD0000EA
:101D5000001C0040403802400020004090F83D1038
:101D6000012901D001207047022180F83D1001684F
:101D7000CA6842F00102CA6000681149884214D062
:101D8000B0F1804F11D00F4988420ED00E498842E1
:101D90000BD00E49884208D00D49884205D00D4924
:101DA000884202D00C49884204D1816801F00701C1
:101DB000062903D0016841F001010160002070474D
:101DC000000001400004004000080040000C0040FA
:101DD000000401400040014000180040704770B509
:101DE0000446006801694FF00005C943890715D40E
:101DF000C168C943890711D4E91E01610120207718
:101E0000206880698007204602D0FFF7E7FF04E0E2
:101E100000F098F8204600F096F8257720680169D0
:101E2000C943490717D4C168C943490713D46FF0A0
:101E300004010161022020772068806910F4407F4E
:101E4000204602D0FFF7CAFF04E000F07BF82046EE
:101E500000F079F8257720680169C943090716D48D
:101E6000C168C943090712D46FF008010161042059
:101E700020772068C0698007204602D0FFF7AEFFB8
:101E800004E000F05FF8204600F05DF82577206858
:101E90000169C943C90617D4C168C943C90613D427
:101EA0006FF010010161082020772068C06910F4EC
:101EB000407F204602D0FFF791FF04E000F042F897
:101EC000204600F040F8257720680169C943C9071A
:101ED00008D1C168C943C90704D1891E01612046E0
:101EE00000F032F820680169C943090609D4C168C5
:101EF000C943090605D46FF0800101612046FFF750
:101F0000CBFE20680169C943490609D4C168C943A9
:101F1000490605D46FF040010161204600F034F815
:101F200020680169C94389060BD4C168C943890681
:101F300007D46FF0200101612046BDE87040FFF733
:101F4000ACBE70BD7047704710B500680B49884241
:101F500007D101F031F901F041F8BDE8104001F07E
:101F6000E9B90749884208D101F0E2FA054CA08896
:101F700000F068FE01F02CF8A08010BD001C0040AD
:101F800000200040000000207047704770470000AC
:101F9000F8B5016804460868CA684B6910F00F0F6D
:101FA0004FF000055AD003F0010602F49077374352
:101FB00065D0C10705D0D10503D5216C41F00101E1
:101FC0002164410705D5D90703D0216C41F00201F6
:101FD0002164810705D5D90703D0216C41F00401A4
:101FE0002164010707D502F02001314303D0216CA1
:101FF00041F008012164216C00293BD0800604D502
:10200000900602D5204600F0A6FC20684069216CAD
:10201000C0F3801001F00801014320462BD000F0EE
:1020200073FC20684069400621D52068143050E8D0
:10203000001F21F0400140E80012002AF5D1A06BFA
:10204000A8B16C490165A06BFEF7ECFF002811D028
:10205000A06B016D01B0BDE8F040084783060ED5C6
:1020600093060CD52046BDE8F84000F074BC20462D
:10207000FFF78CFFF8BDFFF789FF2564F8BD266BDD
:102080002023012E79D1C60677D5D60675D50868E6
:10209000486800904869400640D5A16B08684068D0
:1020A0000004000CEAD0A28D8242E7D9E085C8691D
:1020B000B0F5807F2DD020680C3050E8001F21F44F
:1020C000807140E80012002AF5D12068143050E8F1
:1020D000001F21F0010140E80012002AF5D120681C
:1020E000143050E8001F21F0400140E80012002A9F
:1020F000F5D184F83E30256320680C3050E8001F8D
:1021000021F0100140E80012002AF5D1A06BFEF783
:1021100040FFA08DE18D401A81B229E0A08DE18DB4
:10212000401A81B2E08D0028A8D00029A6D02068EE
:102130000C3050E8002F22F4907240E80026002E68
:10214000F5D12068143050E8002F22F0010240E859
:102150000026002EF5D184F83E30256320680C302F
:1021600050E8002F22F0100240E80023002BF5D1A8
:102170002046FFF70AFFF8BDFFE705062BD5150639
:1021800029D594F83D002128F5D1A068B0F5805FED
:1021900001D12069B0B1206A411C21622168007818
:1021A0004860E08C401E0004000CE084E3D120680D
:1021B000C16821F08001C1602068C16841F0400120
:1021C000C160D8E7206A0088C0F308004860206A30
:1021D000801C2062E5E74006CDD55006CBD5CA6805
:1021E000204622F04002CA6084F83D3000F02CF90D
:1021F000C1E70000F928000870B5040004D094F885
:102200003D00002510B106E0012070BD84F83C506F
:10221000204600F023F8242084F83D002068C1689F
:1022200021F40051C160204600F0F6FB20680169EE
:1022300021F4904101612068416921F02A01416146
:102240002068C16841F40051C1602564202084F8F1
:102250003D0084F83E00002070BD000070B586B0DF
:10226000044614216846FDF7E3FF2A49284E2068FA
:102270000025284A143902230324B04220D11068D3
:1022800040F010001060106800F010000590086821
:1022900040F0010008600868694600F00100059000
:1022A00060028DE829000720CDE903401A48FEF7B7
:1022B000F1FE002211462520FFF74CF8252022E0F0
:1022C000164EB04221D1106840F020001060106816
:1022D00000F020000590086840F0040008600868DD
:1022E000694600F004000590C0208DE82900082010
:1022F000CDE903400A48FEF7CDFE002211464720F3
:10230000FFF728F84720FFF717F806B070BD000068
:102310000010014044380240000002400014014017
:102320000008024090F83E30202B0ED159B152B136
:1023300090F83C30012B08D0012380F83C3000237A
:10234000036300F0EFBB01207047022070470000DC
:1023500010B500680B49884206D1BDE8104009223B
:1023600009490A48FFF7DEBF0949884209D10649F1
:10237000092209310748FFF7D5FFBDE8104000F0FA
:102380005FBE10BD00100140740200204401002017
:1023900000140140880100202DE9F843044690F81C
:1023A0003D001F4615460E4620284BD1C6B1BDB193
:1023B00094F83C00012845D0012084F83C004FF0FF
:1023C0000008C4F84080212084F83D00FEF754FF47
:1023D000A5848146E584A068B0F5805F03D004E061
:1023E0000120BDE8F883206920B13546002684F835
:1023F0003C800EE00025FAE78021204600F0AFFB8C
:10240000A0B9ADB115F8010B21684860E08C401E01
:10241000E084E08C4B464FF0000200970028EBD19F
:102420004FF04001204600F09AFB30B10320D8E77E
:1024300036F8020BC0F30800E6E7202084F83D00E0
:102440000020CEE70220CCE77047FEE77FB50024EE
:1024500015480094019402941249039401604FF4CA
:102460008031C0E901140461047680F820400F49EE
:10247000C0E90A140125C561C46080F83040446198
:10248000FEF7ACFB08B1FEF763FA03200094CDE938
:10249000015069460448FEF75FFA002801D0FEF7B4
:1024A00057FA7FBD00200140380000200100000FD6
:1024B0001CB500240C4900940A48019408600846A1
:1024C000FEF7E7FC08B1FEF743FA009400226946E4
:1024D00005480194FEF7BAFC002801D0FEF738FA4F
:1024E0001CBD0000007400408000002070B586B064
:1024F00014216846FDF79CFE1D480025016841F047
:1025000010010160016801F010010591016841F0BE
:1025100080010160016801F080010591016841F0CE
:1025200001010160016801F001010591016841F0BC
:102530000401016000680F4E00F0040005900022C5
:10254000E0213046FEF793FE1820CDE90005012476
:10255000694602940848FEF79DFDE0208DE83100B1
:102560000320039069463046FEF794FD06B070BD27
:1025700030380240000002400010024010B586B022
:1025800014216846FDF754FE1C4800241A4905949E
:10259000C0E900147F218160FF21C0E90314446178
:1025A0008461FFF73DFA08B1FEF7D2F98DF80040DB
:1025B0008DF801408DF802400394012269460F48CE
:1025C0000494FFF7DBFA08B1FEF7C2F901208DF899
:1025D000140005208DF815008DF816008DF81700F1
:1025E000012205A90548FFF77DFA002801D0FEF772
:1025F000AFF906B010BD0000002800409400002094
:102600000C4810B50A49016053214160002142F293
:102610000F72C0E90212016180218161FFF73EFB68
:10262000002803D0BDE81040FEF792B910BD0000AD
:10263000001C0040B40000200B4810B5094901609F
:102640005321416000216322C0E90212016180210F
:102650008161FFF723FB002803D0BDE81040FEF79F
:1026600077B910BD00200040FC0000200C4810B5D8
:102670000A4901604FF4E1314160002181600C2280
:10268000C160C0E904128161C161FFF7B5FD002896
:1026900003D0BDE81040FEF75BB910BD001001404B
:1026A000440100200C4810B50A4901604FF4E131A3
:1026B0004160002181600C22C160C0E90412816187
:1026C000C161FFF799FD002803D0BDE81040FEF777
:1026D0003FB910BD0014014088010020FEE7FEE76D
:1026E0007047002103E0491C0A38C9B2C0B20A2869
:1026F000F9D2090740EA116070472DE9F04105461B
:1027000000680024C168490617D4C16841F08001FF
:10271000C160FEF7B1FD06464FF47A78042706E063
:10272000FEF7AAFD801B404501D96F770124286878
:10273000C068400601D4002CF2D02046BDE8F081EC
:1027400070B5044600680025C16821F08001C160B1
:1027500020688068800606D42046FFF76FFA10B123
:10276000042060770125284670BD7047FEF78ABDBA
:1027700030B593B030216846FDF75AFD14210CA8FE
:10278000FDF756FD1E480025016841F080510160AB
:10279000006800F0805011901A48016841F48041AF
:1027A00001600068102100F4804011900A20009020
:1027B0000120CDE9030105A9022481E831000820A8
:1027C0000890A820CDE9090404200B906846FEF784
:1027D0007BFF08B172B6FEE70CA90F2081E831003B
:1027E0004FF4A0500F904FF48050109005210CA88A
:1027F000FEF780FE002801D072B6FEE713B030BDB0
:1028000040380240007000400248016841F4700105
:102810000160704788ED00E00148FFF7E0BA000072
:10282000FC0000200148FFF7DABA0000B4000020E5
:10283000F0B50268254D264E264FDFF89CC0274B89
:102840004FF0804EA84209D0704507D0B04205D065
:10285000B84203D0604501D0984203D122F0700401
:102860004A682243A8421BD0704519D0B04217D005
:10287000B84215D0604513D0984211D0184CA042F0
:102880000ED0184CA0420BD0174CA04208D0174CC9
:10289000A04205D0164CA04202D0164CA04203D153
:1028A00022F44074CA6822434C6922F08002224319
:1028B00002608A68C2620A688262A84201D09842B5
:1028C00001D10969016301214161F0BD00000140AE
:1028D0000004004000080040000C004000040140DB
:1028E0000040014000440140004801400018004001
:1028F000001C00400020004010B5806B0021C18505
:10290000C184FFF743FB10BD01680C3151E8002F73
:1029100022F4907241E80023002BF5D101681431B4
:1029200051E8002F22F0010241E80023002BF5D1ED
:10293000016B012909D101680C3151E8002F22F007
:10294000100241E80023002BF5D1202180F83E1031
:1029500000210163704708B590F83E10222901D08C
:10296000022008BD81684FF48053994201D1026969
:1029700022B1826A99421BD049B10AE00268816A99
:102980005268C2F308020A80816A891C08E0016962
:1029900071B10168496801F07F011170816A491CB9
:1029A0008162C18D491E0904090CC18503D019E05B
:1029B00001684968F1E70168CA6822F02002CA602C
:1029C0000168CA6822F48072CA6001684A6922F00C
:1029D00001024A61202180F83E10016B012903D0D9
:1029E000FFF7B6FC002008BD0021016301680C312F
:1029F00051E8002F22F0100241E80023002BF5D10E
:102A000001680A68D20602D50A6849680091818D7A
:102A1000FFF7BBFAE6E7000070B5044600680169FD
:102A2000E26821F4405111430161A1682069E26923
:102A300001436069104301432068C26849F20C6396
:102A40009A430A43C26020684169A26921F4407137
:102A50001143416131492068884202D0304988429F
:102A600002D1FEF7F1FD01E0FEF7DEFDE269002391
:102A7000192164253226B2F5004F626828D0A0FBE8
:102A80000101930F9200FDF79BFB0146B0FBF5F0AF
:102A90006FF01802504301EB800006EB0010B0FB12
:102AA000F5F000F0F002B1FBF5F002EB0012B1FB23
:102AB000F5F06FF01803584301EB800006EB0010AF
:102AC000B0FBF5F000F00F0021681044886070BD85
:102AD000A0FB010192185B41FDF772FB0146B0FBC0
:102AE000F5F00201B1FBF5F06FF01803584301EB6C
:102AF000800006EBC000B0FBF5F000F0F80002EB40
:102B00004002B1FBF5F0584301EB800006EBC0003A
:102B1000B0FBF5F000F00700D6E700000010014020
:102B20000014014081628285C28500210164222255
:102B300080F83E2080F83C10016921B10168CA6824
:102B400042F48072CA6001684A6942F001024A6137
:102B50000068C16841F02001C160002070472DE984
:102B6000F0411E46174688460446069D26E0681C2E
:102B700024D025B1FEF780FB801BA8421ED9206817
:102B80000C3050E8001F21F4D07140E80012002AF8
:102B9000F5D12068143050E8001F21F0010140E811
:102BA0000012002AF5D1202084F83D0084F83E0070
:102BB000002084F83C000320BDE8F0812068016813
:102BC00038EA010004D00020B842D0D00020F3E75A
:102BD0000120F9E70148FFF7DBB9000044010020BC
:102BE0000148FFF7D5B9000088010020FEE700008A
:102BF000134630B40E4AA52414705A245470C41CD1
:102C000094708224D4700C0A14715171002104E074
:102C10005C5C5518491CAC71C9B28142F8D3821D65
:102C200030BC4FF6FF7302490248FFF7B5BB000006
:102C30002C0200208801002000210148FEF77BB90A
:102C400080000020064910B5088000F025F90346F1
:102C50000022BDE8104011460248FEF75FB90000AF
:102C60002A000020800000200FB4054B10B503A9F6
:102C7000044A029800F028F810BC5DF814FB00002C
:102C8000852E0008340000200907090E002804DB07
:102C900000F1E02080F80014704700F00F0000F110
:102CA000E02080F8141D704702E008C8121F08C118
:102CB000002AFAD170477047002001E001C1121FBD
:102CC000002AFBD1704700002DE9FF4F89B09B46D9
:102CD0000446002506E025280BD05A460B9990475C
:102CE000641C6D1C20780028F5D10DB02846BDE885
:102CF000F08F0027B8460122474900E0074314F847
:102D0000013F203B02FA03F00842F7D120782E2839
:102D100019D114F8010F47F004072A280ED06FF0DC
:102D20002F022078A0F1300109290CD808EB880186
:102D300002EB410100EB0108641CF2E70A98641CF5
:102D400050F8048B0A9020780028CED0642808D050
:102D5000692806D075281ED05A460B9990476D1CDD
:102D600058E00A994FF00A0901C90A91002802DACD
:102D700040422D2102E0390504D52B218DF8201089
:102D8000012103E0F90704D02021F7E78A4608AEC5
:102D90000DE00021FAE70A994FF00A0901C90A91EA
:102DA000F7E74946FDF74AFC303106F8011D0028D7
:102DB000F7D1ADEB060000F12009780701D44FF000
:102DC0000108C84502DDA8EB090000E000208046AC
:102DD000002706E008A85A46C05D0B9990476D1C75
:102DE0007F1C5745F6DB04E030205A460B9990478C
:102DF0006D1CB8F10001A8F10108F5DC05E016F83A
:102E0000010B5A460B9990476D1CB9F10001A9F1CD
:102E10000109F4DC641C65E70928010010B500F025
:102E200073F90C48FEF79AFF0B48FEF797FF322024
:102E3000FFF708FF012220210848FEF718FA00F0EA
:102E4000C7F807498880BDE8104040F2892000F0AB
:102E500007BC0000B4000020FC000020000002407D
:102E60000000002010B5A820FEF70EF9C820FEF7DC
:102E7000EBF800F033FB00F0FDF8BDE81040FFF781
:102E8000DBBE000003490A685206FCD5C2B24A60A4
:102E9000704700000010014010B504462DED048B72
:102EA0009FED2E9BFDF757FB9FED2E1B53EC112B37
:102EB000FDF7E2FA00EE104A41EC180BB8EE400ABA
:102EC00000F006FC10EE100AFDF771FB53EC182B16
:102ED000FDF7B9F941EC100B53EC102B9FED230BD0
:102EE00051EC100BFDF750FA9FED221B53EC112B08
:102EF000FDF750FA9FED211B53EC112BFDF7BCFAA7
:102F00009FED201B53EC112BFDF79DF941EC180BA5
:102F100053EC192BFDF75EFB53EC192B51EC180BFE
:102F200006D2FDF731FA41EC100B9FED181B05E0BE
:102F3000FDF72AFA41EC100B9FED161B51EC100B1C
:102F400053EC112BFDF798FA53EC182BFDF77BF996
:102F5000FDF70EFBBDEC048B80B210BDA4703D0AE2
:102F6000D7879F40000000000000244014AE47E1D6
:102F70007A142140000000000000B0400000000072
:102F800000001E40000000000000E03F00000000C4
:102F9000000059400000000000004E4010B5202104
:102FA0000448FEF75FF9012801D0012010BD002080
:102FB00010BD00000000024004480178052901D03E
:102FC0000020704700210170808870472400002095
:102FD00001480088704700002A00002010B5FFF764
:102FE000EBFF15490028088018D001280CD00228D2
:102FF0000FD0032812D1FFF7D1FF104C01280ED0BB
:10300000FFF7CCFF68B111E088884B2806D2401C3E
:1030100003E08888142801D9401E888010BD012251
:1030200000E0002220212046FEF721F9BDE81040F3
:1030300040F2892000F014BB000000200000024094
:103040000B4810B503794FF6FF7202EA0324437967
:103050000649234302EA03234B80C379007A02EA3C
:103060000322104388800520087010BD2400002032
:103070007D02002010B5092205490648FFF752F9E4
:1030800003490922BDE8104009310348FFF74AB956
:10309000740200204401002088010020704770471E
:1030A0007047704770477047704770477047704768
:1030B000704770477047704770477047FEF7EAF8EF
:1030C000FFF756FBFFF712FAFFF7C0F9FFF7F0F929
:1030D000FFF754FAFFF794FAFFF7AEFAFFF7C6FAD4
:1030E000FFF7E0FAFFF7BEFEFFF798FE40F28524F7
:1030F0004FF441756420FDF7A7FF204600F0D8FA91
:10310000284600F095FAF5E719481849194A016070
:10311000002101718160017341730261164A4261AD
:10312000164A8261164AC261164A0262164A426211
:10313000164A8262164AC262164A026380F8341046
:10314000816380F83C1080F83D10134901641349F5
:103150004164134981641349C164134901651349EA
:103160004165134981651349C165704719340008E9
:10317000CC010020AB3000089D300008A3300008CF
:10318000A5300008A7300008A93000089F300008CB
:10319000A130000831340008BB300008AD30000811
:1031A000B3300008B5300008B7300008B930000867
:1031B000AF300008B13000082DE9F05F00264FF075
:1031C000030801274FF005094FF0020A4FF0070BE3
:1031D0003546574806EB460100EB011420680028ED
:1031E00072D0804780F001002071217B0D2978D2B8
:1031F000DFE801F0070B18283A487759816B817195
:103200008100A56060B127736BE0002873D0A068CF
:10321000401CA060052864D3A56084F80CA060E081
:1032200065735EE050B1A068401CA060912858D33F
:10323000A56084F80CB084F80D8052E0A56084F895
:103240000C804EE00028A06806D0411F0A2908D251
:103250000420A560207344E0401CA0600F280DD21C
:103260003FE005280AD33CE040B1A068401CA060C4
:10327000052836D3A56084F80C9032E0A56025734C
:1032800067732EE050B1A068401CA060912828D33D
:103290000920A560207384F80D9022E0A5602573B5
:1032A00084F80DA01DE050B1A068401CA060FA2871
:1032B00017D30B20A560207384F80DB011E008200F
:1032C000A560207304200BE02AE050B90A20A56015
:1032D0002073062004E020B90C20A560207308208C
:1032E0006073607B09281AD2DFE800F019080A0C25
:1032F0000E1012141600A560257391E720690CE0EA
:1033000060690AE0A06908E0E06906E0206A04E07C
:10331000606A02E0A06A00E0E06A00B1804765737D
:10332000761CF6B2022EFFF454AFBDE8F09F000009
:10333000CC01002010B50B494888401C80B2488061
:1033400064280DD10020488000F07EF8BCEEC00A51
:10335000BDE8104010EE100A81B203A0FFF784BC54
:1033600010BD00000000002043757272656E743A53
:1033700025646D410D0A000010B500EB810393ED4B
:10338000000ABDEEC00A2AE0521E91420ADA00EBA2
:103390008203B8EEC01AD3ED000AF4EEC10AF1EED2
:1033A00010FAF1DA00EB820300EB8104D3ED000A9E
:1033B000C4ED000A00E0491C91420ADA00EB8104E6
:1033C000B8EEC01AD4ED000AF4EEC10AF1EE10FA1C
:1033D000F1D900EB8104D4ED000AC3ED000A91425B
:1033E000D3DBB8EEC00A00EB810080ED000A08468E
:1033F00010BDF0B515460E460746A9420BDAFFF799
:10340000BBFF0446421E31463846FFF7F2FF2A460C
:10341000611C3846EEE7F0BD10B508210348FDF702
:1034200021FF002800D0012010BD00000010024044
:1034300010B510210348FDF715FF002800D001202A
:1034400010BD000000100240174810B50088FDF7BD
:1034500082F89FED161B53EC112BFCF79BFF9FEDA1
:10346000151B53EC112BFCF795FF9FED141B53EC30
:10347000112BFCF78FFF9FED131B53EC112BFCF767
:10348000FBFF9FED121B53EC112BFCF77DFFFDF7AB
:10349000B9F800EE100A0F4910EE100A884201DA5E
:1034A0009FED0D0A10BD00002C0000200000000060
:1034B000000004400000000000408F4000000000B9
:1034C0000000303F9A9999999999B93F00000000FE
:1034D000000034400000A04000000000084808211F
:1034E0000170302141700021817006482221C17095
:1034F00005214170142181700621017000F004B88B
:10350000600200202000002010B501220549064875
:10351000FEF734FBBDE81040012204490248FEF7E3
:10352000E1BA00006002002094000020200000208A
:103530002DE9F04110242DED028B00F06DF8334899
:10354000FDF7B2FA334F324D7988A5F1400625F8E0
:103550001100491C89B279800022BA80B88835F8F8
:10356000103000EE103A06EB8003401CB8EE400A23
:1035700080B2A04283ED000AB880EFD3A14200D10F
:103580007A8023480F2200214038FFF732FF0020C5
:1035900009E035F81010401C00EE101A80B2B8EEA9
:1035A000400A30EE088AA042F3D396ED000AD6ED29
:1035B000010A083C38EE400A30EE600AD6ED020AF5
:1035C00030EE600AD6ED030A30EE600AD6ED0F0A3F
:1035D00030EE600AD6ED0E0A30EE600AD6ED0D0A26
:1035E00030EE600AD6ED0C0A30EE600A00EE904A2A
:1035F000F8EEE00A80EE201ABCEEC10A10EE100AC6
:103600003880BDEC028BBDE8F0810000380000205E
:10361000C80200202C00002010B50448FDF798FBDC
:10362000BDE8104001210148FDF73CBB38000020F7
:1036300038B50446FFF708FFBDEEC00A214610EE7C
:10364000102AD01702EB1063180A8DF800001046FC
:103650008DF801006A460220FFF7CAFA38BD000063
:103660002DE9FE43804610A00024006800900FA0C2
:103670006E46006801AF02AD0190FFF78FFC20B1EC
:10368000FFF78CFC012802D003E0305D00E0385DDC
:103690002855641CE4B2042CEFD302AA414604204E
:1036A000FFF7A6FABDE8FE834F4646004F4E0000E6
:1036B00038B50446FFF78CFC010A8DF800108DF830
:1036C00001006A4621460220FFF792FA38BD000049
:1036D00010B52DED028BB0EE408AFFF7B5FE10EE6F
:1036E000100A0B49884210DD18EE100AFCF75FFF44
:1036F0009FED081B53EC112BFCF74CFEFCF782FFEF
:1037000000EE100ABDEC028B10BD9FED040AF9E734
:1037100000009643FCA9F1D24D62703F000000000A
:103720000000000000000000010203040607080971
:1037300000000000010203045837000800000020C8
:1037400038000000A82C000890370008380000203E
:10375000B0060000B82C00080000000000000000C7
:103760000100000010000000000000000024F40030
:103770000000000000000000000000000000000049
:103780000000320000000000000000000000000007
:040000050800018965
:00000001FF
