:020000040800F2
:10000000300700209D010008372400080F22000857
:100010003524000835080008352B000800000000D2
:100020000000000000000000000000001F27000882
:100030003708000800000000A72600082127000854
:10004000B7010008B7010008B7010008B7010008B0
:10005000B7010008B7010008B7010008B7010008A0
:10006000B7010008B7010008B7010008B701000890
:10007000B7010008B7010008B7010008B701000880
:10008000B7010008B701000829080008B7010008F7
:10009000B7010008B7010008B7010008B701000860
:1000A000B7010008B7010008B7010008B701000850
:1000B000B7010008B7010008B7010008B701000840
:1000C000B7010008B7010008B7010008B701000830
:1000D000B7010008252B0008B7010008B701000888
:1000E000B7010008B7010008B7010008B701000810
:1000F000E5270008D9270008B7010008B701000864
:10010000B7010008B7010008B7010008B7010008EF
:10011000B7010008B7010008B7010008B7010008DF
:10012000B7010008B7010008B7010008B7010008CF
:10013000B7010008B7010008B7010008B7010008BF
:10014000B7010008B7010008B7010008B7010008AF
:10015000B7010008B7010008B70100082D2B0008FF
:10016000B7010008B7010008B7010008B70100088F
:10017000B7010008B7010008B7010008000000003F
:10018000B7010008B7010008DFF80CD000F034FB1D
:1001900000480047F12D000830070020064880473E
:1001A00006480047FEE7FEE7FEE7FEE7FEE7FEE75C
:1001B000FEE7FEE7FEE7FEE7C92700088901000821
:1001C0002DE9F05F0546002092469B46884606468C
:1001D000814640241BE0284641464746224600F01F
:1001E00055FA53465A46C01A914110D31146184643
:1001F000224600F03CFA2D1A67EB01084F462246D2
:100200000120002100F033FA17EB00094E41201EB7
:10021000A4F10104DFDC484631462A464346BDE8E6
:10022000F09FD2B201E000F8012B491EFBD27047CB
:100230000022F6E710B513460A4604461946FFF7B2
:10024000F0FF204610BD2DE9FE4F804681EA0300F5
:10025000C00F0C46009021F0004123F00045B8EBA0
:100260000200A94105D24046214690461C460B4655
:10027000024623F00040104347D0270DC7F30A0081
:10028000C3F30A510290401A019040286BDAC3F37D
:10029000130040F4801B0098924620B10023D2EB5B
:1002A000030A63EB0B0B01985946C0F1400250461C
:1002B00000F0DDF906460D4650465946019A00F019
:1002C000F5F910EB08006141002487EA115284EA35
:1002D000E7731A4340D0009A62B3019A012A4FEAA9
:1002E000075215DC001B61EB02014FF0004202EAED
:1002F0000752CDE90042001C41F5801132462B46E1
:1003000000F02CFA03B0BDE8F08F40462146F9E733
:10031000001B61EB0201001C41F5801300185B41DA
:100320002018A2F5001747EB030140EAD570B61973
:100330006D4111E06D084FEA360645EAC0754FEA97
:100340000752001B61EB0201001C41F580114908B6
:100350004FEA30000019514132462B4603B0BDE848
:10036000F04F00F0ECB90098012240000023D0EBE0
:10037000020263EBE073009821464FEAE074B8EBA9
:10038000000061EB0401E9E783F000435BE781F0E3
:10039000004158E72DE9FE4F81EA030404F00044D0
:1003A00021F0004100944FF0000B23F0004350EA8D
:1003B00001045ED052EA03045BD0C3F30A54C1F3D4
:1003C0000A552C44A4F2F3340194A0FB0254C1F367
:1003D000130141F48011C3F3130343F4801301FBB1
:1003E000024400FB034E840A970A44EA815447EA18
:1003F0008357A4FB076802958D0A05FB07854FEA22
:10040000932C04FB0C542705029D4FEA065847EA3B
:100410001637B5EB08056EEB070C870E920E47EA10
:10042000811742EA8312A7FB0201B6EB0B0164EBD2
:1004300000042B0D43EA0C335E1844EB1C50DA46E3
:100440005146E7FB0201C5F313044FEA0B3343EABD
:1004500014534FEA0432019C43EA0603A4F10C044E
:100460000294009CCDE900B400F078F903B0BDE837
:10047000F08F00200146F9E72DE9F04D81EA0304F1
:1004800004F0004B21F0004514464FF0000A23F021
:10049000004150EA050220D054EA01021DD0C5F304
:1004A0000A570246C5F31303C1F31300C1F30A56FA
:1004B00040F4801543F48013A7EB0608101BD646C2
:1004C00008F2FD3873EB050002D308F1010801E0E2
:1004D00092185B41B8F1000F03DA00200146BDE835
:1004E000F08D00204FF48011064684460EE0171B65
:1004F00073EB050705D3121B63EB050306434CEAB8
:10050000010C49084FEA300092185B4150EA01079C
:10051000EDD152EA030012D082EA040083EA050119
:10052000084305D0101BAB4106D20122002306E090
:1005300000224FF0004302E06FF0010253101AEB6B
:1005400006004CEB085110EB0A0041EB0B01BDE833
:10055000F04D00F0F4B830B5041E71F1000404DB76
:100560004FF00044404264EB0101141E73F100049B
:1005700005DB1C464FF00043524263EB0403101AA4
:100580008B4101D2012030BD002030BD0EB540F2BC
:10059000334102910021CDE900110A460B4600F0DB
:1005A000DDF803B000BD70B5C1F30A5201F000459B
:1005B0000024C1F3130140F2FF3341F480119A4249
:1005C00001DA002070BD40F233439A42A2F2334276
:1005D00003DC524200F05AF800E090402C43F1D086
:1005E000404270BD00F0004230F000400AD0C10D22
:1005F00001F56071C0F3160042EA0151C2084007DC
:100600001143704700200146704701F0004330B4A9
:1006100021F0004150EA010206D00A0DA2F56072F5
:10062000C1F31301002A02DC30BC00207047440FE4
:1006300044EAC104C100E01830BC00EBC25000F035
:1006400047B830B50B46014600202022012409E0BE
:1006500021FA02F59D4205D303FA02F5491B04FA7B
:1006600002F52844151EA2F10102F1DC30BD202A5A
:1006700004DB203A00FA02F1002070479140C2F1F9
:10068000200320FA03F3194390407047202A04DB2B
:10069000203A21FA02F00021704721FA02F3D040FB
:1006A000C2F120029140084319467047202A06DB18
:1006B000CB17203A41FA02F043EAE07306E041FA30
:1006C00002F3D040C2F1200291400843194670471E
:1006D0000029A8BF7047401C490008BF20F0010056
:1006E000704710B4B0FA80FC00FA0CF050EA010434
:1006F00004BF10BC704749B1CCF1200421FA04F4C6
:1007000011FA0CF118BF012121430843A3EB0C019E
:10071000CB1D4FEA00614FEA102042BF002010BC01
:10072000704700EBC35010440029A4BF10BC7047B1
:10073000401C490008BF20F0010010BC704710B5F4
:10074000141E73F1000408DA401C41F100019218F4
:100750005B411A4301D120F0010010BD2DE9F04D9D
:1007600092469B4611B1B1FA81F202E0B0FA80F2F2
:1007700020329046FFF77BFF04460F4640EA0A000E
:1007800041EA0B0153465A46084313D0114653EA37
:10079000010019D0C8F140025046FFF777FF054627
:1007A0000E46504659464246FFF761FF084305D0C2
:1007B000012004E020463946BDE8F08D00200543C5
:1007C00046EAE0762C4337430A986305E40AA0EB37
:1007D00008000022FD0A44EA47540A3002D50020EE
:1007E0000146E9E7010510196941DDE908450019ED
:1007F0006941BDE8F04DA2E71CB5094800900948E1
:1008000001900546009C06E0E06840F0010394E892
:10081000070098471034AC42F6D3FFF7B9FC00004C
:10082000EC3500080C360008014800F092B800BF13
:1008300014010020FEE77047EFF3108072B6FEE768
:1008400070470000F8B50022009290F83C20012A81
:1008500001D1022171E0012280F83C200A680A2AB5
:100860001FFA82FC09D34FEA4C0313FA82F3A3F177
:100870001E05036803F10C0604E0036802EB420561
:1008800003F1100607273468AF40BC4334608C681E
:10089000AC4035682C4334604968062909D801EB1F
:1008A00081014C1F1F2101FA04F5194651F8346FDC
:1008B00014E001EB81050C2908D8A5F123041F21C0
:1008C00001FA04F5194651F8306F07E0A5F141042B
:1008D0001F2101FA04F5194651F82C6F26EA050587
:1008E0000CFA04F40D600D682C430C60AC49A1F5C2
:1008F0004174A3421ED1122A04D10A6842F4800234
:100900000A6017E022F00103102B13D10B68102AA4
:1009100043F400030B600DD109490A4A0968B1FB91
:10092000F2F101EB810149000091009911B10099A8
:100930000139F9E7002180F83C100846F8BD00BFF6
:100940000800002040420F00704770470068C06CEC
:10095000704770B50446006806684568B10717D54A
:1009600015F0200114D0216CC90603D4216C41F488
:1009700000712164816811F0405F02D1217E00295D
:1009800062D02046FFF7E0FF20686FF0120101609F
:10099000710714D515F0800111D0216CC90603D45C
:1009A000216C41F400512164816811F4401F2CD066
:1009B0002046FFF745FF20686FF00C010160F1074A
:1009C00018BF15F0400111D1B1060ED515F08061A8
:1009D0000BD0616C6FF0200541F00201616405608D
:1009E0002046FFF7B2FF2068056070BD0168C907A7
:1009F000EAD0206C40F480302064204600F0D8F823
:100A000020686FF001010160DEE7816B11F4401F87
:100A100002D081684905CBD441684905C8D48168B2
:100A200011F0405FC4D1217E0029C1D1416821F07D
:100A300080014160206C20F480502064206CC0054F
:100A4000B6D401F0EFFDB3E7C16A11F4700F02D024
:100A50008168490595D4416821F02001416001F089
:100A6000FAFD3FF58EAF01F0DDFD8AE7002841D0A9
:100A700070B50446006C30B9204600F09BF80020A9
:100A800084F83C006064206CC00635D4206C41F2D0
:100A900002118843424902302064086820F4403043
:100AA000086094E80D0025690E6832430A604168C9
:100AB00021F480714160416841EA0521416041684B
:100AC00021F04071416041681943364B41608168B3
:100AD00021F400618160E16882681143816081686E
:100AE00021F070618160A26A81689A4206D121F08A
:100AF00040510CE00120704701204CE0114381601F
:100B0000816821F040518160E16A8268114381600F
:100B1000816821F00201816094F82020217E8368A1
:100B200043EA4101816041686AB141F400611E4AB3
:100B30004160416821F460414160616A02EB4131EA
:100B40004268114301E021F400614160174BC16A22
:100B500021F47001C162E269616903EB0252C36A68
:100B60001A43C262826822F40072826094F83020D4
:100B7000836843EA42228260826822F48062826053
:100B8000826842EA81210122816000206064216C38
:100B900062F301012164002184F83C1070BD00BFA4
:100BA000042301400100000F00E0FFFF0000F0FF00
:100BB00070470000FEB502686E480021CDE90411BF
:100BC000824226D19E4A009100F56040536943F469
:100BD00080735361536903F480730093009B009109
:100BE000136843F001031360126802F001020092DF
:100BF00003910321029101210191009901A900F0C3
:100C0000CDF912200021002200F012FB122000F08A
:100C100003FB06B080BD00BFF8B5044600680D4672
:100C20008168490502D58068C00525D400F092FA94
:100C300006466F1C2068016889070ED4002FF9D082
:100C40002DB100F087FA801BA842F3D92068006814
:100C50008007EFD401F04CFCF8BD6FF01201016089
:100C6000216C41F400712164816811F0405F01D171
:100C7000217E51B10020F8BD002084F83C00206C9A
:100C800040F0200020640120F8BDC16A11F4700F0B
:100C900002D080684005EDD401F0DDFCEAD401F01B
:100CA000C1FCE7E718B50021009190F83C1001293C
:100CB00004BF022018BD01F07EFC10D10B682C4C43
:100CC00043F001030B60294B1B68B3FBF4F303EB08
:100CD00043030093009B13B1009B013BF9E70C68B1
:100CE000036CE40705D101F08CFC0A68104308602E
:100CF00036E001F0BDFB04D5036C012464F30D3331
:100D00000364036C0024DB0444BF446C24F0060439
:100D100044646FF022040023146080F83C301548CE
:100D2000D0F80433DB0603D0824219D1806814E086
:100D3000824211D0104B9A420AD0104B9A420FD1E6
:100D4000D0F80433DB0607D000F500739A4207D1D0
:100D5000D0F80403C00603D4086810F0405F01D047
:100D6000002018BD4FF08040BFE700BF0800002002
:100D700040420F00002001400022014000210140BC
:100D8000B0B544790223012C19D0037102F010028E
:100D900040F6FE7304689340256825EA0303D1E911
:100DA000001529439140194300232160C02191403F
:100DB000226822EA01012160012143710171184674
:100DC000B0BD78B110B50446007920B9002060713B
:100DD000204600F009F80220012120710020206146
:100DE000217110BD01207047FEB502681348002133
:100DF000CDE9041182421ED1114A009100F5C6309E
:100E0000136943F000531361136903F00053009317
:100E1000009B0091136843F001031360126802F015
:100E20000102009203910321029110210191009986
:100E300001A900F0B3F806B080BD00BF0074004007
:100E40003038024018B500240094006800900098E3
:100E5000104409B1143000E008300090009803609D
:100E6000002018BD43790222012B22D0B0B50271B7
:100E700001F01003012202FA03F4026815682C4302
:100E80001460146839B13C21994004F470138B420A
:100E900009D1022104E004F03C013C2903D10121E5
:100EA0005368194351600022012142710171BDE86C
:100EB000B0401046704770B5866D044600F04AF9A0
:100EC000054694F83500022821D12068216C02687B
:100ED00022F016020260426922F08002426109B9E2
:100EE000A16C19B1016821F00801016001F009FB52
:100EF00020680068C0070ED000F02CF9401B0628BF
:100F0000F6D320206065032084F835000CE08020B3
:100F10006065012008E0E06D3F2101FA00F0B0605B
:100F2000012084F835000020002184F8341070BDC1
:100F300090F83510022909D1052180F83510006894
:100F4000724601F0DEFA9646002070478021416526
:100F5000012070474FF47A71484300F001B8000057
:100F6000B0B50A490C4B0A681B684C68584300230B
:100F70004D68A542FCD023445B1BA54228BF134407
:100F80002C46834228BFB0BDF2E700BF14E000E06A
:100F900001490860704700BF100100202DE9FC4F97
:100FA000614A08244FF0010A4FF0000B90425F4A5B
:100FB00008BF07248305024443EA9222072A38BF68
:100FC0001446009400250022102A08BFBDE8FC8FBB
:100FD0000F680AFA02F917EA090700F09F80D1F8B2
:100FE00004C0032303FA0BF60CF0030E6FEA0608A5
:100FF000AEF10106012E13D88668D1F80CA00AFACA
:101000000BF406EA08064FF0010A34438460CCF37F
:1010100000144668944026EA09063443446005E01B
:10102000BEF1030F02D14FF0030E21E0C4688E68B9
:1010300004EA080406FA0BF63443BEF1020FC4605A
:1010400016D105F01C040F2303FA04FC6FF0030310
:1010500003EA520303441E6A26EA0C0C0E6906FAE0
:1010600004F444EA0C041C62D1F804C00CF0030E32
:1010700004680EFA0BF304EA080423431CF4403F0F
:1010800003604BD000232C4CA84622F003060193AA
:10109000236843F48043236023680F2403F48043D0
:1010A000019305F00C03224D9C40AC462E44019D5B
:1010B000224DAE46755925EA0404009D05FA03F356
:1010C000234346F80E30DCF808304D6843EA070445
:1010D000EE0258BF23EA0704164BCCF80840AE02D4
:1010E0009E461B6843EA070458BF23EA0704CEF86C
:1010F0000040AE03DCF8043043EA070458BF23EA9B
:101100000704CCF80440ED03DCF80030454643EA20
:10111000070458BF23EA0704CCF800400BF1020B88
:101120000435013250E700BF001C02400000FEBF42
:10113000003C01400C3C01404438024008FCFFFFE9
:101140000069084018BF01207047002A08BF090441
:101150008161704705480068704700BF1F48034918
:1011600000780A6810440860704700BF2C03002014
:1011700080B50B48016841F400710160016841F4D9
:1011800080610160016841F480710160032000F01A
:1011900075F80F2000F006F800F022F8002080BD5E
:1011A000003C024070B50D4E04464FF47A71307821
:1011B000B1FBF0F0CC490968B1FBF0F000F0BAFCEB
:1011C00001250F2C08D838B94FF0FF3021460022F6
:1011D000002500F02DF87460284670BD0000002046
:1011E00082B000200B4901904A6842F480424A6074
:1011F0004A6802F480420192019A0090086840F027
:1012000080500860086800F080500090009802B09C
:10121000704700BF40380240002805D4734601F0F3
:101220003FF99E46014A8850704700BF00E100E048
:10123000F0B5184B4FF0FF361C68C4F30224E51ECE
:1012400084F0070438BF002506FA05F7BA43042CDA
:1012500028BF042406FA04F4A14300F00F04A940B7
:10126000043C1143044A234409010244002848BFB6
:1012700003F10C021170F0BD00E400E005494FF6E7
:10128000FF030A681A4060F30A220348104308600B
:10129000704700BF0CED00E00000FA05F8B5044609
:1012A000006810F0050F1ED03B4F0020814E3860C3
:1012B000FFF750FF05463068000105D5FFF74AFFEC
:1012C000401B0228F7D92DE0D4E9010101F0DFF835
:1012D00005463068000105D4FFF73CFF401B02289B
:1012E000F7D91FE0206880074FF0000044D5714E09
:1012F00000902A4F306C40F080503064306C00F029
:10130000805000900098386840F480703860FFF793
:1013100021FF05463868C00506D4FFF71BFF401BB8
:101320000228F7D90320F8BD306F10F4407010D0B8
:10133000E16801F4407188420BD0306F18490122F6
:101340000A60002220F440700A603067306FC007E6
:1013500013D1E0681349B268014000F4407322F4ED
:10136000F8126FF31F30B3F5407F08BF0A43B26035
:10137000316F084330670020F8BDFFF7EBFE0546EC
:1013800041F28837306F8007E3D4FFF7E3FE411B5B
:101390000320B942F6D9EFE76800474200700040E9
:1013A000400E4742FFFCFF0F002852D02DE9F041CC
:1013B000404B04468846D3F8000400F007008842FA
:1013C00004D283F8008401F05CF84BD120688107D7
:1013D00011D5410703D5996841F4E051996001079F
:1013E00003D5996841F460419960A1689A6822F038
:1013F000F00211439960C0072DD101F042F804D9E1
:1014000083F8008401F03DF82CD12068410705D510
:10141000E1689A6822F4E05211439960000706D50A
:101420002069996821F4604141EAC00098601C4637
:1014300000F060F8A168204AC1F30311515CC84074
:10144000294908601D480068FFF7ACFE0020BDE890
:10145000F081012070476068811E022905D2196859
:10146000890107D40120BDE8F08101281DD1196848
:101470008903F7D599681D4621F003010843986058
:10148000FFF768FE064641F288376068A9682B4678
:1014900001F00C01B1EB800FAFD0FFF75BFE801BBA
:1014A000B842F2D90320BDE8F08119688907D9D57F
:1014B000E0E700BF00380240D435000804000020F7
:1014C00009480A490A4A00680968C1F38221515C47
:1014D000C840704704480549054A00680968C1F3D7
:1014E0004231515CC8407047080000200838024073
:1014F000E435000810B5134C606800F00C01124888
:10150000082903D004291CD1104810BD2168236884
:1015100001F03F0221685B02C1F3881105D4A1FBF1
:1015200000010023FEF74CFE03E008484843B0FBEF
:10153000F2F021680222C1F3014102EB4101B0FB4C
:10154000F1F010BD043802400024F40000127A00CB
:10155000002864D02DE9FC4104460078C54EC00740
:101560000CD0B06800F00C00042840F09080306887
:10157000800303D56068002800F0A18020788007F0
:1015800019D5B06810F00C0F07D001F01DF840F02D
:1015900099807068400200F195803068800703D51B
:1015A000E068012840F08B802069316821F0F80163
:1015B00041EAC00030602078000732D4207840072C
:1015C00042D4A76947B300F0FFFF40F0AC80012F81
:1015D00075D0E169706800F480028A426FD1216A97
:1015E00000F03F028A426AD147F6C071626A014048
:1015F000B1EB821F63D1A16A4FF6FF72C903914319
:1016000000F44032A1F580318A4258D1E16A00F0FD
:101610007060B0EB016F52D10020BDE8FC81012069
:1016200070476169944800296DD00121C0F8801E7F
:10163000FFF790FD0546706F8007BFD4FFF78AFD66
:10164000401B0228F7D9CCE0306C5FEAC0080AD40E
:1016500000200190306C40F080503064306C00F01D
:10166000805001900198854F3868C0053DD4386896
:1016700040F480703860FFF76DFD05463868C0059E
:1016800033D4FFF767FD401B0228F7D9A9E000F02B
:101690009BFF03D1706840023FF569AF6068B0F509
:1016A000803F07D0B0F5A02F40F08580306840F42F
:1016B00080203060306840F48030306085E0012068
:1016C000BDE8FC81E06800284CD06B480121016036
:1016D000FFF740FD0546306880073FF565AFFFF72F
:1016E00039FD401B0228F6D97BE0A068012805D00F
:1016F000052848D1306F40F004003067306F40F06B
:101700000100306749E00021C0F8801EFFF722FD8C
:101710000546706F80077FF551AFFFF71BFD401B3B
:101720000228F6D95DE05449002088460866FFF794
:1017300011FD0546022F0AD147463068800153D576
:10174000FFF708FD411B03200229F6D965E7306841
:1017500080017FF561AFFFF7FDFC411B03200229EB
:10176000F5D95AE7444800210160FFF7F3FC05462C
:10177000306880077FF51FAFFFF7ECFC411B0320AB
:101780000229F5D949E7316F002821F001013167BD
:10179000316F21F00401316745D0FFF7DBFC0546CE
:1017A00041F28837306F80074CD4FFF7D3FC401BE1
:1017B000B842F7D915E03168002821F48031316052
:1017C000316821F48021316045D0FFF7C3FC054624
:1017D000306880033FF5D2AEFFF7BCFC401B6428A5
:1017E000F6D90320BDE8FC811C341FCC0843D90383
:1017F00040EA82104FF6FF72914340EA0460A1F57F
:1018000080310843706001203866FFF7A3FC04466E
:10181000306880013FF500AFFFF79CFC011B0320FF
:101820000229F5D9F9E6FFF795FC054641F288371C
:10183000306F800706D5FFF78DFC411B0320B942AE
:10184000F6D9EAE6B8F1000F3FF5BBAE306C20F0F8
:1018500080503064B5E6FFF77DFC054630688003B4
:101860007FF58CAEFFF776FC411B03206429F5D988
:10187000D3E600BF0038024000004742007000403D
:1018800090B170B50446407F20B9002020772046F3
:1018900000F032F80220CA216077206800F009FECB
:1018A000226818B1012022E0012070479068114998
:1018B000261D084090606BCE28439568304328432E
:1018C00090601361106940EA01401061204600F009
:1018D00012FF01460120226849B9116C21F48021D0
:1018E0001164A169136C1943116460770020FF2112
:1018F000516270BDBFFF8FFFF8B500210068CDE9D0
:1019000001110949884200D08FBD4FF40070039047
:10191000022000906846FFF7C1FC08B1FEF78CFF7B
:101920000248012101608FBD002800403C0E474263
:10193000F8B5037F04460220012B60D060770120B8
:10194000207732B14878CA788E78000240EA0245A2
:1019500034E0487809254FF00A0CC20642BF00F077
:10196000EF000A304870CB7809268A78092B88BFA7
:101970001D46B5FBFCF5092805EB8507A3EB4703DE
:1019800043EA05134FF0090588BF0546DBB2B5FBF6
:10199000FCF505EB8507A0EB470040EA0510C0B257
:1019A0000002092A40EA034588BF1646B6FBFCF050
:1019B00000EB8003A2EB430242EA00162068CA2231
:1019C00042625322426220460F7800F06DFE08B159
:1019D00001200FE0F0B22168284320F0C00040EA67
:1019E00047304860204600F086FE0146012009B9D4
:1019F000607700200021FF22217721684A62F8BD2C
:101A00002DE9F0410D46017F04460220012974D0E2
:101A1000607701202077206881687AB1490659BF34
:101A20004FF0000885F80380E9784FEA81586A781A
:101A30002978AE78120242EA014739E0490659BFD7
:101A40004FF0000885F80380E9784FEA81580927AC
:101A50004FF00A0C297809266A7895F802E00929DE
:101A600088BF0F46B7FBFCF7092A07EB8703A1EBFA
:101A700043014FF0090388BF134641EA0711B3FB46
:101A8000FCF3C9B203EB8307A2EB470242EA03125D
:101A9000D2B21202BEF1090F42EA014788BF764670
:101AA000B6FBFCF101EB8102AEEB420242EA011609
:101AB000CA2100F0FEFC08B1012019E0F0B2104983
:101AC000384340EA0800084021680860886820F42C
:101AD00080208860D5E9030210438A68104388603B
:101AE000204600F008FE0146012009B96077002079
:101AF0000021FF22217721684A62BDE8F08100BF02
:101B00007F7F7F00B0B504460068C16821F0A00166
:101B1000C160FFF71FFB05462068C068800644BF10
:101B20000020B0BDFFF716FB00F081FD84BF03204D
:101B3000B0BDF1E7411E0020B0EB116F1CBF0120CA
:101B40007047044AF023516003490B7007219060ED
:101B50001160704710E000E023ED00E0704770472F
:101B600058B110B500F072FD03D100F045FD00F052
:101B700007F800F084FD00F0C9BC012070470000A8
:101B80001CB500688F49884213D08F49884218BF1E
:101B90001CBD00202C2401901148016841F08001F7
:101BA00001600121006800F08000019001982C2064
:101BB0000EE000202D2400900948016841F4807156
:101BC00001600021006800F48070009000982D20D2
:101BD0000022FFF72DFB2046BDE81C40FFF71CBB91
:101BE0004038024090F83D1001291CBF0120704789
:101BF000022180F83D100068C168B0F1804F41F0CB
:101C00000101C16014D01049884211D00F498842A7
:101C10000ED00F4988420BD00E49884208D00E4999
:101C2000884205D00D49884202D00D49884204D12E
:101C3000724600F0AEFC964603D0724600F090FC6F
:101C400096460020704700BF000400400008004096
:101C5000000C00400018004000000140004001401E
:101C600000040140704710B5044600680169890707
:101C700012D5C16889070FD56FF0020101610121FA
:101C800021778069800702D000F0F0FC01E000F0CD
:101C9000BFFC0020207720680169490713D5C1687F
:101CA000490710D56FF00401016102212177806995
:101CB00010F4407F02D000F0D9FC01E000F0A8FC55
:101CC0000020207720680169090712D5C16809073B
:101CD0000FD56FF00801016104212177C0698007E9
:101CE00002D000F0C3FC01E000F092FC002020775D
:101CF00020680169C90613D5C168C90610D56FF0FF
:101D00001001016108212177C06910F4407F02D0E1
:101D100000F0ACFC01E000F07BFC002020772068A4
:101D20000169C90709D0C168C90706D06FF0010170
:101D30000161204600F02CF820680169090609D5E8
:101D4000C168090606D56FF0800101612046FFF7E2
:101D500005FF20680169490609D5C168490606D50D
:101D60006FF040010161204600F032F820680169FF
:101D7000890602D5C168890600D410BD6FF0200124
:101D800001612046BDE81040FFF7E9BE704770478B
:101D900010B500680B4988420AD00B49884210D11F
:101DA00001F0A0F800F0C4FFBDE8104001F070B9E8
:101DB00001F062FA054C208800F0E2FE00F0B2FF6C
:101DC000208010BD00200040001C00400A030020BD
:101DD0007047704770470000F8B504460068026815
:101DE000C168466915074FEA82633FD001F49077D6
:101DF00006F00106BF193DD0D70705D0CF0503D5A2
:101E0000276C47F001072764570704D51EB1276CDC
:101E100047F002072764920704D51EB1226C42F0F6
:101E200004022264002D07D501F02002921903D08C
:101E3000226C42F008022264226C002A00F0DD804D
:101E4000002B05D5890603D5204600F064FD2068E7
:101E50004069216C00F0400001F00801401847D1B2
:101E60002046FFF7B7FF00202064C6E0002B01D515
:101E70008B0654D4236B012B03D1D30601D5CB069B
:101E800052D4130601D50B0611D4520640F1B58089
:101E9000490640F1B280C16821F04001C1602020B4
:101EA00084F83D002046BDE8F84000F0AFB994F852
:101EB0003D10212940F0A180A168B1F5805F03D1D8
:101EC0002169002900F09A80216A4A1C226209785F
:101ED0004160E18C0139E184090440F08E80C168E1
:101EE00021F08001C160C16841F04001C160F8BDCE
:101EF000204600F0EFFC00F07BFB4BD500F01DFB13
:101F0000FCD1A06B002845D040490165FFF710F8CF
:101F1000002872D0A06B016DBDE8F840084720464C
:101F2000BDE8F84000F0F7BC002100910168009185
:101F30004168009100994069400630D4E08DA18D40
:101F4000E28D002A59D0814257D0081A216851E801
:101F5000031F226821F4907142E80313002BF5D18E
:101F6000216851E8051F226821F0010142E80513AC
:101F7000002BF5D1202184F83E1000212163216837
:101F800051E8031F226821F0100142E80313002BDF
:101F9000F5D12CE02046BDE8F840FFF71BBFA16B50
:101FA0000868426893B243B3A08D834225D2E2858C
:101FB000C969B1F5807F18D000F0F8FA20F480707C
:101FC00000F050FBF8D100F07AFAFCD100F0B5FA3D
:101FD000FCD1202084F83E000020206300F0F9FAB4
:101FE000FCD1A06BFEF767FFA08DE18D401A81B296
:101FF0002046BDE8F840FFF7ECBEF8BD216A31F895
:10200000022B6FF35F222162426062E7C928000859
:1020100090B110B5044690F83D0008B900F029FBD6
:1020200000F009FB2068016921F4904101614169D8
:1020300021F02A0100F02ABB0120704710B586B0BC
:10204000044601A81421FEF7F3F8206842498842AB
:102050001ED0EF4988424AD10020B549252400907E
:102060004A6942F010024A614A6902F01002009285
:10207000009A00900868072240F001000860086894
:102080004FF4C06100F0010000900098A9481BE0E7
:102090000020A749472400904A6942F020024A6183
:1020A0004A6902F020020092009A00900868082213
:1020B00040F0040008600868C02100F004000090AF
:1020C00000989C4800F500600592032204920022CB
:1020D00003920222CDE9011201A9FEF75FFF20461B
:1020E00000210022FFF7A4F82046FFF795F806B07C
:1020F00010BD00BF10B590F83E30202B05D131B196
:102100002AB190F83C30012B03D1022408E00124CD
:1021100006E000240123046380F83C3000F0BAFCA0
:10212000204610BD0068C249884209D0B84988429B
:1021300018BF704709480922811DB448FFF7DABF6C
:1021400080B50648092200F10F01B848FFF7D2FF19
:10215000BDE8804000F01ABE00140140400000209D
:102160002DE9F843044690F83D00202806D10D469D
:1021700039B116462AB100F015FA05D10220BDE8A2
:10218000F8830120BDE8F8830020994620640120EF
:1021900084F83C00212084F83D00FEF7DBFFE68454
:1021A0008046A684A068B0F5805F01D1206910B197
:1021B00000262F4601E000272E46002084F83C0030
:1021C000E08CA8B12046802100F0E8F9A8B927B139
:1021D00017F8010B2168486006E036F8021B2068FA
:1021E00000276FF35F214160E08C0138E084E7E76E
:1021F0002046402100F0D2F910B10320BDE8F88359
:10220000202084F83D000020BDE8F8837047FEE7F9
:10221000BFB51348144B134A00244FF480310125F5
:102220000394C46280F820400476836280F83040D2
:10223000C561C0E90021C0E90244C0E90444FEF7D9
:1022400015FC08B1FEF7F8FA03206946CDE9004510
:1022500002900348FEF7F6FA08B1FEF7EDFABFBDAB
:1022600014010020002001400100000FE0B50A48E1
:102270000A4901600021CDE90011FEF7A2FD08B175
:10228000FEF7DAFA044869460022FEF779FD08B144
:10229000FEF7D2FA8CBD00BF5C0100200074004044
:1022A0002DE9F04186B000262148224C00224FF053
:1022B000E008CDE904660096016841F01001016074
:1022C000016801F0100100F0B7F841F080010160F1
:1022D000016801F0800100F0AFF841F001010160F8
:1022E000016801F0010100F0A7F841F0040101606C
:1022F000E021006800F00400009000982046FEF7FE
:1023000024FF012718200190CDE9026701AD04F5F3
:1023100080502946FEF742FE03202946CDE9018779
:10232000CDE903602046FEF739FE06B0BDE8F08136
:10233000303802400000024010B586B01748184BF4
:102340000024FF217F22CDE90244CDE90044C0E909
:102350000034C0E90221C0E904448461FFF790FA27
:1023600008B1FEF769FA0D48CDE904448DF806403E
:10237000ADF8044001A90122FFF742FB08B1FEF7C6
:102380005BFA08486946012200900448FFF7D0FA3A
:1023900008B1FEF751FA06B010BD00BF7001002071
:1023A000002800400105050510B507488021074CAD
:1023B000532342F20F7200F044F818B1BDE8104008
:1023C000FEF73ABA10BD00BF90010020001C00408B
:1023D00010B506488021064C5323632200F031F8E3
:1023E00018B1BDE81040FEF727BA10BDD801002093
:1023F0000020004010B50548054C00F02BF818B13E
:10240000BDE81040FEF718BA10BD00BF2002002042
:102410000010014010B50548054C00F01BF818B13C
:10242000BDE81040FEF708BA10BD00BF64020020EE
:1024300000140140FEE7FEE7009100990096016854
:10244000704781610021C0E90043C0E902120161C7
:10245000FFF786BB00210C224FF4E133C0E90043B3
:10246000C0E90211C0E90412C0E90611FFF7D0BDAE
:1024700040F20174A34303F58073036453685B0562
:102480007047D3F8000400F0070040457047090783
:1024900041EA8010C6F8840001203860FEF75ABE79
:1024A0001C21012201EAD00100F01F0002FA00F015
:1024B0007047416253214162204600F0F5B8206820
:1024C00050E8050F216820F0010041E80502002ACC
:1024D0007047DAF8080001309128CAF80800704700
:1024E00053EC102BFDF7C8BF53EC102BFDF752BF78
:1024F000002084F83C00206C40F00400206403209D
:102500007047016821F0010101607047012084F8E3
:10251000460084F83E0084F83F0084F8400084F8C8
:10252000410084F8420084F8430084F8440084F8B1
:10253000450084F83D00002010BD206850E8050FDC
:10254000216820F0400041E80502002A7047CAF8DF
:1025500008408AF80C00704753EC102BFDF773BE4F
:10256000016841F0010101607047016851E8051FF1
:10257000026821F0010142E80513002B7047016851
:1025800051E8031F026821F0100142E80313002BF9
:102590007047816801F007010629704742464B46A3
:1025A00000F093BA94F83C0001287047206850E886
:1025B000030F216870470268012180F83C10114622
:1025C00051F8083FDB077047B06800F00C0008289E
:1025D0007047206850E8030F216820F0100041E8A0
:1025E0000302002A70478AF80C40CAF80840704776
:1025F0002068406940067047002084F83C0020466F
:10260000704743F01001016400F14401012070475C
:102610004DF808ED2046FFF7B9FB20465DF808EBC2
:10262000FFF7B5BB206C40F0010020647047401BF1
:10263000B0F57A7F7047242084F83D002068C16897
:1026400021F40051C160204600F0C0B9044690F862
:102650003D0000287047206C20F480702064206CBE
:10266000C004704741E80302002A70472046FFF784
:10267000F9BA002084F83C002046FFF7DFBC0220B6
:10268000211D84F83D00206800F0B2B84161C168A6
:1026900041F40051C16000202021206484F83D10E5
:1026A00084F83E1010BD70472DE9F04104460068E3
:1026B000C16849061BD4C1680026012741F080018A
:1026C000C160FEF747FD05464FF004082168F84356
:1026D000C96840EA9110C0070AD1FEF73BFDFFF739
:1026E000A6FFF3D984F81D8001260027EEE7002617
:1026F000F0B2BDE8F08110B504460068C16821F071
:102700008001C1608068800607D42046FFF7FAF98F
:1027100018B104206077012010BD002010BD704763
:10272000FEF71CBDB0B592B000241421CDE90744DA
:1027300001A8FDF77DFD224800940225016841F0C3
:1027400080510160006800F0805000900098009473
:102750001C48016841F4804101601021006800F4C8
:102760008040009004201095CDE90C541190A820D1
:102770000F9008200E9001200B90CDE909010A204E
:102780000690009806A8FEF7E3FE18B1EFF310805C
:1027900072B6FEE74FF48050CDE902540521059052
:1027A0004FF4A05004900F20019001A8FEF7FCFD0B
:1027B00018B1EFF3108072B6FEE712B0B0BD00BFE3
:1027C00040380240007000400248016841F4700146
:1027D0000160704788ED00E00148FFF744BA00BF90
:1027E000D80100200148FFF73EBA00BF9001002049
:1027F00070B52A4A0368904234D0B0F1804F0BD0B4
:10280000274CA04208D0274CA04205D0264CA0421D
:1028100002D0264CA04203D14C6823F0700323431E
:10282000B0F1804F22D01E4CA0421FD01D4CA042C0
:102830001CD01E4CA04219D01D4CA04216D01D4CDD
:10284000A04213D01C4CA04210D0174CA0420DD077
:102850001A4CA0420AD01A4CA04207D0194CA042F0
:1028600004D007E04C6823F070032343CC6823F4C2
:10287000407323434E6923F080030C688D68334313
:1028800090420360C562846203D002F58062904288
:1028900001D1096901630121416170BD000001405E
:1028A000000400400008004000040140000C00400B
:1028B00000180040001C0040002000400040014083
:1028C0000048014000440140806B0021C185C18463
:1028D000FFF780BA016851E8031F026821F4907184
:1028E00042E80313002BF5D14DF808EDFFF73DFE4C
:1028F0005DF808EBF8D1016B012906D14DF808ED20
:10290000FFF73DFE5DF808EBF8D1202180F83E107E
:1029100000210163704790F83E10222926D1836878
:102920000246B3F5805F0CD152F8281F52F8183CCC
:102930008BB9026852686FF35F2221F8022B816223
:102940000FE052F8281F0BB9036923B103685B68D5
:1029500003F07F0301E003685B680B7011680131CD
:102960001160C18D0139C185090400D0704701682B
:10297000CA6822F02002CA60CA6822F48072CA6063
:102980004A6922F001024A61202180F83E10016B61
:10299000012918BFFFF7C6BB81B0002101634DF8C4
:1029A00008EDFFF7ECFD5DF808EBF8D101680A6867
:1029B000D20606D5002200920A680092496800916A
:1029C0000099818D01B0FFF704BA0000B0B504464C
:1029D000006804F108030ECB056925F4405519433E
:1029E0002A4349F20C650261C26863691943E369CD
:1029F000AA4319431143C1604169A26921F440719E
:102A000011434161214940F48060884202D1FEF7C0
:102A100061FD01E0FEF754FDE26919216368A0FB46
:102A20000101B2F5004F17D15A00DB0FFDF7C8FBCB
:102A3000174B6421B0FBF1F203F1805302FB03005A
:102A4000322303EBC000B0FBF1F04FF4F87101EA60
:102A5000400100F0070012E09A009B0FFDF7B0FB69
:102A600064210B4BB0FBF1F202FB0300322303EBBA
:102A70000010B0FBF1F000F0F00100F00F0001EBEE
:102A80000211084421688860B0BD00BF00140140F5
:102A90009CFFFF0F0023C28503648162222182858F
:102AA00080F83C3080F83E100168006918B1C868B1
:102AB00040F48070C860486940F001004861C8680F
:102AC00040F02000C860002070472DE9F0411D460D
:102AD00090460F4604465E1C206800683840B842A5
:102AE0001DD0002EF8D02DB1FEF734FBA0EB08006E
:102AF000A842F1D9FFF75AFD20F4D070FFF7B2FDDC
:102B0000F8D1FFF7DCFCFCD12020002184F83D0047
:102B100084F83C1084F83E000320BDE8F0810020DA
:102B2000BDE8F081A848FFF757B900BFA748FFF7F5
:102B300053B900BFFEE7000010B50E4B8224597157
:102B4000090ADC7045F6A5241971C11C1C80997016
:102B5000991D03462BB112F8014B013B01F8014BC3
:102B6000F8E7821D994803494FF6FF73BDE810400E
:102B7000FFF7F6BA0C03002008480021FEF772B9EF
:102B800080B56A49088000F047F8034603480021F1
:102B90000022BDE88040FEF755B900BF5C0100206F
:102BA00080B500F049F90C48FFF71CF80B48FFF717
:102BB00019F83220FFF7E4FF734820210122FEF7C5
:102BC000C4FA00F0AFF86F49088040F28920BDE8F0
:102BD000804000F0D9BB00BF90010020D801002048
:102BE00080B5A820FEF7D4F9C820FEF7B3F900F0AD
:102BF00023FB00F0D7F8BDE88040FFF7BDBF000021
:102C000003490A685206FCD5C2B24A60704700BF49
:102C10000010014000000000F8B50446FDF7B6FCC6
:102C20009FED250BFFF75CFC00EE104A05460E46B3
:102C3000B8EE400A00F0D8FB10EE100AFDF7D2FC07
:102C400002460B4628463146FDF79EFB9FED1C0BC6
:102C5000FFF782FC9FED1C0B53EC102BFDF79AFB4A
:102C60009FED1B0BFFF73CFC9FED1B0BFFF774FC6C
:102C70009FED1B0B04460D46FFF76EFC9FED1A0BF4
:102C800006460F462046294653EC102BFDF763FC01
:102C900017A10028304618BF083191ED000B3946C6
:102CA000FFF71EFC02460B4620462946FDF7CBFAED
:102CB000FDF779FC80B2F8BD00000000000024C0E0
:102CC00014AE47E17A142140000000000000B0403B
:102CD0000000000000001E40000000000000E03F77
:102CE000A4703D0AD7879FC0A4703D0AD7879F4034
:102CF0000000000000004E400000000000005940AD
:102D000080B521482021FEF71BFA013818BF0120A9
:102D100080BD00BF2B4900200A78052A04BF087037
:102D20008888704701480088704700BF0C00002069
:102D300080B5FFF7EFFF032809D002280DD0012846
:102D400011D1104801884A290DD801310AE0FFF756
:102D5000D7FF012808D101220AE00A480188152975
:102D600001D30139018080BDFFF7CAFF20B90022DD
:102D700005482021FEF7E9F940F28920BDE88040AE
:102D800000F002BB0A030020000002400D480521AC
:102D90000170017D09024180C18A09BA090C818054
:102DA000704700BF10B5074C07480922A11DFFF767
:102DB000A1F9064804F10F010922BDE81040FFF710
:102DC00099B900BF400000202002002064020020CA
:102DD000704770477047704770477047704770473B
:102DE000704770477047704770477047704770472B
:102DF000FEF7BEF9FFF796FCFFF752FAFFF708FA65
:102E0000FFF734FAFFF798FAFFF7CEFAFFF7E0FA88
:102E1000FFF7F0FAFFF7FEFAFFF7E2FEFFF7C0FE5A
:102E20006420FEF797F840F2852000F0CFFA4FF4C7
:102E3000417000F091FAF3E7F0B59448DFF85CC018
:102E4000174A1C4F1C49174B174C184D184EDFF8EA
:102E500074E0C0E9162C194AC0E910170021C0E936
:102E60001265C0E91443DFF858C0174C174D184ECF
:102E7000184F1A4B8187816380F8341081818160FB
:102E8000017117490263144AC0E90676C0E9085483
:102E9000C0E90AEC0160C0E90432F0BDE52D00088C
:102EA000E32D0008ED2D0008EB2D0008E92D0008AA
:102EB000E72D0008E12D0008EF2D000891310008F2
:102EC000D52D0008D32D0008DD2D0008DB2D0008CE
:102ED000D92D0008D72D0008D12D0008DF2D0008BE
:102EE0007D3100082DE9F84F684D002401264FF090
:102EF000020803274FF0080B4FF00009B9F1600FEB
:102F000008BFBDE8F88F55F80900002800F0B88028
:102F100005EB090A804780F001018AF804109AF84D
:102F20000C100C2900F28680DFE801F00C1321253B
:102F30002E34843A074107480700FFF754FB8AF80C
:102F40000D4077E00028CAF808403ED08AF80C40CF
:102F5000F5E70028F1D1DAF808000130CAF80800D6
:102F6000052824BF8AF80C80CAF8084062E078B3CC
:102F70008AF80C7046E0DAF80810A0B3481C0F2855
:102F8000CAF8080056D300E090B3FFF72CFB8AF88C
:102F90000D604FE0C8B3FFF726FB8AF80D8049E0CB
:102FA000D8B304208AF80CB0CAF8084040E00028E2
:102FB00040D00A20FFF7CBFA062039E0D0B30C202E
:102FC000CAF808408AF80DB00AE08AF80C6031E0CF
:102FD000FFF77FFA2ED30720CAF808408AF80D7051
:102FE0008AF80C0026E0481F09284CD8042007E086
:102FF000DAF8080001300528CAF808001AD30520BD
:103000008AF80C00CAF8084014E0FFF762FA11D3FE
:103010000920FFF79CFA05200AE0DAF808000130E1
:10302000FA28CAF8080005D30B20FFF790FA07200A
:103030008AF80D009AF80D00013807281ED8DFE83D
:1030400000F004070A0D10131619DAF8100013E047
:10305000DAF8140010E0DAF818000DE0DAF81C00D5
:103060000AE0DAF8200007E0DAF8240004E0DAF8F1
:10307000280001E0DAF82C0000B180478AF80D4002
:1030800009F130093AE70429D4D87EE7A8020020E4
:103090000A4801880131018089B2642918BF70474C
:1030A00080B50021018000F07FF8BDEEC00A04A0C9
:1030B00010EE101ABDE8804000F0C2B908030020ED
:1030C00043757272656E743A25646D410D0A000095
:1030D000B0B500EB810393ED000ABDEEC00AB8EE77
:1030E000C00A914230DA00EB82041346994209DAB1
:1030F00094ED001AB4EE401AF1EE10FA08DB043C2D
:10310000013BF3E700EB810292ED001A0A4600E072
:103110001A4600EB810500EB8204994285ED001A06
:10312000C8BF0B468B4209D095ED001AB4EE401A89
:10313000F1EE10FA05DC04350131F3E794ED001AE5
:10314000114684ED001ACCE700EB810080ED000A07
:103150000846B0BDF8B514460E460546A642A8BFBF
:10316000F8BD284631462246FFF7B2FF0746421E09
:1031700028463146FFF7EEFF7E1CEFE780B5094891
:103180000821FDF7DDFF002818BF012080BD00BF2A
:1031900080B504481021FDF7D3FF002818BF012097
:1031A00080BD00BF0010024080B521480088FDF7B7
:1031B000EDF99FED150BFFF797F99FED150BFFF755
:1031C00093F99FED150BFFF78FF99FED150B53EC5E
:1031D000102BFDF751F99FED140B53EC102BFDF75D
:1031E00032F8FDF712FA00EE100AB1EE041A9FED64
:1031F000112AB4EE410AF1EE10FAB8BFB0EE420A5D
:1032000080BD00BF00BF00BF000000000000044000
:103210000000000000408F40000000000000303F30
:103220009A9999999999B93F00000000000034C01B
:1032300058000020000000000D480021817243F278
:10324000080101810149016000F002B8060514225D
:10325000B0B5074C074D012204F108012846FEF7DE
:10326000CFFB284621460122BDE8B040FEF760BBF7
:103270001000002070010020B0B500F05FF8354864
:10328000FDF764FB2C4C6288511C04EB42029080D9
:1032900004F12400002261800346102A0AD004EBC6
:1032A00042050132AD8800EE105AB8EE400AA3EC98
:1032B000010AF2E789B2102904BF002161800021D0
:1032C0000F220025FFF746FF102D0AD004EB450022
:1032D0000135808801EE100AB8EE411A30EE010A7D
:1032E000F2E794ED091A94ED0A2A94ED0B3A94ED65
:1032F0000C4A30EE410A94ED151A30EE420A94ED74
:10330000162A30EE430A94ED173A30EE440A94ED53
:10331000184A30EE440A30EE430A30EE420A30EEEC
:10332000410AB4EE001A20EE010ABDEEC00A10EE0A
:10333000100A2080B0BD00BF5800002010B5054C19
:103340002046FDF7AFFC20460121BDE81040FDF707
:1033500063BC00BF140100201CB50446FFF724FF26
:10336000BDEEC00A0DF1060210EE100AC1178DF86D
:10337000070000EB11602146000A8DF806000220CC
:10338000FFF7DAFB1CBD00002DE9FC41804600255B
:103390000DA601AF0BA4042D0DD0FFF7B1FC28B191
:1033A000FFF7AEFC012804D1601900E07019007825
:1033B00078550135EFE701AA04204146FFF7BCFB31
:1033C000BDE8FC814F4E00004F4646001CB5044648
:1033D000FFF7A8FC40BA0DF106022146ADF8060041
:1033E0000220FFF7A9FB1CBD80B52DED028BB0EECE
:1033F000408AFFF7D9FE9FED111AB4EE410AF1EEB3
:1034000010FA0EDD18EE100AFDF7ECF89FED080B30
:1034100053EC102BFCF7BEFFFDF7F7F800EE100A97
:1034200001E09FED050ABDEC028B80BD00BF00BF2F
:10343000FCA9F1D24D62703F0000000000009643ED
:103440000FB4054B10B503A9044A029800F018F810
:1034500010BC5DF814FB0000012C0008BC0000202B
:1034600002E008C8121F08C1002AFAD1704770474D
:10347000002001E001C1121F002AFBD170470000AB
:103480002DE9FF4F89B09B460446002506E025281C
:103490000BD05A460B999047641C6D1C207800286D
:1034A000F5D10DB02846BDE8F08F0027B8460122BF
:1034B000474900E0074314F8013F203B02FA03F0BC
:1034C0000842F7D120782E2819D114F8010F47F0BF
:1034D00004072A280ED06FF02F022078A0F13001C7
:1034E00009290CD808EB880102EB410100EB010827
:1034F000641CF2E70A98641C50F8048B0A90207848
:103500000028CED0642808D0692806D075281ED09F
:103510005A460B9990476D1C58E00A994FF00A09DA
:1035200001C90A91002802DA40422D2102E0390542
:1035300004D52B218DF82010012103E0F90704D0D8
:103540002021F7E78A4608AE0DE00021FAE70A9944
:103550004FF00A0901C90A91F7E74946FDF771F8EA
:10356000303106F8011D0028F7D1ADEB060000F15F
:103570002009780701D44FF00108C84502DDA8EB07
:10358000090000E000208046002706E008A85A460F
:10359000C05D0B9990476D1C7F1C5745F6DB04E01E
:1035A00030205A460B9990476D1CB8F10001A8F1E4
:1035B0000108F5DC05E016F8010B5A460B99904717
:1035C0006D1CB9F10001A9F10109F4DC641C65E787
:1035D00009280100000000000000000001020304AF
:1035E0000607080900000000010203041036000865
:1035F00000000020100000006034000820360008A1
:1036000010000020200700007034000800000000B7
:1036100001000000100000000024F400320000004F
:040000050800018965
:00000001FF
