:020000040800F2
:10000000D80800205D020008D72500086B230008EF
:10001000D525000855060008E92E0008000000005C
:10002000000000000000000000000000032900089C
:1000300057060008000000008B280008052900086A
:1000400077020008770200087702000877020008AC
:10005000770200087702000877020008770200089C
:10006000770200087702000877020008770200088C
:10007000770200087702000877020008770200087C
:1000800077020008770200084D0600087702000892
:10009000770200087702000877020008770200085C
:1000A000770200087702000877020008770200084C
:1000B00077020008BD2900087702000877020008CF
:1000C000770200087702000877020008770200082C
:1000D00077020008D92E000877020008770200088E
:1000E000770200087702000877020008770200080C
:1000F000D5290008C92900087702000877020008FE
:1001000077020008770200087702000877020008EB
:1001100077020008770200087702000877020008DB
:1001200077020008770200087702000877020008CB
:1001300077020008770200087702000877020008BB
:1001400077020008770200087702000877020008AB
:10015000770200087702000877020008E12E000805
:10016000770200087702000877020008770200088B
:1001700077020008770200087702000800000000FC
:10018000770200087702000800F002F800F057F844
:1001900014A696E8000CB244B344DA4501D100F04D
:1001A0004EF8BAE80F000FA696E83000A5EB04055C
:1001B00004EB0607AAEB0704A7F101074FEA1515A0
:1001C0004FEA3414A4F10104AC4201D300F037F833
:1001D00013F0010F18BFFB1A43F0010300F001F800
:1001E000DBE71847D02F0000F02F0000103A24BFA3
:1001F00078C878C1FAD8520724BF30C830C144BF8C
:1002000004680C6070470000704700000023002461
:1002100000250026103A28BF78C1FBD8520728BF16
:1002200030C148BF0B607047642900F0EF800020A8
:1002300070471FB502F098FF1FBD10B510BD00F04C
:10024000D3F91146FFF7F5FF02F034FF00F0F1F9A2
:1002500003B4FFF7F2FF03BC02F068FE09488047D1
:1002600009480047FEE7FEE7FEE7FEE7FEE7FEE798
:10027000FEE7FEE7FEE7FEE704480549054A064BB0
:1002800070470000AD29000889010008D80200204D
:10029000D8080020D8040020D804002053EA020C1B
:1002A00000F069802DE9F04B4FF00006002B1FBFD6
:1002B000B3FA83F503FA05F424FA05F65E4012BF9B
:1002C0001643B2FA82F502FA05F4C5F120051EBF05
:1002D00022FA05FC44EA0C04203556EA044C4FEAA5
:1002E000144418BF641C4FF000084FF000099042FE
:1002F00071EB030C39D3002919BFB1FA81F701FA68
:1003000007F6B0FA80F700FA07F6C7F120071EBF1C
:1003100020FA07FC46EA0C062037B6FBF4FCA7EBF4
:100320000507103F07F01F0BCBF120062CFA06F64D
:100330000CFA0BFB44BFB3460026202FA4BF5E4639
:100340004FF0000B5BEA060C08BF4FF0010B19EBF6
:100350000B0948EB0608ABFB027C06FB02CC0BFB4F
:1003600003CCC01B71EB0C01C1E70B4602464146B2
:100370004846BDE8F08B13B5084318BF4FF0FF3077
:100380000146AFF30080BDE81C4070470FB404493C
:1003900010B503AA029800F0F9F810BC5DF814FB40
:1003A000880000202DE9F0410E460446002020621E
:1003B0002046E168884730B3252805D0D4E90121DB
:1003C0009047206A401CF2E7E168204600278847F2
:1003D000050018D0A5F14100192802D820354FF4A6
:1003E00000673246294620462760FFF71DFF40B1CF
:1003F000012804D0F61D26F007060836D8E7361D7A
:10040000D6E72846DAE7206ABDE8F0812DE9F04119
:100410000646002410687529314616A510D0AFF3A2
:100420000080002802DA404213A507E031688A07FD
:1004300001D512A502E0490704D511A5012401E068
:10044000AFF3008000210A2206F1240709E0B0FB87
:10045000F2FCB0FBF2F302FB1C003030785418467B
:10046000491C0028F3D123462A463046BDE8F04116
:1004700000F032B8000000002D0000002B0000004A
:10048000200000004FF0000200B513469446964647
:10049000203922BFA0E80C50A0E80C50B1F1200197
:1004A000BFF4F7AF090728BFA0E80C5048BF0CC045
:1004B0005DF804EB890028BF40F8042B08BF7047A3
:1004C00048BF20F8022B11F0804F18BF00F8012B15
:1004D00070477047704770472DE9F0470D469946C1
:1004E0009246044600F124080168880604D5E069B4
:1004F00021F01001216000E00120A84201DD471B2E
:1005000000E00027A1697A1902EB0900081AA0612E
:100510002078C00602D42046AFF30080002608E011
:10052000D4E901211AF806009047206A401C761C85
:1005300020624E45F4DB2078C0060AD52046AFF392
:10054000008006E0D4E9012130209047206A401C59
:100550002062381EA7F10107F4DC07E0D4E901218D
:1005600018F805009047206A401C2062281EA5F15B
:100570000105F3DC2046AFF300802078000602D5A9
:100580000220BDE8F0870120FBE70000074B70B5B3
:100590000D467B4400F011F80446284600F020F890
:1005A00010B14FF0FF3070BD204670BD6B2A0000C7
:1005B00001694A1C02610878704700B58FB0CDE927
:1005C00001310021059105497944CDE90310114617
:1005D0006846FFF7E7FE0FB000BD0000E5FFFFFF34
:1005E000007B00F080007047754600F02BF8AE46A7
:1005F00005006946534620F00700854618B020B52F
:10060000FFF73AFEBDE820404FF000064FF000072C
:100610004FF000084FF0000BAC46ACE8C009ACE866
:10062000C009ACE8C009ACE8C00921F007018D465B
:10063000704710B50446AFF300802046BDE8104077
:10064000FFF706BE0048704710000020134800F076
:10065000B2B800BFFEE77047EFF3108072B6FEE756
:10066000F8B50E4D044600260027F8B2A04211D27C
:10067000284600F04BFA2846052100F001FA2846EA
:1006800000F094F8800503D5284600F091F8064460
:100690000137EAE7B6FBF4F080B2F8BDE4000020D1
:1006A00070470000F8B50022009290F83C20012A23
:1006B00001D1022171E0012280F83C200A680A2A57
:1006C0001FFA82FC09D34FEA4C0313FA82F3A3F119
:1006D0001E05036803F10C0604E0036802EB420503
:1006E00003F1100607273468AF40BC4334608C68C0
:1006F000AC4035682C4334604968062909D801EBC1
:1007000081014C1F1F2101FA04F5194651F8346F7D
:1007100014E001EB81050C2908D8A5F123041F2161
:1007200001FA04F5194651F8306F07E0A5F14104CC
:100730001F2101FA04F5194651F82C6F26EA050528
:100740000CFA04F40D600D682C430C60AD49A1F562
:100750004174A3421ED1122A04D10A6842F48002D5
:100760000A6017E022F00103102B13D10B68102A46
:1007700043F400030B600DD109490A4A0968B1FB33
:10078000F2F101EB810149000091009911B100994A
:100790000139F9E7002180F83C100846F8BD00BF98
:1007A0000800002040420F0070477047006C7047FF
:1007B0000068C06C704770B50446006806684568FC
:1007C000B10717D515F0200114D0216CC90603D448
:1007D000216C41F400712164816811F0405F02D105
:1007E000217E002962D02046FFF7DEFF20686FF0EF
:1007F00012010160710714D515F0800111D0216C30
:10080000C90603D4216C41F400512164816811F4BC
:10081000401F2CD02046FFF743FF20686FF00C01EB
:100820000160F10718BF15F0400111D1B1060ED5D6
:1008300015F080610BD0616C6FF0200541F0020172
:10084000616405602046FFF7B0FF2068056070BD59
:100850000168C907EAD0206C40F48030206420464B
:1008600000F0D8F820686FF001010160DEE7816BCD
:1008700011F4401F02D081684905CBD44168490575
:10088000C8D4816811F0405FC4D1217E0029C1D154
:10089000416821F080014160206C20F48050206488
:1008A000206CC005B6D401F085FFB3E7C16A11F42E
:1008B000700F02D08168490595D4416821F020016C
:1008C000416001F0A2FF3FF58EAF01F073FF8AE7B0
:1008D000002841D070B50446006C30B9204600F0C5
:1008E0009BF8002084F83C006064206CC00635D47E
:1008F000206C41F2021188434249023020640868AA
:1009000020F44030086094E80D0025690E683243F9
:100910000A60416821F480714160416841EA052123
:100920004160416821F04071416041681943364B94
:100930004160816821F400618160E168826811434F
:100940008160816821F070618160A26A81689A4249
:1009500006D121F040510CE00120704701204CE00D
:1009600011438160816821F040518160E16A8268B1
:1009700011438160816821F00201816094F8202098
:10098000217E836843EA4101816041686AB141F494
:1009900000611E4A4160416821F460414160616A22
:1009A00002EB41314268114301E021F400614160F2
:1009B000174BC16A21F47001C162E269616903EBFE
:1009C0000252C36A1A43C262826822F400728260D1
:1009D00094F83020836843EA42228260826822F4DD
:1009E00080628260826842EA812101228160002067
:1009F0006064216C62F301012164002184F83C10E1
:100A000070BD00BF042301400100000F00E0FFFFA4
:100A10000000F0FF70470000FEB50268A448002106
:100A2000CDE90411824226D1144A009100F56040BC
:100A3000536943F480735361536903F480730093E3
:100A4000009B0091136843F001031360126802F0E9
:100A50000102009203910321029101210191009969
:100A600001A900F0AFF912200021002200F0F8FAED
:100A7000122000F0E9FA06B080BD00BF3038024015
:100A8000F8B5044600680D468168490502D58068BE
:100A9000C00525D400F076FA06466F1C2068016870
:100AA00089070ED4002FF9D02DB100F06BFA801B0E
:100AB000A842F3D9206800688007EFD401F0D4FD84
:100AC000F8BD6FF012010160216C41F400712164E6
:100AD000816811F0405F01D1217E51B10020F8BD45
:100AE000002084F83C00206C40F0200020640120AD
:100AF000F8BDC16A11F4700F02D080684005EDD4D2
:100B000001F083FEEAD401F055FEE7E718B50021B5
:100B1000009190F83C10012904BF022018BD01F09B
:100B200000FE10D10B68604C43F001030B605D4B7D
:100B30001B68B3FBF4F303EB43030093009B13B177
:100B4000009B013BF9E70C68036CE40705D101F059
:100B500016FE0A681043086036E001F054FD04D523
:100B6000036C012464F30D330364036C0024DB0481
:100B700044BF446C24F0060444646FF02204002354
:100B8000146080F83C304A48D0F80433DB0603D0C8
:100B9000824219D1806814E0824211D0454B9A42BA
:100BA0000AD0454B9A420FD1D0F80433DB0607D068
:100BB00000F500739A4207D1D0F80403C00603D4AD
:100BC000086810F0405F01D0002018BD4FF0804051
:100BD000BFE700BFB8B50021009190F83C10012993
:100BE00004BF0220B8BD01F09CFD10D10B682E4C53
:100BF00043F001030B602B4B1B68B3FBF4F303EBD7
:100C000043030093009B13B1009B013BF9E70C6881
:100C1000036CE40705D101F0B2FD0A6810430860D7
:100C20003AE001F0F0FC04D5036C012464F30D33C9
:100C30000364036C00241D4DDB0444BF446C24F0AA
:100C4000060444646FF022040023146054682C43AB
:100C5000546080F83C301648D0F80433DB0603D0EB
:100C6000824219D1806814E0824211D0114B9A421D
:100C70000AD0114B9A420FD1D0F80433DB0607D0CB
:100C800000F500739A4207D1D0F80403C00603D4DC
:100C9000086810F0405F01D00020B8BD4FF08040E0
:100CA000BBE700BF0800002040420F002000000406
:100CB00000200140002201400021014070B5866DF6
:100CC000044600F05FF9054694F83500022821D16A
:100CD0002068216C026822F016020260426922F04C
:100CE0008002426109B9A16C19B1016821F00801C3
:100CF000016001F0C2FC20680068C0070ED000F05F
:100D000041F9401B0628F6D320206065032084F8B3
:100D100035000CE080206065012008E0E06D3F2197
:100D200001FA00F0B060012084F8350000200021B5
:100D300084F8341070BD90F83510022909D10521CE
:100D400080F835100068724601F097FC9646002046
:100D5000704780214165012070470000B0B504460E
:100D600000F010F90546A948611C007818BF04443A
:100D700000F008F9401BA042FAD3B0BD4FF47A71DD
:100D8000484300F001B80000B0B50A490C4B0A68AE
:100D90001B684C68584300234D68A542FCD023448F
:100DA0005B1BA54228BF13442C46834228BFB0BD1D
:100DB000F2E700BF14E000E001490860704700BF9F
:100DC000E00000202DE9FC4F614A08244FF0010AA1
:100DD0004FF0000B90425F4A08BF0724830502448E
:100DE00043EA9222072A38BF1446009400250022C5
:100DF000102A08BFBDE8FC8F0F680AFA02F917EA4B
:100E0000090700F09F80D1F804C0032303FA0BF612
:100E10000CF0030E6FEA0608AEF10106012E13D89E
:100E20008668D1F80CA00AFA0BF406EA08064FF01F
:100E3000010A34438460CCF300144668944026EAE7
:100E400009063443446005E0BEF1030F02D14FF0C0
:100E5000030E21E0C4688E6804EA080406FA0BF663
:100E60003443BEF1020FC46016D105F01C040F23F9
:100E700003FA04FC6FF0030303EA520303441E6AFF
:100E800026EA0C0C0E6906FA04F444EA0C041C620F
:100E9000D1F804C00CF0030E04680EFA0BF304EA58
:100EA000080423431CF4403F03604BD000232C4C28
:100EB000A84622F003060193236843F4804323608D
:100EC00023680F2403F48043019305F00C03224DA3
:100ED0009C40AC462E44019D224DAE46755925EAF4
:100EE0000404009D05FA03F3234346F80E30DCF8B2
:100EF00008304D6843EA0704EE0258BF23EA0704AE
:100F0000164BCCF80840AE029E461B6843EA070425
:100F100058BF23EA0704CEF80040AE03DCF80430E3
:100F200043EA070458BF23EA0704CCF80440ED0362
:100F3000DCF80030454643EA070458BF23EA0704BB
:100F4000CCF800400BF1020B0435013250E700BF32
:100F5000001C02400000FEBF003C01400C3C014070
:100F60004438024008FCFFFF426902EA0103914352
:100F700041EA034181617047002A08BF0904816189
:100F80007047000005480068704700BF1F480349CC
:100F900000780A6810440860704700BFD002002043
:100FA00080B50B48016841F400710160016841F4AB
:100FB00080610160016841F480710160032000F0EC
:100FC00075F80F2000F006F800F022F8002080BD30
:100FD000003C024070B50D4E04464FF47A713078F3
:100FE000B1FBF0F0CC490968B1FBF0F000F0BAFCBD
:100FF00001250F2C08D838B94FF0FF3021460022C8
:10100000002500F02DF87460284670BD0000002017
:1010100082B000200B4901904A6842F480424A6045
:101020004A6802F480420192019A0090086840F0F8
:1010300080500860086800F080500090009802B06E
:10104000704700BF40380240002805D4734601F0C5
:10105000F2FA9E46014A8850704700BF00E100E066
:10106000F0B5184B4FF0FF361C68C4F30224E51EA0
:1010700084F0070438BF002506FA05F7BA43042CAC
:1010800028BF042406FA04F4A14300F00F04A94089
:10109000043C1143044A234409010244002848BF88
:1010A00003F10C021170F0BD00E400E005494FF6B9
:1010B000FF030A681A4060F30A22034810430860DD
:1010C000704700BF0CED00E00000FA05F8B50446DB
:1010D000006810F0050F1ED03B4F0020814E386095
:1010E000FFF750FF05463068000105D5FFF74AFFBE
:1010F000401B0228F7D92DE0D4E9010101F092FA52
:1011000005463068000105D4FFF73CFF401B02286C
:10111000F7D91FE0206880074FF0000044D5714EDA
:1011200000902A4F306C40F080503064306C00F0FA
:10113000805000900098386840F480703860FFF765
:1011400021FF05463868C00506D4FFF71BFF401B8A
:101150000228F7D90320F8BD306F10F4407010D08A
:10116000E16801F4407188420BD0306F18490122C8
:101170000A60002220F440700A603067306FC007B8
:1011800013D1E0681349B268014000F4407322F4BF
:10119000F8126FF31F30B3F5407F08BF0A43B26007
:1011A000316F084330670020F8BDFFF7EBFE0546BE
:1011B00041F28837306F8007E3D4FFF7E3FE411B2D
:1011C0000320B942F6D9EFE76800474200700040BB
:1011D000400E4742FFFCFF0F002852D02DE9F0419E
:1011E000404B04468846D3F8000400F007008842CC
:1011F00004D283F8008401F00FFA4BD120688107F4
:1012000011D5410703D5996841F4E0519960010770
:1012100003D5996841F460419960A1689A6822F009
:10122000F00211439960C0072DD101F0F5F904D9FE
:1012300083F8008401F0F0F92CD12068410705D52E
:10124000E1689A6822F4E05211439960000706D5DC
:101250002069996821F4604141EAC00098601C4609
:1012600000F060F8A168204AC1F30311515CC84046
:10127000294908601D480068FFF7ACFE0020BDE862
:10128000F081012070476068811E022905D219682B
:10129000890107D40120BDE8F08101281DD119681A
:1012A0008903F7D599681D4621F00301084398602A
:1012B000FFF768FE064641F288376068A9682B464A
:1012C00001F00C01B1EB800FAFD0FFF75BFE801B8C
:1012D000B842F2D90320BDE8F08119688907D9D551
:1012E000E0E700BF0038024082310008040000201F
:1012F00009480A490A4A00680968C1F38221515C19
:10130000C840704704480549054A00680968C1F3A8
:101310004231515CC8407047080000200838024044
:101320009231000810B5134C606800F00C011248AF
:10133000082903D004291CD1104810BD2168236856
:1013400001F03F0221685B02C1F3881105D4A1FBC3
:1013500000010023FEF7A2FF03E008484843B0FB6A
:10136000F2F021680222C1F3014102EB4101B0FB1E
:10137000F1F010BD043802400024F40000127A009D
:10138000002864D02DE9FC4104460078C54EC00712
:101390000CD0B06800F00C00042840F09080306859
:1013A000800303D56068002800F0A18020788007C2
:1013B00019D5B06810F00C0F07D001F0BBF940F060
:1013C00099807068400200F195803068800703D5ED
:1013D000E068012840F08B802069316821F0F80135
:1013E00041EAC00030602078000732D420784007FE
:1013F00042D4A76947B301F09DF940F0AC80012FBA
:1014000075D0E169706800F480028A426FD1216A68
:1014100000F03F028A426AD147F6C071626A014019
:10142000B1EB821F63D1A16A4FF6FF72C9039143EA
:1014300000F44032A1F580318A4258D1E16A00F0CF
:101440007060B0EB016F52D10020BDE8FC8101203B
:1014500070476169944800296DD00121C0F8801E51
:10146000FFF790FD0546706F8007BFD4FFF78AFD38
:10147000401B0228F7D9CCE0306C5FEAC0080AD4E0
:1014800000200190306C40F080503064306C00F0EF
:10149000805001900198854F3868C0053DD4386868
:1014A00040F480703860FFF76DFD05463868C00570
:1014B00033D4FFF767FD401B0228F7D9A9E001F0FC
:1014C00039F903D1706840023FF569AF6068B0F543
:1014D000803F07D0B0F5A02F40F08580306840F401
:1014E00080203060306840F48030306085E001203A
:1014F000BDE8FC81E06800284CD06B480121016008
:10150000FFF740FD0546306880073FF565AFFFF700
:1015100039FD401B0228F6D97BE0A068012805D0E0
:10152000052848D1306F40F004003067306F40F03C
:101530000100306749E00021C0F8801EFFF722FD5E
:101540000546706F80077FF551AFFFF71BFD401B0D
:101550000228F6D95DE05449002088460866FFF766
:1015600011FD0546022F0AD147463068800153D548
:10157000FFF708FD411B03200229F6D965E7306813
:1015800080017FF561AFFFF7FDFC411B03200229BD
:10159000F5D95AE7444800210160FFF7F3FC0546FE
:1015A000306880077FF51FAFFFF7ECFC411B03207D
:1015B0000229F5D949E7316F002821F0010131678F
:1015C000316F21F00401316745D0FFF7DBFC0546A0
:1015D00041F28837306F80074CD4FFF7D3FC401BB3
:1015E000B842F7D915E03168002821F48031316024
:1015F000316821F48021316045D0FFF7C3FC0546F6
:10160000306880033FF5D2AEFFF7BCFC401B642876
:10161000F6D90320BDE8FC811C341FCC0843D90354
:1016200040EA82104FF6FF72914340EA0460A1F550
:1016300080310843706001203866FFF7A3FC044640
:10164000306880013FF500AFFFF79CFC011B0320D1
:101650000229F5D9F9E6FFF795FC054641F28837EE
:10166000306F800706D5FFF78DFC411B0320B94280
:10167000F6D9EAE6B8F1000F3FF5BBAE306C20F0CA
:1016800080503064B5E6FFF77DFC05463068800386
:101690007FF58CAEFFF776FC411B03206429F5D95A
:1016A000D3E600BF0038024000004742007000400F
:1016B00090B170B50446407F20B9002020772046C5
:1016C00000F032F80220CA216077206800F0BCFFE9
:1016D000226818B1012022E001207047906811496A
:1016E000261D084090606BCE284395683043284300
:1016F00090601361106940EA01401061204601F0DA
:10170000ECF801460120226849B9116C21F48021CE
:101710001164A169136C1943116460770020FF21E3
:10172000516270BDBFFF8FFFF8B500210068CDE9A1
:1017300001110949884200D08FBD4FF40070039019
:10174000022000906846FFF7C1FC08B1FEF784FF55
:101750000248012101608FBD002800403C0E474235
:10176000F8B5037F04460220012B60D0607701208A
:10177000207732B14878CA788E78000240EA024574
:1017800034E0487809254FF00A0CC20642BF00F049
:10179000EF000A304870CB7809268A78092B88BF79
:1017A0001D46B5FBFCF5092805EB8507A3EB4703B0
:1017B00043EA05134FF0090588BF0546DBB2B5FBC8
:1017C000FCF505EB8507A0EB470040EA0510C0B229
:1017D0000002092A40EA034588BF1646B6FBFCF022
:1017E00000EB8003A2EB430242EA00162068CA2203
:1017F00042625322426220460F7801F047F808B156
:1018000001200FE0F0B22168284320F0C00040EA38
:1018100047304860204601F060F80146012009B9D0
:10182000607700200021FF22217721684A62F8BDFD
:101830002DE9F0410D46017F04460220012974D0B4
:10184000607701202077206881687AB1490659BF06
:101850004FF0000885F80380E9784FEA81586A78EC
:101860002978AE78120242EA014739E0490659BFA9
:101870004FF0000885F80380E9784FEA815809277E
:101880004FF00A0C297809266A7895F802E00929B0
:1018900088BF0F46B7FBFCF7092A07EB8703A1EBCC
:1018A00043014FF0090388BF134641EA0711B3FB18
:1018B000FCF3C9B203EB8307A2EB470242EA03122F
:1018C000D2B21202BEF1090F42EA014788BF764642
:1018D000B6FBFCF101EB8102AEEB420242EA0116DB
:1018E000CA2100F0B1FE08B1012019E0F0B21049A0
:1018F000384340EA0800084021680860886820F4FE
:1019000080208860D5E9030210438A68104388600C
:10191000204600F0E2FF0146012009B9607700206F
:101920000021FF22217721684A62BDE8F08100BFD3
:101930007F7F7F00B0B504460068C16821F0A00138
:10194000C160FFF71FFB05462068C068800644BFE2
:101950000020B0BDFFF716FB00F031FF84BF03206D
:10196000B0BDF1E7411E0020B0EB116F1CBF01209C
:101970007047044AF023516003490B7007219060BF
:101980001160704710E000E023ED00E07047704701
:1019900090F83C300222012B2FD010B580F83D206A
:1019A00002680B68546824F070041C439368B2F119
:1019B000804F546014D0E64CA24211D0564CA24243
:1019C0000ED0564CA2420BD0554CA24208D0554CDA
:1019D000A24205D0544CA24202D0544CA24204D19F
:1019E000496823F08003194391600022012180F8A7
:1019F0003C2080F83D10BDE810401046704700BF05
:101A000058B110B500F0F4FE03D100F0B3FE00F0C1
:101A100007F800F01FFF00F035BE012070470000FE
:101A20001FB500682049884215D02049884222D03D
:101A3000C749884218BF1FBD00201D2403901C48C1
:101A4000016841F002010160006800F002000390AB
:101A500003981D200DE000202D24019014480168FA
:101A600041F480710160006800F480700190019879
:101A70002D2000210EE000202C2402900C4801684B
:101A800041F0800101600121006800F080000290B7
:101A900002982C200022FFF7E3FA204604B0BDE8AC
:101AA0001040FFF7D1BA00BF00200040001C0040EA
:101AB0004038024090F83D1001291CBF01207047BA
:101AC000022180F83D100068C168B0F1804F41F0FC
:101AD0000101C16014D0F349884211D0F249884213
:101AE0000ED0F24988420BD0F149884208D0F14922
:101AF000884205D0F049884202D0F049884204D19A
:101B0000724600F0F9FD964603D0724600F0DBFD08
:101B100096460020704700BF00080040000C0040BF
:101B20000018004000000140004001400004014056
:101B300010B500F057FE52D084F83D0001204FF65A
:101B4000777384F83C00206882689A4382600A6850
:101B5000C2B1102A16D0202A14D0302A12D0402A1E
:101B600017D0502A1ED0602A25D0B2F5005F2ED0A3
:101B7000B2F5805F30D0702A32D100F0EEFD41F036
:101B8000770128E0816821F07001114341F00701DD
:101B900021E000F04FFE2068816841F0470121F00C
:101BA000300118E000F046FE2068816841F05701DE
:101BB00021F020010FE04B68CA68194601F04DF88A
:101BC0002068816841F0670121F0100103E000F016
:101BD000C4FD41F480418160002000F024FE10BD6E
:101BE0000120FAE7704710B50446006801698907CB
:101BF00012D5C16889070FD56FF00201016101217B
:101C000021778069800702D000F00AFE01E000F031
:101C1000BDFD0020207720680169490713D5C16800
:101C2000490710D56FF00401016102212177806915
:101C300010F4407F02D000F0F3FD01E000F0A6FDBB
:101C40000020207720680169090712D5C1680907BB
:101C50000FD56FF00801016104212177C069800769
:101C600002D000F0DDFD01E000F090FD00202077C3
:101C700020680169C90613D5C168C90610D56FF07F
:101C80001001016108212177C06910F4407F02D062
:101C900000F0C6FD01E000F079FD0020207720680B
:101CA0000169C90709D0C168C90706D06FF00101F1
:101CB0000161204600F004F920680169090609D590
:101CC000C168090606D56FF0800101612046FFF763
:101CD0005DFE20680169490609D5C168490606D537
:101CE0006FF040010161204600F0FCF820680169B6
:101CF000890602D5C168890600D410BD6FF02001A5
:101D000001612046BDE81040FFF741BE01687348FD
:101D1000814200D07047FEB500210E4A00F5FE302A
:101D20000091136843F001031360126802F001028E
:101D300000920222CDE90412CDE902214021019155
:101D4000009901A9FFF73EF806B0BDE88040704752
:101D5000000400403038024070470000B0B500F089
:101D600074FD04BF0220B0BD00F047FD37D8DFE8A6
:101D700001F0020A12222068294600F0ABFE20681A
:101D800050F8181F0EE02068294600F0D3FE2068A6
:101D900050F8181F16E02068294600F0F9FE206868
:101DA00050F81C1F41F008010160016821F0040196
:101DB000016029690FE02068294600F017FF2068BC
:101DC00050F81C1F41F400610160016821F480613A
:101DD00001602969090202681143016000200021A5
:101DE00084F83C10B0BD58B110B500F001FD03D12E
:101DF00000F0C0FC00F006F800F02CFD00F042BC42
:101E0000012070477047704710B5044641B108295A
:101E10000ED0042914BF04F1410004F13F0009E091
:101E200094F83E00012812D1022084F83E0012E00E
:101E300004F140000078012809D10220082908D0C7
:101E4000042914BF84F8410084F83F0003E0012016
:101E500010BD84F84000206800F05BFC00F0BEFC80
:101E600019D01E49884216D00F49884213D00F4915
:101E7000884210D00E4988420DD00E49884205D0C4
:101E80000D49884207D00D49884207D1416C0B4A61
:101E900000F0F4FC02D100F02FFC01D000F013FCA4
:101EA000002010BD0004004000080040000C00406D
:101EB00000180040000001400040014000040140C3
:101EC00000680649884205D00549884218BF704716
:101ED00001F0BAB8CC488021FFF746B800040040B2
:101EE000001C00407047704770470000F8B504467A
:101EF00000680268C168466915074FEA82633FD0EF
:101F000001F4907706F00106BF193DD0D70705D040
:101F1000CF0503D5276C47F001072764570704D581
:101F20001EB1276C47F002072764920704D51EB143
:101F3000226C42F004022264002D07D501F0200239
:101F4000921903D0226C42F008022264226C002A0B
:101F500000F0DD80002B05D5890603D5204600F072
:101F6000B4FE20684069216C00F0400001F00801D7
:101F7000401847D12046FFF7B7FF00202064C6E095
:101F8000002B01D58B0654D4236B012B03D1D30630
:101F900001D5CB0652D4130601D50B0611D4520637
:101FA00040F1B580490640F1B280C16821F040019E
:101FB000C160202084F83D002046BDE8F84000F0D4
:101FC000D3B994F83D10212940F0A180A168B1F562
:101FD000805F03D12169002900F09A80216A4A1CA0
:101FE000226209784160E18C0139E184090440F002
:101FF0008E80C16821F08001C160C16841F040015C
:10200000C160F8BD204600F03FFE00F0A2FB4BD5BA
:1020100000F04FFBFCD1A06B002845D04049016582
:10202000FEF789FE002872D0A06B016DBDE8F84074
:1020300008472046BDE8F84000F047BE0021009167
:10204000016800914168009100994069400630D4D0
:10205000E08DA18DE28D002A59D0814257D0081A17
:10206000216851E8031F226821F4907142E80313AC
:10207000002BF5D1216851E8051F226821F00101EC
:1020800042E80513002BF5D1202184F83E100021F1
:102090002163216851E8031F226821F0100142E802
:1020A0000313002BF5D12CE02046BDE8F840FFF7E4
:1020B0001BBFA16B0868426893B243B3A08D8342F3
:1020C00025D2E285C969B1F5807F18D000F024FBE4
:1020D00020F4807000F0A0FBF8D100F0BBFAFCD136
:1020E00000F0E7FAFCD1202084F83E0000202063B5
:1020F00000F025FBFCD1A06BFEF7E0FDA08DE18D8B
:10210000401A81B22046BDE8F840FFF7ECBEF8BDAA
:10211000216A31F8022B6FF35F222162426062E78D
:102120007D2C000890B110B5044690F83D0008B928
:1021300000F085FB00F047FB2068016921F4904125
:102140000161416921F02A0100F08BBB0120704739
:1021500010B586B0044601A81421FEF793F9206853
:10216000434988421ED0434988424AD10020B149A0
:10217000252400904A6942F010024A614A6902F03F
:1021800010020092009A00900868072240F00100B7
:10219000086008684FF4C06100F0010000900098EA
:1021A000A5481BE00020A349472400904A6942F05B
:1021B00020024A614A6902F020020092009A0090CF
:1021C0000868082240F0040008600868C02100F098
:1021D000040000900098984800F5006005920322E2
:1021E0000492002203920222CDE9011201A9FEF716
:1021F000E9FD204600210022FEF732FF2046FEF7CF
:1022000023FF06B010BD00BF0000024010B590F8DB
:102210003E30202B05D131B12AB190F83C30012B52
:1022200003D1022408E0012406E000240123046312
:1022300080F83C3000F008FE204610BD0068E449FC
:10224000884209D0DA49884218BF70470A480922F3
:10225000811DD648FFF7DABF80B50748092200F193
:102260000F01DA48FFF7D2FFBDE8804000F000BF61
:102270000014014000100140700000202DE9F843D7
:10228000044690F83D00202806D10D4639B1164687
:102290002AB100F03AFA05D10220BDE8F883012006
:1022A000BDE8F883002099462064012084F83C00B2
:1022B000212084F83D00FEF765FEE6848046A68472
:1022C000A068B0F5805F01D1206910B100262F46CB
:1022D00001E000272E46002084F83C00E08CA8B1E5
:1022E0002046802100F00DFAA8B927B117F8010B9C
:1022F0002168486006E036F8021B206800276FF36B
:102300005F214160E08C0138E084E7E7204640210E
:1023100000F0F7F910B10320BDE8F883202084F81D
:102320003D000020BDE8F883034690F83D002028DA
:1023300005D131B12AB193F83C00012803D1022024
:1023400070470120704710B500202124DA841864FA
:1023500083F83D4019629A8483F83C001968CA6882
:1023600042F08002CA6010BD7047FEE7BFB5134857
:10237000144B134A00244FF4803101250394C462A6
:1023800080F820400476836280F83040C561C0E95F
:102390000021C0E90244C0E90444FEF799FA08B1FB
:1023A000FEF75AF907206946CDE900450290034837
:1023B000FEF778F908B1FEF74FF9BFBDE400002041
:1023C000002001400100000FB0B586B0002119487F
:1023D000194C802505910091026842F0800202604C
:1023E000026802F080020092009A0091026842F0B6
:1023F00001020260026802F001020092009A00915C
:102400000168002241F0040101608021006800F0B1
:102410000400009000982046FEF7AEFD03200490D3
:1024200001200390CDE9015001A92046FEF7CAFC26
:1024300006B0B0BD303802400000024010B586B092
:102440001748184B0024FF217F22CDE90244CDE933
:102450000044C0E90034C0E90221C0E904448461B9
:10246000FFF726F908B1FEF7F7F80D48CDE9044467
:102470008DF80640ADF8044001A90122FFF7D8F914
:1024800008B1FEF7E9F808486946012200900448BF
:10249000FFF766F908B1FEF7DFF806B010BD00BF20
:1024A0002C010020002800400105050510B5074853
:1024B0008021074C532342F20F7200F08DF818B1BF
:1024C000BDE81040FEF7C8B810BD00BF4C010020A9
:1024D000001C004010B506488021064C532363229F
:1024E00000F07AF818B1BDE81040FEF7B5B810BD9D
:1024F000940100200020004010B58EB000241C2163
:102500000D94CDE90B44CDE9084401A8FDF7BAFFCD
:102510001E4880211E4B5322816142F20F71C0E997
:1025200000320461C0E90241FFF76AFA08B1FEF720
:1025300093F84FF480500A9014480AA9FFF7F8FA6C
:1025400008B1FEF789F81148FFF74DFC08B1FEF716
:1025500083F800240D48CDE9084408A9FFF718FACC
:1025600008B1FEF779F860200594CDE90244002215
:102570000190064801A9FFF7F1FB08B1FEF76CF8DE
:102580000248FFF7C3FB0EB010BD00BFDC01002006
:102590000004004010B50548054C00F026F818B1BD
:1025A000BDE81040FEF758B810BD00BF240200205F
:1025B0000010014010B50548054C00F016F818B1A0
:1025C000BDE81040FEF748B810BD00BF680200200B
:1025D00000140140FEE7FEE781610021C0E90043ED
:1025E000C0E902120161FFF70BBA00210C224FF47F
:1025F000E133C0E90043C0E90211C0E90412C0E9B7
:102600000611FFF78FBD40F20174A34303F58073F9
:10261000036453685B057047D3F8000400F00700BB
:1026200040457047090741EA8010C6F88400012040
:102630003860FEF7A7BC1C21012201EAD00100F09E
:102640001F0002FA00F070474162532141622046A8
:1026500000F01CB9206850E8050F216820F0010047
:1026600041E80502002A7047002084F83C00206CF5
:1026700040F00400206403207047016821F001014C
:1026800001607047012084F8460084F83E0084F819
:102690003F0084F8400084F8410084F8420084F848
:1026A000430084F8440084F8450084F83D0000208D
:1026B00010BD206850E8050F216820F0400041E877
:1026C0000502002A7047016841F00101016070476E
:1026D000016851E8051F026821F0010142E8051375
:1026E000002B7047016851E8031F026821F01001B8
:1026F00042E80313002B7047816801F007010629A7
:10270000704742464B4600F0BABB94F83C000128A3
:102710007047012200F0CEB9206850E8030F21680D
:1027200070470268012180F83C10114651F8083FBB
:10273000DB077047B06800F00C000828704720687D
:1027400050E8030F216820F0100041E80302002A3E
:1027500070472068406940067047D1E90123C96885
:102760001A4342EA0121826822F47F4211438160C8
:1027700081687047002084F83C002046704743F091
:102780001001016400F14401012070474DF808ED8B
:102790002046FFF7E1FA20465DF808EBFFF733BB70
:1027A000A6F580670262B842D1F800C08B68046A5F
:1027B00045687047206C40F0010020647047401B62
:1027C000B0F57A7F7047242084F83D002068C16806
:1027D00021F40051C160204600F0D2BA2068B0F167
:1027E000804F704790F83C2004460220012A704731
:1027F000044690F83D00002870470D4601204FEA3E
:10280000B201032984F83C007047206C20F48070EA
:102810002064206CC004704741E80302002A70471E
:102820002046FFF7DFB9002184F83C10012184F82D
:102830003D1070474B68CA68194600F0FDB900208A
:1028400084F83C002046FFF783BC044690F83C0027
:10285000012870470220211D84F83D00206800F007
:10286000BFB84161C16841F40051C160002020211E
:10287000206484F83D1084F83E1010BD41F40041FE
:10288000416440F480619142704770472DE9F04106
:1028900004460068C16849061BD4C16800260127A8
:1028A00041F08001C160FEF76DFB05464FF0040862
:1028B0002168F843C96840EA9110C0070AD1FEF7C1
:1028C00061FBFFF77CFFF3D984F81D800126002708
:1028D000EEE70026F0B2BDE8F08110B504460068CE
:1028E000C16821F08001C1608068800607D420465D
:1028F000FFF720F818B104206077012010BD0020F8
:1029000010BD7047FEF742BBB0B592B00024142151
:10291000CDE9074401A8FDF7B5FD22480094022542
:10292000016841F080510160006800F08050009023
:10293000009800941C48016841F480410160102116
:10294000006800F48040009004201095CDE90C54FC
:102950001190A8200F9008200E9001200B90CDE937
:1029600009010A200690009806A8FEF709FD18B193
:10297000EFF3108072B6FEE74FF48050CDE90254B9
:10298000052105904FF4A05004900F20019001A85C
:10299000FEF722FC18B1EFF3108072B6FEE712B01A
:1029A000B0BD00BF403802400070004002480168DE
:1029B00041F470010160704788ED00E00148FFF7C5
:1029C00012B900BFDC0100200148FFF70CB900BFBD
:1029D000940100200148FFF706B900BF4C01002018
:1029E00070B52A4A0368904234D0B0F1804F0BD0C2
:1029F000274CA04208D0274CA04205D08D4CA042C5
:102A000002D0254CA04203D14C6823F0700323432D
:102A1000B0F1804F22D01E4CA0421FD01D4CA042CE
:102A20001CD01D4CA04219D01C4CA04216D01C4CEE
:102A3000A04213D01B4CA04210D07E4CA0420DD01F
:102A4000194CA0420AD0194CA04207D0184CA04201
:102A500004D007E04C6823F070032343CC6823F4D0
:102A6000407323434E6923F080030C688D68334321
:102A700090420360C562846203D002F58062904296
:102A800001D1096901630121416170BD000001406C
:102A90000004004000080040000C00400018004006
:102AA000001C004000200040004001400048014060
:102AB0000044014010B501F01F010123046A8B405E
:102AC00002FA01F124EA03030362026A114301627C
:102AD00010BD0000F0B5026A564E22F00102A6F5C4
:102AE00080670262D1F800C08B68046A456824F0F0
:102AF000020423438469B84218BFB04210D1CA68A7
:102B000023F00C0322F004021343B84218BFB04272
:102B100006D125F44072D1E905562A4342EA06055A
:102B200024F07302456042EA0C0282614968416305
:102B30000362F0BDF0B5026A3E4E22F01002FFF7CC
:102B40002FFED0F818E018BFB04224F0200444EA69
:102B5000031312D1CA686FF0400423F0C00304EAE3
:102B600002121343B84218BFB04206D125F44062A6
:102B7000D1E905452C4342EA84052EF4E64245603E
:102B800042EA0C228261496881630362F0BD00BFA2
:102B9000F0B5026A274E22F48072FFF701FED0F8EA
:102BA0001CE018BFB04224F4007444EA032312D19D
:102BB000CA6840F2FF4423F440631202A243134365
:102BC000B84218BFB04206D125F44052D1E90545BC
:102BD0002C4342EA04152EF07302456042EA0C02CF
:102BE000C2614968C1630362F0BD00BFF0B5026A0B
:102BF00040F4806722F4805202620E4AD0F820C06E
:102C000045680C688B68C669974204D14A6925F407
:102C1000804545EA821526F4E642456042EA0422F0
:102C2000C261496801642CF4005141EA0331016238
:102C3000F0BD00BF0004014010B5036A046A24F02F
:102C400001040462846924F0F00444EA02128261FF
:102C500023F00A021143016210BD036A23F010033E
:102C60000362836923F4704343EA0232036A826198
:102C700023F0A00242EA011101627047806B00213B
:102C8000C185C184FFF730B9016851E8031F0268AC
:102C900021F4907142E80313002BF5D14DF808EDB3
:102CA000FFF716FD5DF808EBF8D1016B012906D19D
:102CB0004DF808EDFFF716FD5DF808EBF8D120217F
:102CC00080F83E1000210163704790F83E102229E1
:102CD00026D183680246B3F5805F0CD152F8281FD5
:102CE00052F8183C8BB9026852686FF35F2221F8E2
:102CF000022B81620FE052F8281F0BB9036923B140
:102D000003685B6803F07F0301E003685B680B7096
:102D1000116801311160C18D0139C185090400D0EC
:102D200070470168CA6822F02002CA60CA6822F4AB
:102D30008072CA604A6922F001024A61202180F84B
:102D40003E10016B012918BFFFF778BA81B000214E
:102D500001634DF808EDFFF7C5FC5DF808EBF8D10D
:102D600001680A68D20606D5002200920A6800921D
:102D7000496800910099818D01B0FFF7B4B8000057
:102D8000B0B50446006804F108030ECB056925F4CC
:102D9000405519432A4349F20C650261C2686369D0
:102DA0001943E369AA4319431143C1604169A26908
:102DB00021F4407111434161214940F4806088420F
:102DC00002D1FEF79FFA01E0FEF792FAE2691921BB
:102DD0006368A0FB0101B2F5004F17D15A00DB0F69
:102DE000FDF75CFA174B6421B0FBF1F203F180535D
:102DF00002FB0300322303EBC000B0FBF1F04FF401
:102E0000F87101EA400100F0070012E09A009B0F00
:102E1000FDF744FA64210B4BB0FBF1F202FB030017
:102E2000322303EB0010B0FBF1F000F0F00100F0F2
:102E30000F0001EB0211084421688860B0BD00BF9B
:102E4000001401409CFFFF0F0023C28503648162D0
:102E50002221828580F83C3080F83E1001680069AC
:102E600018B1C86840F48070C860486940F001003B
:102E70004861C86840F02000C860002070472DE914
:102E8000F0411D4690460F4604465E1C20680068CF
:102E90003840B8421DD0002EF8D02DB1FEF772F8A0
:102EA000A0EB0800A842F1D9FFF736FC20F4D0705F
:102EB000FFF7B2FCF8D1FFF7CDFBFCD120200021B9
:102EC00084F83D0084F83C1084F83E000320BDE8FF
:102ED000F0810020BDE8F0817448FFF707B800BF1B
:102EE0007348FFF703B800BFFEE7000010B50E4BB4
:102EF00082245971090ADC7045F6A5241971C11C98
:102F00001C809970991D03462BB112F8014B013BAF
:102F100001F8014BF8E7821D654803494FF6FF733E
:102F2000BDE81040FFF7AAB9AD02002070470000CD
:102F300080B50548FEF7BEFD0448FEF7BBFDBDE8C1
:102F4000804000F047B800BF4C01002094010020F1
:102F500080B5A820FDF730FFC820FDF70FFFBDE8C2
:102F6000804000F091B80000B0B5514C084D0622E9
:102F700020462946FFF7D8F94FF42060FDF7EEFE12
:102F8000204629460622BDE8B040FFF7CDB900BF74
:102F90009A3100080248018802A0FDF7F7B900BF86
:102FA000DC000020B5B1C7B0414443B2C9BCAFD6C4
:102FB000B5CEAA3A25640D0A0000000080B540F2A3
:102FC0000A3000F09FF840F20B30BDE8804000F07E
:102FD000A9B8000010B50848FDF7FCFD074C00211A
:102FE0002046FEF711FF206841F2883141632046F8
:102FF000BDE81040FEF75EBDE4000020DC010020CB
:1030000003490A685206FCD5C2B24A60704700BF45
:10301000001001403A48074A018800200A2805D0DC
:1030200032F81030994202D20130F7E70A20C0B2DC
:10303000704700BFA03100081B4900200A78052A0C
:1030400004BF08708888704780B5FFF7F5FF022835
:1030500007D001280BD142480078092807D8013051
:1030600003E03F48007810B101383D49087080BD49
:103070000D4805210170017D09024180C18A09BA0C
:10308000090C8180704700BF10B5074C0748092222
:10309000A11DFFF7BBF8064804F10F010922BDE8A6
:1030A0001040FFF7B3B800BF7000002024020020DA
:1030B00068020020FDF774FFFFF726FCFFF784F994
:1030C000FFF768FAFFF7F2F9FFF774FAFFF74EF926
:1030D000FFF7B4F9FFF710FAFFF7FCF9FFF738FF35
:1030E000FFF726FF064C6420FDF748FEC820FDF7D9
:1030F000B7FA2080FFF74EFFFFF760FFF3E700BF4E
:10310000DC000020E0B5014600200DF106028DF83C
:103110000600134800788DF807000220FFF7E6FE4E
:103120008CBD00BFBCB50446FFF774FF451C0DF114
:103130000602214668BAADF806000220FFF7D6FE67
:1031400007480078854201D2002006E00548007853
:1031500000B1BCBDFFF708FF012002490870BCBDEB
:103160000C000020AC020020F1EE100A4FF6FF71B7
:10317000C0F2C03120EA010040F04070E1EE100AD8
:103180007047000000000000000001020304060771
:1031900008090000000001020304A55A038002FF91
:1031A000AF067F048603F8029C025C022C02080230
:1031B000ED010000D83100080000002010000000E0
:1031C000EC010008E831000810000020C8080000E9
:1031D0000C020008000000000100000010000000C8
:0831E0000024F40004000000CB
:040000050800018965
:00000001FF
