:020000040800F2
:10000000680500209D010008C7200008131F000894
:10001000C5200008FD030008DD26000800000000E0
:10002000000000000000000000000000CB200008DD
:10003000A105000800000000C9200008E92100080F
:10004000B7010008B7010008B7010008B7010008B0
:10005000B7010008B7010008B7010008B7010008A0
:10006000B7010008B7010008B7010008B701000890
:10007000B7010008B7010008B7010008B701000880
:10008000B7010008B7010008A9020008B70100087D
:10009000B7010008B7010008B7010008B701000860
:1000A000B7010008B7010008B7010008B701000850
:1000B000B7010008B7010008B7010008B701000840
:1000C000B7010008B7010008B7010008B701000830
:1000D000B7010008B7010008B7010008B701000820
:1000E000B7010008B7010008B7010008B701000810
:1000F000B7010008B7010008B7010008B701000800
:10010000B7010008B7010008B7010008B7010008EF
:10011000B7010008B7010008B7010008B7010008DF
:10012000B7010008B7010008B7010008B7010008CF
:10013000B7010008B7010008B7010008B7010008BF
:10014000B7010008B7010008B7010008B7010008AF
:10015000B7010008B7010008B7010008D126000860
:10016000B7010008B7010008B7010008B70100088F
:10017000B7010008B7010008B7010008000000003F
:10018000B7010008B7010008DFF80CD000F07AF8DA
:1001900000480047DD270008680500200648804722
:1001A00006480047FEE7FEE7FEE7FEE7FEE7FEE75C
:1001B000FEE7FEE7FEE7FEE781220008890100086E
:1001C0002DE9F05F0546002092469B46884606468C
:1001D000814640241BE0284641464746224600F01F
:1001E00041F853465A46C01A914110D31146184659
:1001F000224600F028F82D1A67EB01084F462246E8
:100200000120002100F01FF817EB00094E41201ECD
:10021000A4F10104DFDC484631462A464346BDE8E6
:10022000F09FD2B201E000F8012B491EFBD27047CB
:100230000022F6E710B513460A4604461946FFF7B2
:10024000F0FF204610BD202A04DB203A00FA02F11C
:10025000002070479140C2F1200320FA03F31943B4
:1002600090407047202A04DB203A21FA02F0002156
:10027000704721FA02F3D040C2F1200291400843B6
:1002800019467047064C074D06E0E06840F0010350
:1002900094E8070098471034AC42F6D3FFF778FF94
:1002A0005029000870290008014800F0BBBA00007E
:1002B00078000020464910B54A6822F440324A606E
:1002C0004A6843681A434A6001684A6822F48072A7
:1002D0004A6001684A68036942EA03224A60016889
:1002E0004A6822F040724A6001684A6883681A438B
:1002F0004A6001688A6822F400628A6001688A683C
:10030000C3681A438A60816A6FF07062D1420168E3
:100310008A6822F070628A6001688A680CD0836AF9
:100320001A438A6001688A6822F040528A60016834
:100330008A68C36A1A4301E022F040528A60016869
:100340008A6822F002028A6001688A68037E42EAB3
:1003500043028A6090F82010002901684A680FD093
:1003600042F400624A6001684A6822F460424A60CE
:1003700001684A68174C436A04EB43331A4301E0AF
:1003800022F400624A600168CA6A22F47002CA62FA
:100390000168CA6A838B104C04EB03531A43CA6288
:1003A00001688A6822F400728A6001688A6890F89D
:1003B000303042EA43228A6001688A6822F480620F
:1003C0008A6001688A68406942EA8020886010BDBE
:1003D0000023014000E0FFFF0000F0FF10B50648D9
:1003E00000F070FB0A21044800F016FB024800F000
:1003F00016FA80B210BD000078000020FEE7000071
:1004000030B50022C1B2154CC0F1130305E000BFA6
:1004100034F81150491C2A44C9B28B42F8DA4042E0
:10042000142101EB4000B2FBF0F000EE100A0C4882
:10043000B8EE400AD0ED000A0D4820EE200ADFEDAC
:10044000090A20EE200ADFED080A20EE200ADFED7F
:10045000070A80EE201A80ED001A30BD50000020FF
:10046000200000200000803900007A44CDCCCC3D33
:100470002C0000204FF6FF73012806D0002808D179
:1004800004490822044801F0F3BC0249082208315B
:10049000F8E77047402900081C010020F2EE040A2A
:1004A0001CB520EE200A2549BCEEC00A097810EEE2
:1004B000100A80B239BB2249224A09688B184FF4CE
:1004C0000012934201D2FA3080B21F4B0B44934288
:1004D00002D200F5967080B21C4B994201DBE130EC
:1004E00080B2A1F18143934201D2BE3080B2184A5A
:1004F0000A44B2F5800F01D2643080B2154A9142AD
:1005000001DBFA3080B2010A8DF800108DF804008A
:100510004FF6FF74234606220F49104801F0A8FC4D
:100520002346012269460D4801F0A2FC2346012220
:1005300001A90A4801F09CFC1CBD00001400002029
:100540001C000020000060BF000040BF0000E04031
:100550000000C0BF000020403A2900081C01002014
:100560001CB5010A8DF800108DF804004FF6FF74D9
:10057000234606220849094801F07AFC2346012255
:100580006946064801F074FC2346012201A903488C
:1005900001F06EFC1CBD0000342900081C01002085
:1005A000704772B6FEE7000019481A4A90ED000A3B
:1005B000194810EE101AD0ED000A1848914201DCDB
:1005C000174900E0174991ED001A174931EE400A2A
:1005D00080EE201A80ED001AD1ED000AB0EE410A3B
:1005E000B4EEE00AF1EE10FA01DDB0EE600A80ED43
:1005F000000A80EE201A9FED0D0A0D4921EE000A37
:10060000BCEEC00A10EE100A80B2088070470000ED
:100610001C00002066668640380000202400002070
:100620003400002030000020200000200000804521
:100630002800002010B502F071F80A490988DFEDA2
:100640000A0A00EE101AB8EE400A60EE200A00EE28
:10065000100A0648B8EE400A80EE801A80ED001AB3
:1006600010BD00002A7AFF1F3333534020000020C2
:100670007047000078B50024009490F83C20012ACF
:1006800019D0012280F83C200A6807230568092A4E
:1006900013D9EE680A3A02EB420293409E43EE60A1
:1006A0000B788A680A3B03EB43039A400368DD68D2
:1006B0002A43DA6010E0022078BD2E6902EB420284
:1006C00093409E432E610B788A6803EB43039A4064
:1006D00003681D692A431A614A681F23072A13D237
:1006E00005686E6B521E02EB820293409E436E635E
:1006F0000B790A885B1E92B203EB83039A4003686E
:100700005D6B2A435A6327E005680D2A12D22E6BCF
:10071000D21F02EB820293409E432E630B790A881C
:10072000DB1F92B203EB83039A4003681D6B2A43DD
:100730001A6311E0EE6A0D3A02EB820293409E4387
:10074000EE620B790A880D3B92B203EB83039A4069
:100750000368DD6A2A43DA62164B0568144A9D4233
:1007600006D10D68122D03D1556845F480055560FA
:1007700005689D4218D10B68102B01D0112B13D1A5
:10078000536843F400035360096810290CD10A49E7
:100790000A4A0968B1FBF2F101EB8101490000E06E
:1007A000491E00910029FBD180F83C40002078BD13
:1007B00000230140002001400C00002040420F00B7
:1007C00010B500680F4988421BD10F4800780028F7
:1007D00017D10E4800F023F80E4A0D4B117813295B
:1007E00023F811000BD3002010700120FFF708FE42
:1007F000094890ED000ABDE81040FFF74FBE491CC4
:10080000117010BD0020014014000020780000206D
:1008100050000020100000202C00002070470068CD
:10082000C06C704770B5044600680668456816F0ED
:10083000020F05F020012AD049B3216CC90603D468
:10084000216C41F400712164816811F0405F17D17F
:10085000217EA9B9C16A11F4700F02D081684905DF
:100860000ED4416821F020014160206C20F480709A
:100870002064206CC00403D4206C40F0010020648C
:100880002046FFF79DFF21686FF01200086016F008
:10089000040F05F0800132D089B3206CC00603D468
:1008A000206C40F4005020642068816811F4401FDF
:1008B0001ED1816B11F4401F02D08168490517D405
:1008C0004168490514D4816811F0405F10D1217E40
:1008D00071B9416821F080014160206C20F48050A2
:1008E0002064206CC00503D4206C40F0010020641B
:1008F0002046FFF7BDFE21686FF00C00086016F07F
:10090000010F05F040010FD071B120680068C007E9
:100910000AD0206C40F480302064204600F043F878
:1009200021686FF00100086016F0200F05F080616B
:100930000ED000290CD0606C40F00200606420688A
:100940006FF0200505602046FFF768FF206805600E
:1009500070BD70B504004FF0000503D0206C002678
:1009600010B107E0012070BD204600F01DF866645C
:1009700084F83C60206CC00610D4206C20F48850B1
:1009800040F0020020642046FFF794FC6664206C6F
:1009900020F0020040F00100206400E0012584F80E
:1009A0003C60284670BD704710B586B004461421DF
:1009B0006846FFF73DFC15492068884224D1144859
:1009C0000021026842F480720260006800F48070C6
:1009D00005900F481438026842F001020260006876
:1009E00000F001000590402000900320CDE90101B6
:1009F0006946084800F0A8FA00220221122000F0FF
:100A000011FC122000F000FC06B010BD00200140D7
:100A100044380240000002402DE9F04104460068DD
:100A20000D4681684FF0000749050BD58068C00569
:100A300008D5206C40F02000206484F83C70012030
:100A4000BDE8F08100F07EFB064613E0681C11D083
:100A500025B100F077FB801BA8420BD92068006805
:100A6000800707D4206C40F00400206484F83C70B8
:100A70000320E5E7206800688007E7D521686FF06C
:100A800012000860206C40F40070206420688168C7
:100A900011F0405F13D1217E89B9C16A11F4700F42
:100AA00002D0806840050AD4206C20F48070206455
:100AB000206CC00403D4206C40F0010020640020AE
:100AC000BEE7000018B50021009190F83C20012AF3
:100AD00007D0012280F83C2002689368DB0702D02F
:100AE00011E0022018BD936843F0010393602E4A81
:100AF0002E4B1268B2FBF3F202EB420200E0521EF0
:100B00000092002AFBD102689368DB0742D0036C95
:100B100040F20164A34343F48073036453685B05AC
:100B200005D5036C23F4005343F480530364036C32
:100B3000DB0404D5436C23F00603436400E0416406
:100B400080F83C101A496FF022031360496800686E
:100B5000CA06184906D0884224D1816811F0405F46
:100B600013D01FE08842F8D0134A904203D1D1F845
:100B70000423D206F1D0114A904213D1D1F80413C4
:100B800001F01F011029E8D30CE0816841F0804199
:100B9000816007E0016C41F010010164416C41F09B
:100BA00001014164002018BD0C00002040420F00EC
:100BB00000230140002001400021014000220140AB
:100BC00018B50021009190F83C20012A07D001229D
:100BD00080F83C2002689368DB0702D011E0022015
:100BE00018BD936843F001039360314A314B12689A
:100BF000B2FBF3F202EB420200E0521E0092002A26
:100C0000FBD102689368DB0747D0036C40F20164B4
:100C1000A34343F48073036453685B0505D5036CF9
:100C200023F4005343F480530364036CDB0404D5C2
:100C3000436C23F00603436400E0416480F83C10F9
:100C40001D4B6FF02201116001684A681B4C224362
:100C50004A6059680068CA06194906D0884224D1FA
:100C6000816811F0405F13D01FE08842F8D0154A28
:100C7000904203D1D1F80423D206F1D0124A904217
:100C800013D1D1F8041301F01F011029E8D30CE0AF
:100C9000816841F08041816007E0016C41F0100102
:100CA0000164416C41F001014164002018BD000065
:100CB0000C00002040420F000023014020000004EF
:100CC00000200140002101400022014090F83C102A
:100CD00001290CD0012180F83C1001688A6822F0BB
:100CE00001028A6001688A68D20702D00BE0022004
:100CF00070474A68064B1A404A60016C21F48851DB
:100D000041F001010164002180F83C100846704761
:100D1000DFFFFFFB70B500B3F9B14379012B1ED0A3
:100D2000012646710223037105682C6802F0100346
:100D300040F6FE729A409443D1E900210A439A405A
:100D400022432A6001680A68C0249C40A2430A60CA
:100D5000067100214171084670BD012070BD02205E
:100D600070BD70B5040003D02079002510B105E0F6
:100D7000012070BD6571204600F008F80220207146
:100D8000256101202071002070BD000010B586B0E3
:100D9000044614216846FFF74BFA1149206888423F
:100DA0001CD110480021026842F000520260006825
:100DB00000F0005005900B481038026842F0010224
:100DC0000260006800F001000590102000900320F0
:100DD000CDE901016946044800F0B6F806B010BD3F
:100DE00000740040403802400000024018B5002462
:100DF000009440B100680090104431B1143000906C
:100E00000360002018BD012018BD0830F7E770B559
:100E100008B34279012A20D00122427102230371D2
:100E20000468266801F0100302FA03F52E432660D9
:100E30000029016813D00C6804F470153C249C4010
:100E4000A54203D14B6843F002034B6002710021BD
:100E50004171084670BD012070BD022070BD0B6855
:100E6000C3F383030F2BF1D14B6843F00103ECE78D
:100E700010B558B10268136801F01004012101FA9D
:100E800004F4A34313600171002010BD012010BDC4
:100E90002DE9F0410446876D00F054F9064694F8B8
:100EA00035000025022806D08020606584F8345083
:100EB0000120BDE8F0812068016821F01601016081
:100EC0002068416921F080014161206C08B9A06C63
:100ED00020B12068016821F00801016020680168E4
:100EE00021F0010101600CE000F02CF9801B0528C5
:100EF00007D920206065032084F8350084F8345039
:100F0000D7E720680068C007EED194F85C103F2056
:100F10008840B860012084F8350084F834500020FF
:100F2000C7E790F83510022903D0802141650120E0
:100F30007047052180F835100068016821F0010133
:100F400001600020704700002DE9F84FDFF8BCA1D8
:100F50000022012503264FF00F090AF1040BAAF124
:100F6000040E00BF0B6805FA02F42340A34270D1BF
:100F70000F7907F00307012F01D0022F16D18768E0
:100F80004FEA420806FA08FC27EA0C07D1F80CC021
:100F90000CFA08FC4CEA070CC0F808C04768A743E5
:100FA0000C79C4F3001494403C4344600C79E4434E
:100FB000A4070AD0C4684FEA420C06FA0CF7BC43F7
:100FC0008F6807FA0CF72743C7600C7904F0030415
:100FD000022C12D1D40800EB840CDCF82040570717
:100FE000FF0E09FA07F824EA0804D1F8108008FA7D
:100FF00007F848EA0408CCF8208004684FEA420C5D
:1010000006FA0CF7BC430F7907F0030707FA0CF751
:10101000274307604C6814F4403F70D03C4C27686D
:1010200047F480472760246822F0030704F48044D3
:101030000094384C07EB040CDCF8084897074FEA9B
:10104000177809FA08F7BC43334FB84202D100279A
:1010500024E054E0314FB84201D101271EE0304F67
:10106000B84201D1022719E02E4FB84201D103271F
:1010700014E02D4FB84201D104270FE02B4FB842A6
:1010800001D105270AE02A4FB84201D1062705E021
:10109000284FB84201D1072700E0082707FA08F7D0
:1010A0002743CCF80878DAF800405746D1F804C056
:1010B0009C435FEACC2C00D51C433C60DBF800402D
:1010C0005F46D1F804C09C435FEA8C2C00D51C43DA
:1010D0003C60DEF800407746D1F804C09C435FEAEC
:1010E0008C3C00D51C433C60084F083F3C68D1F85D
:1010F00004C09C435FEACC3C00D51C433C60521CBE
:10110000102AFFF42FAFBDE8F88F0000083C014023
:101110004438024000300140000002400004024018
:1011200000080240000C024000100240001402407F
:1011300000180240001C02400AB181617047090496
:10114000FBE70000014880687047000000000020B5
:1011500002488168027811448160704700000020D5
:101160000B4810B5016841F400710160016841F459
:1011700080610160016841F480710160032000F02A
:1011800071F8032000F006F800F024F8002010BDEC
:10119000003C024070B50D4D04464FF47A7128783A
:1011A000B1FBF0F00A490968B1FBF0F000F00CFB6C
:1011B00048B9102C07D200222146501E00F032F808
:1011C00000206C6070BD012070BD00000000002098
:1011D0000C0000200B4882B0016841F4804101609E
:1011E000006800F4804000900648001F016841F04C
:1011F00080510160006800F080500090052002B02E
:1012000000F030B844380240002809DB00F01F022B
:10121000012191404009800000F1E020C0F8001158
:1012200070470000F0B40E4B1B680C46C3F302235A
:10123000C3F10705042D00D90425191D072901D282
:10124000002300E0DB1E012606FA05F1491E2140BD
:1012500099409E40761E16403143F0BC01F03FBAE3
:101260000CED00E0064900F0070208684FF6FF03A6
:10127000184040EA0220034A10430860704700000B
:101280000CED00E00000FA052DE9F0470E460500E0
:1012900065D0DFF81481D8F80000F7B200F007003D
:1012A000B04207D288F80070D8F8000000F00700BC
:1012B000B04254D128683D4C810712D5400703D570
:1012C000206840F4E05020602878000703D52068AB
:1012D00040F4604020602068A96820F0F0000843D6
:1012E00020602878C0072DD0304968680839012867
:1012F00012D0022813D0032811D0096889070029C9
:101300002DDA216821F0030101432160FFF71AFF64
:10131000814641F2883A0EE009688903EFE70968DF
:101320008901ECE7FFF70EFFA0EB0901514502D957
:101330000320BDE8F0872068696800F00C00B0EB7E
:10134000810FEFD1D8F80010404601F00701B142FB
:1013500007D90770006800F00700B04201D00120F3
:10136000E7E72878400705D52068E96820F4E050D1
:10137000084320602878000706D52068296920F4F2
:10138000604040EAC100206000F038F82168084A57
:10139000C1F30311515CC840064908600648006863
:1013A000FFF7F8FE0020C4E7003C02400838024086
:1013B0001C2900080C0000200400002004480549F6
:1013C00000680968044AC1F38221515CC840704733
:1013D0000C000020083802402C2900080448054968
:1013E00000680968044AC1F34231515CC840704743
:1013F0000C000020083802402C290008154810B5C0
:10140000006810F00C02144813D04110042A0FD0C9
:10141000082A0ED10F4C241F2268236802F03F02D5
:101420005B0207D52068C0F38810A0FB010106E02D
:10143000084610BD2168C1F38811A1FB00010023FB
:10144000FEF7BEFE2168C1F30141491C4900B0FB13
:10145000F1F010BD083802400024F4002DE9F84FE7
:1014600004006ED02078DFF84C93C007A9F1040582
:101470004AD009F104000168C1F38101012908D0B3
:101480000068C0F3810002280AD1D9F800004002A8
:1014900006D52868800337D560680028E1D033E09E
:1014A0006068B0F5803F10D0B0F5A02F286810D04C
:1014B00020F480302860286820F48020286060684C
:1014C000A8B1FFF73FFE06460DE0286840F48030E3
:1014D000F4E740F480202860F7E700BFFFF732FE12
:1014E000801B642873D828688003F7D50CE0FFF7C9
:1014F00029FE064605E000BFFFF724FE801B642896
:10150000F0D828688003F7D42078DFF8AC82800711
:101510004FF0000A3ED5A748001D016811F00C0FDE
:1015200008D00068C0F3810002280BD1D9F8000070
:10153000400207D42868800716D5E068012800D14A
:1015400012E033E1E068B8B10120C8F80000FFF70D
:10155000F9FD064605E000BFFFF7F4FD801B0228F9
:10156000C0D828688007F7D52868216920F0F800DE
:1015700040EAC10028600DE0C8F800A0FFF7E2FDD6
:10158000064604E0FFF7DEFD801B02281FD828680E
:101590008007F7D42078000722D5864F87486169F5
:1015A000703771B101210160FFF7CCFD064604E000
:1015B000FFF7C8FD801B022809D838688007F7D5D7
:1015C0000EE0C0F800A0FFF7BDFD064605E082E092
:1015D000FFF7B8FD801B02287DD838688007F7D454
:1015E0002078400768D5DFF8CCB100270BF13C0B21
:1015F000DBF80000C0000BD4DBF8001041F0805194
:10160000CBF80010DBF80000012700F080500090BC
:101610006B4E3068C00510D4306840F48070306084
:10162000FFF790FD009005E0FFF78CFD0099401A50
:10163000022850D83068C005F6D55E4EA0686C36DA
:1016400001280FD00528306810D020F0010030604C
:10165000306820F004003060A068B8B1FFF772FD78
:1016600000900FE0306840F00100F4E740F0040023
:101670003060F7E7FFF766FD0099411A41F28830C4
:10168000814266D830688007F4D50EE0FFF75AFD36
:10169000009007E0FFF756FD0099411A41F28830AB
:1016A000814256D830688007F4D42FB1DBF800109F
:1016B00021F08051CBF80010A069C8B33D49091D45
:1016C0000968C1F3810102294AD00228504607D097
:1016D000C8F8600000E03CE0FFF734FD04463BE062
:1016E0004746C8F86000FFF72DFD064605E000BF3D
:1016F000FFF728FD801B02282BD828688001F7D42B
:10170000D4E907010843A16A2E4A490802EB0141C6
:10171000626A41EA8211084394F82C1040EA0161A0
:10172000C9F8001001203866FFF70CFD044606E0FA
:101730003EE000BFFFF706FD001B022809D828681D
:101740008001F7D534E000BFFFF7FCFC001B022846
:1017500002D90320BDE8F88F28688001F4D427E07F
:101760000128F7D0D9F80000E26900F48001914225
:101770001CD1226A00F03F01914217D147F6C07197
:10178000626A0140B1EB821F10D1A26A4FF0FF33B1
:1017900000F4403103EB5202B1EB024F06D194F852
:1017A0002C1000F07060B0EB016F01D00120D1E788
:1017B0000020CFE70438024000004742800E474235
:1017C000007000400000FFFF10B5401EB0F1807FA8
:1017D00001D3012010BD4FF0E02460610F2160179C
:1017E00000F07DFF0020A06107202061002010BDD7
:1017F00070B590F83C20012A32D0012480F83C409A
:10180000022280F83D2003685A689D6822F0700625
:101810000A6832435A60134B02689A4214D0B2F1FC
:10182000804F11D0104B9A420ED0104B9A420BD0E1
:101830000F4B9A4208D00F4B9A4205D00E4B9A425A
:1018400002D00E4B9A4204D1496825F08003194317
:10185000916080F83D40002180F83C10084670BD42
:10186000022070BD0000014000040040000800405C
:10187000000C0040000401400040014000180040FE
:1018800010B5040003D094F83D0010B107E001202A
:1018900010BD002084F83C00204600F01FF8022014
:1018A00084F83D00211D206800F0F2FC012084F83E
:1018B000460084F83E0084F83F0084F8400084F835
:1018C000410084F8420084F8430084F8440084F81E
:1018D000450084F83D00002010BD000008B50068F8
:1018E000B0F1804F08D10548016841F00101016065
:1018F000006800F00100009008BD00004038024080
:1019000090F83D10012901D001207047022180F894
:101910003D1000681149884214D0B0F1804F11D0B9
:101920000F4988420ED00F4988420BD00E49884299
:1019300008D00E49884205D00D49884202D00D4991
:10194000884204D1816801F00701062903D00168AB
:1019500041F00101016000207047000000000140DB
:101960000004004000080040000C0040000401405A
:10197000004001400018004001680A6A41F211135A
:101980001A4207D10A6A9B101A4203D10A6822F050
:1019900001020A60012180F83D100020704770B5F7
:1019A000044690F83C000025012817D0012684F851
:1019B0003C60022084F83D002068826822F07702B3
:1019C00022F47F4282600868502838D00DDC20283D
:1019D0004FD005DC90B3102811D14AE0022070BD31
:1019E000302846D040280AD13BE060282FD070280C
:1019F0000DD0B0F5805F03D0B0F5005F12D00125A7
:101A000084F83D60002084F83C00284670BDCB6817
:101A1000D1E90121206800F0A3FC2068816841F031
:101A2000770109E0CB68D1E90121206800F098FC3A
:101A30002068816841F480418160E1E719E0CA686B
:101A40004968206800F09EFC5021206806E0CA68C2
:101A50004968206800F0A7FC6021206800F08AFC3B
:101A6000CEE7CA684968206800F08CFC40212068F5
:101A7000F4E7226801461046F0E77047704700001F
:101A8000F8B5016804460868CA684B6910F00F0F82
:101A90004FF000055AD003F0010602F49077374367
:101AA00065D0C10705D0D10503D5616C41F00101B6
:101AB0006164410705D5D90703D0616C41F002018B
:101AC0006164810705D5D90703D0616C41F0040139
:101AD0006164010707D502F02001314303D0616C36
:101AE00041F008016164616C00293BD0800604D597
:101AF000900602D5204600F096FC20684069616C93
:101B0000C0F3801001F00801014320462BD000F003
:101B100063FC20684069400621D52068143050E8F5
:101B2000001F21F0400140E80012002AF5D1E06BCF
:101B3000A8B172490165E06BFFF7F3F9002811D0F5
:101B4000E06B016D01B0BDE8F040084783060ED59B
:101B500093060CD52046BDE8F84000F064BC204652
:101B6000FFF78CFFF8BDFFF789FF6564F8BD266BB2
:101B70002023012E7ED1C6067CD5D6067AD50868EC
:101B80004868009048694FF0020640064DD5E26B68
:101B9000106840684FF480770004000C3AD0A18DA3
:101BA000814237D9E085D069B8422DD020680C3009
:101BB00050E8001F21F4807140E80012002AF5D19E
:101BC0002068143050E8001F21F0010140E80012A5
:101BD000002AF5D12068143050E8001F21F04001A0
:101BE00040E80012002AF5D184F8423025632068CD
:101BF0000C3050E8001F21F0100140E80012002ACC
:101C0000F5D1E06BFFF744F96663A08DE18D401AD2
:101C100081B206E0A18D8142A8D1D069B842A5D198
:101C200066632046FFF729FFF8BDA08DE18D401ABD
:101C300081B2E08D0028F7D00029F5D020680C3063
:101C400050E8002F22F4907240E80027002FF5D1D1
:101C50002068143050E8002F22F0010240E80027ED
:101C6000002FF5D184F84230256320680C3050E80D
:101C7000002F00E006E022F0100240E80023002BD5
:101C8000F3D1CDE705062BD5150629D594F84100EB
:101C90002128C9D1A068B0F5805F01D12069B0B119
:101CA000206A411C2162216800784860E08C401E57
:101CB0000004000CE084B7D12068C16821F08001E5
:101CC000C1602068C16841F04001C160F8BD206A70
:101CD0000088C0F308004860206A801C2062E5E7A5
:101CE0004006F3D55006F1D5CA68204622F04002DE
:101CF000CA6084F8413000F00BF9F8BDCB2300082E
:101D000070B5040004D094F84100002510B106E03D
:101D1000012070BD84F84050204600F023F82420B4
:101D200084F841002068C16821F40051C160204658
:101D300000F0DAFB2068016921F49041016120681C
:101D4000416921F02A0141612068C16841F40051D4
:101D5000C1606564202084F8410084F84200656316
:101D6000002070BD10B586B0044614216846FEF709
:101D70005FFA17492068884228D11648016841F067
:101D800020010160006800F020000590114814381F
:101D9000016841F0040101600068694600F0040038
:101DA0000590C020009002200190012002900320A5
:101DB0000390082004900848FFF7C6F80122114656
:101DC0004720FFF72FFA4720FFF71EFA06B010BD95
:101DD00000140140443802400008024090F84230AC
:101DE000202B01D00220704721B11AB100230363D8
:101DF00000F000BC012070470068184988422CD1CF
:101E000017480178A52905D141785A2902D1C1780E
:101E100083290BD000210A464254491CC9B2082923
:101E2000FAD909220E490F48FFF7D8BF42790C486A
:101E300001210E2A007A08D00F2AF2D10A4A01287D
:101E400008D00028EDD11170EBE70128E9D107484F
:101E50000170E6E702201070E3E7704700140140CC
:101E60003C0000201C01002016000020150000206E
:101E70002DE9F843044690F84100984616460D4671
:101E8000202802D00220BDE8F88385B17EB1002071
:101E90006064212084F84100FFF754F9A68481464C
:101EA000E684A0682027B0F5805F02D003E001201F
:101EB000E9E7206910B12E4600250EE000260CE06F
:101EC0008021204600F0B1FBA8B9C6B116F8010B7D
:101ED00021684860E08C401EE084E08C4B464FF067
:101EE0000002CDF800800028EAD14FF040012046E2
:101EF00000F09BFB40B184F841700320C3E735F844
:101F0000020BC0F30800E3E784F841700020BAE751
:101F10007047FEE77FB500241548009401940294B1
:101F20001249039401604FF48031C0E90114046147
:101F3000047680F820400F49C0E90A140125C561E4
:101F4000C46080F830404561FEF703FD08B1FEF73C
:101F500028FB1120CDE90005694602940448FEF7EC
:101F600089FB002801D0FEF71CFB7FBD002001404B
:101F7000780000200100000F1CB500240C490094DB
:101F80000A48019408600846FEF7EBFE08B1FEF728
:101F900008FB3C20CDE90004002269460448FEF716
:101FA000B9FE002801D0FEF7FCFA1CBD0074004009
:101FB000C000002010B586B014216846FEF738F93D
:101FC0001548016841F004010160016801F0040155
:101FD0000591016841F080010160016801F0800114
:101FE0000591016841F00101016000680B4C00F0AF
:101FF00001000590012220212046FFF79DF80121D4
:102000002020CDE900010291039169462046FEF7A8
:102010009BFF06B010BD00003038024000000240B7
:1020200010B586B0002118480091019102910391EA
:1020300004914FF080420591026042F2CF02C0E964
:102040000121802440F2F3128461C0E90321FFF7EB
:1020500017FC08B1FEF7A5FA4FF4805000906946CE
:102060000948FFF79CFC08B1FEF79BFA2020CDE958
:10207000040404A90448FFF7BBFB002801D0FEF7C5
:1020800090FA06B010BD0000D40000200C4810B536
:102090000A4901604FF4E1314160002181600C2266
:1020A000C160C0E904128161C161FFF729FE002807
:1020B00003D0BDE81040FEF774BA10BD0014014013
:1020C0001C010020FEE7FEE77047704710B50021B5
:1020D0000848FEF7CDFEFEF767FA034600221146D8
:1020E0000448FEF783FEBDE8104000210148FEF7DA
:1020F0008EBE0000C0000020012220210148FFF711
:102100001BB8000000000240002220210148FFF718
:1021100013B8000000000240012803D0002803D1BA
:10212000FFF7F2BFFFF7E8BF704700007FB5164822
:10213000002404701548FEF7C9FD1448009401946A
:1021400002940394047680F820404FF08051C162DD
:1021500001254FF0C061C5618162FEF7FAFB08B14D
:10216000FEF71FFA0620CDE90005694602940748EC
:10217000FEF780FA08B1FEF714FA0548FFF7C0FB36
:102180000248FEF71DFD7FBD1000002078000020F2
:10219000D400002010B50748FEF798FD0648FFF769
:1021A000EBFB07489FED050A064980ED000A002079
:1021B000087010BD78000020D4000020000000004E
:1021C0002C0000201000002010B500220123114631
:1021D0000448FEF70BFEBDE8104000210148FEF761
:1021E00047BE0000C0000020FEF7B2BF30B593B07C
:1021F00030216846FEF71CF814210CA8FEF718F8E9
:102200001D480025016841F080510160006800F020
:10221000805011901948016841F4804101600068C4
:10222000022400F4804011900120009000040190ED
:102230008001CDE9064008AA0420A82182E8130005
:102240000B906846FFF70AF908B172B6FEE70CA9D1
:102250000F2081E831004FF4A0500F904FF48050D0
:10226000109005210CA8FFF70FF8002801D072B6D6
:10227000FEE713B030BD000040380240007000405F
:102280000248016841F470010160704788ED00E088
:10229000F0B50268274B284D284E294F294C4FF0A6
:1022A000804C984209D0604507D0A84205D0B04282
:1022B00003D0B84201D0A04204D122F0700E4A6887
:1022C00042EA0E0298421BD0604519D0A84217D0AE
:1022D000B04215D0B84213D0A04211D01A4DA84236
:1022E0000ED01A4DA8420BD0194DA84208D0194D56
:1022F000A84205D0184DA84202D0184DA84203D1DB
:1023000022F44075CA682A434D6922F080022A43AC
:102310008D68C5620D688562984201D0A04201D1E6
:1023200009690163016841F0040101600121416113
:102330000260F0BD000001400004004000080040C1
:10234000000C0040000401400040014000440140F6
:102350000048014000180040001C004000200040E0
:1023600010B5846842EA032224F47F440A432243DE
:10237000826010BD826822F070020A4342F00701B9
:102380008160704710B5036A046A24F00104046296
:10239000846924F0F00444EA021423F00A020A4398
:1023A0008461026210BD10B5036A046A24F010044F
:1023B0000462846923F0A00324F4704444EA0232E6
:1023C00043EA01118261016210BD10B5806B0021EA
:1023D000C185FFF753FB10BD01680C3151E8002F98
:1023E00022F4907241E80023002BF5D101681431EA
:1023F00051E8002F22F0010241E80023002BF5D123
:10240000016B012909D101680C3151E8002F22F03C
:10241000100241E80023002BF5D1202180F8421062
:1024200000210163704708B590F84210222901D0BD
:10243000022008BD82684FF480539A4201D101699D
:1024400021B1816A9A421BD04AB10AE00268816ACE
:102450005268C2F308020A80816A891C08E0026996
:1024600072B10268526802F07F020A70816A491CE8
:102470008162C18D491E0904090CC18503D01BE08E
:1024800002685268F1E70168CA6822F02002CA6057
:102490000168CA6822F48072CA6001684A6922F041
:1024A00001024A61202180F8421000214163026B41
:1024B000012A03D0FFF7A0FC002008BD01630168DA
:1024C0000C3151E8002F22F0100241E80023002BCC
:1024D000F5D101680A68D20602D50A6849680091F8
:1024E000818DFFF7CAFAE7E770B504460068016915
:1024F000E26821F44051114301612169A068E26959
:1025000008436169114308432168CA6849F20C63B2
:102510009A430243CA6020684169A26921F440716C
:102520001143416131492068884202D030498842D4
:1025300002D1FEF753FF01E0FEF740FFE2690023FE
:10254000192164253226B2F5004F626828D0A0FB1D
:102550000101930F9200FDF733FE0146B0FBF5F049
:102560006FF01802504301EB800006EB0010B0FB47
:10257000F5F000F0F002B1FBF5F002EB0012B1FB58
:10258000F5F06FF01803584301EB800006EB0010E4
:10259000B0FBF5F000F00F0021681044886070BDBA
:1025A000A0FB010192185B41FDF70AFE0146B0FB5A
:1025B000F5F00201B1FBF5F06FF01803584301EBA1
:1025C000800006EBC000B0FBF5F000F0F80002EB75
:1025D0004002B1FBF5F0584301EB800006EBC00070
:1025E000B0FBF5F000F00700D6E700000010014056
:1025F0000014014081628285C2850021416422214C
:1026000080F84210016921B10168CA6842F4807201
:10261000CA6001684A6942F001024A610068C16803
:1026200041F02001C160002070472DE9F843984631
:1026300017460D460446089E24E0701C22D0FEF783
:1026400081FDA0EB0800B0421AD8CEB12068C16865
:10265000490717D5802D15D0402D13D00168C943E7
:1026600009070FD401680025406800902046FFF755
:10267000B3FE0820606484F840500120BDE8F88370
:102680000320FBE72068006835EA000004D0002042
:10269000B842D2D00020F1E70120F9E710B50120BF
:1026A000FDF7E8FE4FF4FA70FDF75AFF9FED050ABB
:1026B000FDF7F4FEBDE81040092203490348FFF787
:1026C0008DBB0000000000003C0000201C01002029
:1026D0000148FFF7D5B900001C010020FEE70907FB
:1026E000090E002804DB00F1E02080F80014704798
:1026F00000F00F0000F1E02080F8141D704702E0A8
:1027000008C8121F08C1002AFAD17047704700207C
:1027100001E001C1121F002AFBD1704770B586B0DD
:1027200000252C464FEA0D06FDF758FE26F814004A
:10273000052000F037F8641CE4B20A2CF4D30A2117
:10274000684600F00DF8012036F81010401CC0B2A9
:102750000D440828F8D906B0C5F3CF0070BD0000BD
:10276000F0B500234C1E1AE00027CD1A3A466D1E24
:102770000FE000BF00EB420E30F81260BEF802C05E
:10278000664504D920F812C0AEF802600127521C39
:10279000D2B29542EEDC002F03D05B1CDBB2A34229
:1027A000E2DBF0BD4FF47A714843AFF3008070B5BF
:1027B0004FF0E02400226569A8214843A169A3697C
:1027C0008B42FCD002D2A1EB030102E0A5EB030691
:1027D00031440A4419468242F1D370BD2DED028B7B
:1027E000FEF7BEFCFFF702FDFFF7E4FBFFF74EFC30
:1027F000FFF790FBFFF7C0FBFFF712FC414C20787E
:10280000FFF78AFCFFF74AFFFDF714FF9FED3E8AB2
:10281000DFED3E8A40F2EE2600256078012823D1C4
:102820006570207880B10020207078B1FFF774FCCB
:10283000FFF7B0FCFFF7C8FC9FED350AFDF72EFE51
:10284000A088FDF78DFE0CE00120EDE748B9FFF709
:102850003DFCA088FDF784FE2078FFF75DFCFFF7C4
:1028600065FC2078FDF706FEA07801281ED002281E
:10287000D3D194ED020A30EE480A84ED020AA08812
:102880000A3880B2A080FA2801D8FA20A08080B24D
:1028900000EE100A1F49F8EE400A80EEA80A10EE7A
:1028A000100A84ED020A884227DD1DE094ED020A39
:1028B00030EE080A84ED020AA0880A3080B2A080B7
:1028C000B04200D3A680A088134900EE100AF8EEAB
:1028D000400A80EEA80A10EE100A84ED020A88422F
:1028E00002DBB1EE0E0A0AE0207808B9FFF7EEFB32
:1028F000A088FDF735FEA5708FE7B0EE040A84EDE1
:10290000020AF1E714000020CDCCCC3D0000C84203
:1029100000000000000020400000F0400000000027
:10292000000000000102030406070809000000007F
:1029300001020304A55A05820000A55A058200047D
:10294000A55A0582000D0000A55A0582000D000160
:1029500070290008000000203C000000FE2600084E
:10296000AC2900083C0000202C0500000E270008C0
:102970000100000010000000000000000024F4002E
:102980000000000001000000F40100000000A04071
:1029900000002040000000000000000000000000D7
:0C29A000871609419A99094133334340DE
:040000050800018965
:00000001FF
