:020000040800F2
:10000000781400209D010008932800089B26000812
:100010009128000825090008AD2D00080000000007
:100020000000000000000000000000009728000809
:100030002D0B000800000000952800085129000839
:10004000B7010008B7010008B7010008B7010008B0
:10005000B7010008B7010008B7010008B7010008A0
:10006000B7010008B7010008B7010008B701000890
:10007000B7010008B7010008B7010008B701000880
:100080007D0A0008B7010008B7010008B7010008A1
:10009000B7010008B7010008B7010008B701000860
:1000A000B7010008B7010008B7010008B701000850
:1000B000B7010008B7010008B7010008B701000840
:1000C000B7010008B7010008B7010008B701000830
:1000D000B7010008B7010008B7010008B701000820
:1000E000B7010008B7010008B7010008B701000810
:1000F000B7010008B7010008B7010008B701000800
:10010000B7010008B7010008B7010008B7010008EF
:10011000B7010008B7010008B7010008B7010008DF
:10012000B7010008B7010008B7010008B7010008CF
:10013000B7010008B7010008B7010008B7010008BF
:10014000B7010008B7010008B7010008B7010008AF
:10015000B7010008B7010008B7010008A12D000889
:10016000B7010008B7010008B7010008B70100088F
:10017000B7010008B7010008B7010008000000003F
:10018000B7010008B7010008DFF80CD000F086FACC
:1001900000480047D53700087814002006488047FB
:1001A00006480047FEE7FEE7FEE7FEE7FEE7FEE75C
:1001B000FEE7FEE7FEE7FEE7E929000889010008FF
:1001C0002DE9F05F0546002092469B46884606468C
:1001D000814640241BE0284641464746224600F01F
:1001E000A7F953465A46C01A914110D311461846F2
:1001F000224600F08EF92D1A67EB01084F46224681
:100200000120002100F085F917EB00094E41201E66
:10021000A4F10104DFDC484631462A464346BDE8E6
:10022000F09FD2B201E000F8012B491EFBD27047CB
:100230000022F6E710B513460A4604461946FFF7B2
:10024000F0FF204610BD2DE9FE4F804681EA0300F5
:10025000C00F0C46009021F0004123F00045B8EBA0
:100260000200A94105D24046214690461C460B4655
:10027000024623F00040104347D0270DC7F30A0081
:10028000C3F30A510290401A019040286BDAC3F37D
:10029000130040F4801B0098924620B10023D2EB5B
:1002A000030A63EB0B0B01985946C0F1400250461C
:1002B00000F02FF906460D4650465946019A00F0C7
:1002C00047F910EB08006141002487EA115284EAE3
:1002D000E7731A4340D0009A62B3019A012A4FEAA9
:1002E000075215DC001B61EB02014FF0004202EAED
:1002F0000752CDE90042001C41F5801132462B46E1
:1003000000F07EF903B0BDE8F08F40462146F9E7E2
:10031000001B61EB0201001C41F5801300185B41DA
:100320002018A2F5001747EB030140EAD570B61973
:100330006D4111E06D084FEA360645EAC0754FEA97
:100340000752001B61EB0201001C41F580114908B6
:100350004FEA30000019514132462B4603B0BDE848
:10036000F04F00F03EB90098012240000023D0EB8E
:10037000020263EBE073009821464FEAE074B8EBA9
:10038000000061EB0401E9E783F000435BE781F0E3
:10039000004158E72DE9FE4F81EA030404F00044D0
:1003A00021F0004100944FF0000B23F0004350EA8D
:1003B00001045ED052EA03045BD0C3F30A54C1F3D4
:1003C0000A552C44A4F2F3340194A0FB0254C1F367
:1003D000130141F48011C3F3130343F4801301FBB1
:1003E000024400FB034E840A970A44EA815447EA18
:1003F0008357A4FB076802958D0A05FB07854FEA22
:10040000932C04FB0C542705029D4FEA065847EA3B
:100410001637B5EB08056EEB070C870E920E47EA10
:10042000811742EA8312A7FB0201B6EB0B0164EBD2
:1004300000042B0D43EA0C335E1844EB1C50DA46E3
:100440005146E7FB0201C5F313044FEA0B3343EABD
:1004500014534FEA0432019C43EA0603A4F10C044E
:100460000294009CCDE900B400F0CAF803B0BDE8E6
:10047000F08F00200146F9E70EB5C10F80EAE07069
:100480000844CA07002140F233438DE80E000A46B3
:100490000B4600F0B5F803B000BD0EB540F2334195
:1004A00002910021CDE900110A460B4600F0A8F8A0
:1004B00003B000BD00F0004230F000400AD0C10D92
:1004C00001F56071C0F3160042EA0151C20840070D
:1004D0001143704700200146704701F0004330B4DB
:1004E00021F0004150EA010206D00A0DA2F5607227
:1004F000C1F31301002A02DC30BC00207047440F16
:1005000044EAC104C100E01830BC00EBC25000F066
:1005100031B8202A04DB203A00FA02F100207047AB
:100520009140C2F1200320FA03F319439040704731
:10053000202A04DB203A21FA02F00021704721FA38
:1005400002F3D040C2F1200291400843194670479F
:10055000202A06DBCB17203A41FA02F043EAE07387
:1005600006E041FA02F3D040C2F120029140084374
:10057000194670470029A8BF7047401C490008BFB2
:1005800020F00100704710B4B0FA80FC00FA0CF0C3
:1005900050EA010404BF10BC704749B1CCF12004FB
:1005A00021FA04F411FA0CF118BF01212143084388
:1005B000A3EB0C01CB1D4FEA00614FEA102042BFB4
:1005C000002010BC704700EBC35010440029A4BFAA
:1005D00010BC7047401C490008BF20F0010010BC4F
:1005E000704710B5141E73F1000408DA401C41F185
:1005F000000192185B411A4301D120F0010010BDA7
:100600002DE9F04D92469B4611B1B1FA81F202E01C
:10061000B0FA80F220329046FFF77BFF04460F4687
:1006200040EA0A0041EA0B0153465A46084313D0F8
:10063000114653EA010019D0C8F140025046FFF7B5
:1006400077FF05460E46504659464246FFF761FF82
:10065000084305D0012004E020463946BDE8F08D6E
:100660000020054346EAE0762C4337430A986305A9
:10067000E40AA0EB08000022FD0A44EA47540A30CD
:1006800002D500200146E9E7010510196941DDE9BD
:10069000084500196941BDE8F04DA2E7064C074D39
:1006A00006E0E06840F0010394E807009847103442
:1006B000AC42F6D3FFF76CFD80390008A039000882
:1006C0002DE9F04D81EA030404F0004B21F00045D0
:1006D00014464FF0000A23F0004150EA050220D0F2
:1006E00054EA01021DD0C5F30A570246C5F31303AD
:1006F000C1F31300C1F30A5640F4801543F480138C
:10070000A7EB0608101BD64608F2FD3873EB050070
:1007100002D308F1010801E092185B41B8F1000F23
:1007200003DA00200146BDE8F08D00204FF480116F
:10073000064684460EE0171B73EB050705D3121B14
:1007400063EB050306434CEA010C49084FEA30000D
:1007500092185B4150EA0107EDD152EA030012D032
:1007600082EA040083EA0501084305D0101BAB416F
:1007700006D20122002306E000224FF0004302E0EF
:100780006FF0010253101AEB06004CEB085110EB0E
:100790000A0041EB0B01BDE8F04DFFF722BF70B539
:1007A000C1F30A5201F000450024C1F3130140F2E5
:1007B000FF3341F480119A4201DA002070BD40F20B
:1007C00033439A42A2F2334203DC5242FFF7B0FEB7
:1007D00000E090402C43F1D0404270BD464910B536
:1007E0004A6822F440324A604A6843681A434A60C1
:1007F00001684A6822F480724A6001684A680369A5
:1008000042EA03224A6001684A6822F040724A6064
:1008100001684A6883681A434A6001688A6822F45A
:1008200000628A6001688A68C3681A438A60816AC4
:100830006FF07062D14201688A6822F070628A604B
:1008400001688A680CD0836A1A438A6001688A68E2
:1008500022F040528A6001688A68C36A1A4301E044
:1008600022F040528A6001688A6822F002028A609F
:1008700001688A68037E42EA43028A6090F8201089
:10088000002901684A680FD042F400624A6001689A
:100890004A6822F460424A6001684A68174C436A19
:1008A00004EB43331A4301E022F400624A6001681A
:1008B000CA6A22F47002CA620168CA6A838B104C49
:1008C00004EB03531A43CA6201688A6822F4007277
:1008D0008A6001688A6890F8303042EA43228A6070
:1008E00001688A6822F480628A6001688A684069C7
:1008F00042EA8020886010BD0023014000E0FFFF35
:100900000000F0FF10B5064800F0FAFB0A21044889
:1009100000F0A0FB024800F05BFB80B210BD0000BD
:10092000280F0020FEE7012807D0022807D003285F
:1009300007D0042807D100F017B800F041B800F044
:1009400055B800F027B8704710B5044601F0FAFF1B
:100950002046BDE8104001F0C9BF00000149087001
:10096000704700001000002010B5094C012208213A
:10097000204601F033F800222021204601F02EF815
:1009800020460122BDE81040802101F027B8000078
:100990000004024010B5094C00220821204601F055
:1009A0001DF800222021204601F018F820460022E0
:1009B000BDE81040802101F011B8000000040240A1
:1009C00010B5094C00220821204601F007F800224A
:1009D0002021204601F002F820460122BDE8104007
:1009E000802100F0FBBF00000004024010B5094C5C
:1009F00000220821204600F0F1FF0122202120469C
:100A000000F0ECFF20460022BDE81040802100F0FD
:100A1000E5BF00000004024010B5846B204600F0E2
:100A200017FC0120207110BD10B5846B204600F02A
:100A3000E5FB0120207110BD10B5846B206940F0EA
:100A400004002061204600F005FC0120207110BD4B
:100A500010B5846B206940F004002061204600F04E
:100A6000CFFB0120207110BD10B5806B00F0F1FBB1
:100A700010BD10B5806B00F0C2FB10BD014800F046
:100A800043BD0000840F002001681823CAB2103A49
:100A9000B2FBF3F2054B6FF30901032A9B5CC365BC
:100AA00000D9091D816508467047000040380008DC
:100AB00010B5014600208B698A6A4FF0C07453B1AB
:100AC000B3F5005F15D072B1012A0CD0022A0AD00A
:100AD000032A09D104E01AB1012A06D0022A03D15F
:100AE000C96AC90100D5012010BDC96AA142FAD066
:100AF00010BD002AF7D0012AF2D0022AF3D0032A2F
:100B0000F3D010BD30B50468256825F48025256034
:100B1000046863608368402B036803D099600068B1
:100B2000C26030BD9A600068C16030BD704772B667
:100B3000FEE700002DE9F0412D4E2E4F00252DED52
:100B4000048B4FF4F0789FED289ADFED289A00BFD0
:100B500000EE105AB8EEC00A29EE000A10EE100A94
:100B6000FFF7A8FC41EC100B02F06AF9348870889A
:100B7000641CB0EE408AF0EE608A00EB5400FFF790
:100B80008CFC53EC182BFFF705FC41EC180B6008AC
:100B9000FFF783FC53EC182BFFF755FBFFF79DFC89
:100BA00000EE904A00EE100AF8EE600AB4EEE00A99
:100BB000F1EE10FA03DD00EE104AB8EE400AB5EE91
:100BC000C00AF1EE10FA01D2B0EE690ABCEEC00A1A
:100BD00010EE100A963027F815006D1C4545B7DB5E
:100BE000BDEC048BBDE8F0814F77563C000000005F
:100BF000120000205C0B00202DE9F047DFF8C080D8
:100C0000DFF8C09000242DED048B4FF4F07A9FEDB7
:100C10002A9ADFED2A9A00BF00EE104AB8EEC00A09
:100C200029EE000A10EE100AFFF744FC41EC100B0D
:100C300002F006F9B8F80050B8F802606D1C6F08B1
:100C4000B0EE408AF0EE608A07EB5600FFF725FC15
:100C500053EC182BFFF79EFB41EC180BA7EB56004B
:100C6000FFF70AFC53EC182BFFF7EDFAFFF735FC02
:100C700000EE905A00EE100AF8EE600AB4EEE00AB8
:100C8000F1EE10FA03DD00EE105AB8EE400AB5EEB0
:100C9000C00AF1EE10FA01D2B0EE690ABCEEC00A49
:100CA00010EE100A963029F81400641C5445B3DB8A
:100CB000BDEC048BBDE8F0874F77563C0000000088
:100CC000120000209C0700202DE9F047DFF8C480C7
:100CD000DFF8C49000242DED048B4FF4F07A9FEDE3
:100CE0002B8ADFED2B8A00BF00EE104AB8EEC00A57
:100CF00028EE000A10EE100AFFF7DCFB41EC100BA7
:100D000002F09EF8B8F80050B0EE409A6D1CF0EE7C
:100D1000609A6808FFF7C1FB0F4647EC110B0646C7
:100D200053EC192B51EC110BFFF734FB41EC110B79
:100D300047EC106B53EC112B51EC100BFFF783FABF
:100D4000FFF7CBFB00EE905A00EE100AF8EE600AB7
:100D5000B4EEE00AF1EE10FA03DD00EE105AB8EE40
:100D6000400AB5EEC00AF1EE10FA01D2B0EE680A00
:100D7000BCEEC00A10EE100A963029F81400641C6C
:100D80005445B1DBBDEC048BBDE8F0874F77563C92
:100D900000000000120000201C0000202DE9F04798
:100DA000DFF8CC80DFF8CC9000242DED048B4FF4DD
:100DB000F07A9FED2D8ADFED2D8A00BF00EE104AFC
:100DC000B8EEC00A28EE000A10EE100AFFF772FB18
:100DD00041EC100B02F034F8B8F80050B8F80200FB
:100DE0006D1C6908B0EE409AF0EE609A01EB50007D
:100DF000FFF753FB0F4647EC100B064653EC192B3D
:100E000051EC100BFFF7C6FA41EC100B47EC116BDD
:100E100053EC102B51EC110BFFF715FAFFF75DFBAC
:100E200000EE905A00EE100AF8EE600AB4EEE00A06
:100E3000F1EE10FA03DD00EE105AB8EE400AB5EEFE
:100E4000C00AF1EE10FA01D2B0EE680ABCEEC00A98
:100E500010EE100A963029F81400641C5445ADDBDE
:100E6000BDEC048BBDE8F0874F77563C00000000D6
:100E700012000020DC0300200148007870470000C9
:100E80001000002078B50024009490F83C20012A3E
:100E900019D0012280F83C200A6807230568092A36
:100EA00013D9EE680A3A02EB420293409E43EE6089
:100EB0000B788A680A3B03EB43039A400368DD68BA
:100EC0002A43DA6010E0022078BD2E6902EB42026C
:100ED00093409E432E610B788A6803EB43039A404C
:100EE00003681D692A431A614A681F23072A13D21F
:100EF00005686E6B521E02EB820293409E436E6346
:100F00000B790A885B1E92B203EB83039A40036855
:100F10005D6B2A435A6327E005680D2A12D22E6BB7
:100F2000D21F02EB820293409E432E630B790A8804
:100F3000DB1F92B203EB83039A4003681D6B2A43C5
:100F40001A6311E0EE6A0D3A02EB820293409E436F
:100F5000EE620B790A880D3B92B203EB83039A4051
:100F60000368DD6A2A43DA62164B0568144A9D421B
:100F700006D10D68122D03D1556845F480055560E2
:100F800005689D4218D10B68102B01D0112B13D18D
:100F9000536843F400035360096810290CD10A49CF
:100FA0000A4A0968B1FBF2F101EB8101490000E056
:100FB000491E00910029FBD180F83C40002078BDFB
:100FC00000230140002001400C00002040420F009F
:100FD0000068C06C704770B504004FF0000503D086
:100FE000206C002610B107E0012070BD204600F003
:100FF0001DF8666484F83C60206CC00610D4206C38
:1010000020F4885040F0020020642046FFF7E6FB01
:101010006664206C20F0020040F00100206400E0D3
:10102000012584F83C60284670BD000008B50068C2
:101030000649884208D10648016841F48071016080
:10104000006800F48070009008BD0000002001409E
:10105000443802402DE9F041044600680D4681689D
:101060004FF0000749050BD58068C00508D5206CF6
:1010700040F02000206484F83C700120BDE8F0813D
:1010800000F0B2FC064613E0681C11D025B100F058
:10109000ABFC801BA8420BD920680068800707D4EE
:1010A000206C40F00400206484F83C700320E5E7E5
:1010B000206800688007E7D521686FF0120008609B
:1010C000206C40F4007020642068816811F0405F5B
:1010D00013D1217E89B9C16A11F4700F02D08068E2
:1010E00040050AD4206C20F480702064206CC00479
:1010F00003D4206C40F0010020640020BEE7000013
:1011000018B50021009190F83C20012A07D0012257
:1011100080F83C2002689368DB0702D011E00220CF
:1011200018BD936843F0010393602E4A2E4B12685A
:10113000B2FBF3F202EB420200E0521E0092002AE0
:10114000FBD102689368DB0742D0036C40F2016474
:10115000A34343F48073036453685B0505D5036CB4
:1011600023F4005343F480530364036CDB0404D57D
:10117000436C23F00603436400E0416480F83C10B4
:101180001A496FF02203136049680068CA061849BB
:1011900006D0884224D1816811F0405F13D01FE04F
:1011A0008842F8D0134A904203D1D1F80423D206E2
:1011B000F1D0114A904213D1D1F8041301F01F016C
:1011C0001029E8D30CE0816841F08041816007E09C
:1011D000016C41F010010164416C41F00101416476
:1011E000002018BD0C00002040420F0000230140E9
:1011F000002001400021014000220140704770475B
:10120000704770B500B3F9B14379012B1ED00126A8
:1012100046710223037105682C6802F0100340F642
:10122000FE729A409443D1E900210A439A40224336
:101230002A6001680A68C0249C40A2430A600671C3
:1012400000214171084670BD012070BD022070BDB3
:1012500070477047704770B5040003D020790025AF
:1012600010B105E0012070BD6571204600F008F85E
:1012700002202071256101202071002070BD000036
:1012800070B586B0054614216846FEF7D1FF1F49A8
:101290002868884238D11E480026016841F0005174
:1012A0000160006800F0005005901948103801688E
:1012B00041F0010101600068694600F001000590FD
:1012C000102000900320CDE90106124800F08EFAAC
:1012D000124C114820604FF0606060604020C4E90B
:1012E000020600012061400060618000A0614011A1
:1012F000E0614002C4E90806204600F0D5F908B1D3
:10130000FFF715FCAC60A56306B070BD007400402B
:10131000403802400000024088600240840F0020F4
:101320002DE9F0410400069817460D461BD061795F
:1013300001291BD00126667102212171C5B1E26825
:101340002949D163E26829491164E2682849D164D6
:1013500021680A6842F080520A6040B3226804287B
:1013600028D01C3227E00120BDE8F0810220FBE7F5
:10137000A2682049D163A2681F491164A2681F496D
:10138000D16421680A6842F480520A6020B1226860
:10139000042804D0103203E02268083200E00C3246
:1013A0002068016841F400510160A06809E02268EA
:1013B000143200E018322068016841F000510160E9
:1013C000E068394600F0DAF90021617120B1216945
:1013D00041F004012161C7E721680A6805F01003A4
:1013E0009E4032430A60BFE7290A0008730A0008DA
:1013F000510A0008190A0008690A0008390A000899
:1014000070B504001BD02068036801F010024FF48F
:1014100080559540AB43036020680368012505FAB9
:1014200002F29343036061B1E06800F012F82068B3
:10143000016821F0005101602571002070BD01207C
:1014400070BDA06800F005F82068016821F4005123
:10145000F1E72DE9F0410446876D00F0C5FA064634
:1014600094F835000025022806D08020606584F8B5
:1014700034500120BDE8F0812068016821F0160198
:1014800001602068416921F080014161206C08B948
:10149000A06C20B12068016821F00801016020687B
:1014A000016821F0010101600CE000F09DFA801B51
:1014B000052807D920206065032084F8350084F8CA
:1014C0003450D7E720680068C007EED194F85C106C
:1014D0003F208840B860012084F8350084F83450FB
:1014E0000020C7E790F83510022903D0802141651C
:1014F00001207047052180F835100068016821F04F
:1015000001010160002070472DE9F84304464FF0C7
:101510000009CDF8009063484FF41651A56D00689E
:10152000B0FBF1F72E6894F85C10082000FA01F186
:1015300031420FD021680A6852070BD50A6822F0A1
:1015400004020A6094F85C108840A860606D40F066
:101550000100606594F85C104FF0010808FA01F092
:10156000304208D021684969090604D5A860606D39
:1015700040F00200606594F85C100420884030421E
:1015800008D021680968890704D5A860606D40F01B
:101590000400606594F85C1010208840304218D038
:1015A00021680968090714D5A86020680168490303
:1015B00004D50068000308D5A16C07E00168C905DF
:1015C00003D4016821F008010160216C09B12046B3
:1015D000884794F85C1020208840304231D0216840
:1015E0000968C9062DD5A86094F83500052820683B
:1015F000016806D0490347D5006800031DD4616C1B
:101600001CE021F0160101602068416921F0800191
:101610004161206C08B9A06C20B12068016821F0FC
:101620000801016094F85C103F208840A86084F8AD
:10163000358084F83490216D1FE0E16B09B12046BC
:101640008847606D00282BD0606DC00714D005203E
:1016500084F835002068016821F0010101600098DC
:10166000401C0090B84203D820680068C007F6D13B
:1016700084F8358084F83490E16C002910D001B0F2
:101680002046BDE8F04308470168C905D5D4016884
:1016900021F01001016084F8358084F83490CCE7A3
:1016A000BDE8F8830C0000202DE9F041044600F06D
:1016B0009BF906465CB1022084F83500002584F8C9
:1016C00034502068016821F0010101600DE0012023
:1016D000BDE8F08100F088F9801B052805D920209D
:1016E0006065032084F83500F2E720680068C007D1
:1016F000F0D12268116820480140D4E90103184361
:10170000D4E903363343184363691843A369184384
:10171000E3691843236A18430843616A042903D123
:10172000D4E90B1319430843106020684069666AC6
:1017300020F0070130460E43012704280CD1A06A8F
:101740000643E06A40B12046FFF7B2F920B14020DD
:10175000606584F83570BAE7206846612046FFF777
:1017600093F994F85C203F2191408160656584F88D
:1017700035700020ACE700003F8010F02DE9F0410B
:101780000446866D90F83400002501280DD0012014
:1017900084F8340094F835700020012F07D084F8C5
:1017A000340002252846BDE8F0810220FBE702272D
:1017B00084F8357060652046FFF7A4F994F85C1052
:1017C0003F208840B0602068016841F01601016048
:1017D000206C20B12068016841F008010160206898
:1017E000016841F001010160DCE700002DE9F84FDC
:1017F000DFF8BCA10022012503264FF00F090AF1F2
:10180000040BAAF1040E00BF0B6805FA02F4234092
:10181000A34270D10F7907F00307012F01D0022FE7
:1018200016D187684FEA420806FA08FC27EA0C0737
:10183000D1F80CC00CFA08FC4CEA070CC0F808C040
:101840004768A7430C79C4F3001494403C434460B8
:101850000C79E443A4070AD0C4684FEA420C06FAA4
:101860000CF7BC438F6807FA0CF72743C7600C7965
:1018700004F00304022C12D1D40800EB840CDCF831
:1018800020405707FF0E09FA07F824EA0804D1F8A8
:10189000108008FA07F848EA0408CCF820800468A9
:1018A0004FEA420C06FA0CF7BC430F7907F0030726
:1018B00007FA0CF7274307604C6814F4403F70D0D8
:1018C0003C4C276847F480472760246822F00307D0
:1018D00004F480440094384C07EB040CDCF808480E
:1018E00097074FEA177809FA08F7BC43334FB84215
:1018F00002D1002724E054E0314FB84201D1012742
:101900001EE0304FB84201D1022719E02E4FB842F5
:1019100001D1032714E02D4FB84201D104270FE075
:101920002B4FB84201D105270AE02A4FB84201D116
:10193000062705E0284FB84201D1072700E0082715
:1019400007FA08F72743CCF80878DAF8004057463A
:10195000D1F804C09C435FEACC2C00D51C433C600A
:10196000DBF800405F46D1F804C09C435FEA8C2C52
:1019700000D51C433C60DEF800407746D1F804C037
:101980009C435FEA8C3C00D51C433C60084F083FF9
:101990003C68D1F804C09C435FEACC3C00D51C43B2
:1019A0003C60521C102AFFF42FAFBDE8F88F0000F6
:1019B000083C014044380240003001400000024031
:1019C0000004024000080240000C024000100240E7
:1019D0000014024000180240001C02400AB181615C
:1019E00070470904FBE70000014880687047000069
:1019F000000000200248816802781144816070472D
:101A0000000000200B4810B5016841F4007101602E
:101A1000016841F480610160016841F480710160F6
:101A2000032000F071F8032000F006F800F024F81D
:101A3000002010BD003C024070B50D4D04464FF42F
:101A40007A712878B1FBF0F00A490968B1FBF0F02F
:101A500000F00CFB48B9102C07D200222146501E82
:101A600000F032F800206C6070BD012070BD0000F5
:101A7000000000200C0000200B4882B0016841F4F7
:101A800080410160006800F4804000900648001F1B
:101A9000016841F080510160006800F080500090C2
:101AA000052002B000F030B844380240002809DBBD
:101AB00000F01F02012191404009800000F1E02068
:101AC000C0F8001170470000F0B40E4B1B680C46C4
:101AD000C3F30223C3F10705042D00D90425191D02
:101AE000072901D2002300E0DB1E012606FA05F1DA
:101AF000491E214099409E40761E16403143F0BC5D
:101B000001F08DB90CED00E0064900F0070208680D
:101B10004FF6FF03184040EA0220034A10430860D2
:101B2000704700000CED00E00000FA052DE9F047D9
:101B30000E46050065D0DFF81481D8F80000F7B232
:101B400000F00700B04207D288F80070D8F8000013
:101B500000F00700B04254D128683D4C810712D5EF
:101B6000400703D5206840F4E05020602878000743
:101B700003D5206840F4604020602068A96820F008
:101B8000F000084320602878C0072DD030496868ED
:101B90000839012812D0022813D0032811D009686F
:101BA000890700292DDA216821F003010143216012
:101BB000FFF71AFF814641F2883A0EE0096889036F
:101BC000EFE709688901ECE7FFF70EFFA0EB0901D9
:101BD000514502D90320BDE8F0872068696800F00C
:101BE0000C00B0EB810FEFD1D8F80010404601F0A7
:101BF0000701B14207D90770006800F00700B04242
:101C000001D00120E7E72878400705D52068E9687A
:101C100020F4E050084320602878000706D52068AB
:101C2000296920F4604040EAC100206000F038F8E3
:101C30002168084AC1F30311515CC8400649086095
:101C400006480068FFF7F8FE0020C4E7003C0240A9
:101C500008380240483800080C000020040000202A
:101C60000448054900680968044AC1F38221515CAF
:101C7000C84070470C00002008380240583800085F
:101C80000448054900680968044AC1F34231515CBF
:101C9000C84070470C00002008380240583800083F
:101CA000154810B5006810F00C02144813D041100C
:101CB000042A0FD0082A0ED10F4C241F2268236853
:101CC00002F03F025B0207D52068C0F38810A0FB3A
:101CD000010106E0084610BD2168C1F38811A1FB8F
:101CE00000010023FEF76CFA2168C1F30141491C91
:101CF0004900B0FBF1F010BD083802400024F400A8
:101D00002DE9F84F04006ED02078DFF84C93C0071F
:101D1000A9F104054AD009F104000168C1F3810169
:101D2000012908D00068C0F3810002280AD1D9F83F
:101D30000000400206D52868800337D56068002877
:101D4000E1D033E06068B0F5803F10D0B0F5A02F4F
:101D5000286810D020F480302860286820F4802083
:101D600028606068A8B1FFF73FFE06460DE02868CE
:101D700040F48030F4E740F480202860F7E700BFAB
:101D8000FFF732FE801B642873D828688003F7D5DC
:101D90000CE0FFF729FE064605E000BFFFF724FE32
:101DA000801B6428F0D828688003F7D42078DFF8F7
:101DB000AC8280074FF0000A3ED5A748001D01689D
:101DC00011F00C0F08D00068C0F3810002280BD17D
:101DD000D9F80000400207D42868800716D5E068CB
:101DE000012800D112E033E1E068B8B10120C8F861
:101DF0000000FFF7F9FD064605E000BFFFF7F4FD20
:101E0000801B0228C0D828688007F7D52868216978
:101E100020F0F80040EAC10028600DE0C8F800A0FA
:101E2000FFF7E2FD064604E0FFF7DEFD801B022817
:101E30001FD828688007F7D42078000722D5864F5E
:101E400087486169703771B101210160FFF7CCFDEE
:101E5000064604E0FFF7C8FD801B022809D8386851
:101E60008007F7D50EE0C0F800A0FFF7BDFD0646DD
:101E700005E082E0FFF7B8FD801B02287DD83868B6
:101E80008007F7D42078400768D5DFF8CCB1002769
:101E90000BF13C0BDBF80000C0000BD4DBF80010AA
:101EA00041F08051CBF80010DBF80000012700F072
:101EB000805000906B4E3068C00510D4306840F4FC
:101EC00080703060FFF790FD009005E0FFF78CFD1B
:101ED0000099401A022850D83068C005F6D55E4EE9
:101EE000A0686C3601280FD00528306810D020F08B
:101EF00001003060306820F004003060A068B8B1A4
:101F0000FFF772FD00900FE0306840F00100F4E749
:101F100040F004003060F7E7FFF766FD0099411AD2
:101F200041F28830814266D830688007F4D50EE0EF
:101F3000FFF75AFD009007E0FFF756FD0099411AA0
:101F400041F28830814256D830688007F4D42FB1EE
:101F5000DBF8001021F08051CBF80010A069C8B365
:101F60003D49091D0968C1F3810102294AD00228AF
:101F7000504607D0C8F8600000E03CE0FFF734FDB1
:101F800004463BE04746C8F86000FFF72DFD0646D3
:101F900005E000BFFFF728FD801B02282BD828682A
:101FA0008001F7D4D4E907010843A16A2E4A490801
:101FB00002EB0141626A41EA8211084394F82C1055
:101FC00040EA0161C9F8001001203866FFF70CFDF6
:101FD000044606E03EE000BFFFF706FD001B0228B6
:101FE00009D828688001F7D534E000BFFFF7FCFC72
:101FF000001B022802D90320BDE8F88F2868800161
:10200000F4D427E00128F7D0D9F80000E26900F401
:10201000800191421CD1226A00F03F01914217D108
:1020200047F6C071626A0140B1EB821F10D1A26A0B
:102030004FF0FF3300F4403103EB5202B1EB024F9B
:1020400006D194F82C1000F07060B0EB016F01D055
:102050000120D1E70020CFE70438024000004742CA
:10206000800E4742007000400000FFFF10B5401E88
:10207000B0F1807F01D3012010BD4FF0E0246061FA
:102080000F21601700F0CBFE0020A0610720206127
:10209000002010BD70B590F83C20012A32D00124F8
:1020A00080F83C40022280F83D2003685A689D6811
:1020B00022F070060A6832435A60134B02689A4253
:1020C00014D0B2F1804F11D0104B9A420ED0104B69
:1020D0009A420BD00F4B9A4208D00F4B9A4205D030
:1020E0000E4B9A4202D00E4B9A4204D1496825F019
:1020F00080031943916080F83D40002180F83C1036
:10210000084670BD022070BD000001400004004080
:1021100000080040000C0040000401400040014065
:102120000018004010B5040003D094F83D0010B131
:1021300007E0012010BD002084F83C00204600F09C
:102140001FF8022084F83D00211D206800F054FC97
:10215000012084F8460084F83E0084F83F0084F8AB
:10216000400084F8410084F8420084F8430084F879
:10217000440084F8450084F83D00002010BD0000B4
:1021800008B500680649884208D10648016841F050
:1021900004010160006800F00400009008BD000028
:1021A000000800404038024090F83D10012901D05D
:1021B00001207047022180F83D10006811498842D3
:1021C00014D0B0F1804F11D00F4988420ED00F4982
:1021D00088420BD00E49884208D00E49884205D06B
:1021E0000D49884202D00D49884204D1816801F02E
:1021F0000701062903D0016841F0010101600020B8
:10220000704700000000014000040040000800404A
:10221000000C004000040140004001400018004054
:1022200070B5044690F83C000025012817D001261F
:1022300084F83C60022084F83D002068826822F027
:10224000770222F47F4282600868502838D00DDC83
:1022500020284FD005DC90B3102811D14AE002208D
:1022600070BD302846D040280AD13BE060282FD0EE
:1022700070280DD0B0F5805F03D0B0F5005F12D0AC
:10228000012584F83D60002084F83C00284670BD9C
:10229000CB68D1E90121206800F01AFC2068816830
:1022A00041F0770109E0CB68D1E90121206800F015
:1022B0000FFC2068816841F480418160E1E719E00A
:1022C000CA684968206800F015FC5021206806E0C3
:1022D000CA684968206800F01EFC6021206800F090
:1022E00001FCCEE7CA684968206800F003FC402181
:1022F0002068F4E7226801461046F0E7704770470F
:10230000F8B5016804460868CA684B6910F00F0FF9
:102310004FF000055AD003F0010602F490773743DE
:1023200065D0C10705D0D10503D5616C41F001012D
:102330006164410705D5D90703D0616C41F0020102
:102340006164810705D5D90703D0616C41F00401B0
:102350006164010707D502F02001314303D0616CAD
:1023600041F008016164616C00293BD0800604D50E
:10237000900602D5204600F00FFC20684069616C91
:10238000C0F3801001F00801014320462BD000F07B
:10239000DCFB20684069400621D52068143050E8F5
:1023A000001F21F0400140E80012002AF5D1E06B47
:1023B000A8B16E490165E06BFFF794F8002811D0D1
:1023C000E06B016D01B0BDE8F040084783060ED513
:1023D00093060CD52046BDE8F84000F0DDBB204652
:1023E000FFF78DFFF8BDFFF78AFF6564F8BD266B28
:1023F0002023012E7DD1C6067BD5D60679D5086867
:102400004868009048694FF00206400641D5E16BEC
:10241000086840680004000CE8D0A28D8242E5D92B
:10242000E085C869B0F5807F2DD020680C3050E879
:10243000001F21F4807140E80012002AF5D12168C4
:10244000143151E8000F20F0010041E80002002A99
:10245000F5D12068143050E8001F21F0400140E819
:102460000012002AF5D184F84230256320680C3030
:1024700050E8001F21F0100140E80012002AF5D1B9
:10248000E06BFEF7E6FF6663A08DE18D401A81B236
:102490002AE0A08DE18D401A81B2E08D0028A5D000
:1024A0000029A3D022680C3252E8000F20F490706B
:1024B00042E80007002FF5D12068143050E8002FC3
:1024C00022F0010240E80027002FF5D184F84230C5
:1024D000256320680C3050E8002F22F0100240E8FD
:1024E0000023002BF5D166632046FFF707FFF8BDF8
:1024F000FFE705062BD5150629D594F841002128BC
:10250000F5D1A068B0F5805F01D12069B0B1206A33
:10251000411C2162216800784860E08C401E000464
:10252000000CE084E3D12068C16821F08001C16023
:102530002068C16841F04001C160D8E7206A008886
:10254000C0F308004860206A801C2062E5E740066E
:10255000CDD55006CBD5CA68204622F04002CA60CD
:1025600084F8413000F098F8C1E700003B2B0008E8
:1025700070B5040004D094F84100002510B106E0C5
:10258000012070BD84F84050204600F023F824203C
:1025900084F841002068C16821F40051C1602046E0
:1025A00000F05CFB2068016921F490410161206822
:1025B000416921F02A0141612068C16841F400515C
:1025C000C1606564202084F8410084F8420065639E
:1025D000002070BD10B586B0044614216846FDF792
:1025E00027FE17492068884228D116480021026832
:1025F00042F020020260006800F0200005901148BF
:102600001438026842F004020260006800F004001E
:102610000590C02000900220CDE901010320039025
:102620000820049069460848FFF7E0F801221146A7
:102630004720FFF749FA4720FFF738FA06B010BDE8
:1026400000140140443802400008024090F8423033
:10265000202B01D00220704721B11AB1002303635F
:1026600000F082BB012070470068074988420AD108
:1026700006480121092201700549097A417004497F
:102680000448FFF7E3BF7047001401401600002024
:102690001C0F00202C1000207047FEE77FB500249F
:1026A00015480094019402941249039401604FF478
:1026B0008031C0E901140461047680F820400F499C
:1026C000C0E90A140125C561C46080F83040456145
:1026D000FEF781FC08B1FEF72AFA1120CDE90005CA
:1026E000694602940448FEF7CDFB002801D0FEF7AE
:1026F0001EFA7FBD00200140280F00200100000FBE
:102700001CB500240C4900940A480194086008464E
:10271000FEF7A1FD08B1FEF70AFA2C20CDE900046E
:10272000002269460448FEF76CFD002801D0FEF740
:10273000FEF91CBD00740040700F0020094808B568
:10274000016841F4001101600068002200F40010EB
:10275000009011461020FFF7B7F9BDE8084010209F
:10276000FFF7A4B93038024030B587B0142168466D
:10277000FDF75EFD1C480024016841F00401016082
:10278000016801F004010591016841F080010160D8
:10279000016801F080010591016841F001010160CB
:1027A000016801F001010591016841F00201016039
:1027B00000680E4D00F002000590002228212846F6
:1027C000FFF70CF9012280212846FFF707F90121C4
:1027D000A820CDE90214CDE9000169462846FFF79B
:1027E00005F807B030BD0000303802400004024058
:1027F00010B586B000211748009101910291039114
:102800000491134A0591C0E9002140F20D22C0E96C
:102810000212802484610161FFF784FC08B1FEF795
:1028200086F94FF48050009069460A48FFF7F8FC9B
:1028300008B1FEF77CF92020CDE9040404A905487D
:10284000FFF728FC002801D0FEF771F906B010BD93
:1028500000080040E40F00200C4810B50A49016050
:102860004FF4E1314160002181600C22C160C0E978
:1028700004128161C161FFF77BFE002803D0BDE82F
:102880001040FEF754B910BD001401402C10002078
:10289000FEE7FEE77047704710B500F05FFF0F4995
:1028A0000988DFED0F0A00EE101A0F49B8EE400A52
:1028B00060EE200A00EE100AB8EE401A80EE810A9F
:1028C000B0EE001AC1EE000A9FED060A20EE800A63
:1028D000BCEEC00A10EE100A088010BD2A7AFF1F55
:1028E00033335340000080451200002038B50446C1
:1028F0000E48FFF759FC00214FF4F073012C0CD067
:10290000022C0DD0032C0ED0042C05D1084A0091C6
:1029100000210848FEF704FD38BD074A0091F7E79B
:10292000064A0091F4E7064A0091F1E7E40F00201F
:102930005C0B0020700F00201C000020DC03002036
:102940009C07002000210148FEF75ABD700F0020AF
:10295000FFF750B830B593B030216846FDF768FCFA
:1029600014210CA8FDF764FC1D480025016841F006
:1029700080510160006800F0805011901948016892
:1029800041F4804101600068022400F4804011900D
:1029900001200090000401908001CDE9064008AAC2
:1029A0000420A82182E813000B906846FFF7A8F9DD
:1029B00008B172B6FEE70CA90F2081E831004FF490
:1029C000A0500F904FF48050109005210CA8FFF7F5
:1029D000ADF8002801D072B6FEE713B030BD00009C
:1029E00040380240007000400248016841F4700124
:1029F0000160704788ED00E0F0B50268294C2A4D6F
:102A00002A4E2B4F2B4B4FF0804CA04209D06045F3
:102A100007D0A84205D0B04203D0B84201D09842B6
:102A200004D122F0700E4A6842EA0E02A0421BD086
:102A3000604519D0A84217D0B04215D0B84213D083
:102A4000984211D01C4DA8420ED01C4DA8420BD06C
:102A50001B4DA84208D01B4DA84205D01A4DA842D4
:102A600002D01A4DA84203D122F44075CA682A4305
:102A70004D6922F080022A4302608A68C2620A68B5
:102A80008262A04201D0984201D10969016301210B
:102A900041610169C90703D0016921F001010161A8
:102AA000F0BD0000000001400004004000080040AC
:102AB000000C00400004014000400140004401407F
:102AC0000048014000180040001C00400020004069
:102AD00010B5846842EA032224F47F440A43224367
:102AE000826010BD826822F070020A4342F0070142
:102AF0008160704710B5036A046A24F0010404621F
:102B0000846924F0F00444EA021423F00A020A4320
:102B10008461026210BD10B5036A046A24F01004D7
:102B20000462846923F0A00324F4704444EA02326E
:102B300043EA01118261016210BD10B5806B002172
:102B4000C185C184FFF7DBFB10BD01680C3151E882
:102B5000002F22F4907241E80023002BF5D1016888
:102B6000143151E8002F22F0010241E80023002B2C
:102B7000F5D1016B012909D101680C3151E8002F11
:102B800022F0100241E80023002BF5D1202180F82B
:102B9000421000210163704708B590F842102229C5
:102BA00001D0022008BD82684FF480539A4201D1BF
:102BB000016921B1816A9A421BD04AB10AE00268D8
:102BC000816A5268C2F308020A80816A891C08E09F
:102BD000026972B10268526802F07F020A70816A6B
:102BE000491C8162C18D491E0904090CC18503D0AD
:102BF0001BE002685268F1E70168CA6822F020020F
:102C0000CA600168CA6822F48072CA6001684A69B1
:102C100022F001024A61202180F842100021416324
:102C2000026B012A03D0FFF71FFD002008BD0163DE
:102C300001680C3151E8002F22F0100241E8002316
:102C4000002BF5D101680A68D20602D50A684968E6
:102C50000091818DFFF752FBE7E7000070B5044655
:102C600000680169E26821F4405111430161216962
:102C7000A068E26908436169114308432168CA6892
:102C800049F20C639A430243CA6020684169A26911
:102C900021F440711143416131492068884202D0DA
:102CA0003049884202D1FEF7EBFF01E0FEF7D8FF82
:102CB000E2690023192164253226B2F5004F6268CB
:102CC00028D0A0FB0101930F9200FDF779FA01468D
:102CD000B0FBF5F06FF01802504301EB800006EBFB
:102CE0000010B0FBF5F000F0F002B1FBF5F002EBE4
:102CF0000012B1FBF5F06FF01803584301EB8000B0
:102D000006EB0010B0FBF5F000F00F002168104456
:102D1000886070BDA0FB010192185B41FDF750FA7D
:102D20000146B0FBF5F00201B1FBF5F06FF01803BE
:102D3000584301EB800006EBC000B0FBF5F000F05B
:102D4000F80002EB4002B1FBF5F0584301EB8000C4
:102D500006EBC000B0FBF5F000F00700D6E700007E
:102D6000001001400014014081628285C28500216B
:102D70004164222180F84210016921B10168CA68CA
:102D800042F48072CA6001684A6942F001024A61F5
:102D90000068C16841F02001C16000207047000058
:102DA0000148FFF7ADBA00002C100020FEE710B577
:102DB0000446FEF761F8A0420AD02046FDF7CEFD9A
:102DC0002046FDF7C1FD2046BDE81040FDF7ABBD34
:102DD00010BD10B50A20FFF75FFDFDF775FFFDF789
:102DE000DDFFFDF709FFBDE81040FDF7A3BE03B40A
:102DF00001984100009850EAC12018BF04204A0DF4
:102E000018BF40F0010040F2FF72B2EB515F08BF03
:102E100040F00200012808BF052002B070470907F2
:102E2000090E002804DB00F1E02080F80014704750
:102E300000F00F0000F1E02080F8141D7047000042
:102E400010B52F499FED2C1B2DED020B84B005987A
:102E500020F000408842DCBF00209DED040B32DDF5
:102E60002849884209D1049840B94FF0010000F088
:102E70006FFC00F03DFC06B010BD05DB9DED040BC2
:102E800000F02AFC06B010BD68469DED040B00F072
:102E90003BF810F0030011D0012818D09DED021B63
:102EA0009DED000B02281AD000F04AFA51EC100BED
:102EB00081F0004106B041EC100B10BD9DED021BEE
:102EC0009DED000B012000F06FFB06B010BD9DEDE5
:102ED000021B9DED000B00F033FA06B010BD01207F
:102EE00000F062FB51EC100B81F0004106B041ECA8
:102EF000100B10BD000000000000000000000000EA
:102F0000FB21E93F0000F07F2DE9F14F04462DED54
:102F1000020B2DED088B8AB09FEDE70B80ED020BC5
:102F2000139EE74826F0004585420ADC9DED120B12
:102F3000002084ED000B0AB0BDEC088B03B0BDE8A7
:102F4000F08FE0489FEDE0AB9FEDE1BBA84247DD8D
:102F5000E14F9FEDE39B9FEDE48B9DED120B53EC56
:102F60001A2B51EC100B002E1CDDFDF70DFA41EC75
:102F7000100BBD4208D053EC1B2B51EC100BFDF78E
:102F800003FAC4E900010BE053EC192B51EC100BD0
:102F9000FDF7FAF953EC182BFDF7F6F9C4E9000137
:102FA0000120C8E7FDF74FF941EC100BBD4208D0F6
:102FB00053EC1B2B51EC100BFDF745F9C4E9000154
:102FC0000BE053EC192B51EC100BFDF73CF953ECD3
:102FD000182BFDF738F9C4E900014FF0FF30AAE7DC
:102FE000C348A84279DB9DED120B51EC100B00F0A9
:102FF000E5FB41EC180B9FEDC00B53EC102BFDF7DC
:10300000C9F99FEDBF1B53EC112BFDF71CF9FDF720
:10301000C6FB0746FDF730FA41EC190B53EC1A2BAF
:10302000FDF7B8F953EC182BFDF7B1F941EC180B8B
:1030300053EC1B2B51EC190BFDF7ACF9DFF8C8A2D0
:1030400041EC100B4FEA15580125FA4453EC102BB4
:1030500051EC180BFDF798F9032DC4E900013DD0A0
:10306000C1F30A5005EB4511A8EB0000113981426C
:1030700034DA0AEB051BB0EE48AA9BED000BF0EE2C
:1030800068AA53EC102B51EC190BFDF783F941ECB6
:103090001B0B51EC1A0B53EC1B2BFDF775F941EC94
:1030A000180B51EC1A0B53EC182BFDF76DF953EC80
:1030B0001B2BFDF769F99BED020B41EC1A0B53EC4E
:1030C000102B51EC190BFDF765F953EC1A2BFDF79A
:1030D0005BF941EC100B6D1CB8E70EE0002EA8BFA9
:1030E0003846BFF628AF94ED000B51EC100B81F081
:1030F0000041C4E9000178421DE7C6F3130040F423
:10310000801EC6F30A50A0F2F530471100F01F05EB
:10311000C5F12000DDF848B0089000200690079027
:103120000520EC467949002D07EB0002794408BFE1
:1031300051F8221009D051F8223001EB8201AB4046
:103140004A68089922FA01F11943A1FB0E26A1FB56
:103150000B131A449A4234BF0123002303EB0608E1
:103160000CEB8003D3E901A60E448E4234BF01214B
:10317000002192448A4411B1924502D903E092455C
:1031800001D2012100E00021C3E901A641444CF82D
:103190002010011EA0F10100C4DC029800F10050D3
:1031A000850F0298DDE903678000DDF81480FDF7E4
:1031B00063F941EC1A0B3046FDF76FF99FED541B94
:1031C00053EC112BFDF7E6F841EC1B0B3846FDF7ED
:1031D00064F99FED511B53EC112BFDF7DBF841EC2B
:1031E000180B4046FDF759F99FED4D1B53EC112B81
:1031F000FDF7D0F841EC190B51EC180B53EC192BDF
:10320000FDF721F853EC1B2BFDF71DF853EC1A2B9F
:10321000FDF719F8CDE90801002008909DED080B95
:1032200053EC1A2B51EC100BFDF7AEF853EC1B2BA3
:10323000FDF7AAF853EC182BFDF7A6F853EC192B61
:10324000FDF7A5F89FED381B53EC112BFDF7A2F805
:103250009FED370B41EC180B53EC102B9DED080B39
:1032600051EC100BFDF796F853EC182BFCF7EBFF25
:103270009FED310B41EC180B53EC102B9DED080B1F
:1032800051EC100BFDF786F853EC182BFCF7DBFF25
:1032900041EC100B139810F0004F06D06D4251EC2A
:1032A000100B81F0004141EC100B284684ED000B1F
:1032B00041E60000000000000000000000000000E7
:1032C000FB21E93F7CD9024000004054FB21F93F3B
:1032D0003163621A61B4D03DFB21F93F0000000068
:1032E0000000601A61B4D03D7370032E8A19A33BAD
:1032F000FB2139410000000083C8C96D305FE43F05
:10330000000000000000E03F4208000090070000BD
:10331000000000000000103E000000000000103C13
:10332000000000000000103A182D4454FB21F93D24
:103330003326A611460B113C00000054FB21F93D39
:1033400010B52DED040B2DED088B82B0B0EE419A37
:10335000F0EE619A0B9820F000449FED4BABB4F176
:10336000795F11DA9DED0A0B51EC100BFDF717FA9E
:10337000002801BFB0EE4A0AF0EE6A0A02B0BDECC6
:10338000088B04BF04B010BD9DED0A0B53EC102B4D
:1033900051EC100BFCF7FEFF41EC180B3C480621EA
:1033A000B0EE480AF0EE680A784400F081F853EC79
:1033B000182B51EC100BFCF7EDFF9DED0A0B41ECC7
:1033C0001B0B53EC192B51EC100BFCF7E3FF41ECFA
:1033D000190B53EC1B2B51EC180BFCF7DBFF53ECD8
:1033E000192BFCF7D1FF9FED2C0B41EC190B53EC83
:1033F000102B51EC180BFCF7CDFF41EC100B2848BB
:10340000844210DA53EC192B51EC100BFCF7BCFF83
:1034100053EC1A2BFCF7BBFF41EC100B02B0BDECD8
:10342000088B04B010BD1F48A042BCBF9FED1E1BFF
:103430008DED001B06DBA4F500100190002000902C
:103440009DED001B51EC100B53EC112BFCF79CFF76
:103450009DED000B41EC180B53EC102B51EC1A0BAB
:10346000FCF792FF41EC1A0B53EC192B51EC180BA3
:10347000FCF78AFF53EC1A2BFCF789FF41EC100B89
:10348000CCE7000000000000000000000000F03F5A
:10349000B404000000000000000000000000E03F55
:1034A0003333D33F0000E93F000000000000D23F6B
:1034B00070B504462DED028B4D1E00EBC500B0EE3D
:1034C000408AF0EE608A90ED000B35F0060017D0D0
:1034D00053EC182B51EC100BFCF75CFF41EC100B7C
:1034E0006D1E04EBC50090ED001B51EC100B53EC6E
:1034F000112BFCF7A8FE41EC100B35F00600E7D1CC
:10350000022D36D0042D1CD0062D1CBFBDEC028B25
:1035100070BD53EC182B51EC100BFCF73BFF94EDF6
:103520000A1B53EC112BFCF78EFE53EC182BFCF707
:1035300031FF94ED081B53EC112BFCF784FE41EC9A
:10354000100B53EC182B51EC100BFCF723FF94EDF0
:10355000061B53EC112BFCF776FE53EC182BFCF7F3
:1035600019FF94ED040B53EC102BFCF76CFE41ECAF
:10357000100B53EC182B51EC100BFCF70BFF94EDD8
:10358000021B53EC112BFCF75EFE53EC182BFCF7DF
:1035900001FF94ED001B53EC112BFCF754FEBDEC26
:1035A000028B41EC100B70BD31B504462DED040BC0
:1035B0002DED0A8BB0EE41BAF0EE61BA0B989DED9D
:1035C0000A0B20F00040B0F1795F0DDA51EC100BDE
:1035D000FFF70DFC042808BF00F09AF89DED0A0BD8
:1035E000BDEC0A8B05B030BD53EC102B51EC100B29
:1035F000FCF7D0FE41EC180B9DED0A0B53EC182B99
:1036000051EC100BFCF7C6FE41EC190B2C48B0EE48
:10361000480AF0EE680A05217844FFF749FF9FED5C
:103620002ACBB0EE40AAF0EE60AA9CB353EC1C2B60
:1036300051EC190BFCF7AEFE41EC1C0B53EC1A2BB2
:1036400051EC190BFCF7A6FE9FED210B41EC190B79
:1036500053EC102B51EC1B0BFCF79CFE53EC192B7D
:10366000FCF792FE53EC182BFCF794FE53EC1B2B4B
:10367000FCF78AFE53EC1C2BFCF786FE9DED0A1B23
:1036800053EC112BFCF783FEBDEC0A8B05B041EC2B
:10369000100B30BDFFE753EC1A2B51EC180BFCF765
:1036A00079FE53EC1C2BFCF7CEFD53EC192BFCF7E9
:1036B00071FE9DED0A1B53EC112BFCF7C4FDE3E7F3
:1036C0003C03000000000000495555555555C5BF45
:1036D000000000000000E03F10B553EC102B51EC4F
:1036E000100BFCF7B0FD41EC100B10BD000000000A
:1036F0009FED050B10B553EC102B51EC100BFCF7A4
:10370000DFFF41EC100B10BD0000000000000000C6
:103710009FED050B10B553EC102B51EC100BFCF783
:1037200039FE41EC100B10BD00000000000000103D
:1037300002E008C8121F08C1002AFAD1704770477A
:10374000002001E001C1121F002AFBD170470000D8
:1037500001490860704700001800002070B500257E
:1037600006462C4608E000BFFDF7CCF805440520CE
:1037700000F008F8641CE4B2B442F5D3B5FBF6F0EF
:1037800080B270BD4FF47A714843AFF3008070B5DA
:103790004FF0E02400226569A8214843A169A3698C
:1037A0008B42FCD002D2A1EB030102E0A5EB0306A1
:1037B00031440A4419468242F1D370BD82B0CDE94A
:1037C000000121F0004001909DED000B02B051EC92
:1037D000100B7047FEF716F9FFF7BCF8FEF7C4FFB1
:1037E000FEF7ACFFFEF78CFFFFF702F8FFF734F8A7
:1037F000FEF754FFFFF7EDFA0120FDF7AFF80120C7
:10380000FDF791F80120FDF79FF80948FEF7CCFC81
:10381000092208490848FEF719FF084C00252078BE
:103820000028FCD06078FFF7C2FA2570F7E70000A7
:10383000E40F00201C0F00202C1000201600002098
:103840000006101600061016000000000000000020
:103850000102030406070809000000000102030436
:103860004C5555555555A53F7751C1166CC156BF9E
:103870009015CB19A001FA3EAD529C804F7E92BEAE
:10388000C4B1B4BD9EEE213ED43888BEE9FAA8BDCD
:1038900000004054FB21F93F3163621A61B4D03D0E
:1038A0000000601A61B4D03D7370032E8A19A33BE7
:1038B0000000002E8A19A33BC14920259A837B3939
:1038C00000000000000000006E83F9A22915444E9C
:1038D000D15727FCC0DD34F5999562DB4190433C1C
:1038E000AB6351FE61C5BBDE3A6E24B7E0D24D42F8
:1038F000EA2E49061C92D1091CEB1DFE3EA729B1F8
:10390000F53582E88444BB2E26709CE9417E5FB485
:1039100039D69139F43953838B5F849C3B28F9BDA8
:10392000FF97F81F0F9805DE8B112FEF1F6D0A5AB6
:10393000CF7E366DB709CB27663F464F2DEA5F9E97
:10394000C7BA27757BF1E5EBF739073DEA92528A52
:10395000B15FFB6B085D8D1FA6F810111111813F3F
:10396000D561C119A0012ABF7DFEB157E31DC73E35
:10397000EB9C2B8AE6E55ABE7CD5CF5A3AD9E53D79
:10398000A0390008000000201C00000030370008AB
:10399000BC3900081C0000205C14000040370008FF
:1039A0000100000010000000000000000024F400EE
:0C39B0000100AC0DBC0200000000000093
:040000050800018965
:00000001FF
