:020000040800F2
:10000000080A002029020008BB1E0008271D00085E
:10001000B91E00083B04000881230008000000000E
:10002000000000000000000000000000BF1E0008EB
:100030004106000800000000BD1E0008251F000842
:10004000430200084302000843020008430200087C
:10005000430200084302000843020008430200086C
:10006000430200084302000843020008430200085C
:10007000430200084302000843020008430200084C
:1000800091050008430200084302000843020008EB
:10009000430200084302000843020008430200082C
:1000A000430200084302000843020008430200081C
:1000B000430200084302000843020008430200080C
:1000C00043020008430200084302000843020008FC
:1000D00043020008430200084302000843020008EC
:1000E00043020008430200084302000843020008DC
:1000F00043020008430200084302000843020008CC
:1001000043020008430200084302000843020008BB
:1001100043020008430200084302000843020008AB
:10012000430200084302000843020008430200089B
:10013000430200084302000843020008430200088B
:10014000430200084302000843020008430200087B
:100150004302000843020008430200087523000818
:10016000430200084302000843020008430200085B
:100170004302000843020008430200080000000098
:10018000430200084302000800F002F800F03CF8C7
:100190000AA090E8000C82448344AAF10107DA45E2
:1001A00001D100F031F8AFF2090EBAE80F0013F0F8
:1001B000010F18BFFB1A43F0010318470437000072
:1001C00024370000103A24BF78C878C1FAD8520703
:1001D00024BF30C830C144BF04680C6070470000C1
:1001E0000023002400250026103A28BF78C1FBD840
:1001F000520728BF30C148BF0B6070471FB503F0DE
:10020000B8FA1FBD10B510BD00F0E2F81146FFF7B7
:10021000F5FF02F081FD00F000F903B4FFF7F2FFF3
:1002200003BC00F003F90000094880470948004773
:10023000FEE7FEE7FEE7FEE7FEE7FEE7FEE7FEE796
:10024000FEE7FEE704480549054A064B70470000F3
:10025000BD1F00088901000808040020080A0020CA
:10026000080600200806002053EA020C00F069800E
:100270002DE9F04B4FF00006002B1FBFB3FA83F5BA
:1002800003FA05F424FA05F65E4012BF1643B2FAEB
:1002900082F502FA05F4C5F120051EBF22FA05FC1D
:1002A00044EA0C04203556EA044C4FEA144418BFC3
:1002B000641C4FF000084FF00009904271EB030CF2
:1002C00039D3002919BFB1FA81F701FA07F6B0FA5C
:1002D00080F700FA07F6C7F120071EBF20FA07FCD7
:1002E00046EA0C062037B6FBF4FCA7EB0507103FE7
:1002F00007F01F0BCBF120060CFA0BFB2CFA06F6CD
:1003000044BFB3460026202FA4BF5E464FF0000B2B
:100310005BEA060C08BF4FF0010B19EB0B09ABFBB6
:10032000027C48EB0608C01B06FB02CC0BFB03CC8F
:1003300071EB0C01C1E70B46024641464846BDE859
:10034000F08B13B54FF000004FF00001AFF30080C9
:10035000BDE81C4070474FF0000200B513469446BC
:100360009646203922BFA0E80C50A0E80C50B1F10D
:100370002001BFF4F7AF090728BFA0E80C5048BF21
:100380000CC05DF804EB890028BF40F8042B08BFBF
:10039000704748BF20F8022B11F0804F18BF00F8BB
:1003A000012B704770477047704710B500F008F890
:1003B000006810BD10B5044600F002F8046010BDDE
:1003C00000487047A403002000487047A4030020A1
:1003D0007546FFF7F9FFAE4605006946534620F023
:1003E0000700854618B020B5FFF72CFFBDE8204078
:1003F0004FF000064FF000074FF000084FF0000BE1
:1004000021F00701AC46ACE8C009ACE8C009ACE893
:10041000C009ACE8C0098D46704710B50446AFF37B
:1004200000802046BDE81040FFF7F7BE01491820C4
:10043000ABBEFEE7260002007047FEE7012807D0AA
:10044000022807D0032807D0042807D100F016B8E7
:1004500000F040B800F054B800F026B8704710B56E
:10046000044601F059FD2046BDE8104001F028BDCA
:1004700001490870704700001000002010B5094CB9
:1004800001220821204600F0EFFD00222021204615
:1004900000F0EAFD20460122BDE81040802100F076
:1004A000E3BD00000004024010B5094C0022082101
:1004B000204600F0D9FD00222021204600F0D4FD86
:1004C00020460022BDE81040802100F0CDBD000094
:1004D0000004024010B5094C00220821204600F01B
:1004E000C3FD00222021204600F0BEFD204601224F
:1004F000BDE81040802100F0B7BD000000040240BC
:1005000010B5094C00220821204600F0ADFD012263
:100510002021204600F0A8FD20460022BDE8104022
:10052000802100F0A1BD00000004024010B5846BE2
:10053000204600F0D3F90120207110BD10B5846B66
:10054000204600F0A1F90120207110BD10B5846B88
:10055000206940F004002061204600F0C1F901202C
:10056000207110BD10B5846B206940F0040020613B
:10057000204600F08BF90120207110BD10B5806B72
:1005800000F0ADF910BD10B5806B00F07EF910BD24
:10059000014800F0FFBA0000B402002001681823EF
:1005A000CAB2103AB2FBF3F2054B6FF30901032A0A
:1005B0009B5CC36500D9091D816508467047000032
:1005C0007C37000810B5014600208B698A6A4FF01D
:1005D000C07453B1B3F5005F15D072B1012A0CD0CD
:1005E000022A0AD0032A09D104E01AB1012A06D04E
:1005F000022A03D1C96AC90100D5012010BDC96A08
:10060000A142FAD010BD002AF7D0012AF2D0022A66
:10061000F3D0032AF3D010BD30B50468256825F463
:1006200080252560046863608368402B036803D0DD
:1006300099600068C26030BD9A600068C16030BDDA
:10064000704772B6FEE700002DE9F04100242DED61
:10065000048B40F692109FED1E8ADFED1E8A02F099
:100660000FFE9FED1D9B1E4F8846054640F6AC567B
:1006700000EE104AB8EEC00A60EE080A80EEA80A42
:1006800010EE100A03F004F841EC100B01F0C0FE6C
:1006900048EC115B53EC102B51EC110B02F004FEF3
:1006A00053EC192B02F078FB02F076FD00B2B04259
:1006B00002DB27F8146004E0002800DC002027F8A3
:1006C0001400641C502CD3DBBDEC048BBDE8F0811E
:1006D000DA0FC9400000A0420000000000589B4013
:1006E000F40100202DE9F0474FF42F752DED028B1A
:1006F00040F2D66000249FED228ADFED228A00EBD3
:10070000550002F0BDFD80461F48894600EB5500AC
:10071000404202F09EFD1D4F0E46054600EE104A77
:10072000B8EEC00A60EE080A80EEA80A10EE100AC1
:1007300002F0AEFF41EC100B01F06AFE49EC118BA8
:1007400053EC102B51EC110B02F0AEFD41EC110BF0
:1007500046EC105B53EC112B51EC100B02F01CFB20
:1007600002F01AFD00B2002800DC002027F8140077
:10077000641C502CD2DBBDEC028BBDE8F08700007E
:10078000DA0FC9400000A0422AF9FFFF54010020FF
:1007900070B500242DED028B96269FED0E8ADFEDBD
:1007A0000E8A0E4D00EE104AB8EEC00A60EE080A3E
:1007B00080EEA80A10EE100A02F06AFF41EC100B5E
:1007C00001F026FE25F81460641C502CEADBBDEC19
:1007D000028B70BDDA0FC9400000A0421400002057
:1007E0002DE9F04140F2D6612DED028B4FF42F70D0
:1007F00000249FED1F8ADFED1F8A4E001E4F01EB84
:10080000500002F03DFD88464FEA000500EE104A18
:10081000B8EEC00A60EE080A80EEA80A10EE100AD0
:1008200002F036FF41EC100B01F0F2FD48EC115BD9
:1008300053EC102B51EC110B02F036FD41EC110B77
:1008400048EC105B53EC112B51EC100B02F0A4FAA6
:1008500002F0D2FC80B2B04200D3304627F8140038
:10086000641C502CD2DBBDEC028BBDE8F081000093
:10087000DA0FC9400000A042B4000020014800780F
:10088000704700001000002070477047704770B537
:1008900000B3F9B14379012B1ED001264671022322
:1008A000037105682C6802F0100340F6FE729A404E
:1008B0009443D1E900210A439A4022432A60016807
:1008C0000A68C0249C40A2430A600671002141715D
:1008D000084670BD012070BD022070BD7047704792
:1008E000704770B5040003D02079002510B105E0F1
:1008F000012070BD6571204600F008F802202071CB
:10090000256101202071002070BD000070B586B007
:10091000054614216846FFF71EFD1F4928688842D6
:1009200038D11E480026016841F00051016000687E
:1009300000F00050059019481038016841F001019D
:1009400001600068694600F00100059010200090E9
:100950000320CDE90106124800F08EFA124C11482E
:1009600020604FF0606060604020C4E90206000132
:100970002061400060618000A0614011E0614002A0
:10098000C4E90806204600F0D5F908B1FFF759FE82
:10099000AC60A56306B070BD0074004040380240F2
:1009A0000000024088600240B40200202DE9F041BE
:1009B0000400069817460D461BD0617901291BD00B
:1009C0000126667102212171C5B1E2682949D1630E
:1009D000E26829491164E2682849D16421680A68FB
:1009E00042F080520A6040B32268042828D01C32AA
:1009F00027E00120BDE8F0810220FBE7A268204942
:100A0000D163A2681F491164A2681F49D16421689B
:100A10000A6842F480520A6020B12268042804D097
:100A2000103203E02268083200E00C3220680168CE
:100A300041F400510160A06809E02268143200E02E
:100A400018322068016841F000510160E0683946C1
:100A500000F0DAF90021617120B1216941F004014F
:100A60002161C7E721680A6805F010039E40324300
:100A70000A60BFE73D050008870500086505000816
:100A80002D0500087D0500084D05000870B504001F
:100A90001BD02068036801F010024FF48055954088
:100AA000AB43036020680368012505FA02F2934313
:100AB000036061B1E06800F012F82068016821F07D
:100AC000005101602571002070BD012070BDA0683B
:100AD00000F005F82068016821F40051F1E72DE9E4
:100AE000F0410446876D00F0C5FA064694F83500DB
:100AF0000025022806D08020606584F8345001204B
:100B0000BDE8F0812068016821F0160101602068CD
:100B1000416921F080014161206C08B9A06C20B1CD
:100B20002068016821F0080101602068016821F057
:100B3000010101600CE000F09DFA801B052807D937
:100B400020206065032084F8350084F83450D7E70E
:100B500020680068C007EED194F85C103F20884000
:100B6000B860012084F8350084F834500020C7E7CD
:100B700090F83510022903D080214165012070478B
:100B8000052180F835100068016821F0010101603D
:100B9000002070472DE9F84304464FF00009CDF8D6
:100BA000009063484FF41651A56D0068B0FBF1F753
:100BB0002E6894F85C10082000FA01F131420FD041
:100BC00021680A6852070BD50A6822F004020A60FD
:100BD00094F85C108840A860606D40F0010060658A
:100BE00094F85C104FF0010808FA01F0304208D088
:100BF00021684969090604D5A860606D40F00200CB
:100C0000606594F85C1004208840304208D0216868
:100C10000968890704D5A860606D40F0040060652C
:100C200094F85C1010208840304218D02168096880
:100C3000090714D5A86020680168490304D5006835
:100C4000000308D5A16C07E00168C90503D4016859
:100C500021F008010160216C09B12046884794F811
:100C60005C1020208840304231D021680968C906D4
:100C70002DD5A86094F8350005282068016806D0B5
:100C8000490347D5006800031DD4616C1CE021F0C6
:100C9000160101602068416921F080014161206CEA
:100CA00008B9A06C20B12068016821F0080101603A
:100CB00094F85C103F208840A86084F8358084F860
:100CC0003490216D1FE0E16B09B120468847606DCB
:100CD00000282BD0606DC00714D0052084F83500A3
:100CE0002068016821F0010101600098401C00901B
:100CF000B84203D820680068C007F6D184F8358070
:100D000084F83490E16C002910D001B02046BDE891
:100D1000F04308470168C905D5D4016821F01001E6
:100D2000016084F8358084F83490CCE7BDE8F8831E
:100D30000C0000202DE9F041044600F09BF9064626
:100D40005CB1022084F83500002584F83450206816
:100D5000016821F0010101600DE00120BDE8F08192
:100D600000F088F9801B052805D920206065032044
:100D700084F83500F2E720680068C007F0D12268E7
:100D8000116820480140D4E901031843D4E903362F
:100D90003343184363691843A3691843E36918434D
:100DA000236A18430843616A042903D1D4E90B1369
:100DB00019430843106020684069666A20F0070103
:100DC00030460E43012704280CD1A06A0643E06A8E
:100DD00040B12046FFF7F6FB20B14020606584F863
:100DE0003570BAE7206846612046FFF7D7FB94F8D4
:100DF0005C203F2191408160656584F8357000205A
:100E0000ACE700003F8010F02DE9F0410446866D0C
:100E100090F83400002501280DD0012084F834001A
:100E200094F835700020012F07D084F83400022593
:100E30002846BDE8F0810220FBE7022784F83570E0
:100E400060652046FFF7E8FB94F85C103F2088407F
:100E5000B0602068016841F016010160206C20B18B
:100E60002068016841F0080101602068016841F0D4
:100E700001010160DCE700002DE9F84FDFF8BCA1BB
:100E80000022012503264FF00F090AF1040BAAF1F5
:100E9000040E00BF0B6805FA02F42340A34270D190
:100EA0000F7907F00307012F01D0022F16D18768B1
:100EB0004FEA420806FA08FC27EA0C07D1F80CC0F2
:100EC0000CFA08FC4CEA070CC0F808C04768A743B6
:100ED0000C79C4F3001494403C4344600C79E4431F
:100EE000A4070AD0C4684FEA420C06FA0CF7BC43C8
:100EF0008F6807FA0CF72743C7600C7904F00304E6
:100F0000022C12D1D40800EB840CDCF820405707E7
:100F1000FF0E09FA07F824EA0804D1F8108008FA4D
:100F200007F848EA0408CCF8208004684FEA420C2D
:100F300006FA0CF7BC430F7907F0030707FA0CF722
:100F4000274307604C6814F4403F70D03C4C27683E
:100F500047F480472760246822F0030704F48044A4
:100F60000094384C07EB040CDCF8084897074FEA6C
:100F7000177809FA08F7BC43334FB84202D100276B
:100F800024E054E0314FB84201D101271EE0304F38
:100F9000B84201D1022719E02E4FB84201D10327F0
:100FA00014E02D4FB84201D104270FE02B4FB84277
:100FB00001D105270AE02A4FB84201D1062705E0F2
:100FC000284FB84201D1072700E0082707FA08F7A1
:100FD0002743CCF80878DAF800405746D1F804C027
:100FE0009C435FEACC2C00D51C433C60DBF80040FE
:100FF0005F46D1F804C09C435FEA8C2C00D51C43AB
:101000003C60DEF800407746D1F804C09C435FEABC
:101010008C3C00D51C433C60084F083F3C68D1F82D
:1010200004C09C435FEACC3C00D51C433C60521C8E
:10103000102AFFF42FAFBDE8F88F0000083C0140F4
:1010400044380240003001400000024000040240E9
:1010500000080240000C0240001002400014024050
:1010600000180240001C02400AB181617047090467
:10107000FBE7000001488068704700000000002086
:1010800002488168027811448160704700000020A6
:101090000B4810B5016841F400710160016841F42A
:1010A00080610160016841F480710160032000F0FB
:1010B00071F8032000F006F800F024F8002010BDBD
:1010C000003C024070B50D4D04464FF47A7128780B
:1010D000B1FBF0F00A490968B1FBF0F000F00CFB3D
:1010E00048B9102C07D200222146501E00F032F8D9
:1010F00000206C6070BD012070BD00000000002069
:101100000C0000200B4882B0016841F4804101606E
:10111000006800F4804000900648001F016841F01C
:1011200080510160006800F080500090052002B0FE
:1011300000F030B844380240002809DB00F01F02FC
:10114000012191404009800000F1E020C0F8001129
:1011500070470000F0B40E4B1B680C46C3F302232B
:10116000C3F10705042D00D90425191D072901D253
:10117000002300E0DB1E012606FA05F1491E21408E
:1011800099409E40761E16403143F0BC01F02EB9C6
:101190000CED00E0064900F0070208684FF6FF0377
:1011A000184040EA0220034A1043086070470000DC
:1011B0000CED00E00000FA052DE9F0470E460500B1
:1011C00065D0DFF81481D8F80000F7B200F007000E
:1011D000B04207D288F80070D8F8000000F007008D
:1011E000B04254D128683D4C810712D5400703D541
:1011F000206840F4E05020602878000703D520687C
:1012000040F4604020602068A96820F0F0000843A6
:1012100020602878C0072DD0304968680839012837
:1012200012D0022813D0032811D009688907002999
:101230002DDA216821F0030101432160FFF71AFF35
:10124000814641F2883A0EE009688903EFE70968B0
:101250008901ECE7FFF70EFFA0EB0901514502D928
:101260000320BDE8F0872068696800F00C00B0EB4F
:10127000810FEFD1D8F80010404601F00701B142CC
:1012800007D90770006800F00700B04201D00120C4
:10129000E7E72878400705D52068E96820F4E050A2
:1012A000084320602878000706D52068296920F4C3
:1012B000604040EAC100206000F038F82168084A28
:1012C000C1F30311515CC840064908600648006834
:1012D000FFF7F8FE0020C4E7003C02400838024057
:1012E000843700080C000020040000200448054951
:1012F00000680968044AC1F38221515CC840704704
:101300000C000020083802409437000804480549C2
:1013100000680968044AC1F34231515CC840704713
:101320000C0000200838024094370008154810B51A
:10133000006810F00C02144813D04110042A0FD09A
:10134000082A0ED10F4C241F2268236802F03F02A6
:101350005B0207D52068C0F38810A0FB010106E0FE
:10136000084610BD2168C1F38811A1FB00010023CC
:10137000FEF77AFF2168C1F30141491C4900B0FB27
:10138000F1F010BD083802400024F4002DE9F84FB8
:1013900004006ED02078DFF84C93C007A9F1040553
:1013A0004AD009F104000168C1F38101012908D084
:1013B0000068C0F3810002280AD1D9F80000400279
:1013C00006D52868800337D560680028E1D033E06F
:1013D0006068B0F5803F10D0B0F5A02F286810D01D
:1013E00020F480302860286820F48020286060681D
:1013F000A8B1FFF73FFE06460DE0286840F48030B4
:10140000F4E740F480202860F7E700BFFFF732FEE2
:10141000801B642873D828688003F7D50CE0FFF799
:1014200029FE064605E000BFFFF724FE801B642866
:10143000F0D828688003F7D42078DFF8AC828007E2
:101440004FF0000A3ED5A748001D016811F00C0FAF
:1014500008D00068C0F3810002280BD1D9F8000041
:10146000400207D42868800716D5E068012800D11B
:1014700012E033E1E068B8B10120C8F80000FFF7DE
:10148000F9FD064605E000BFFFF7F4FD801B0228CA
:10149000C0D828688007F7D52868216920F0F800AF
:1014A00040EAC10028600DE0C8F800A0FFF7E2FDA7
:1014B000064604E0FFF7DEFD801B02281FD82868DF
:1014C0008007F7D42078000722D5864F87486169C6
:1014D000703771B101210160FFF7CCFD064604E0D1
:1014E000FFF7C8FD801B022809D838688007F7D5A8
:1014F0000EE0C0F800A0FFF7BDFD064605E082E063
:10150000FFF7B8FD801B02287DD838688007F7D424
:101510002078400768D5DFF8CCB100270BF13C0BF1
:10152000DBF80000C0000BD4DBF8001041F0805164
:10153000CBF80010DBF80000012700F0805000908D
:101540006B4E3068C00510D4306840F48070306055
:10155000FFF790FD009005E0FFF78CFD0099401A21
:10156000022850D83068C005F6D55E4EA0686C36AB
:1015700001280FD00528306810D020F0010030601D
:10158000306820F004003060A068B8B1FFF772FD49
:1015900000900FE0306840F00100F4E740F00400F4
:1015A0003060F7E7FFF766FD0099411A41F2883095
:1015B000814266D830688007F4D50EE0FFF75AFD07
:1015C000009007E0FFF756FD0099411A41F288307C
:1015D000814256D830688007F4D42FB1DBF8001070
:1015E00021F08051CBF80010A069C8B33D49091D16
:1015F0000968C1F3810102294AD00228504607D068
:10160000C8F8600000E03CE0FFF734FD04463BE032
:101610004746C8F86000FFF72DFD064605E000BF0D
:10162000FFF728FD801B02282BD828688001F7D4FB
:10163000D4E907010843A16A2E4A490802EB014197
:10164000626A41EA8211084394F82C1040EA016171
:10165000C9F8001001203866FFF70CFD044606E0CB
:101660003EE000BFFFF706FD001B022809D82868EE
:101670008001F7D534E000BFFFF7FCFC001B022817
:1016800002D90320BDE8F88F28688001F4D427E050
:101690000128F7D0D9F80000E26900F480019142F6
:1016A0001CD1226A00F03F01914217D147F6C07168
:1016B000626A0140B1EB821F10D1A26A4FF0FF3382
:1016C00000F4403103EB5202B1EB024F06D194F823
:1016D0002C1000F07060B0EB016F01D00120D1E759
:1016E0000020CFE70438024000004742800E474206
:1016F000007000400000FFFF10B5401EB0F1807F79
:1017000001D3012010BD4FF0E02460610F2160176C
:1017100000F06CFE0020A06107202061002010BDB9
:1017200070B590F83C20012A32D0012480F83C406A
:10173000022280F83D2003685A689D6822F07006F6
:101740000A6832435A60134B02689A4214D0B2F1CD
:10175000804F11D0104B9A420ED0104B9A420BD0B2
:101760000F4B9A4208D00F4B9A4205D00E4B9A422B
:1017700002D00E4B9A4204D1496825F080031943E8
:10178000916080F83D40002180F83C10084670BD13
:10179000022070BD0000014000040040000800402D
:1017A000000C0040000401400040014000180040CF
:1017B00010B5040003D094F83D0010B107E00120FB
:1017C00010BD002084F83C00204600F01FF80220E5
:1017D00084F83D00211D206800F0F8FB012084F80A
:1017E000460084F83E0084F83F0084F8400084F806
:1017F000410084F8420084F8430084F8440084F8EF
:10180000450084F83D00002010BD000008B50068C8
:101810000649884208D10648016841F00401016088
:10182000006800F00400009008BD000000080040BF
:101830004038024090F83D10012901D00120704746
:10184000022180F83D1000681149884214D0B0F19F
:10185000804F11D00F4988420ED00F4988420BD0DB
:101860000E49884208D00E49884205D00D49884269
:1018700002D00D49884204D1816801F00701062990
:1018800003D0016841F001010160002070470000B1
:10189000000001400004004000080040000C00402F
:1018A00000040140004001400018004070B50446AB
:1018B00090F83C000025012817D0012684F83C60F0
:1018C000022084F83D002068826822F0770222F42A
:1018D0007F4282600868502838D00DDC20284FD025
:1018E00005DC90B3102811D14AE0022070BD3028E9
:1018F00046D040280AD13BE060282FD070280DD078
:10190000B0F5805F03D0B0F5005F12D0012584F8F8
:101910003D60002084F83C00284670BDCB68D1E9CA
:101920000121206800F0BEFB2068816841F077014A
:1019300009E0CB68D1E90121206800F0B3FB206801
:10194000816841F480418160E1E719E0CA68496833
:10195000206800F0B9FB5021206806E0CA68496899
:10196000206800F0C2FB6021206800F0A5FBCEE7F4
:10197000CA684968206800F0A7FB40212068F4E7A6
:10198000226801461046F0E770477047F8B50168D5
:1019900004460868CA684B6910F00F0F4FF0000545
:1019A0005AD003F0010602F49077374365D0C1079F
:1019B00005D0D10503D5616C41F001016164410797
:1019C00005D5D90703D0616C41F00201616481073C
:1019D00005D5D90703D0616C41F0040161640107AA
:1019E00007D502F02001314303D0616C41F00801BA
:1019F0006164616C00293BD0800604D5900602D555
:101A0000204600F0B3FB20684069616CC0F3801091
:101A100001F00801014320462BD000F080FB206834
:101A20004069400621D52068143050E8001F21F09D
:101A3000400140E80012002AF5D1E06BA8B16E49E0
:101A40000165E06BFFF794F8002811D0E06B016DA1
:101A500001B0BDE8F040084783060ED593060CD5CB
:101A60002046BDE8F84000F081BB2046FFF78DFF1F
:101A7000F8BDFFF78AFF6564F8BD266B2023012EB1
:101A80007DD1C6067BD5D60679D508684868009012
:101A900048694FF00206400641D5E16B086840688E
:101AA0000004000CE8D0A28D8242E5D9E085C86927
:101AB000B0F5807F2DD020680C3050E8001F21F455
:101AC000807140E80012002AF5D12168143151E8F4
:101AD000000F20F0010041E80002002AF5D1206843
:101AE000143050E8001F21F0400140E80012002AA5
:101AF000F5D184F84230256320680C3050E8001F8F
:101B000021F0100140E80012002AF5D1E06BFEF749
:101B1000E6FF6663A08DE18D401A81B22AE0A08DB8
:101B2000E18D401A81B2E08D0028A5D00029A3D014
:101B300022680C3252E8000F20F4907042E800074F
:101B4000002FF5D12068143050E8002F22F0010258
:101B500040E80027002FF5D184F842302563206843
:101B60000C3050E8002F22F0100240E80023002B38
:101B7000F5D166632046FFF707FFF8BDFFE70506CE
:101B80002BD5150629D594F841002128F5D1A06858
:101B9000B0F5805F01D12069B0B1206A411C21629B
:101BA000216800784860E08C401E0004000CE0844E
:101BB000E3D12068C16821F08001C1602068C1685C
:101BC00041F04001C160D8E7206A0088C0F30800F6
:101BD0004860206A801C2062E5E74006CDD55006AB
:101BE000CBD5CA68204622F04002CA6084F8413052
:101BF00000F098F8C1E700000F21000870B504005C
:101C000004D094F84100002510B106E0012070BD19
:101C100084F84050204600F023F8242084F8410046
:101C20002068C16821F40051C160204600F000FB2B
:101C30002068016921F4904101612068416921F027
:101C40002A0141612068C16841F40051C1606564A6
:101C5000202084F8410084F842006563002070BDB4
:101C600010B586B0044614216846FEF774FB174988
:101C70002068884228D116480021026842F02002DC
:101C80000260006800F020000590114814380268D6
:101C900042F004020260006800F004000590C020D9
:101CA00000900220CDE90101032003900820049058
:101CB00069460848FFF7E0F8012211464720FFF780
:101CC00049FA4720FFF738FA06B010BD001401406A
:101CD000443802400008024090F84230202B01D0E6
:101CE0000220704721B11AB10023036300F026BB24
:101CF000012070470068074988420AD1064801213F
:101D0000092201700549097A417004490448FFF726
:101D1000E3BF70470014014011000020940200202E
:101D20005C0300207047FEE71CB500240C490094BA
:101D30000A48019408600846FEF7D3FD08B1FEF793
:101D400080FC2C20CDE90004002269460448FEF7FF
:101D50009EFD002801D0FEF774FC1CBD00740040FD
:101D6000A0020020094808B5016841F40011016093
:101D70000068002200F40010009011461020FFF7C8
:101D8000E9F9BDE808401020FFF7D6B93038024025
:101D900030B587B014216846FEF7DDFA1C480024F0
:101DA000016841F004010160016801F0040105913E
:101DB000016841F080010160016801F08001059136
:101DC000016841F001010160016801F00101059124
:101DD000016841F00201016000680E4D00F0020050
:101DE0000590002228212846FFF73EF90122802194
:101DF0002846FFF739F90121A820CDE90214CDE9E1
:101E0000000169462846FFF737F807B030BD0000EB
:101E1000303802400004024010B586B00021174857
:101E200000910191029103910491134A0591C0E937
:101E3000002140F21A42C0E902128024846101614B
:101E4000FFF7B6FC08B1FEF7FCFB4FF480500090A2
:101E500069460A48FFF72AFD08B1FEF7F2FB202089
:101E6000CDE9040404A90548FFF75AFC002801D075
:101E7000FEF7E7FB06B010BD000800401403002089
:101E80000C4810B50A4901604FF4E131416000216E
:101E900081600C22C160C0E904128161C161FFF759
:101EA000ADFE002803D0BDE81040FEF7CABB10BD50
:101EB000001401405C030020FEE7FEE77047704716
:101EC00038B504461048FFF7B5FC0021012C0DD0B1
:101ED000022C0FD0032C12D0042C06D10B4A502315
:101EE000009100210A48FEF761FD38BD5023094AE0
:101EF0000091F6E7074A5023A0320091F1E7034A28
:101F00005023A03A0091ECE714030020F4010020D4
:101F1000A00200201400002000210148FEF7B6BDF9
:101F2000A0020020FFF7ACB830B593B0302168466E
:101F3000FEF711FA14210CA8FEF70DFA1D48002532
:101F4000016841F080510160006800F080501190FC
:101F50001948016841F4804101600068022400F4DE
:101F60008040119001200090000401908001CDE993
:101F7000064008AA0420A82182E813000B906846B6
:101F8000FFF704FA08B172B6FEE70CA90F2081E84A
:101F900031004FF4A0500F904FF480501090052165
:101FA0000CA8FFF709F9002801D072B6FEE713B0BC
:101FB00030BD000040380240007000400248016817
:101FC00041F470010160704788ED00E0F0B50268EF
:101FD000294C2A4D2A4E2B4F2B4B4FF0804CA042C0
:101FE00009D0604507D0A84205D0B04203D0B8421E
:101FF00001D0984204D122F0700E4A6842EA0E02E3
:10200000A0421BD0604519D0A84217D0B04215D0CD
:10201000B84213D0984211D01C4DA8420ED01C4D8E
:10202000A8420BD01B4DA84208D01B4DA84205D09A
:102030001A4DA84202D01A4DA84203D122F440758D
:10204000CA682A434D6922F080022A4302608A68E6
:10205000C2620A688262A04201D0984201D1096935
:102060000163012141610169C90703D0016921F0C0
:1020700001010161F0BD00000000014000040040CA
:1020800000080040000C00400004014000400140F6
:10209000004401400048014000180040001C00407E
:1020A0000020004010B5846842EA032224F47F44F3
:1020B0000A432243826010BD826822F070020A4304
:1020C00042F007018160704710B5036A046A24F08A
:1020D00001040462846924F0F00444EA021423F049
:1020E0000A020A438461026210BD10B5036A046AE1
:1020F00024F010040462846923F0A00324F47044E3
:1021000044EA023243EA01118261016210BD10B556
:10211000806B0021C185C184FFF737FC10BD0168C9
:102120000C3151E8002F22F4907241E80023002B7B
:10213000F5D10168143151E8002F22F0010241E885
:102140000023002BF5D1016B012909D101680C3165
:1021500051E8002F22F0100241E80023002BF5D1B6
:10216000202180F8421000210163704708B590F8E3
:102170004210222901D0022008BD82684FF480530A
:102180009A4201D1016921B1816A9A421BD04AB1B8
:102190000AE00268816A5268C2F308020A80816A12
:1021A000891C08E0026972B10268526802F07F027D
:1021B0000A70816A491C8162C18D491E0904090C9B
:1021C000C18503D01BE002685268F1E70168CA6864
:1021D00022F02002CA600168CA6822F48072CA60D4
:1021E00001684A6922F001024A61202180F8421008
:1021F00000214163026B012A03D0FFF77BFD002021
:1022000008BD016301680C3151E8002F22F0100273
:1022100041E80023002BF5D101680A68D20602D5F7
:102220000A6849680091818DFFF7AEFBE7E700007F
:1022300070B5044600680169E26821F44051114319
:1022400001612169A068E26908436169114308439B
:102250002168CA6849F20C639A430243CA60206845
:102260004169A26921F440711143416131492068FB
:10227000884202D03049884202D1FFF747F801E096
:10228000FFF734F8E2690023192164253226B2F5FC
:10229000004F626828D0A0FB0101930F9200FDF768
:1022A000E3FF0146B0FBF5F06FF01802504301EB7D
:1022B000800006EB0010B0FBF5F000F0F002B1FB7F
:1022C000F5F002EB0012B1FBF5F06FF01803584384
:1022D00001EB800006EB0010B0FBF5F000F00F0002
:1022E00021681044886070BDA0FB010192185B4119
:1022F000FDF7BAFF0146B0FBF5F00201B1FBF5F0C6
:102300006FF01803584301EB800006EBC000B0FBF0
:10231000F5F000F0F80002EB4002B1FBF5F0584395
:1023200001EB800006EBC000B0FBF5F000F0070009
:10233000D6E7000000100140001401408162828550
:10234000C28500214164222180F84210016921B137
:102350000168CA6842F48072CA6001684A6942F042
:1023600001024A610068C16841F02001C16000209B
:10237000704700000148FFF709BB00005C03002024
:10238000FEE710B50446FEF779FAA0420AD02046CF
:10239000FEF76EF82046FEF762F82046BDE81040D2
:1023A000FEF74CB810BD10B5FEF7F2F9FEF718FABB
:1023B000FEF798F9BDE81040FEF746B903B401985E
:1023C0004100009850EAC12018BF04204A0D18BFF0
:1023D00040F0010040F2FF72B2EB515F08BF40F0E5
:1023E0000200012808BF052002B070470907090E46
:1023F000002804DB00F1E02080F80014704700F0B2
:102400000F0000F1E02080F8141D7047000000006C
:1024100010B52F499FED2C1B2DED020B84B00598B4
:1024200020F000408842DCBF00209DED040B32DD2F
:102430002849884209D1049840B94FF00100FDF7BE
:10244000B9FF00F03DFC06B010BD05DB9DED040BAF
:1024500000F02AFC06B010BD68469DED040B00F0AC
:102460003BF810F0030011D0012818D09DED021B9D
:102470009DED000B02281AD000F04AFA51EC100B27
:1024800000F07EFC06B041EC100B10BD9DED021B70
:102490009DED000B012000F06FFB06B010BD9DED1F
:1024A000021B9DED000B00F033FA06B010BD0120B9
:1024B00000F062FB51EC100B00F062FC06B041EC46
:1024C000100B10BD00000000000000000000000024
:1024D000FB21E93F0000F07F2DE9F14F04462DED8F
:1024E000020B2DED088B8AB09FEDE70B80ED020B00
:1024F000139EE74826F0004585420ADC9DED120B4D
:10250000002084ED000B0AB0BDEC088B03B0BDE8E1
:10251000F08FE0489FEDE0AB9FEDE1BBA84247DDC7
:10252000E14F9FEDE39B9FEDE48B9DED120B53EC90
:102530001A2B51EC100B002E1CDD00F0BFFF41ECFC
:10254000100BBD4208D053EC1B2B51EC100B00F0CC
:10255000B5FFC4E900010BE053EC192B51EC100B53
:1025600000F0ACFF53EC182B00F0A8FFC4E9000109
:102570000120C8E700F010FC41EC100BBD4208D070
:1025800053EC1B2B51EC100B00F006FCC4E90001CE
:102590000BE053EC192B51EC100B00F0FDFB53EC4E
:1025A000182B00F0F9FBC4E900014FF0FF30AAE757
:1025B000C348A84279DB9DED120B51EC100B00F0E3
:1025C0009FFB41EC180B9FEDC00B53EC102B00F060
:1025D0006BFE9FEDBF1B53EC112B00F0DDFB00F0F9
:1025E000DBFD074600F035FE41EC190B53EC1A2BCE
:1025F00000F05AFE53EC182B00F054FF41EC180B7E
:1026000053EC1B2B51EC190B00F04EFEDFF8C8A267
:1026100041EC100B4FEA15580125FA4453EC102BEE
:1026200051EC180B00F04AFF032DC4E900013DD026
:10263000C1F30A5005EB4511A8EB000011398142A6
:1026400034DA0AEB051BB0EE48AA9BED000BF0EE66
:1026500068AA53EC102B51EC190B00F025FE41EC4D
:102660001B0B51EC1A0B53EC1B2B00F027FF41EC1A
:10267000180B51EC1A0B53EC182B00F01FFF53EC06
:102680001B2B00F01BFF9BED020B41EC1A0B53ECD4
:10269000102B51EC190B00F007FE53EC1A2B00F035
:1026A0000DFF41EC100B6D1CB8E70EE0002EA8BF2B
:1026B0003846BFF628AF94ED000B51EC100B00F03C
:1026C0005FFBC4E9000178421DE7C6F3130040F444
:1026D000801EC6F30A50A0F2F530471100F01F0526
:1026E000C5F12000DDF848B0089000200690079062
:1026F0000520EC467949002D07EB0002794408BF1C
:1027000051F8221009D051F8223001EB8201AB4080
:102710004A68089922FA01F11943A1FB0E26A1FB90
:102720000B131A449A4234BF0123002303EB06081B
:102730000CEB8003D3E901A60E448E4234BF012185
:10274000002192448A4411B1924502D903E0924596
:1027500001D2012100E00021C3E901A641444CF867
:102760002010011EA0F10100C4DC029800F100500D
:10277000850F0298DDE903678000DDF8148000F022
:1027800068FD41EC1A0B304600F07AFD9FED541BBA
:1027900053EC112B00F088FD41EC1B0B384600F088
:1027A0006FFD9FED511B53EC112B00F07DFD41ECB3
:1027B000180B404600F064FD9FED4D1B53EC112BB0
:1027C00000F072FD41EC190B51EC180B53EC192B76
:1027D00000F0E2FA53EC1B2B00F0DEFA53EC1A2B5C
:1027E00000F0DAFACDE90801002008909DED080B11
:1027F00053EC1A2B51EC100B00F060FE53EC1B2B2A
:1028000000F05CFE53EC182B00F058FE53EC192B33
:1028100000F048FE9FED381B53EC112B00F044FDF7
:102820009FED370B41EC180B53EC102B9DED080B73
:1028300051EC100B00F038FD53EC182B00F0ACFA03
:102840009FED310B41EC180B53EC102B9DED080B59
:1028500051EC100B00F028FD53EC182B00F09CFA03
:1028600041EC100B139810F0004F06D06D4251EC64
:10287000100B00F085FA41EC100B284684ED000B9C
:1028800041E6000000000000000000000000000021
:10289000FB21E93F7CD9024000004054FB21F93F75
:1028A0003163621A61B4D03DFB21F93F00000000A2
:1028B0000000601A61B4D03D7370032E8A19A33BE7
:1028C000FB2139410000000083C8C96D305FE43F3F
:1028D000000000000000E03FB21100000011000005
:1028E000000000000000103E000000000000103C4E
:1028F000000000000000103A182D4454FB21F93D5F
:102900003326A611460B113C00000054FB21F93D73
:1029100010B52DED040B2DED088B82B0B0EE419A71
:10292000F0EE619A0B9820F000449FED4BABB4F1B0
:10293000795F11DA9DED0A0B51EC100B00F02CFCC5
:10294000002801BFB0EE4A0AF0EE6A0A02B0BDEC00
:10295000088B04BF04B010BD9DED0A0B53EC102B87
:1029600051EC100B00F0A0FC41EC180B3C48062188
:10297000B0EE480AF0EE680A784400F081F853ECB3
:10298000182B51EC100B00F08FFC9DED0A0B41EC65
:102990001B0B53EC192B51EC100B00F085FC41EC98
:1029A000190B53EC1B2B51EC180B00F07DFC53EC76
:1029B000192B00F083FD9FED2C0B41EC190B53EC10
:1029C000102B51EC180B00F06FFC41EC100B284859
:1029D000844210DA53EC192B51EC100B00F06EFD11
:1029E00053EC1A2B00F05EFD41EC100B02B0BDEC75
:1029F000088B04B010BD1F48A042BCBF9FED1E1B3A
:102A00008DED001B06DBA4F5001001900020009066
:102A10009DED001B51EC100B53EC112B00F04EFD03
:102A20009DED000B41EC180B53EC102B51EC1A0BE5
:102A300000F044FD41EC1A0B53EC192B51EC180B30
:102A400000F03CFD53EC1A2B00F02CFD41EC100B78
:102A5000CCE7000000000000000000000000F03F94
:102A6000240E000000000000000000000000E03F15
:102A70003333D33F0000E93F000000000000D23FA5
:102A800070B504462DED028B4D1E00EBC500B0EE77
:102A9000408AF0EE608A90ED000B35F0060017D00A
:102AA00053EC182B51EC100B00F0FEFB41EC100B1B
:102AB0006D1E04EBC50090ED001B51EC100B53ECA8
:102AC000112B00F069F941EC100B35F00600E7D14D
:102AD000022D36D0042D1CD0062D1CBFBDEC028B60
:102AE00070BD53EC182B51EC100B00F0DDFB94ED96
:102AF0000A1B53EC112B00F04FF953EC182B00F08C
:102B0000D3FB94ED081B53EC112B00F045F941EC7D
:102B1000100B53EC182B51EC100B00F0C5FB94ED8F
:102B2000061B53EC112B00F037F953EC182B00F077
:102B3000BBFB94ED040B53EC102B00F02DF941EC92
:102B4000100B53EC182B51EC100B00F0ADFB94ED77
:102B5000021B53EC112B00F01FF953EC182B00F063
:102B6000A3FB94ED001B53EC112B00F015F9BDEC09
:102B7000028B41EC100B70BD31B504462DED040BFA
:102B80002DED0A8BB0EE41BAF0EE61BA0B989DEDD7
:102B90000A0B20F00040B0F1795F0DDA51EC100B18
:102BA000FFF70CFC042808BF00F09AF89DED0A0B13
:102BB000BDEC0A8B05B030BD53EC102B51EC100B63
:102BC00000F072FB41EC180B9DED0A0B53EC182B37
:102BD00051EC100B00F068FB41EC190B2C48B0EEE7
:102BE000480AF0EE680A05217844FFF749FF9FED97
:102BF0002ACBB0EE40AAF0EE60AA9CB353EC1C2B9B
:102C000051EC190B00F050FB41EC1C0B53EC1A2B50
:102C100051EC190B00F048FB9FED210B41EC190B17
:102C200053EC102B51EC1B0B00F03EFB53EC192B1B
:102C300000F044FC53EC182B00F036FB53EC1B2B3C
:102C400000F03CFC53EC1C2B00F038FC9DED0A1B03
:102C500053EC112B00F026FCBDEC0A8B05B041ECC7
:102C6000100B30BDFFE753EC1A2B51EC180B00F0A2
:102C70001BFB53EC1C2B00F08FF853EC192B00F0CE
:102C800013FB9DED0A1B53EC112B00F085F8E3E7D5
:102C9000AC0C000000000000495555555555C5BF06
:102CA000000000000000E03F10B553EC102B51EC89
:102CB000100B00F071F841EC100B10BD000000008B
:102CC0009FED050B10B553EC102B51EC100B00F0E1
:102CD0000BF941EC100B10BD0000000000000000DB
:102CE0009FED050B10B553EC102B51EC100B00F0C1
:102CF000DBFA41EC100B10BD0000000000000010DA
:102D000082B0CDE9000121F0004001909DED000B63
:102D100002B051EC100B7047FEF7BAF9FFF704F957
:102D2000FFF736F8FFF71EF8FEF7FEFFFFF774F81F
:102D3000FFF7A6F8FFF737FB0120FDF799FB01200D
:102D4000FDF77CFB0120FDF78AFB0948FEF772FDC9
:102D5000092208490848FEF7BFFF084C00252078E3
:102D60000028FCD06078FFF70CFB2570F7E7000027
:102D700014030020940200205C03002011000020B6
:102D800081F00041704780F00040704721F0004121
:102D9000704720F00040704710B591EA030F48BF1C
:102DA00083F0004300F19283841A71EB030C05D287
:102DB000121943EB0C03001B61EB0C01DFF824E15B
:102DC0004FEA1154A4EB135C1EEA430F18BF9EEAAE
:102DD000445F73D023EA0E03DCF1200E21EA045194
:102DE00043F4801332D322FA0CFE10EB0E0023FAC8
:102DF0000CFE41EB0E01CCF1200E03FA0EFE10EB9F
:102E00000E0051F10001B1F5801FCCF1200E32D23D
:102E100001EB045112FA0EF2BDE8104058BF7047A2
:102E2000401C38BF5FEA420218BF7047002814BF39
:102E300020F0010041F100014FEA410313F5001FAA
:102E400038BF7047A1F1C04100F026BB012A43EB17
:102E50000302ACF1200CDCF11F0E32BF4FF0000E6C
:102E600023FA0CF310EB030041EB0451B4EB115FB8
:102E7000D0D0A1EB045101F5801149085FEA300080
:102E800001EB04510ED350F1000038BF12FA0EFED0
:102E900008D1BDE81040C9E7401C38BF5FEA4202D4
:102EA000CAD1C3E7BDE810404FEA410313F5001F44
:102EB00038BF7047A1F1C04100F0EEBA9EEA445F0E
:102EC00008D011EA5E0FBDE8104004BF01F00041D8
:102ED00000207047BDE8104070B500F08FFA00BFC9
:102EE00064FBBE3E0000E0FF2DE9C04130B4DFF8D6
:102EF000A0C23CEA111418BF3CEA131400F0EC80A5
:102F000081EA03051CEA111444EAD57418BF1CEACF
:102F1000131500F0C780A4EB05044FF0004545EA07
:102F2000C12145EAC32341EA505143EA525304F117
:102F30007F74994204F500344FEAC0204FEAC22260
:102F400008BF904200F09C804FEA13650FF24016D4
:102F5000765D4FEA134506FB05F7C7F1807706FB60
:102F600007F74FEAD737A7FB03687642C8F58038E2
:102F7000A7FB06CE38BFA8F1010807FB08E64FF013
:102F8000000EA6FB028CE6FB03CEDCF1000CCEF1BA
:102F9000004E38BFAEF1010EA6FB0C584FF00007F3
:102FA0004FF00005E6FB0E87A1FB08C6A0FB07CE8D
:102FB00016EB0E0645F10005E1FB076515F1E04E45
:102FC0007EBFA4F580345FEA46066D4116F18007A6
:102FD00045F100054FEA17274FEA066647EA0567FD
:102FE000A6F1DE46B6F1805F4FEA15251FD93846B7
:102FF00024F0010C05EBC471BCF1FE6F01EB0C1168
:1030000002D8F0BCBDE8008124425CBF01F5801EFF
:103010009EEAC47F02D4F0BCBDE80081244238D4CB
:10302000F0BCA1F1C041BDE8004100F035BA4FEA63
:10303000D22242EA43524FEAD323A7FB02864FEA49
:10304000D02040EA415007FB03661EEA0E0F4FEA0C
:10305000D12105FB026658BFA6EB0056B6EB005621
:103060004FEA520E4EEAC37E18EB0E0E56EB530E8D
:10307000BDD518EB02085E417F1C55F10005B6E78F
:103080004FF480154FF000074FF000064FF0000896
:10309000ADE7F0BC4FF0000001F1C04101F000418C
:1030A000BDE8008111EA0C1F0CEA131500D00CE0FA
:1030B00013EA0C1F00F025804FF00000F0BC81EAFD
:1030C000030101F00041BDE80081F0BCBDE8004112
:1030D00081EA030100F0E0B9F0BCBDE8004170B541
:1030E00000F08CF9097EFC3E00F007B881EA03018C
:1030F0004FF0000001F00041704781EA030100F049
:10310000CBB9F0BCBDE800414FF000002149704749
:10311000FFFDFBF9F7F5F4F2F0EEEDEBE9E8E6E49C
:10312000E3E1E0DEDDDBDAD8D7D5D4D3D1D0CFCD23
:10313000CCCBCAC8C7C6C5C4C2C1C0BFBEBDBCBB5C
:10314000BAB9B8B7B6B5B4B3B2B1B0AFAEADACAB57
:10315000AAA9A8A8A7A6A5A4A3A3A2A1A09F9F9E31
:103160009D9C9C9B9A9999989797969595949393E3
:10317000929191908F8F8E8E8D8C8C8B8B8A89897A
:1031800088888787868585848483838282818180FD
:103190000000FF070000F87F4FEA41034FEA535356
:1031A000A3F58063D3F11E03C8BFD3F1210C0CDD5E
:1031B0004FF0004242EAC12242EA505232FA03FC86
:1031C0008CEAE17CACEBE1707047102BC4BF0020AF
:1031D000704703F5787CBCF1FF3F04D06FF00042EC
:1031E00082EA2100704770B500F008F94992248006
:1031F00000207047F2E700004FEA1153A3F5806307
:10320000D3F11E03A8BFD3F1200C08DB4FF000421E
:1032100042EAC12252EA505232FA03F070470942A0
:103220000BD4102BC4BF0020704703F5787CBCF191
:10323000FF3F05D04FF0FF3070474FF00000704760
:1032400070B500F0DBF800BF499224800020704781
:10325000F0E710F0004248BF4042B0FA80F310FAA5
:1032600003F10AD0C3F11D0303F580634FEA415017
:1032700002EB035202EBD12170474FF00000704780
:10328000B0FA80F310FA03F10AD0C3F11D0303F57D
:1032900080634FEA41504FEA035202EBD12170475D
:1032A0004FF0000070470000DFF848C170B51CEA1D
:1032B000111E1EBF1CEA13159EEA0C0F95EA0C0F97
:1032C00000F06F8081EA030423EA4C134EEAD47EB7
:1032D00021EA4C1141F4801143F48013AE44A1FB68
:1032E000024CA0FB0365AEF17F7E361955EB0C0551
:1032F000A1FB034C4CF10003A0FB021C16EB0C06D7
:10330000654153F10003094218BF46F0010613F46A
:10331000007F0BD14FEA03314FEA0530340341EA15
:10332000155140EA16506FF003020AE04FEAC3213C
:103330004FEAC520F40241EA555140EA56506FF079
:10334000020202EB2E4201EB025585EACE710AD051
:103350005FEA440C18BF24F0004450F1000041F132
:10336000000120EAD47040F2FE7C624500D270BDBC
:10337000A84214BF4FF080444FF04044002E08BFD5
:103380000024BEF1806FA8BFA1F1C041BDE870402C
:1033900080F282804FF0000001F1C04101F0004155
:1033A00070479EEA0C0F0CEA131518BF95EA0C0F34
:1033B00006D04FF0000081EA030E0EF0004170BD10
:1033C00000F01CF88900013E00F007B800F009B8D1
:1033D0004FEA430C5FEA5C5C08D081EA030100F02D
:1033E0005BB84FEA410C5FEA5C5CF6D14FF000003D
:1033F000014970470000FF070000F87F0EF1020E40
:103400002EF0030E5EF8046B364205D4012A43EB1E
:10341000030515F5001F12D8012841EB010C1CF51E
:10342000001F0CD80ED14FEAD17C15F5001F0CEB14
:103430004C0C0CF1020C08BF4CEBD37C04E04FF0B9
:10344000080C01E04FEAD37C0CEB4C0526FA05F69C
:1034500006F00706B6F1040C06D20EEB860CBDE8AA
:1034600070404CF0010C6047DFE80CF0090B0202E1
:103470004FF000414FF00000A1F5002170BD19464A
:103480001046012851EB010418BFD4F5001484BF85
:10349000002001F0004170BD0808A0F500114FEABE
:1034A0003101704791EA030F10B581F000413FF5FB
:1034B0007BAC83F0004300F009B8000010B591EA3E
:1034C000030F48BF83F000433FF56EAC841A71EBE5
:1034D000030C07D212198CF0004C43EB0C03001BB9
:1034E00061EB0C01DFF8A4E14FEA1154A4EB135C8B
:1034F0001EEA430F18BF9EEA445F00F0B08023EA43
:103500006E03524221EA0451C3EB6E0338BF5B1EC7
:10351000DCF1200E25D322FA0CFE10EB0E0043FA4C
:103520000CFE41EB0E01CCF1200E03FA0EFE10EB67
:103530000E0051F10001CCF1200E29D412FA0EF246
:1035400001EB0451BDE8104058BF7047401C1CBF40
:10355000B2F1004F704700280CBF491C20F0010059
:10356000704712EB020E43EB030218BF4FF0010E3F
:103570004EEA4202ACF1200CDCF11E0E54D943FAA3
:103580000CFE10EB0E0051F1FF31CCF11E0ED5D523
:103590000EF1010E12FA0EFE404141EB010101EB6A
:1035A000445C5FEA5C5C10D910EBDE7001EB045107
:1035B00038BFBEF1004FBDE8104018BF704700286B
:1035C0000CBF491C20F00100704730D24FEAD42CC8
:1035D00011F5001124F400641BD0B1FA81F20B3A0A
:1035E000A41AA41ED2F12003914030FA03F3194328
:1035F000904001EBCC71002C01EB0451BDE8104070
:10360000A8BF704701F1C0414FF0000001F0004138
:103610007047B0FA80F310FA03F100D110BDE41A3C
:10362000173C4805C90AE4E701EB045110BD4910F5
:1036300001EB0451BDE810404FEA300002E04FF0CA
:10364000000170474A0008BF0042F8D0B2F5001FE1
:1036500028BF704701F000414FF0000070479EEA1C
:10366000445F07D011EA5E0FBDE8104004BF00219F
:1036700000207047BDE8104070B5FFF7BFFE00BFE7
:1036800040DFF63E83F00041104670470000E0FF47
:1036900043004FEAD30C4FEA3C0C43401FBF4007A6
:1036A0000CF1605113F0FE4F70471CF0006F03D116
:1036B00000200CF0004170470CF0004343EA5070CA
:1036C00010B540EACC0000F00EF800BF00000092F8
:1036D0004FEA0001FFF7E0BE4FF000414FF000005D
:1036E000A1F5002170470EF1020E2EF0030E5EF8D8
:1036F000044B244204D44FEA4102B2F17F4F11D867
:103700004FEA4003B3F17F4F0CD80ED14FEAD07C83
:10371000B2F17F4F0CEB4C0C0CF1020C08BF4CEBE0
:10372000D17C04E04FF0080C01E04FEAD17C0CEBB7
:103730004C0324FA03F404F00704B4F1040C06D299
:103740000EEB840CBDE810404CF0010C6047DFE844
:103750000CF0070802024FF00040A0F5800010BDF9
:103760000846420018BFD2F1807288BF00F00040C6
:1037700010BD4FF04070E1EE100A704700061016C1
:103780000006101600000000000000000102030403
:103790000607080900000000010203040000000001
:1037A0004C5555555555A53F7751C1166CC156BF5F
:1037B0009015CB19A001FA3EAD529C804F7E92BE6F
:1037C000C4B1B4BD9EEE213ED43888BEE9FAA8BD8E
:1037D00000004054FB21F93F3163621A61B4D03DCF
:1037E0000000601A61B4D03D7370032E8A19A33BA8
:1037F0000000002E8A19A33BC14920259A837B39FA
:1038000000000000000000006E83F9A22915444E5C
:10381000D15727FCC0DD34F5999562DB4190433CDC
:10382000AB6351FE61C5BBDE3A6E24B7E0D24D42B8
:10383000EA2E49061C92D1091CEB1DFE3EA729B1B8
:10384000F53582E88444BB2E26709CE9417E5FB446
:1038500039D69139F43953838B5F849C3B28F9BD69
:10386000FF97F81F0F9805DE8B112FEF1F6D0A5A77
:10387000CF7E366DB709CB27663F464F2DEA5F9E58
:10388000C7BA27757BF1E5EBF739073DEA92528A13
:10389000B15FFB6B085D8D1FA6F810111111813F00
:1038A000D561C119A0012ABF7DFEB157E31DC73EF6
:1038B000EB9C2B8AE6E55ABE7CD5CF5A3AD9E53D3A
:1038C000E03800080000002014000000C4010008D7
:1038D000F438000814000020F4090000E00100089A
:1038E0000100000010000000000000000024F400AF
:0438F00001000000D3
:040000050800018965
:00000001FF
